{
    "contractName": "Recycler",
    "abi": [
        {
            "constant": false,
            "inputs": [
                {
                    "name": "_amount",
                    "type": "uint256"
                }
            ],
            "name": "transfer",
            "outputs": [],
            "payable": false,
            "stateMutability": "nonpayable",
            "type": "function"
        },
        {
            "constant": true,
            "inputs": [],
            "name": "getGlobalBalance",
            "outputs": [
                {
                    "name": "",
                    "type": "uint256"
                }
            ],
            "payable": false,
            "stateMutability": "view",
            "type": "function"
        },
        {
            "constant": false,
            "inputs": [
                {
                    "name": "_myid",
                    "type": "bytes32"
                },
                {
                    "name": "_result",
                    "type": "string"
                }
            ],
            "name": "__callback",
            "outputs": [],
            "payable": false,
            "stateMutability": "nonpayable",
            "type": "function"
        },
        {
            "constant": false,
            "inputs": [
                {
                    "name": "_myid",
                    "type": "bytes32"
                },
                {
                    "name": "_result",
                    "type": "string"
                },
                {
                    "name": "_proof",
                    "type": "bytes"
                }
            ],
            "name": "__callback",
            "outputs": [],
            "payable": false,
            "stateMutability": "nonpayable",
            "type": "function"
        },
        {
            "constant": false,
            "inputs": [],
            "name": "unpause",
            "outputs": [],
            "payable": false,
            "stateMutability": "nonpayable",
            "type": "function"
        },
        {
            "constant": true,
            "inputs": [
                {
                    "name": "_ind",
                    "type": "uint256"
                }
            ],
            "name": "getPendTx1",
            "outputs": [
                {
                    "name": "",
                    "type": "bytes32"
                }
            ],
            "payable": false,
            "stateMutability": "view",
            "type": "function"
        },
        {
            "constant": false,
            "inputs": [],
            "name": "kill",
            "outputs": [],
            "payable": true,
            "stateMutability": "payable",
            "type": "function"
        },
        {
            "constant": false,
            "inputs": [
                {
                    "name": "_addr",
                    "type": "address"
                }
            ],
            "name": "deleteUser",
            "outputs": [],
            "payable": false,
            "stateMutability": "nonpayable",
            "type": "function"
        },
        {
            "constant": true,
            "inputs": [],
            "name": "paused",
            "outputs": [
                {
                    "name": "",
                    "type": "bool"
                }
            ],
            "payable": false,
            "stateMutability": "view",
            "type": "function"
        },
        {
            "constant": true,
            "inputs": [],
            "name": "getContractBalance",
            "outputs": [
                {
                    "name": "",
                    "type": "uint256"
                }
            ],
            "payable": false,
            "stateMutability": "view",
            "type": "function"
        },
        {
            "constant": false,
            "inputs": [
                {
                    "name": "_amount",
                    "type": "uint256"
                }
            ],
            "name": "withdrawal",
            "outputs": [
                {
                    "name": "",
                    "type": "uint256"
                }
            ],
            "payable": false,
            "stateMutability": "nonpayable",
            "type": "function"
        },
        {
            "constant": false,
            "inputs": [],
            "name": "pause",
            "outputs": [],
            "payable": false,
            "stateMutability": "nonpayable",
            "type": "function"
        },
        {
            "constant": true,
            "inputs": [],
            "name": "owner",
            "outputs": [
                {
                    "name": "",
                    "type": "address"
                }
            ],
            "payable": false,
            "stateMutability": "view",
            "type": "function"
        },
        {
            "constant": true,
            "inputs": [
                {
                    "name": "_addr",
                    "type": "address"
                }
            ],
            "name": "getMovementCount",
            "outputs": [
                {
                    "name": "",
                    "type": "uint32"
                }
            ],
            "payable": false,
            "stateMutability": "view",
            "type": "function"
        },
        {
            "constant": false,
            "inputs": [
                {
                    "name": "_fee",
                    "type": "string"
                }
            ],
            "name": "fetchPrice",
            "outputs": [],
            "payable": true,
            "stateMutability": "payable",
            "type": "function"
        },
        {
            "constant": false,
            "inputs": [
                {
                    "name": "prodCode",
                    "type": "string"
                },
                {
                    "name": "prodFee",
                    "type": "string"
                },
                {
                    "name": "prodQty",
                    "type": "uint32"
                },
                {
                    "name": "prodUni",
                    "type": "string"
                }
            ],
            "name": "sendCoin",
            "outputs": [],
            "payable": false,
            "stateMutability": "nonpayable",
            "type": "function"
        },
        {
            "constant": true,
            "inputs": [],
            "name": "getUserCount",
            "outputs": [
                {
                    "name": "",
                    "type": "uint32"
                }
            ],
            "payable": false,
            "stateMutability": "view",
            "type": "function"
        },
        {
            "constant": false,
            "inputs": [
                {
                    "name": "_message",
                    "type": "string"
                }
            ],
            "name": "setFunds",
            "outputs": [
                {
                    "name": "",
                    "type": "string"
                }
            ],
            "payable": true,
            "stateMutability": "payable",
            "type": "function"
        },
        {
            "constant": true,
            "inputs": [
                {
                    "name": "_ind",
                    "type": "uint32"
                }
            ],
            "name": "getUser",
            "outputs": [
                {
                    "name": "",
                    "type": "address"
                }
            ],
            "payable": false,
            "stateMutability": "view",
            "type": "function"
        },
        {
            "constant": true,
            "inputs": [
                {
                    "name": "_addr",
                    "type": "address"
                },
                {
                    "name": "_ind",
                    "type": "uint256"
                }
            ],
            "name": "getMovement",
            "outputs": [
                {
                    "name": "",
                    "type": "string"
                },
                {
                    "name": "",
                    "type": "string"
                },
                {
                    "name": "",
                    "type": "uint32"
                },
                {
                    "name": "",
                    "type": "string"
                },
                {
                    "name": "",
                    "type": "uint256"
                },
                {
                    "name": "",
                    "type": "uint256"
                }
            ],
            "payable": false,
            "stateMutability": "view",
            "type": "function"
        },
        {
            "constant": false,
            "inputs": [
                {
                    "name": "newOwner",
                    "type": "address"
                }
            ],
            "name": "transferOwnership",
            "outputs": [],
            "payable": false,
            "stateMutability": "nonpayable",
            "type": "function"
        },
        {
            "constant": true,
            "inputs": [
                {
                    "name": "_addr",
                    "type": "address"
                }
            ],
            "name": "getBalance",
            "outputs": [
                {
                    "name": "",
                    "type": "uint256"
                }
            ],
            "payable": false,
            "stateMutability": "view",
            "type": "function"
        },
        {
            "inputs": [],
            "payable": true,
            "stateMutability": "payable",
            "type": "constructor"
        },
        {
            "payable": true,
            "stateMutability": "payable",
            "type": "fallback"
        },
        {
            "anonymous": false,
            "inputs": [
                {
                    "indexed": true,
                    "name": "_sender",
                    "type": "address"
                },
                {
                    "indexed": true,
                    "name": "_factory",
                    "type": "address"
                },
                {
                    "indexed": false,
                    "name": "_seq",
                    "type": "uint32"
                }
            ],
            "name": "newUser",
            "type": "event"
        },
        {
            "anonymous": false,
            "inputs": [
                {
                    "indexed": true,
                    "name": "_sender",
                    "type": "address"
                },
                {
                    "indexed": false,
                    "name": "_balance",
                    "type": "uint256"
                }
            ],
            "name": "newBalance",
            "type": "event"
        },
        {
            "anonymous": false,
            "inputs": [
                {
                    "indexed": true,
                    "name": "_sender",
                    "type": "address"
                },
                {
                    "indexed": false,
                    "name": "_code",
                    "type": "string"
                },
                {
                    "indexed": false,
                    "name": "_fee",
                    "type": "string"
                },
                {
                    "indexed": false,
                    "name": "_qty",
                    "type": "uint256"
                },
                {
                    "indexed": false,
                    "name": "_uni",
                    "type": "string"
                },
                {
                    "indexed": false,
                    "name": "_amount",
                    "type": "uint256"
                },
                {
                    "indexed": false,
                    "name": "_price",
                    "type": "uint256"
                }
            ],
            "name": "coinSent",
            "type": "event"
        },
        {
            "anonymous": false,
            "inputs": [
                {
                    "indexed": false,
                    "name": "_result",
                    "type": "string"
                }
            ],
            "name": "LogPriceUpdated",
            "type": "event"
        },
        {
            "anonymous": false,
            "inputs": [
                {
                    "indexed": false,
                    "name": "description",
                    "type": "string"
                }
            ],
            "name": "LogNewProvableQuery",
            "type": "event"
        },
        {
            "anonymous": false,
            "inputs": [],
            "name": "Paused",
            "type": "event"
        },
        {
            "anonymous": false,
            "inputs": [],
            "name": "Unpaused",
            "type": "event"
        },
        {
            "anonymous": false,
            "inputs": [
                {
                    "indexed": true,
                    "name": "previousOwner",
                    "type": "address"
                },
                {
                    "indexed": true,
                    "name": "newOwner",
                    "type": "address"
                }
            ],
            "name": "OwnershipTransferred",
            "type": "event"
        }
    ],
    "bytecode": "60806040526005805460ff60a01b196001600160a01b03199091163317169055620000326001600160e01b036200004f16565b62000049336127106001600160e01b036200024416565b62000402565b336000908152600f6020526040902060010154158015620000865750336000908152600f602052604090206002015463ffffffff16155b156200024257336040516200009b90620003f4565b6001600160a01b03909116815260405190819003602001906000f080158015620000c9573d6000803e3d6000fd5b50336000908152600f6020908152604082206002810180544260018085019190915563ffffffff196001600160a01b03979097166801000000000000000002600160401b600160e01b031990921691909117959095169055919091556005546200015d92750100000000000000000000000000000000000000000090910463ffffffff169162002c82620002fa821b17901c565b6005805463ffffffff928316750100000000000000000000000000000000000000000090810263ffffffff60a81b1990921691909117808355336000818152600f602081815260408084206002018054640100000000978990048b16880263ffffffff60201b1990911617815597549690960488168352600e815285832080546001600160a01b031916851790559183905281529354835192810490951682529151680100000000000000009094046001600160a01b03169391927f2400353ee3cbddbecd51b36528703d6a9a1f15a73ef12fa52c45ebfbf5eb0e1092918290030190a35b565b6001600160a01b0382166000908152600f602090815260409091205462000276918390620034ab6200037f821b17901c565b6001600160a01b0383166000908152600f6020908152604090912091909155600654620002ae918390620034ab6200037f821b17901c565b600655336000818152600f602090815260409182902054825190815291517f4abaca7060438a179d5f20d945b01077a6df8b016150a897abd09d3fdebcf1099281900390910190a25050565b600082820163ffffffff80851690821610156200037857604080517f08c379a000000000000000000000000000000000000000000000000000000000815260206004820152601b60248201527f536166654d6174683a206164646974696f6e206f766572666c6f770000000000604482015290519081900360640190fd5b9392505050565b6000828201838110156200037857604080517f08c379a000000000000000000000000000000000000000000000000000000000815260206004820152601b60248201527f536166654d6174683a206164646974696f6e206f766572666c6f770000000000604482015290519081900360640190fd5b610d5c8062004ab783390190565b6146a580620004126000396000f3fe6080604052600436106101355760003560e01c80638456cb59116100ab578063b5cb15f71161006f578063b5cb15f71461079f578063cf222b59146107b4578063db6f1e74146108cd578063f2a4f43c146108fd578063f2fde38b14610a9b578063f8b2cb4f14610ace57610135565b80638456cb59146104a05780638da5cb5b146104b557806391178cf5146104e65780639782dd2a14610532578063ab8e3a0e146105d657610135565b806341b3bdfd116100fd57806341b3bdfd146103d357806341c0e1b5146103fd5780635c60f226146104055780635c975abb146104385780636f9fb98a14610461578063835fc6ca1461047657610135565b806312514bba1461017657806323d468e2146101a257806327dc297e146101c957806338bbfa50146102815780633f4ba83a146103be575b6040805162461bcd60e51b81526020600482015260116024820152702330b6363130b1b590333ab731ba34b7b760791b604482015290519081900360640190fd5b34801561018257600080fd5b506101a06004803603602081101561019957600080fd5b5035610b01565b005b3480156101ae57600080fd5b506101b7610ba1565b60408051918252519081900360200190f35b3480156101d557600080fd5b506101a0600480360360408110156101ec57600080fd5b81359190810190604081016020820135600160201b81111561020d57600080fd5b82018360208201111561021f57600080fd5b803590602001918460018302840111600160201b8311171561024057600080fd5b91908080601f016020809104026020016040519081016040528093929190818152602001838380828437600092019190915250929550610ba8945050505050565b34801561028d57600080fd5b506101a0600480360360608110156102a457600080fd5b81359190810190604081016020820135600160201b8111156102c557600080fd5b8201836020820111156102d757600080fd5b803590602001918460018302840111600160201b831117156102f857600080fd5b91908080601f0160208091040260200160405190810160405280939291908181526020018383808284376000920191909152509295949360208101935035915050600160201b81111561034a57600080fd5b82018360208201111561035c57600080fd5b803590602001918460018302840111600160201b8311171561037d57600080fd5b91908080601f016020809104026020016040519081016040528093929190818152602001838380828437600092019190915250929550610fcb945050505050565b3480156103ca57600080fd5b506101a0610ffc565b3480156103df57600080fd5b506101b7600480360360208110156103f657600080fd5b50356110a0565b6101a06110c1565b34801561041157600080fd5b506101a06004803603602081101561042857600080fd5b50356001600160a01b0316611185565b34801561044457600080fd5b5061044d61128f565b604080519115158252519081900360200190f35b34801561046d57600080fd5b506101b761129f565b34801561048257600080fd5b506101b76004803603602081101561049957600080fd5b50356112a4565b3480156104ac57600080fd5b506101a06113f8565b3480156104c157600080fd5b506104ca61149f565b604080516001600160a01b039092168252519081900360200190f35b3480156104f257600080fd5b506105196004803603602081101561050957600080fd5b50356001600160a01b03166114ae565b6040805163ffffffff9092168252519081900360200190f35b6101a06004803603602081101561054857600080fd5b810190602081018135600160201b81111561056257600080fd5b82018360208201111561057457600080fd5b803590602001918460018302840111600160201b8311171561059557600080fd5b91908080601f016020809104026020016040519081016040528093929190818152602001838380828437600092019190915250929550611530945050505050565b3480156105e257600080fd5b506101a0600480360360808110156105f957600080fd5b810190602081018135600160201b81111561061357600080fd5b82018360208201111561062557600080fd5b803590602001918460018302840111600160201b8311171561064657600080fd5b91908080601f0160208091040260200160405190810160405280939291908181526020018383808284376000920191909152509295949360208101935035915050600160201b81111561069857600080fd5b8201836020820111156106aa57600080fd5b803590602001918460018302840111600160201b831117156106cb57600080fd5b91908080601f016020809104026020016040519081016040528093929190818152602001838380828437600092019190915250929563ffffffff853516959094909350604081019250602001359050600160201b81111561072b57600080fd5b82018360208201111561073d57600080fd5b803590602001918460018302840111600160201b8311171561075e57600080fd5b91908080601f0160208091040260200160405190810160405280939291908181526020018383808284376000920191909152509295506118b6945050505050565b3480156107ab57600080fd5b50610519611b1e565b610858600480360360208110156107ca57600080fd5b810190602081018135600160201b8111156107e457600080fd5b8201836020820111156107f657600080fd5b803590602001918460018302840111600160201b8311171561081757600080fd5b91908080601f016020809104026020016040519081016040528093929190818152602001838380828437600092019190915250929550611b31945050505050565b6040805160208082528351818301528351919283929083019185019080838360005b8381101561089257818101518382015260200161087a565b50505050905090810190601f1680156108bf5780820380516001836020036101000a031916815260200191505b509250505060405180910390f35b3480156108d957600080fd5b506104ca600480360360208110156108f057600080fd5b503563ffffffff16611b8c565b34801561090957600080fd5b506109366004803603604081101561092057600080fd5b506001600160a01b038135169060200135611c5c565b6040518080602001806020018763ffffffff1663ffffffff1681526020018060200186815260200185815260200184810384528a818151815260200191508051906020019080838360005b83811015610999578181015183820152602001610981565b50505050905090810190601f1680156109c65780820380516001836020036101000a031916815260200191505b5084810383528951815289516020918201918b019080838360005b838110156109f95781810151838201526020016109e1565b50505050905090810190601f168015610a265780820380516001836020036101000a031916815260200191505b50848103825287518152875160209182019189019080838360005b83811015610a59578181015183820152602001610a41565b50505050905090810190601f168015610a865780820380516001836020036101000a031916815260200191505b50995050505050505050505060405180910390f35b348015610aa757600080fd5b506101a060048036036020811015610abe57600080fd5b50356001600160a01b0316611f41565b348015610ada57600080fd5b506101b760048036036020811015610af157600080fd5b50356001600160a01b0316611fc7565b6005546001600160a01b03163314610b1857600080fd5b3031811115610b63576040805162461bcd60e51b81526020600482015260126024820152716e6f7420656e6f7567682062616c616e636560701b604482015290519081900360640190fd5b6005546040516001600160a01b039091169082156108fc029083906000818181858888f19350505050158015610b9d573d6000803e3d6000fd5b5050565b6006545b90565b60008281526010602052604090205460ff16610bf55760405162461bcd60e51b815260040180806020018281038252602b815260200180614468602b913960400191505060405180910390fd5b610bfd611fe2565b6001600160a01b0316336001600160a01b031614610c4c5760405162461bcd60e51b81526004018080602001828103825260228152602001806146016022913960400191505060405180910390fd5b6000610c57826121cb565b90507f71f1a5645e51a2da828ffcf79cc17da88eb25e1bca8b9dced23210847a4769c1826040518080602001828103825283818151815260200191508051906020019080838360005b83811015610cb8578181015183820152602001610ca0565b50505050905090810190601f168015610ce55780820380516001836020036101000a031916815260200191505b509250505060405180910390a1600083815260106020908152604091829020600781015483516001928301805460026101009582161595909502600019011693909304601f8101859004909402810160e090810190955260c08101848152610f179587956001600160a01b03909416949293849291849190840182828015610dae5780601f10610d8357610100808354040283529160200191610dae565b820191906000526020600020905b815481529060010190602001808311610d9157829003601f168201915b50505050508152602001600182018054600181600116156101000203166002900480601f016020809104026020016040519081016040528092919081815260200182805460018160011615610100020316600290048015610e505780601f10610e2557610100808354040283529160200191610e50565b820191906000526020600020905b815481529060010190602001808311610e3357829003601f168201915b505050918352505060028281015463ffffffff1660208084019190915260038401805460408051601f60001960018516156101000201909316959095049182018490048402850184018152818552909401939091830182828015610ef55780601f10610eca57610100808354040283529160200191610ef5565b820191906000526020600020905b815481529060010190602001808311610ed857829003601f168201915b50505050508152602001600482015481526020016005820154815250506121de565b6000838152601060205260408120805460ff19168155906001820181610f3d8282613518565b610f4b600183016000613518565b60028201805463ffffffff19169055610f68600383016000613518565b5060006004820181905560059182015560079290920180546001600160a01b03191690555054610fa690600160c81b900463ffffffff1660016125e3565b600560196101000a81548163ffffffff021916908363ffffffff160217905550505050565b5050600080805260036020527f3617319a054d772f909f7c479a2cebe5066e836a939412e32403c99029b92eff5550565b6005546001600160a01b0316331461101357600080fd5b600554600160a01b900460ff16611068576040805162461bcd60e51b815260206004820152601460248201527314185d5cd8589b194e881b9bdd081c185d5cd95960621b604482015290519081900360640190fd5b6005805460ff60a01b191690556040517fa45f47fdea8a1efdd9029a5691c7f759c32b7c698632b563573e155625d1693390600090a1565b6000600d82815481106110af57fe5b90600052602060002001549050919050565b6005546001600160a01b031633146110d857600080fd5b600554600160a01b900460ff1661112d576040805162461bcd60e51b815260206004820152601460248201527314185d5cd8589b194e881b9bdd081c185d5cd95960621b604482015290519081900360640190fd5b60065415611182576040805162461bcd60e51b815260206004820152601a60248201527f676c6f62616c2062616c616e6365206973206e6f74207a65726f000000000000604482015290519081900360640190fd5b33ff5b6005546001600160a01b0316331461119c57600080fd5b6001600160a01b0381166111f7576040805162461bcd60e51b815260206004820152601b60248201527f612076616c696420616464726573732069732072657175697265640000000000604482015290519081900360640190fd5b336000908152600f60205260409020600101541561128c57336000818152600f602081815260408084206002810154600160201b900463ffffffff168552600e835290842080546001600160a01b031916905560065494909352525461125d919061262c565b600655336000908152600f60205260408120818155600181019190915560020180546001600160e01b03191690555b50565b600554600160a01b900460ff1690565b303190565b600554600090600160a01b900460ff16156112f9576040805162461bcd60e51b815260206004820152601060248201526f14185d5cd8589b194e881c185d5cd95960821b604482015290519081900360640190fd5b336000908152600f6020526040902054821115611352576040805162461bcd60e51b81526020600482015260126024820152716e6f7420656e6f7567682062616c616e636560701b604482015290519081900360640190fd5b8160065410156113a9576040805162461bcd60e51b815260206004820152601960248201527f6e6f7420656e6f75676820676c6f62616c2062616c616e636500000000000000604482015290519081900360640190fd5b336000908152600f60205260409020546113c3908361262c565b336000908152600f60205260409020556006546113e0908361262c565b6006555050336000908152600f602052604090205490565b6005546001600160a01b0316331461140f57600080fd5b600554600160a01b900460ff1615611461576040805162461bcd60e51b815260206004820152601060248201526f14185d5cd8589b194e881c185d5cd95960821b604482015290519081900360640190fd5b6005805460ff60a01b1916600160a01b1790556040517f9e87fac88ff661f02d44f95383c817fece4bce600a3dab7a54406878b965e75290600090a1565b6005546001600160a01b031681565b60006001600160a01b03821661150b576040805162461bcd60e51b815260206004820152601b60248201527f612076616c696420616464726573732069732072657175697265640000000000604482015290519081900360640190fd5b506001600160a01b03166000908152600f602052604090206002015463ffffffff1690565b600554600160a01b900460ff1615611582576040805162461bcd60e51b815260206004820152601060248201526f14185d5cd8589b194e881c185d5cd95960821b604482015290519081900360640190fd5b60008151116115cc576040805162461bcd60e51b815260206004820152601160248201527066656520636f646520697320656d70747960781b604482015290519081900360640190fd5b306001600160a01b0316316115fb6040518060400160405280600381526020016215549360ea1b81525061266e565b1115611651577fc4dc360d0a9c0677a3379ae0a3d81e887f761e65fdf3d7e00859d1bcd3c4738960405180806020018281038252604e815260200180614623604e913960600191505060405180910390a161128c565b606081604051602001808061449361010491396101040182805190602001908083835b602083106116935780518252601f199092019160209182019101611674565b51815160001960209485036101000a01908116901991909116179052672e7072696365275d60c01b939091019283526040805160171981860301815260088501918290529181526035602885018190529196507fc4dc360d0a9c0677a3379ae0a3d81e887f761e65fdf3d7e00859d1bcd3c47389955093508392604801915061440b823960400191505060405180910390a16000611753604051806040016040528060068152602001651b995cdd195960d21b81525083620557306128ba565b6000818152601060205260409020805460ff19166001908117825560078054939450929181019161179c918391859160026000199183161561010002919091019091160461355c565b50600182018160010190805460018160011615610100020316600290046117c492919061355c565b50600282810154828201805463ffffffff191663ffffffff9092169190911790556003808401805461180a9392850192600019600183161561010002019091160461355c565b506004828101549082015560059182015490820155600082815260106020526040902060070180546001600160a01b031916331790555461185a9063ffffffff600160c81b909104166001612c82565b6005805463ffffffff92909216600160c81b0263ffffffff60c81b19909216919091179055600d80546001810182556000919091527fd7b6990105719101dabeb77144f2a3385c8033acd3af97e9423a695e81ad1eb501555050565b600554600160a01b900460ff1615611908576040805162461bcd60e51b815260206004820152601060248201526f14185d5cd8589b194e881c185d5cd95960821b604482015290519081900360640190fd5b60008263ffffffff161161194d5760405162461bcd60e51b81526004018080602001828103825260218152602001806145e06021913960400191505060405180910390fd5b6103e88263ffffffff16106119a0576040805162461bcd60e51b81526020600482015260146024820152730e2eac2dce8d2e8f240d2e640e8dede40d0d2ced60631b604482015290519081900360640190fd5b60008451116119ee576040805162461bcd60e51b81526020600482015260156024820152747061636b61676520636f646520697320656d70747960581b604482015290519081900360640190fd5b6000815111611a39576040805162461bcd60e51b8152602060048201526012602482015271756e697420636f646520697320656d70747960701b604482015290519081900360640190fd5b611a41612ce5565b8351611a549060079060208701906135dd565b508251611a689060089060208601906135dd565b506009805463ffffffff191663ffffffff84161790558051611a9190600a9060208401906135dd565b50825115611aa757611aa283611530565b611b18565b604080516007805460206002600180841615610100026000190190931604601f8101829004909102840160e090810190955260c08401818152611b18959294339490939092849291849190840182828015610dae5780601f10610d8357610100808354040283529160200191610dae565b50505050565b600554600160a81b900463ffffffff1690565b606060003411611b88576040805162461bcd60e51b815260206004820152601e60248201527f76616c7565206973206e6f742067726561746572207468616e207a65726f0000604482015290519081900360640190fd5b5090565b6000808263ffffffff1611611be8576040805162461bcd60e51b815260206004820152601f60248201527f76616c7565206d7573742062652067726561746572207468616e207a65726f00604482015290519081900360640190fd5b60055463ffffffff600160a81b90910481169083161115611c3a5760405162461bcd60e51b81526004018080602001828103825260288152602001806144406028913960400191505060405180910390fd5b5063ffffffff166000908152600e60205260409020546001600160a01b031690565b60608060008181806001600160a01b038816611cb8576040805162461bcd60e51b8152602060048201526016602482015275185b881859191c995cdcc81a5cc81c995c5d5a5c995960521b604482015290519081900360640190fd5b60008711611d0d576040805162461bcd60e51b815260206004820152601f60248201527f76616c7565206d7573742062652067726561746572207468616e207a65726f00604482015290519081900360640190fd5b6001600160a01b0388166000908152600f602052604090206002015463ffffffff16871115611d6d5760405162461bcd60e51b81526004018080602001828103825260288152602001806145b86028913960400191505060405180910390fd5b611d7561364b565b6001600160a01b03808a166000908152600f602052604080822060020154815163119b303560e31b8152600481018d90529151600160401b90910490931692638cd981a892602480840193919291829003018186803b158015611dd757600080fd5b505afa158015611deb573d6000803e3d6000fd5b505050506040513d6000823e601f3d908101601f1916820160405260c0811015611e1457600080fd5b810190808051600160201b811115611e2b57600080fd5b82016020810184811115611e3e57600080fd5b8151600160201b811182820187101715611e5757600080fd5b50509291906020018051600160201b811115611e7257600080fd5b82016020810184811115611e8557600080fd5b8151600160201b811182820187101715611e9e57600080fd5b50506020820151604090920180519194929391600160201b811115611ec257600080fd5b82016020810184811115611ed557600080fd5b8151600160201b811182820187101715611eee57600080fd5b505060208281015160409384015160a08b0181905260808b0182905260608b0184905263ffffffff97909716938a0184905290890187905297879052959f949e509c50939a509398509650945050505050565b6005546001600160a01b03163314611f5857600080fd5b6001600160a01b038116611f6b57600080fd5b6005546040516001600160a01b038084169216907f8be0079c531659141344cd1fd0a4f28419497f9722a3daafe3b4186f6b6457e090600090a3600580546001600160a01b0319166001600160a01b0392909216919091179055565b6001600160a01b03166000908152600f602052604090205490565b6001546000906001600160a01b0316158061200f575060015461200d906001600160a01b0316612e9c565b155b156120205761201e6000612ea0565b505b600160009054906101000a90046001600160a01b03166001600160a01b03166338cc48316040518163ffffffff1660e01b8152600401602060405180830381600087803b15801561207057600080fd5b505af1158015612084573d6000803e3d6000fd5b505050506040513d602081101561209a57600080fd5b50516000546001600160a01b0390811691161461214d57600160009054906101000a90046001600160a01b03166001600160a01b03166338cc48316040518163ffffffff1660e01b8152600401602060405180830381600087803b15801561210157600080fd5b505af1158015612115573d6000803e3d6000fd5b505050506040513d602081101561212b57600080fd5b5051600080546001600160a01b0319166001600160a01b039092169190911790555b6000809054906101000a90046001600160a01b03166001600160a01b031663c281d19e6040518163ffffffff1660e01b815260040160206040518083038186803b15801561219a57600080fd5b505afa1580156121ae573d6000803e3d6000fd5b505050506040513d60208110156121c457600080fd5b5051905090565b60006121d8826000612eaa565b92915050565b60008315612201576121fa826040015163ffffffff1685612f79565b905061220e565b50604081015163ffffffff165b6001600160a01b0383166000908152600f60205260409020426001808301919091556002909101546122489163ffffffff90911690612c82565b6001600160a01b038481166000908152600f60209081526040808320600201805463ffffffff191663ffffffff96871617908190558751888401518984015160608b0151945163928b5d9560e01b815298811660448a0152608489018a905260a060048a01908152835160a48b01528351600160401b9095049098169863928b5d9598939792969195948b949384936024840193606481019360c490910192918c01918190849084905b8381101561230a5781810151838201526020016122f2565b50505050905090810190601f1680156123375780820380516001836020036101000a031916815260200191505b5084810383528851815288516020918201918a019080838360005b8381101561236a578181015183820152602001612352565b50505050905090810190601f1680156123975780820380516001836020036101000a031916815260200191505b50848103825286518152865160209182019188019080838360005b838110156123ca5781810151838201526020016123b2565b50505050905090810190601f1680156123f75780820380516001836020036101000a031916815260200191505b5098505050505050505050600060405180830381600087803b15801561241c57600080fd5b505af1158015612430573d6000803e3d6000fd5b5050505061243e8382612fd2565b826001600160a01b03167f031d2bda13e0d20dac6c1b41b06bd71bdb137d3171c2f2854f2c5256e281aae78360000151846020015185604001518660600151868a6040518080602001806020018763ffffffff1681526020018060200186815260200185815260200184810384528a818151815260200191508051906020019080838360005b838110156124dc5781810151838201526020016124c4565b50505050905090810190601f1680156125095780820380516001836020036101000a031916815260200191505b5084810383528951815289516020918201918b019080838360005b8381101561253c578181015183820152602001612524565b50505050905090810190601f1680156125695780820380516001836020036101000a031916815260200191505b50848103825287518152875160209182019189019080838360005b8381101561259c578181015183820152602001612584565b50505050905090810190601f1680156125c95780820380516001836020036101000a031916815260200191505b50995050505050505050505060405180910390a250505050565b600061262583836040518060400160405280601e81526020017f536166654d6174683a207375627472616374696f6e206f766572666c6f770000815250613067565b9392505050565b600061262583836040518060400160405280601e81526020017f536166654d6174683a207375627472616374696f6e206f766572666c6f77000081525061310b565b6001546000906001600160a01b0316158061269b5750600154612699906001600160a01b0316612e9c565b155b156126ac576126aa6000612ea0565b505b600160009054906101000a90046001600160a01b03166001600160a01b03166338cc48316040518163ffffffff1660e01b8152600401602060405180830381600087803b1580156126fc57600080fd5b505af1158015612710573d6000803e3d6000fd5b505050506040513d602081101561272657600080fd5b50516000546001600160a01b039081169116146127d957600160009054906101000a90046001600160a01b03166001600160a01b03166338cc48316040518163ffffffff1660e01b8152600401602060405180830381600087803b15801561278d57600080fd5b505af11580156127a1573d6000803e3d6000fd5b505050506040513d60208110156127b757600080fd5b5051600080546001600160a01b0319166001600160a01b039092169190911790555b6000805460405163524f388960e01b81526020600482018181528651602484015286516001600160a01b039094169463524f3889948894929384936044019290860191908190849084905b8381101561283c578181015183820152602001612824565b50505050905090810190601f1680156128695780820380516001836020036101000a031916815260200191505b5092505050602060405180830381600087803b15801561288857600080fd5b505af115801561289c573d6000803e3d6000fd5b505050506040513d60208110156128b257600080fd5b505192915050565b6001546000906001600160a01b031615806128e757506001546128e5906001600160a01b0316612e9c565b155b156128f8576128f66000612ea0565b505b600160009054906101000a90046001600160a01b03166001600160a01b03166338cc48316040518163ffffffff1660e01b8152600401602060405180830381600087803b15801561294857600080fd5b505af115801561295c573d6000803e3d6000fd5b505050506040513d602081101561297257600080fd5b50516000546001600160a01b03908116911614612a2557600160009054906101000a90046001600160a01b03166001600160a01b03166338cc48316040518163ffffffff1660e01b8152600401602060405180830381600087803b1580156129d957600080fd5b505af11580156129ed573d6000803e3d6000fd5b505050506040513d6020811015612a0357600080fd5b5051600080546001600160a01b0319166001600160a01b039092169190911790555b6000805460408051630bbceb3360e21b815260248101869052600481019182528751604482015287516001600160a01b0390931692632ef3accc928992889282916064019060208601908083838c5b83811015612a8c578181015183820152602001612a74565b50505050905090810190601f168015612ab95780820380516001836020036101000a031916815260200191505b509350505050602060405180830381600087803b158015612ad957600080fd5b505af1158015612aed573d6000803e3d6000fd5b505050506040513d6020811015612b0357600080fd5b50519050670de0b6b3a76400003a840201811115612b25575060009050612625565b6000805460405163c51be90f60e01b815260048101838152606482018790526080602483019081528951608484015289516001600160a01b039094169463c51be90f94879491938c938c938c93604482019160a4019060208801908083838c5b83811015612b9d578181015183820152602001612b85565b50505050905090810190601f168015612bca5780820380516001836020036101000a031916815260200191505b50838103825285518152855160209182019187019080838360005b83811015612bfd578181015183820152602001612be5565b50505050905090810190601f168015612c2a5780820380516001836020036101000a031916815260200191505b5096505050505050506020604051808303818588803b158015612c4c57600080fd5b505af1158015612c60573d6000803e3d6000fd5b50505050506040513d6020811015612c7757600080fd5b505195945050505050565b600082820163ffffffff8085169082161015612625576040805162461bcd60e51b815260206004820152601b60248201527f536166654d6174683a206164646974696f6e206f766572666c6f770000000000604482015290519081900360640190fd5b336000908152600f6020526040902060010154158015612d1b5750336000908152600f602052604090206002015463ffffffff16155b15612e9a5733604051612d2d90613687565b6001600160a01b03909116815260405190819003602001906000f080158015612d5a573d6000803e3d6000fd5b50336000908152600f602052604081206002810180544260018085019190915563ffffffff196001600160a01b0396909616600160401b0268010000000000000000600160e01b03199092169190911794909416905555600554612dcc91600160a81b90910463ffffffff1690612c82565b6005805463ffffffff928316600160a81b90810263ffffffff60a81b1990921691909117808355336000818152600f602081815260408084206002018054600160201b978990048b16880267ffffffff000000001990911617815597549690960488168352600e815285832080546001600160a01b031916851790559183905281529354835192810490951682529151600160401b9094046001600160a01b03169391927f2400353ee3cbddbecd51b36528703d6a9a1f15a73ef12fa52c45ebfbf5eb0e1092918290030190a35b565b3b90565b60006121d861315d565b6000828180805b8351811015612f60576030848281518110612ec857fe5b016020015160f81c10801590612ef257506039848281518110612ee757fe5b016020015160f81c11155b15612f36578115612f0f5785612f0757612f60565b600019909501945b600a830292506030848281518110612f2357fe5b016020015160f81c039290920191612f58565b838181518110612f4257fe5b60209101015160f81c602e1415612f5857600191505b600101612eb1565b508415612f705784600a0a820291505b50949350505050565b600082612f88575060006121d8565b82820282848281612f9557fe5b04146126255760405162461bcd60e51b81526004018080602001828103825260218152602001806145976021913960400191505060405180910390fd5b6001600160a01b0382166000908152600f6020526040902054612ff590826134ab565b6001600160a01b0383166000908152600f602052604090205560065461301b90826134ab565b600655336000818152600f602090815260409182902054825190815291517f4abaca7060438a179d5f20d945b01077a6df8b016150a897abd09d3fdebcf1099281900390910190a25050565b60008363ffffffff168363ffffffff16111582906131035760405162461bcd60e51b81526004018080602001828103825283818151815260200191508051906020019080838360005b838110156130c85781810151838201526020016130b0565b50505050905090810190601f1680156130f55780820380516001836020036101000a031916815260200191505b509250505060405180910390fd5b505050900390565b600081848411156131035760405162461bcd60e51b81526020600482018181528351602484015283519092839260449091019190850190808383600083156130c85781810151838201526020016130b0565b60008061317d731d3b2638a7cc9f2cb3d298a3da7a90b67e5506ed612e9c565b11156131dc57600180546001600160a01b031916731d3b2638a7cc9f2cb3d298a3da7a90b67e5506ed17905560408051808201909152600b81526a195d1a17db585a5b9b995d60aa1b60208201526131d490613505565b506001610ba5565b60006131fb73c03a2615d5efaf5f49f60b7bb6583eaec212fdf1612e9c565b111561325357600180546001600160a01b03191673c03a2615d5efaf5f49f60b7bb6583eaec212fdf117905560408051808201909152600c81526b6574685f726f707374656e3360a01b60208201526131d490613505565b600061327273b7a07bcf2ba2f2703b24c0691b5278999c59ac7e612e9c565b11156132c757600180546001600160a01b03191673b7a07bcf2ba2f2703b24c0691b5278999c59ac7e17905560408051808201909152600981526832ba342fb5b7bb30b760b91b60208201526131d490613505565b60006132e673146500cfd35b22e4a392fe0adc06de1a1368ed48612e9c565b111561333d57600180546001600160a01b03191673146500cfd35b22e4a392fe0adc06de1a1368ed4817905560408051808201909152600b81526a6574685f72696e6b65627960a81b60208201526131d490613505565b600061335c73a2998efd205fb9d4b4963afb70778d6354ad3a41612e9c565b11156133b257600180546001600160a01b03191673a2998efd205fb9d4b4963afb70778d6354ad3a4117905560408051808201909152600a8152696574685f676f65726c6960b01b60208201526131d490613505565b60006133d1736f485c8bf6fc43ea212e93bbf8ce046c7f1cb475612e9c565b11156134035750600180546001600160a01b031916736f485c8bf6fc43ea212e93bbf8ce046c7f1cb475178155610ba5565b60006134227320e12a1f859b3feae5fb2a0a32c18f5a65555bbf612e9c565b11156134545750600180546001600160a01b0319167320e12a1f859b3feae5fb2a0a32c18f5a65555bbf178155610ba5565b60006134737351efaf4c8b3c9afbd5ab9f4bbc82784ab6ef8faa612e9c565b11156134a55750600180546001600160a01b0319167351efaf4c8b3c9afbd5ab9f4bbc82784ab6ef8faa178155610ba5565b50600090565b600082820183811015612625576040805162461bcd60e51b815260206004820152601b60248201527f536166654d6174683a206164646974696f6e206f766572666c6f770000000000604482015290519081900360640190fd5b8051610b9d9060029060208401906135dd565b50805460018160011615610100020316600290046000825580601f1061353e575061128c565b601f01602090049060005260206000209081019061128c9190613694565b828054600181600116156101000203166002900490600052602060002090601f016020900481019282601f1061359557805485556135d1565b828001600101855582156135d157600052602060002091601f016020900482015b828111156135d15782548255916001019190600101906135b6565b50611b88929150613694565b828054600181600116156101000203166002900490600052602060002090601f016020900481019282601f1061361e57805160ff19168380011785556135d1565b828001600101855582156135d1579182015b828111156135d1578251825591602001919060010190613630565b6040518060c001604052806060815260200160608152602001600063ffffffff1681526020016060815260200160008152602001600081525090565b610d5c806136af83390190565b610ba591905b80821115611b88576000815560010161369a56fe608060405234801561001057600080fd5b50604051610d5c380380610d5c8339818101604052602081101561003357600080fd5b5051600080546001600160a01b039092166001600160a01b03199283161790556001805490911633179055610cef8061006d6000396000f3fe608060405234801561001057600080fd5b50600436106100365760003560e01c80638cd981a81461003b578063928b5d95146101bd575b600080fd5b6100586004803603602081101561005157600080fd5b5035610383565b6040518080602001806020018763ffffffff1663ffffffff1681526020018060200186815260200185815260200184810384528a818151815260200191508051906020019080838360005b838110156100bb5781810151838201526020016100a3565b50505050905090810190601f1680156100e85780820380516001836020036101000a031916815260200191505b5084810383528951815289516020918201918b019080838360005b8381101561011b578181015183820152602001610103565b50505050905090810190601f1680156101485780820380516001836020036101000a031916815260200191505b50848103825287518152875160209182019189019080838360005b8381101561017b578181015183820152602001610163565b50505050905090810190601f1680156101a85780820380516001836020036101000a031916815260200191505b50995050505050505050505060405180910390f35b610381600480360360a08110156101d357600080fd5b8101906020810181356401000000008111156101ee57600080fd5b82018360208201111561020057600080fd5b8035906020019184600183028401116401000000008311171561022257600080fd5b91908080601f016020809104026020016040519081016040528093929190818152602001838380828437600092019190915250929594936020810193503591505064010000000081111561027557600080fd5b82018360208201111561028757600080fd5b803590602001918460018302840111640100000000831117156102a957600080fd5b91908080601f016020809104026020016040519081016040528093929190818152602001838380828437600092019190915250929563ffffffff85351695909490935060408101925060200135905064010000000081111561030a57600080fd5b82018360208201111561031c57600080fd5b8035906020019184600183028401116401000000008311171561033e57600080fd5b91908080601f01602080910402602001604051908101604052809392919081815260200183838082843760009201919091525092955050913592506106c1915050565b005b60608060006060600080600087116103e2576040805162461bcd60e51b815260206004820152601f60248201527f76616c7565206d7573742062652067726561746572207468616e207a65726f00604482015290519081900360640190fd5b60035463ffffffff168711156104295760405162461bcd60e51b8152600401808060200182810382526028815260200180610c726028913960400191505060405180910390fd5b60006104368860016109db565b90506004818154811061044557fe5b90600052602060002090600602016000016004828154811061046357fe5b90600052602060002090600602016001016004838154811061048157fe5b906000526020600020906006020160020160009054906101000a900463ffffffff16600484815481106104b057fe5b9060005260206000209060060201600301600485815481106104ce57fe5b906000526020600020906006020160040154600486815481106104ed57fe5b600091825260209182902060056006909202010154865460408051601f6002600019610100600187161502019094169390930492830185900485028101850190915281815291928891908301828280156105885780601f1061055d57610100808354040283529160200191610588565b820191906000526020600020905b81548152906001019060200180831161056b57829003601f168201915b5050885460408051602060026001851615610100026000190190941693909304601f8101849004840282018401909252818152959b508a9450925084019050828280156106165780601f106105eb57610100808354040283529160200191610616565b820191906000526020600020905b8154815290600101906020018083116105f957829003601f168201915b5050865460408051602060026001851615610100026000190190941693909304601f8101849004840282018401909252818152959a50889450925084019050828280156106a45780601f10610679576101008083540402835291602001916106a4565b820191906000526020600020905b81548152906001019060200180831161068757829003601f168201915b505050505092509650965096509650965096505091939550919395565b6001546001600160a01b0316331461070a5760405162461bcd60e51b8152600401808060200182810382526022815260200180610c506022913960400191505060405180910390fd5b60008363ffffffff161161074f5760405162461bcd60e51b8152600401808060200182810382526021815260200180610c9a6021913960400191505060405180910390fd5b6103e88363ffffffff1611156107a3576040805162461bcd60e51b81526020600482015260146024820152730e2eac2dce8d2e8f240d2e640e8dede40d0d2ced60631b604482015290519081900360640190fd5b60008551116107f1576040805162461bcd60e51b81526020600482015260156024820152747061636b61676520636f646520697320656d70747960581b604482015290519081900360640190fd5b600082511161083c576040805162461bcd60e51b8152602060048201526012602482015271756e697420636f646520697320656d70747960701b604482015290519081900360640190fd5b610844610b78565b858152602080820186905263ffffffff8516604083015260608201849052608082018390524260a08301526004805460018101808355600092909252835180519293859360069093027f8a35acfbc15ff81a39ae7d344fd709f28e8600b4aa8c65c6b64bfe7fe36bd19b01926108bd9284920190610bb4565b5060208281015180516108d69260018501920190610bb4565b50604082015160028201805463ffffffff191663ffffffff90921691909117905560608201518051610912916003840191602090910190610bb4565b506080820151600482015560a0909101516005909101555060035461093e9063ffffffff166001610a24565b600360006101000a81548163ffffffff021916908363ffffffff16021790555061096e6002548260800151610a87565b6002819055600054608083015160035460408051928352602083019490945263ffffffff1681840152915130926001600160a01b0392909216917f634803569c8df39be5458edd5454c5a425666a63cd029c0eef3680f7c23b3354919081900360600190a3505050505050565b6000610a1d83836040518060400160405280601e81526020017f536166654d6174683a207375627472616374696f6e206f766572666c6f770000815250610ae1565b9392505050565b600082820163ffffffff8085169082161015610a1d576040805162461bcd60e51b815260206004820152601b60248201527f536166654d6174683a206164646974696f6e206f766572666c6f770000000000604482015290519081900360640190fd5b600082820183811015610a1d576040805162461bcd60e51b815260206004820152601b60248201527f536166654d6174683a206164646974696f6e206f766572666c6f770000000000604482015290519081900360640190fd5b60008184841115610b705760405162461bcd60e51b81526004018080602001828103825283818151815260200191508051906020019080838360005b83811015610b35578181015183820152602001610b1d565b50505050905090810190601f168015610b625780820380516001836020036101000a031916815260200191505b509250505060405180910390fd5b505050900390565b6040518060c001604052806060815260200160608152602001600063ffffffff1681526020016060815260200160008152602001600081525090565b828054600181600116156101000203166002900490600052602060002090601f016020900481019282601f10610bf557805160ff1916838001178555610c22565b82800160010185558215610c22579182015b82811115610c22578251825591602001919060010190610c07565b50610c2e929150610c32565b5090565b610c4c91905b80821115610c2e5760008155600101610c38565b9056fe73656e646572206973206e6f742074686520666163746f727920636f6e747261637476616c756520697320686967686572207468616e206c617374206d6f76656d656e7420696e6465787175616e74697479206973206e6f742067726561746572207468616e207a65726fa265627a7a72305820d5013fa17891223b865991dab6d956ea0d1a58769535034bd4c23c6642d5d92c64736f6c634300050a003250726f7661626c65207175657279207761732073656e742c207374616e64696e6720627920666f722074686520616e737765722e2e76616c756520697320686967686572207468616e20746865206e756d626572206f662075736572737468657265206973206e6f7420616e792071756572792070656e64696e67207769746820746861742049445b55524c5d205b276a736f6e2868747470733a2f2f6170692e6d6c61622e636f6d2f6170692f312f6461746162617365732f70726f647563746f732f636f6c6c656374696f6e732f666565733f6170694b65793d247b5b646563727970745d204250737344414664334245786257346c30656531524e563435707664684f6974613162775674547a567537615276486f465a68754e4375755a6e4338777a6d364755513379547a31382b4232766e6f4144624848705263394e634d622f595a4f77586f30734a734d35706149476c6c366f594571706a574d515133654549537a476b45302f4a4d494869447947315370695949336259673d7d292e302e726573756c742e536166654d6174683a206d756c7469706c69636174696f6e206f766572666c6f7776616c756520697320686967686572207468616e206c617374206d6f76656d656e7420696e6465787175616e74697479206973206e6f742067726561746572207468616e207a65726f61646472657373206e6f742076616c696420666f72207468652063616c6c6261636b50726f7661626c65206c6574717565727920776173204e4f542073656e742c20706c656173652061646420736f6d652045544820746f20636f76657220666f722074686520717565727920666565a265627a7a72305820219973b2095a8130a771ac6ec8792dad6af881cc3e1551f38f6b4c994bccff3464736f6c634300050a0032608060405234801561001057600080fd5b50604051610d5c380380610d5c8339818101604052602081101561003357600080fd5b5051600080546001600160a01b039092166001600160a01b03199283161790556001805490911633179055610cef8061006d6000396000f3fe608060405234801561001057600080fd5b50600436106100365760003560e01c80638cd981a81461003b578063928b5d95146101bd575b600080fd5b6100586004803603602081101561005157600080fd5b5035610383565b6040518080602001806020018763ffffffff1663ffffffff1681526020018060200186815260200185815260200184810384528a818151815260200191508051906020019080838360005b838110156100bb5781810151838201526020016100a3565b50505050905090810190601f1680156100e85780820380516001836020036101000a031916815260200191505b5084810383528951815289516020918201918b019080838360005b8381101561011b578181015183820152602001610103565b50505050905090810190601f1680156101485780820380516001836020036101000a031916815260200191505b50848103825287518152875160209182019189019080838360005b8381101561017b578181015183820152602001610163565b50505050905090810190601f1680156101a85780820380516001836020036101000a031916815260200191505b50995050505050505050505060405180910390f35b610381600480360360a08110156101d357600080fd5b8101906020810181356401000000008111156101ee57600080fd5b82018360208201111561020057600080fd5b8035906020019184600183028401116401000000008311171561022257600080fd5b91908080601f016020809104026020016040519081016040528093929190818152602001838380828437600092019190915250929594936020810193503591505064010000000081111561027557600080fd5b82018360208201111561028757600080fd5b803590602001918460018302840111640100000000831117156102a957600080fd5b91908080601f016020809104026020016040519081016040528093929190818152602001838380828437600092019190915250929563ffffffff85351695909490935060408101925060200135905064010000000081111561030a57600080fd5b82018360208201111561031c57600080fd5b8035906020019184600183028401116401000000008311171561033e57600080fd5b91908080601f01602080910402602001604051908101604052809392919081815260200183838082843760009201919091525092955050913592506106c1915050565b005b60608060006060600080600087116103e2576040805162461bcd60e51b815260206004820152601f60248201527f76616c7565206d7573742062652067726561746572207468616e207a65726f00604482015290519081900360640190fd5b60035463ffffffff168711156104295760405162461bcd60e51b8152600401808060200182810382526028815260200180610c726028913960400191505060405180910390fd5b60006104368860016109db565b90506004818154811061044557fe5b90600052602060002090600602016000016004828154811061046357fe5b90600052602060002090600602016001016004838154811061048157fe5b906000526020600020906006020160020160009054906101000a900463ffffffff16600484815481106104b057fe5b9060005260206000209060060201600301600485815481106104ce57fe5b906000526020600020906006020160040154600486815481106104ed57fe5b600091825260209182902060056006909202010154865460408051601f6002600019610100600187161502019094169390930492830185900485028101850190915281815291928891908301828280156105885780601f1061055d57610100808354040283529160200191610588565b820191906000526020600020905b81548152906001019060200180831161056b57829003601f168201915b5050885460408051602060026001851615610100026000190190941693909304601f8101849004840282018401909252818152959b508a9450925084019050828280156106165780601f106105eb57610100808354040283529160200191610616565b820191906000526020600020905b8154815290600101906020018083116105f957829003601f168201915b5050865460408051602060026001851615610100026000190190941693909304601f8101849004840282018401909252818152959a50889450925084019050828280156106a45780601f10610679576101008083540402835291602001916106a4565b820191906000526020600020905b81548152906001019060200180831161068757829003601f168201915b505050505092509650965096509650965096505091939550919395565b6001546001600160a01b0316331461070a5760405162461bcd60e51b8152600401808060200182810382526022815260200180610c506022913960400191505060405180910390fd5b60008363ffffffff161161074f5760405162461bcd60e51b8152600401808060200182810382526021815260200180610c9a6021913960400191505060405180910390fd5b6103e88363ffffffff1611156107a3576040805162461bcd60e51b81526020600482015260146024820152730e2eac2dce8d2e8f240d2e640e8dede40d0d2ced60631b604482015290519081900360640190fd5b60008551116107f1576040805162461bcd60e51b81526020600482015260156024820152747061636b61676520636f646520697320656d70747960581b604482015290519081900360640190fd5b600082511161083c576040805162461bcd60e51b8152602060048201526012602482015271756e697420636f646520697320656d70747960701b604482015290519081900360640190fd5b610844610b78565b858152602080820186905263ffffffff8516604083015260608201849052608082018390524260a08301526004805460018101808355600092909252835180519293859360069093027f8a35acfbc15ff81a39ae7d344fd709f28e8600b4aa8c65c6b64bfe7fe36bd19b01926108bd9284920190610bb4565b5060208281015180516108d69260018501920190610bb4565b50604082015160028201805463ffffffff191663ffffffff90921691909117905560608201518051610912916003840191602090910190610bb4565b506080820151600482015560a0909101516005909101555060035461093e9063ffffffff166001610a24565b600360006101000a81548163ffffffff021916908363ffffffff16021790555061096e6002548260800151610a87565b6002819055600054608083015160035460408051928352602083019490945263ffffffff1681840152915130926001600160a01b0392909216917f634803569c8df39be5458edd5454c5a425666a63cd029c0eef3680f7c23b3354919081900360600190a3505050505050565b6000610a1d83836040518060400160405280601e81526020017f536166654d6174683a207375627472616374696f6e206f766572666c6f770000815250610ae1565b9392505050565b600082820163ffffffff8085169082161015610a1d576040805162461bcd60e51b815260206004820152601b60248201527f536166654d6174683a206164646974696f6e206f766572666c6f770000000000604482015290519081900360640190fd5b600082820183811015610a1d576040805162461bcd60e51b815260206004820152601b60248201527f536166654d6174683a206164646974696f6e206f766572666c6f770000000000604482015290519081900360640190fd5b60008184841115610b705760405162461bcd60e51b81526004018080602001828103825283818151815260200191508051906020019080838360005b83811015610b35578181015183820152602001610b1d565b50505050905090810190601f168015610b625780820380516001836020036101000a031916815260200191505b509250505060405180910390fd5b505050900390565b6040518060c001604052806060815260200160608152602001600063ffffffff1681526020016060815260200160008152602001600081525090565b828054600181600116156101000203166002900490600052602060002090601f016020900481019282601f10610bf557805160ff1916838001178555610c22565b82800160010185558215610c22579182015b82811115610c22578251825591602001919060010190610c07565b50610c2e929150610c32565b5090565b610c4c91905b80821115610c2e5760008155600101610c38565b9056fe73656e646572206973206e6f742074686520666163746f727920636f6e747261637476616c756520697320686967686572207468616e206c617374206d6f76656d656e7420696e6465787175616e74697479206973206e6f742067726561746572207468616e207a65726fa265627a7a72305820d5013fa17891223b865991dab6d956ea0d1a58769535034bd4c23c6642d5d92c64736f6c634300050a0032",
    "sourcePath": "/home/lealp22/DYDII_PEC1/contracts/Recycler.sol",
    "compiler": {
        "name": "solc",
        "version": "0.5.10+commit.5a6ea5b1"
    },
    "functionHashes": {
        "__callback(bytes32,string)": "27dc297e",
        "__callback(bytes32,string,bytes)": "38bbfa50",
        "deleteUser(address)": "5c60f226",
        "fetchPrice(string)": "9782dd2a",
        "getBalance(address)": "f8b2cb4f",
        "getContractBalance()": "6f9fb98a",
        "getGlobalBalance()": "23d468e2",
        "getMovement(address,uint256)": "f2a4f43c",
        "getMovementCount(address)": "91178cf5",
        "getPendTx1(uint256)": "41b3bdfd",
        "getUser(uint32)": "db6f1e74",
        "getUserCount()": "b5cb15f7",
        "kill()": "41c0e1b5",
        "owner()": "8da5cb5b",
        "pause()": "8456cb59",
        "paused()": "5c975abb",
        "sendCoin(string,string,uint32,string)": "ab8e3a0e",
        "setFunds(string)": "cf222b59",
        "transfer(uint256)": "12514bba",
        "transferOwnership(address)": "f2fde38b",
        "unpause()": "3f4ba83a",
        "withdrawal(uint256)": "835fc6ca"
    },
    "gasEstimates": {
        "creation": {
            "codeDepositCost": "3617000",
            "executionCost": "infinite",
            "totalCost": "infinite"
        },
        "external": {
            "": "325",
            "__callback(bytes32,string)": "infinite",
            "__callback(bytes32,string,bytes)": "infinite",
            "deleteUser(address)": "72374",
            "fetchPrice(string)": "infinite",
            "getBalance(address)": "674",
            "getContractBalance()": "708",
            "getGlobalBalance()": "445",
            "getMovement(address,uint256)": "infinite",
            "getMovementCount(address)": "670",
            "getPendTx1(uint256)": "756",
            "getUser(uint32)": "infinite",
            "getUserCount()": "452",
            "kill()": "30858",
            "owner()": "482",
            "pause()": "21654",
            "paused()": "516",
            "sendCoin(string,string,uint32,string)": "infinite",
            "setFunds(string)": "infinite",
            "transfer(uint256)": "infinite",
            "transferOwnership(address)": "22612",
            "unpause()": "21728",
            "withdrawal(uint256)": "infinite"
        },
        "internal": {
            "addBalance(address,uint256)": "infinite",
            "createUser()": "infinite",
            "sendCoin_cont(uint256,address,struct Recycler.Mvt memory)": "infinite"
        }
    }
}