{
    "contractName": "UserFactory",
    "abi": [
        {
            "constant": true,
            "inputs": [
                {
                    "name": "_ind",
                    "type": "uint256"
                }
            ],
            "name": "getMovement",
            "outputs": [
                {
                    "name": "",
                    "type": "string"
                },
                {
                    "name": "",
                    "type": "string"
                },
                {
                    "name": "",
                    "type": "uint32"
                },
                {
                    "name": "",
                    "type": "string"
                },
                {
                    "name": "",
                    "type": "uint256"
                },
                {
                    "name": "",
                    "type": "uint256"
                }
            ],
            "payable": false,
            "stateMutability": "view",
            "type": "function"
        },
        {
            "constant": false,
            "inputs": [
                {
                    "name": "_code",
                    "type": "string"
                },
                {
                    "name": "_fee",
                    "type": "string"
                },
                {
                    "name": "_qty",
                    "type": "uint32"
                },
                {
                    "name": "_uni",
                    "type": "string"
                },
                {
                    "name": "_amount",
                    "type": "uint256"
                }
            ],
            "name": "addMovement",
            "outputs": [],
            "payable": false,
            "stateMutability": "nonpayable",
            "type": "function"
        },
        {
            "inputs": [
                {
                    "name": "_owner",
                    "type": "address"
                }
            ],
            "payable": false,
            "stateMutability": "nonpayable",
            "type": "constructor"
        },
        {
            "anonymous": false,
            "inputs": [
                {
                    "indexed": true,
                    "name": "owner",
                    "type": "address"
                },
                {
                    "indexed": true,
                    "name": "factory",
                    "type": "address"
                },
                {
                    "indexed": false,
                    "name": "amount",
                    "type": "uint256"
                },
                {
                    "indexed": false,
                    "name": "balance",
                    "type": "uint256"
                },
                {
                    "indexed": false,
                    "name": "count",
                    "type": "uint256"
                }
            ],
            "name": "newMovement",
            "type": "event"
        }
    ],
    "bytecode": "608060405234801561001057600080fd5b50604051610d5c380380610d5c8339818101604052602081101561003357600080fd5b5051600080546001600160a01b039092166001600160a01b03199283161790556001805490911633179055610cef8061006d6000396000f3fe608060405234801561001057600080fd5b50600436106100365760003560e01c80638cd981a81461003b578063928b5d95146101bd575b600080fd5b6100586004803603602081101561005157600080fd5b5035610383565b6040518080602001806020018763ffffffff1663ffffffff1681526020018060200186815260200185815260200184810384528a818151815260200191508051906020019080838360005b838110156100bb5781810151838201526020016100a3565b50505050905090810190601f1680156100e85780820380516001836020036101000a031916815260200191505b5084810383528951815289516020918201918b019080838360005b8381101561011b578181015183820152602001610103565b50505050905090810190601f1680156101485780820380516001836020036101000a031916815260200191505b50848103825287518152875160209182019189019080838360005b8381101561017b578181015183820152602001610163565b50505050905090810190601f1680156101a85780820380516001836020036101000a031916815260200191505b50995050505050505050505060405180910390f35b610381600480360360a08110156101d357600080fd5b8101906020810181356401000000008111156101ee57600080fd5b82018360208201111561020057600080fd5b8035906020019184600183028401116401000000008311171561022257600080fd5b91908080601f016020809104026020016040519081016040528093929190818152602001838380828437600092019190915250929594936020810193503591505064010000000081111561027557600080fd5b82018360208201111561028757600080fd5b803590602001918460018302840111640100000000831117156102a957600080fd5b91908080601f016020809104026020016040519081016040528093929190818152602001838380828437600092019190915250929563ffffffff85351695909490935060408101925060200135905064010000000081111561030a57600080fd5b82018360208201111561031c57600080fd5b8035906020019184600183028401116401000000008311171561033e57600080fd5b91908080601f01602080910402602001604051908101604052809392919081815260200183838082843760009201919091525092955050913592506106c1915050565b005b60608060006060600080600087116103e2576040805162461bcd60e51b815260206004820152601f60248201527f76616c7565206d7573742062652067726561746572207468616e207a65726f00604482015290519081900360640190fd5b60035463ffffffff168711156104295760405162461bcd60e51b8152600401808060200182810382526028815260200180610c726028913960400191505060405180910390fd5b60006104368860016109db565b90506004818154811061044557fe5b90600052602060002090600602016000016004828154811061046357fe5b90600052602060002090600602016001016004838154811061048157fe5b906000526020600020906006020160020160009054906101000a900463ffffffff16600484815481106104b057fe5b9060005260206000209060060201600301600485815481106104ce57fe5b906000526020600020906006020160040154600486815481106104ed57fe5b600091825260209182902060056006909202010154865460408051601f6002600019610100600187161502019094169390930492830185900485028101850190915281815291928891908301828280156105885780601f1061055d57610100808354040283529160200191610588565b820191906000526020600020905b81548152906001019060200180831161056b57829003601f168201915b5050885460408051602060026001851615610100026000190190941693909304601f8101849004840282018401909252818152959b508a9450925084019050828280156106165780601f106105eb57610100808354040283529160200191610616565b820191906000526020600020905b8154815290600101906020018083116105f957829003601f168201915b5050865460408051602060026001851615610100026000190190941693909304601f8101849004840282018401909252818152959a50889450925084019050828280156106a45780601f10610679576101008083540402835291602001916106a4565b820191906000526020600020905b81548152906001019060200180831161068757829003601f168201915b505050505092509650965096509650965096505091939550919395565b6001546001600160a01b0316331461070a5760405162461bcd60e51b8152600401808060200182810382526022815260200180610c506022913960400191505060405180910390fd5b60008363ffffffff161161074f5760405162461bcd60e51b8152600401808060200182810382526021815260200180610c9a6021913960400191505060405180910390fd5b6103e88363ffffffff1611156107a3576040805162461bcd60e51b81526020600482015260146024820152730e2eac2dce8d2e8f240d2e640e8dede40d0d2ced60631b604482015290519081900360640190fd5b60008551116107f1576040805162461bcd60e51b81526020600482015260156024820152747061636b61676520636f646520697320656d70747960581b604482015290519081900360640190fd5b600082511161083c576040805162461bcd60e51b8152602060048201526012602482015271756e697420636f646520697320656d70747960701b604482015290519081900360640190fd5b610844610b78565b858152602080820186905263ffffffff8516604083015260608201849052608082018390524260a08301526004805460018101808355600092909252835180519293859360069093027f8a35acfbc15ff81a39ae7d344fd709f28e8600b4aa8c65c6b64bfe7fe36bd19b01926108bd9284920190610bb4565b5060208281015180516108d69260018501920190610bb4565b50604082015160028201805463ffffffff191663ffffffff90921691909117905560608201518051610912916003840191602090910190610bb4565b506080820151600482015560a0909101516005909101555060035461093e9063ffffffff166001610a24565b600360006101000a81548163ffffffff021916908363ffffffff16021790555061096e6002548260800151610a87565b6002819055600054608083015160035460408051928352602083019490945263ffffffff1681840152915130926001600160a01b0392909216917f634803569c8df39be5458edd5454c5a425666a63cd029c0eef3680f7c23b3354919081900360600190a3505050505050565b6000610a1d83836040518060400160405280601e81526020017f536166654d6174683a207375627472616374696f6e206f766572666c6f770000815250610ae1565b9392505050565b600082820163ffffffff8085169082161015610a1d576040805162461bcd60e51b815260206004820152601b60248201527f536166654d6174683a206164646974696f6e206f766572666c6f770000000000604482015290519081900360640190fd5b600082820183811015610a1d576040805162461bcd60e51b815260206004820152601b60248201527f536166654d6174683a206164646974696f6e206f766572666c6f770000000000604482015290519081900360640190fd5b60008184841115610b705760405162461bcd60e51b81526004018080602001828103825283818151815260200191508051906020019080838360005b83811015610b35578181015183820152602001610b1d565b50505050905090810190601f168015610b625780820380516001836020036101000a031916815260200191505b509250505060405180910390fd5b505050900390565b6040518060c001604052806060815260200160608152602001600063ffffffff1681526020016060815260200160008152602001600081525090565b828054600181600116156101000203166002900490600052602060002090601f016020900481019282601f10610bf557805160ff1916838001178555610c22565b82800160010185558215610c22579182015b82811115610c22578251825591602001919060010190610c07565b50610c2e929150610c32565b5090565b610c4c91905b80821115610c2e5760008155600101610c38565b9056fe73656e646572206973206e6f742074686520666163746f727920636f6e747261637476616c756520697320686967686572207468616e206c617374206d6f76656d656e7420696e6465787175616e74697479206973206e6f742067726561746572207468616e207a65726fa265627a7a72305820d5013fa17891223b865991dab6d956ea0d1a58769535034bd4c23c6642d5d92c64736f6c634300050a0032",
    "sourcePath": "/home/lealp22/DYDII_PEC1/contracts/Recycler.sol",
    "compiler": {
        "name": "solc",
        "version": "0.5.10+commit.5a6ea5b1"
    },
    "functionHashes": {
        "addMovement(string,string,uint32,string,uint256)": "928b5d95",
        "getMovement(uint256)": "8cd981a8"
    },
    "gasEstimates": {
        "creation": {
            "codeDepositCost": "662200",
            "executionCost": "infinite",
            "totalCost": "infinite"
        },
        "external": {
            "addMovement(string,string,uint32,string,uint256)": "infinite",
            "getMovement(uint256)": "infinite"
        }
    }
}