{
  "contractName": "UserFactory",
  "abi": [
    {
      "inputs": [
        {
          "name": "_owner",
          "type": "address"
        }
      ],
      "payable": false,
      "stateMutability": "nonpayable",
      "type": "constructor"
    },
    {
      "anonymous": false,
      "inputs": [
        {
          "indexed": true,
          "name": "owner",
          "type": "address"
        },
        {
          "indexed": true,
          "name": "factory",
          "type": "address"
        },
        {
          "indexed": false,
          "name": "amount",
          "type": "uint256"
        },
        {
          "indexed": false,
          "name": "balance",
          "type": "uint256"
        },
        {
          "indexed": false,
          "name": "count",
          "type": "uint256"
        }
      ],
      "name": "newMovement",
      "type": "event"
    },
    {
      "constant": false,
      "inputs": [
        {
          "name": "_code",
          "type": "string"
        },
        {
          "name": "_fee",
          "type": "string"
        },
        {
          "name": "_qty",
          "type": "uint32"
        },
        {
          "name": "_uni",
          "type": "string"
        },
        {
          "name": "_amount",
          "type": "uint256"
        }
      ],
      "name": "addMovement",
      "outputs": [],
      "payable": false,
      "stateMutability": "nonpayable",
      "type": "function"
    },
    {
      "constant": true,
      "inputs": [
        {
          "name": "_ind",
          "type": "uint256"
        }
      ],
      "name": "getMovement",
      "outputs": [
        {
          "name": "",
          "type": "string"
        },
        {
          "name": "",
          "type": "string"
        },
        {
          "name": "",
          "type": "uint32"
        },
        {
          "name": "",
          "type": "string"
        },
        {
          "name": "",
          "type": "uint256"
        },
        {
          "name": "",
          "type": "uint256"
        }
      ],
      "payable": false,
      "stateMutability": "view",
      "type": "function"
    }
  ],
  "bytecode": "0x608060405234801561001057600080fd5b50604051602080610e208339810180604052602081101561003057600080fd5b505160008054600160a060020a03909216600160a060020a03199283161790556001805490911633179055610db68061006a6000396000f3fe60806040526004361061004b5763ffffffff7c01000000000000000000000000000000000000000000000000000000006000350416638cd981a88114610050578063928b5d95146101df575b600080fd5b34801561005c57600080fd5b5061007a6004803603602081101561007357600080fd5b50356103b2565b6040518080602001806020018763ffffffff1663ffffffff1681526020018060200186815260200185815260200184810384528a818151815260200191508051906020019080838360005b838110156100dd5781810151838201526020016100c5565b50505050905090810190601f16801561010a5780820380516001836020036101000a031916815260200191505b5084810383528951815289516020918201918b019080838360005b8381101561013d578181015183820152602001610125565b50505050905090810190601f16801561016a5780820380516001836020036101000a031916815260200191505b50848103825287518152875160209182019189019080838360005b8381101561019d578181015183820152602001610185565b50505050905090810190601f1680156101ca5780820380516001836020036101000a031916815260200191505b50995050505050505050505060405180910390f35b3480156101eb57600080fd5b506103b0600480360360a081101561020257600080fd5b81019060208101813564010000000081111561021d57600080fd5b82018360208201111561022f57600080fd5b8035906020019184600183028401116401000000008311171561025157600080fd5b91908080601f01602080910402602001604051908101604052809392919081815260200183838082843760009201919091525092959493602081019350359150506401000000008111156102a457600080fd5b8201836020820111156102b657600080fd5b803590602001918460018302840111640100000000831117156102d857600080fd5b91908080601f016020809104026020016040519081016040528093929190818152602001838380828437600092019190915250929563ffffffff85351695909490935060408101925060200135905064010000000081111561033957600080fd5b82018360208201111561034b57600080fd5b8035906020019184600183028401116401000000008311171561036d57600080fd5b91908080601f0160208091040260200160405190810160405280939291908181526020018383808284376000920191909152509295505091359250610735915050565b005b6060806000818180808711610411576040805160e560020a62461bcd02815260206004820152601f60248201527f76616c7565206d7573742062652067726561746572207468616e207a65726f00604482015290519081900360640190fd5b60035463ffffffff16871115610497576040805160e560020a62461bcd02815260206004820152602860248201527f76616c756520697320686967686572207468616e206c617374206d6f76656d6560448201527f6e7420696e646578000000000000000000000000000000000000000000000000606482015290519081900360840190fd5b60006104a4886001610b0c565b90506004818154811015156104b557fe5b90600052602060002090600602016000016004828154811015156104d557fe5b90600052602060002090600602016001016004838154811015156104f557fe5b60009182526020909120600260069092020101546004805463ffffffff909216918590811061052057fe5b906000526020600020906006020160030160048581548110151561054057fe5b90600052602060002090600602016004015460048681548110151561056157fe5b600091825260209182902060056006909202010154865460408051601f6002600019610100600187161502019094169390930492830185900485028101850190915281815291928891908301828280156105fc5780601f106105d1576101008083540402835291602001916105fc565b820191906000526020600020905b8154815290600101906020018083116105df57829003601f168201915b5050885460408051602060026001851615610100026000190190941693909304601f8101849004840282018401909252818152959b508a94509250840190508282801561068a5780601f1061065f5761010080835404028352916020019161068a565b820191906000526020600020905b81548152906001019060200180831161066d57829003601f168201915b5050865460408051602060026001851615610100026000190190941693909304601f8101849004840282018401909252818152959a50889450925084019050828280156107185780601f106106ed57610100808354040283529160200191610718565b820191906000526020600020905b8154815290600101906020018083116106fb57829003601f168201915b505050505092509650965096509650965096505091939550919395565b60015473ffffffffffffffffffffffffffffffffffffffff1633146107ca576040805160e560020a62461bcd02815260206004820152602260248201527f73656e646572206973206e6f742074686520666163746f727920636f6e74726160448201527f6374000000000000000000000000000000000000000000000000000000000000606482015290519081900360840190fd5b600063ffffffff84161161084e576040805160e560020a62461bcd02815260206004820152602160248201527f7175616e74697479206973206e6f742067726561746572207468616e207a657260448201527f6f00000000000000000000000000000000000000000000000000000000000000606482015290519081900360840190fd5b6103e863ffffffff841611156108ae576040805160e560020a62461bcd02815260206004820152601460248201527f7175616e7469747920697320746f6f2068696768000000000000000000000000604482015290519081900360640190fd5b8451600010610907576040805160e560020a62461bcd02815260206004820152601560248201527f7061636b61676520636f646520697320656d7074790000000000000000000000604482015290519081900360640190fd5b8151600010610960576040805160e560020a62461bcd02815260206004820152601260248201527f756e697420636f646520697320656d7074790000000000000000000000000000604482015290519081900360640190fd5b610968610cb2565b858152602080820186905263ffffffff8516604083015260608201849052608082018390524260a08301526004805460018101808355600092909252835180519293859360069093027f8a35acfbc15ff81a39ae7d344fd709f28e8600b4aa8c65c6b64bfe7fe36bd19b01926109e19284920190610cef565b5060208281015180516109fa9260018501920190610cef565b50604082015160028201805463ffffffff191663ffffffff90921691909117905560608201518051610a36916003840191602090910190610cef565b506080820151600482015560a09091015160059091015550600354610a629063ffffffff166001610b55565b600360006101000a81548163ffffffff021916908363ffffffff160217905550610a926002548260800151610bbb565b6002819055600054608083015160035460408051928352602083019490945263ffffffff16818401529151309273ffffffffffffffffffffffffffffffffffffffff92909216917f634803569c8df39be5458edd5454c5a425666a63cd029c0eef3680f7c23b3354919081900360600190a3505050505050565b6000610b4e83836040805190810160405280601e81526020017f536166654d6174683a207375627472616374696f6e206f766572666c6f770000815250610c18565b9392505050565b600082820163ffffffff8085169082161015610b4e576040805160e560020a62461bcd02815260206004820152601b60248201527f536166654d6174683a206164646974696f6e206f766572666c6f770000000000604482015290519081900360640190fd5b600082820183811015610b4e576040805160e560020a62461bcd02815260206004820152601b60248201527f536166654d6174683a206164646974696f6e206f766572666c6f770000000000604482015290519081900360640190fd5b60008184841115610caa5760405160e560020a62461bcd0281526004018080602001828103825283818151815260200191508051906020019080838360005b83811015610c6f578181015183820152602001610c57565b50505050905090810190601f168015610c9c5780820380516001836020036101000a031916815260200191505b509250505060405180910390fd5b505050900390565b60c0604051908101604052806060815260200160608152602001600063ffffffff1681526020016060815260200160008152602001600081525090565b828054600181600116156101000203166002900490600052602060002090601f016020900481019282601f10610d3057805160ff1916838001178555610d5d565b82800160010185558215610d5d579182015b82811115610d5d578251825591602001919060010190610d42565b50610d69929150610d6d565b5090565b610d8791905b80821115610d695760008155600101610d73565b9056fea165627a7a72305820de4723ebbe18869c2dba422729b968e81b5ff188a18f5879c23e17b4f5c137f80029",
  "source": "pragma solidity ^0.5.0;\n\nimport \"./provableAPI_0.5.sol\";\nimport \"./SafeMath.sol\";\nimport \"./Pausable.sol\";\n\n/** @title  UserFactory (Factory Contracts - Child contract).\n  * @notice Utilizado para gestionar de forma individual los movimientos de un usuario\n  *         del sistema\n  */\ncontract UserFactory {\n\n    // Variables de trabajo\n    address owner;\n    address factory;\n    uint    balance;\n    uint32  count;\n\n    // Struct para los movimientos (transacciones)\n    struct Mvt {\n        string code;\n        string fee;\n        uint32 qty;\n        string uni;\n        uint   amount;\n        uint   date;\n    }\n\n    // Array para guardar los movimientos del usuario\n    Mvt[] mvts;\n\n    /**\n      * @dev Evento que se emitirá con la creación de cada movimiento\n      */\n    event newMovement(\n        address indexed owner, address indexed factory, uint amount, uint balance, uint count\n    );\n\n    /**\n      * @dev Validará que el sender sea el contrato padre\n      */\n    modifier onlyFactory() {\n        require(msg.sender == factory,\"sender is not the factory contract\");\n        _;\n    }\n\n    /**\n      * @dev Constructor.\n      * @dev El owner será el indicado por el contrato que llama (msg.sender)\n      * @param _owner El owner deberá ser indicado pues el sender es el contrato padre\n      */\n    constructor(address _owner) public {\n        owner = _owner;\n        factory = msg.sender;\n    }\n\n    /**\n      * @dev Función para la creación de movimientos (con cada transacción realizada)\n      *      Solo se permitirá ejecutarlo al contrato padre (factory)\n      *      Se Validará:\n      *      - La cantidad (qty) sea un número entre 1 y 1000\n      *      - código del envase (code) y la unidad de medida (uni) vengan informados\n      * @param _code código del envase\n      * @param _fee  tarifa\n      * @param _qty  cantidad\n      * @param _uni  unidad de medida (UNI o KGM)\n      * @param _amount tokens asignados\n      */\n    function addMovement(string memory _code, string memory _fee, uint32 _qty, string memory _uni, uint _amount) public onlyFactory {\n        require(_qty > 0,\"quantity is not greater than zero\");\n        require(_qty <= 1000,\"quantity is too high\");\n        require(bytes(_code).length > 0,\"package code is empty\");\n        require(bytes(_uni).length > 0,\"unit code is empty\");\n\n        Mvt memory _tx;\n\n        // Construimos la transacción\n        _tx.code = _code;\n        _tx.fee = _fee;\n        _tx.qty = _qty;\n        _tx.uni = _uni;\n        _tx.amount = _amount;\n        _tx.date = now;\n\n        // Incluimos la transacción en el array de movimientos\n        mvts.push(_tx);\n\n        // Actualizamos el contador de movimientos y el saldo\n        count = SafeMath.add32(count,1);\n        balance = SafeMath.add(balance, _tx.amount);\n\n        //emit evento creación nuevo movimiento\n        emit newMovement(owner, address(this), _tx.amount, balance, count);\n    }\n\n    /**\n      * @dev getMovement: Función para la consulta de movimientos\n      *      Se deberá indicar la posición del movimiento a consultar\n      *      (eg. para el primer movimiento se deberá enviar 1)\n      *      Devolverá todos los campos que forman el movimiento\n      * @param _ind Indice movimiento\n      * @return code\n      * @return fee\n      * @return qty\n      * @return uni\n      * @return amount\n      * @return date\n      */\n    function getMovement(uint _ind) external view returns(string memory, string memory, uint32, string memory, uint, uint) {\n        require (_ind > 0,\"value must be greater than zero\");\n        require (_ind <= count, \"value is higher than last movement index\");\n\n        // Resta 1 a la posición para obtener la posición real\n        uint pos = SafeMath.sub(_ind, 1);\n\n        return (mvts[pos].code, mvts[pos].fee, mvts[pos].qty, mvts[pos].uni, mvts[pos].amount, mvts[pos].date);\n    }\n\n}\n\n//**************************************************************************************************\n/** @title  Recycler (Factory Contracts - Factory/Main contract).\n  * @notice Contrato para la asignación de tokens a una dirección de Ethereum como recompensa\n  *         por la entrega de un envase para su reciclado. Dicho envase se identificará por el\n  *         código de barra en la etiqueta y, si tuviese asignado una tarifa (fee), el número\n  *         de tokens que corresponda a dicha tarifa se multiplicará por el número de unidades\n  *         entregadas. Si no fuese el caso, se asignará un token por cada unidad.\n  *\n  *         Para la obtención de los tokens correspondientes a una tarifa se utilizará un\n  *         oráculo de Provable.\n  */\n//**************************************************************************************************\ncontract Recycler is usingProvable, Pausable {\n\n    //* Estructura para datos de usuarios\n    struct User {\n        uint    balance;\n        uint    dtUltMvt;\n        uint32  countMvts;\n        uint32  seq;\n        UserFactory userContr;\n    }\n\n    //* Estructura para movimientos (Transacciones)\n    struct Mvt {\n        string code;\n        string fee;\n        uint32 qty;\n        string uni;\n        uint   amount;\n        uint   date;\n    }\n\n    //* Estructura para Transacciones pendientes enviadas al Oráculo\n    struct PendingQuery {\n        bool    isPending;\n        Mvt     transPending;\n        address senderContract;\n    }\n\n    //* Variables generales\n    uint32  countUsers;\n    uint32  countQueries;\n    uint    globalBalance;\n    Mvt     trans;\n    bytes32[] pendTx1;\n\n    //* -- Mapping --\n    //* Lista de usuarios\n    mapping (uint => address) private listaUsers;\n    //* Datos de usuarios\n    mapping (address => User) private users;\n    //* Transacciones pendientes enviadas al Oráculo\n    mapping (bytes32 => PendingQuery) private pendingQueries;\n\n    /**\n      * @dev newUser: Evento alta nuevo usuario\n      */\n    event newUser(\n        address indexed _sender, UserFactory indexed _factory, uint32 _seq\n    );\n\n    /**\n      * @dev newBalance: Evento actualización saldo de tokens\n      */\n    event newBalance(\n        address indexed _sender, uint _balance\n    );\n\n    /**\n      * @dev coinSent: Evento finalización envío de tokens\n      */\n    event coinSent(\n        address indexed _sender, string _code, string _fee, uint  _qty, string  _uni, uint _amount, uint _price\n    );\n\n    /**\n      * @dev LogPriceUpdated: Evento log respuesta query\n      */\n    event LogPriceUpdated(string _result);\n\n    /**\n      * @dev LogNewProvableQuery: Evento log nueva query\n      */\n    event LogNewProvableQuery(string description);\n\n    /**\n      * @dev Constructor\n      */\n    constructor() public payable {\n\n        createUser();\n\n        /** Se quita porque funciona sin problema en local pero falla al desplegar en Rinkeby\n        //Se crea un movimiento justificante del abono de 10000 tokens\n        users[msg.sender].countMvts = SafeMath.add32(users[msg.sender].countMvts, 1);\n        users[msg.sender].userContr.addMovement(\"coinbase\", \"\", 1, \"UNI\", 10000);\n        */\n        addBalance(msg.sender, 10000);\n    }\n\n    /**\n      * @dev Función para el traspaso de tokens a la cuenta del usuario\n      *      Si se indica una tarifa (prodFee) se debe llamar al oráculo para consultar el\n      *      precio (número de token que se debe entregar por cada unidad)\n      * @param prodCode código envase\n      * @param prodFee  código tarifa\n      * @param prodQty  cantidad envases entregados\n      * @param prodUni  unidad de medida\n      */\n    function sendCoin(string memory prodCode, string memory prodFee, uint32 prodQty, string memory prodUni) public whenNotPaused {\n        require(prodQty > 0,\"quantity is not greater than zero\");\n        require(prodQty < 1000,\"quantity is too high\");\n        require(bytes(prodCode).length > 0,\"package code is empty\");\n        require(bytes(prodUni).length > 0,\"unit code is empty\");\n\n        // Registra el usuario en caso de que no existiese\n        createUser();\n\n        // Recogemos los datos en un struct de movimientos\n        trans.code = prodCode;\n        trans.fee = prodFee;\n        trans.qty = prodQty;\n        trans.uni = prodUni;\n\n        // Solo se llamará al oráculo cuando se haya recibido un código de tarifa\n        if (bytes(prodFee).length > 0) {\n            fetchPrice(prodFee);\n        } else {\n            //uint price = 1;\n            sendCoin_cont(1, msg.sender, trans);\n        }\n    }\n\n    /**\n      * @dev Segunda parte de la función sendCoin que se ejecutará tras tener la tarifa (price)\n      *      de tokens a entregar\n      * @param _price  precio tarifa\n      * @param _sender address del movimiento\n      * @param _trans  movimiento (struct Mvt)\n      */\n    function sendCoin_cont(uint _price, address _sender, Mvt memory _trans) internal {\n\n        uint _amount;\n\n        // Si no se fija un precio o falla la llamada al oráculo se asume precio = 1\n        if (_price != 0) {\n            _amount = SafeMath.mul(_trans.qty, _price);\n        } else {\n            _amount = _trans.qty;\n        }\n\n        users[_sender].dtUltMvt = block.timestamp;\n        users[_sender].countMvts = SafeMath.add32(users[_sender].countMvts, 1);\n\n        // Llamada al contrato factory para que registre el movimiento de saldo\n        users[_sender].userContr.addMovement(_trans.code, _trans.fee, _trans.qty, _trans.uni, _amount);\n        addBalance(_sender, _amount);\n\n        emit coinSent(_sender, _trans.code, _trans.fee, _trans.qty, _trans.uni, _amount, _price);\n    }\n\n    /**\n      * @dev Función para obtener el número de tokens que se pagará por cada unidad recogida (según la tarifa\n      * indicada) -1ra parte-\n      *\n      * Para ello se utiliza un oráculo creado con Provable (antiguo Oraclize) al que se le indicará la\n      * URL de una API web que devolverá el número de tokens para la tarifa (_fee) enviada.\n      *\n      * La obtención del número de tokens se deberá hacer en dos pasos:\n      * 1º - En esta función se enviará la query al oráculo\n      * 2º - En la función __callback se recogerá el valor devuelto por el oráculo para calcular el número\n      *      de tokens a entregar al usuario.\n      *\n      * @param _fee tarifa para la que se deberá calcula el precio\n      */\n    function fetchPrice(string memory _fee) public payable whenNotPaused {\n       require(bytes(_fee).length > 0,\"fee code is empty\");\n\n       // Comprobamos si el contrato tiene saldo suficiente para el pago de la llamada al oráculo\n       if (provable_getPrice(\"URL\") > address(this).balance) {\n           emit LogNewProvableQuery(\"Provable letquery was NOT sent, please add some ETH to cover for the query fee\");\n       } else {\n\n           // Se construye la query con la tarifa (_fee) enviada como parámetro\n           // La apiKey ha sido cifrada con la clave pública de Provable\n           string memory _url = string(abi.encodePacked(\"[URL] ['json(https://api.mlab.com/api/1/databases/productos/collections/fees?apiKey=${[decrypt] BPssDAFd3BExbW4l0ee1RNV45pvdhOita1bwVtTzVu7aRvHoFZhuNCuuZnC8wzm6GUQ3yTz18+B2vnoADbHHpRc9NcMb/YZOwXo0sJsM5paIGll6oYEqpjWMQQ3eEISzGkE0/JMIHiDyG1SpiYI3bYg=}).0.result.\", _fee, \".price']\"));\n\n           emit LogNewProvableQuery(\"Provable query was sent, standing by for the answer..\");\n\n           // Enviamos la query a Provable y guardamos el Id para tratarlo en el callback\n           bytes32 queryId = provable_query(\"nested\", _url, 350000);\n\n           // Con el Id de la query guardamos los datos para tratarlos en el callback\n           pendingQueries[queryId].isPending = true;\n           pendingQueries[queryId].transPending = trans;\n           pendingQueries[queryId].senderContract = msg.sender;\n\n           // El contador countQueries nos permitirá sabér cuántas queries hay pendientes de procesar\n           countQueries = SafeMath.add32(countQueries, 1);\n\n           // DEBUG: Guardamos el ID de la peticiones para, en caso de ser necesario, poder recuperarlos y revisar qué pasa\n           pendTx1.push(queryId);\n       }\n    }\n\n    /**\n      * @dev Función para obtener el número de tokens que se pagará por cada unidad recogida (según la tarifa indicada)\n      * -2da parte-\n      *\n      * Revisamos que el ID enviado (_myid) correponda con algunas de las queries para las que esperamos respuesta y que\n      * quien haya invocado esta función sea provable_cbAddress.\n      * Recogemos el valor enviado en _result y continuamos con el proceso para el cálculo de tokens que se entregarán al usuario\n      *\n      * @param _myid   id de la query para la que se envía respuesta\n      * @param _result resultado de la query\n      */\n    function __callback(bytes32 _myid, string memory _result) public {\n       require(pendingQueries[_myid].isPending, \"there is not any query pending with that ID\");\n       require(msg.sender == provable_cbAddress(), \"address not valid for the callback\");\n\n       uint _price = parseInt(_result);\n       emit LogPriceUpdated(_result);\n\n       sendCoin_cont(_price, pendingQueries[_myid].senderContract, pendingQueries[_myid].transPending);\n\n       delete pendingQueries[_myid];\n       countQueries = SafeMath.sub32(countQueries, 1);\n    }\n\n    /**\n      * @dev DEBUG: Función para consultar la referencia de las queries enviadas al oráculo\n      * @param _ind Posición dentro del array\n      * @return  pendTx1[_ind] Id de petición query al oráculo\n      */\n    function getPendTx1(uint _ind) external view returns(bytes32) {\n        return pendTx1[_ind];\n    }\n\n    /**\n      * @dev Función para crear un usuario en el sistema y poder gestionar sus datos asociados\n      */\n    function createUser() internal {\n\n        if (users[msg.sender].dtUltMvt == 0 && users[msg.sender].countMvts == 0) {\n\n            users[msg.sender].userContr = new UserFactory(msg.sender);\n            users[msg.sender].dtUltMvt = block.timestamp;\n            users[msg.sender].countMvts = 0;\n            users[msg.sender].balance = 0;\n\n            countUsers = SafeMath.add32(countUsers, 1);\n            users[msg.sender].seq = countUsers;\n            listaUsers[countUsers] = msg.sender;\n\n            emit newUser(msg.sender, users[msg.sender].userContr, users[msg.sender].seq);\n        }\n    }\n\n    /**\n      * @dev Función para borrar los datos de una cuenta en caso de que fuese necesario\n      * (solo por el owner)\n      * @param _addr Direccion cuenta a borrar\n      */\n    function deleteUser(address _addr) public onlyOwner {\n        require (_addr != address(0), \"a valid address is required\");\n\n        // Solo se elimina si hubiese tenido alguna operación (dtUltMvt: fecha ult. mvto.)\n        if (users[msg.sender].dtUltMvt != 0) {\n\n            listaUsers[users[msg.sender].seq] = address(0);\n            globalBalance = SafeMath.sub(globalBalance, users[msg.sender].balance);\n\n            delete users[msg.sender];\n        }\n    }\n\n    /**\n      * @dev Función para incrementar el saldo de tokens del usuario\n      * @param _sender Dirección destino de los tokens\n      * @param _amount Importe tokens\n      */\n    function addBalance(address _sender, uint _amount) internal {\n\n        users[_sender].balance = SafeMath.add(users[_sender].balance, _amount);\n        globalBalance = SafeMath.add(globalBalance, _amount);\n\n        emit newBalance(msg.sender, users[msg.sender].balance);\n    }\n\n    /**\n      * @dev Función para consultar el saldo de tokens del usuario\n      * @param _addr Cuenta para la que se solicita\n      * @return saldo en tokens\n      */\n    function getBalance(address _addr) public view returns(uint) {\n        return users[_addr].balance;\n    }\n\n    /**\n      * @dev Función para consultar el saldo global del sistema de tokens que se han asignado\n      * @return globalBalance Saldo total tokens del sistema\n      */\n    function getGlobalBalance() public view returns(uint) {\n        return globalBalance;\n    }\n\n    /**\n      * @dev Función para consultar el saldo en Ethers del contrato (necesario para el pago de gas para el Oráculo)\n      * @return Saldo tokens de la cuenta con que se esté trabajando\n      */\n    function getContractBalance() public view returns(uint) {\n        return address(this).balance;\n    }\n\n    /**\n      * @dev Función utilizada para transferir fondos (Ethers) al contrato\n      * @param _message  Mensaje que se desea enviar\n      * @return _message Devuelve el mismo mensaje de entrada\n      */\n    function setFunds(string memory _message) public payable returns(string memory) {\n        require (msg.value > 0, \"value is not greater than zero\");\n\n        return _message;\n    }\n\n    /**\n      * @dev Función para transferir el saldo en Ethers del contrato al owner (solo por el owner)\n      */\n    function transfer(uint _amount) public onlyOwner {\n        require (address(this).balance >= _amount, \"not enough balance\");\n\n        owner.transfer(_amount);\n    }\n\n    /**\n      * @dev Función para consultar los movimientos de una cuenta (uno por llamada)\n      *      Se requiere la dirección de la cuenta y el indíce del movimiento\n      *      Devolverá el conjunto de campos que componen un movimiento\n      *\n      * @param _addr Cuenta\n      * @param _ind  Indíce (absoluto) del movimiento\n      * @return _tx.code\n      * @return _tx.fee\n      * @return _tx.qty\n      * @return _tx.uni\n      * @return _tx.amount\n      * @return _tx.date\n      */\n    function getMovement(address _addr, uint _ind) external view returns(string memory, string memory, uint32, string memory, uint, uint) {\n        require (_addr != address(0), \"an address is required\");\n        require (_ind > 0,\"value must be greater than zero\");\n        require (_ind <= users[_addr].countMvts, \"value is higher than last movement index\");\n\n        Mvt memory _tx;\n\n        (_tx.code, _tx.fee, _tx.qty, _tx.uni, _tx.amount, _tx.date) = users[_addr].userContr.getMovement(_ind);\n\n        //return (mvts[pos]);\n        return (_tx.code, _tx.fee, _tx.qty, _tx.uni, _tx.amount, _tx.date);\n    }\n\n    /**\n      * @dev Devuelve el número de movimientos que tiene una cuenta\n      * @param _addr cuenta\n      * @return número de movimientos\n      */\n    function getMovementCount(address _addr) external view returns(uint32) {\n        require (_addr != address(0), \"a valid address is required\");\n\n        return users[_addr].countMvts;\n    }\n\n    /**\n      * @dev Función para obtener la lista usuarios que han utilizado el sistema (se obtiene\n      *      una address por llamada)\n      * @param _ind posición en la lista\n      * @return dirección de usuario\n      */\n    function getUser(uint32 _ind) external view returns(address) {\n        require (_ind > 0,\"value must be greater than zero\");\n        require (_ind <= countUsers, \"value is higher than the number of users\");\n\n        return listaUsers[_ind];\n    }\n\n    /**\n      * @dev Función para obtener el número de usuarios que han utilizado el sistema\n      * @return número de usuarios\n      */\n    function getUserCount() external view returns(uint32) {\n        return countUsers;\n    }\n\n    /**\n      * @dev Función para obtener el número de queries pendientes de procesar por el oráculo\n      * @return número de queries en vuelo\n    function getCountQueries() external view returns(uint32) {\n        return countQueries;\n    }\n\n    /**\n      * @dev Función para descontar el saldo de tokens de un usuario\n      * @param _amount importe a descontar\n      * @return nuevo saldo\n      */\n    function withdrawal(uint _amount) public whenNotPaused returns(uint) {\n        require(users[msg.sender].balance >= _amount,\"not enough balance\");\n        require(globalBalance >= _amount,\"not enough global balance\");\n\n        users[msg.sender].balance = SafeMath.sub(users[msg.sender].balance,_amount);\n        globalBalance = SafeMath.sub(globalBalance,_amount);\n\n        return users[msg.sender].balance;\n    }\n\n    /**\n      * @dev Función para desactivar de forma permanente el contrato (solo por el owner\n      *      y el contrato esté en pausa)\n      */\n    function kill() public payable onlyOwner whenPaused {\n        require (globalBalance == 0, \"global balance is not zero\");\n        selfdestruct(msg.sender);\n    }\n\n    /**\n      * @dev Fallback function - Called if other functions don't match call or\n      * sent ether without data\n      * Typically, called when invalid data is sent\n      * Added so ether sent to this contract is reverted if the contract fails\n      * otherwise, the sender's money is transferred to contract\n      */\n    function () external payable {\n        revert(\"Fallback function\");\n    }\n\n}",
  "sourcePath": "/home/lealp22/DYDII_PEC1/contracts/Recycler.sol",
  "compiler": {
    "name": "solc",
    "version": "0.5.0+commit.1d4f565a.Emscripten.clang"
  },
  "schemaVersion": "3.0.11",
  "updatedAt": "2019-09-16T20:15:52.134Z",
  "devdoc": {
    "methods": {
      "addMovement(string,string,uint32,string,uint256)": {
        "details": "Función para la creación de movimientos (con cada transacción realizada)     Solo se permitirá ejecutarlo al contrato padre (factory)     Se Validará:     - La cantidad (qty) sea un número entre 1 y 1000     - código del envase (code) y la unidad de medida (uni) vengan informados",
        "params": {
          "_amount": "tokens asignados",
          "_code": "código del envase",
          "_fee": "tarifa",
          "_qty": "cantidad",
          "_uni": "unidad de medida (UNI o KGM)"
        }
      },
      "constructor": {
        "details": "Constructor.El owner será el indicado por el contrato que llama (msg.sender)",
        "params": {
          "_owner": "El owner deberá ser indicado pues el sender es el contrato padre"
        }
      },
      "getMovement(uint256)": {
        "details": "getMovement: Función para la consulta de movimientos     Se deberá indicar la posición del movimiento a consultar     (eg. para el primer movimiento se deberá enviar 1)     Devolverá todos los campos que forman el movimiento",
        "params": {
          "_ind": "Indice movimiento"
        },
        "return": "codefeeqtyuniamountdate"
      }
    },
    "title": "UserFactory (Factory Contracts - Child contract)."
  },
  "userdoc": {
    "methods": {},
    "notice": "Utilizado para gestionar de forma individual los movimientos de un usuario        del sistema"
  }
}