{
  "contractName": "Recycler",
  "abi": [
    {
      "constant": false,
      "inputs": [],
      "name": "unpause",
      "outputs": [],
      "payable": false,
      "stateMutability": "nonpayable",
      "type": "function"
    },
    {
      "constant": true,
      "inputs": [],
      "name": "paused",
      "outputs": [
        {
          "name": "",
          "type": "bool"
        }
      ],
      "payable": false,
      "stateMutability": "view",
      "type": "function"
    },
    {
      "constant": false,
      "inputs": [],
      "name": "pause",
      "outputs": [],
      "payable": false,
      "stateMutability": "nonpayable",
      "type": "function"
    },
    {
      "constant": true,
      "inputs": [],
      "name": "owner",
      "outputs": [
        {
          "name": "",
          "type": "address"
        }
      ],
      "payable": false,
      "stateMutability": "view",
      "type": "function"
    },
    {
      "constant": false,
      "inputs": [
        {
          "name": "newOwner",
          "type": "address"
        }
      ],
      "name": "transferOwnership",
      "outputs": [],
      "payable": false,
      "stateMutability": "nonpayable",
      "type": "function"
    },
    {
      "inputs": [],
      "payable": true,
      "stateMutability": "payable",
      "type": "constructor"
    },
    {
      "payable": true,
      "stateMutability": "payable",
      "type": "fallback"
    },
    {
      "anonymous": false,
      "inputs": [
        {
          "indexed": true,
          "name": "_sender",
          "type": "address"
        },
        {
          "indexed": true,
          "name": "_factory",
          "type": "address"
        },
        {
          "indexed": false,
          "name": "_seq",
          "type": "uint32"
        }
      ],
      "name": "newUser",
      "type": "event"
    },
    {
      "anonymous": false,
      "inputs": [
        {
          "indexed": true,
          "name": "_sender",
          "type": "address"
        },
        {
          "indexed": false,
          "name": "_balance",
          "type": "uint256"
        }
      ],
      "name": "newBalance",
      "type": "event"
    },
    {
      "anonymous": false,
      "inputs": [
        {
          "indexed": true,
          "name": "_sender",
          "type": "address"
        },
        {
          "indexed": false,
          "name": "_code",
          "type": "string"
        },
        {
          "indexed": false,
          "name": "_fee",
          "type": "string"
        },
        {
          "indexed": false,
          "name": "_qty",
          "type": "uint256"
        },
        {
          "indexed": false,
          "name": "_uni",
          "type": "string"
        },
        {
          "indexed": false,
          "name": "_amount",
          "type": "uint256"
        },
        {
          "indexed": false,
          "name": "_price",
          "type": "uint256"
        }
      ],
      "name": "coinSent",
      "type": "event"
    },
    {
      "anonymous": false,
      "inputs": [
        {
          "indexed": false,
          "name": "_result",
          "type": "string"
        }
      ],
      "name": "LogPriceUpdated",
      "type": "event"
    },
    {
      "anonymous": false,
      "inputs": [
        {
          "indexed": false,
          "name": "description",
          "type": "string"
        }
      ],
      "name": "LogNewProvableQuery",
      "type": "event"
    },
    {
      "anonymous": false,
      "inputs": [],
      "name": "Paused",
      "type": "event"
    },
    {
      "anonymous": false,
      "inputs": [],
      "name": "Unpaused",
      "type": "event"
    },
    {
      "anonymous": false,
      "inputs": [
        {
          "indexed": true,
          "name": "previousOwner",
          "type": "address"
        },
        {
          "indexed": true,
          "name": "newOwner",
          "type": "address"
        }
      ],
      "name": "OwnershipTransferred",
      "type": "event"
    },
    {
      "constant": false,
      "inputs": [
        {
          "name": "prodCode",
          "type": "string"
        },
        {
          "name": "prodFee",
          "type": "string"
        },
        {
          "name": "prodQty",
          "type": "uint32"
        },
        {
          "name": "prodUni",
          "type": "string"
        }
      ],
      "name": "sendCoin",
      "outputs": [],
      "payable": false,
      "stateMutability": "nonpayable",
      "type": "function"
    },
    {
      "constant": false,
      "inputs": [
        {
          "name": "_fee",
          "type": "string"
        }
      ],
      "name": "fetchPrice",
      "outputs": [],
      "payable": true,
      "stateMutability": "payable",
      "type": "function"
    },
    {
      "constant": false,
      "inputs": [
        {
          "name": "_myid",
          "type": "bytes32"
        },
        {
          "name": "_result",
          "type": "string"
        },
        {
          "name": "_proof",
          "type": "bytes"
        }
      ],
      "name": "__callback",
      "outputs": [],
      "payable": false,
      "stateMutability": "nonpayable",
      "type": "function"
    },
    {
      "constant": false,
      "inputs": [
        {
          "name": "_myid",
          "type": "bytes32"
        },
        {
          "name": "_result",
          "type": "string"
        }
      ],
      "name": "__callback",
      "outputs": [],
      "payable": false,
      "stateMutability": "nonpayable",
      "type": "function"
    },
    {
      "constant": true,
      "inputs": [
        {
          "name": "_ind",
          "type": "uint256"
        }
      ],
      "name": "getPendTx1",
      "outputs": [
        {
          "name": "",
          "type": "bytes32"
        }
      ],
      "payable": false,
      "stateMutability": "view",
      "type": "function"
    },
    {
      "constant": false,
      "inputs": [
        {
          "name": "_addr",
          "type": "address"
        }
      ],
      "name": "deleteUser",
      "outputs": [],
      "payable": false,
      "stateMutability": "nonpayable",
      "type": "function"
    },
    {
      "constant": true,
      "inputs": [
        {
          "name": "_addr",
          "type": "address"
        }
      ],
      "name": "getBalance",
      "outputs": [
        {
          "name": "",
          "type": "uint256"
        }
      ],
      "payable": false,
      "stateMutability": "view",
      "type": "function"
    },
    {
      "constant": true,
      "inputs": [],
      "name": "getGlobalBalance",
      "outputs": [
        {
          "name": "",
          "type": "uint256"
        }
      ],
      "payable": false,
      "stateMutability": "view",
      "type": "function"
    },
    {
      "constant": true,
      "inputs": [],
      "name": "getContractBalance",
      "outputs": [
        {
          "name": "",
          "type": "uint256"
        }
      ],
      "payable": false,
      "stateMutability": "view",
      "type": "function"
    },
    {
      "constant": false,
      "inputs": [
        {
          "name": "_message",
          "type": "string"
        }
      ],
      "name": "setFunds",
      "outputs": [
        {
          "name": "",
          "type": "string"
        }
      ],
      "payable": true,
      "stateMutability": "payable",
      "type": "function"
    },
    {
      "constant": false,
      "inputs": [],
      "name": "transfer",
      "outputs": [],
      "payable": true,
      "stateMutability": "payable",
      "type": "function"
    },
    {
      "constant": true,
      "inputs": [
        {
          "name": "_addr",
          "type": "address"
        },
        {
          "name": "_ind",
          "type": "uint256"
        }
      ],
      "name": "getMovement",
      "outputs": [
        {
          "name": "",
          "type": "string"
        },
        {
          "name": "",
          "type": "string"
        },
        {
          "name": "",
          "type": "uint32"
        },
        {
          "name": "",
          "type": "string"
        },
        {
          "name": "",
          "type": "uint256"
        },
        {
          "name": "",
          "type": "uint256"
        }
      ],
      "payable": false,
      "stateMutability": "view",
      "type": "function"
    },
    {
      "constant": true,
      "inputs": [
        {
          "name": "_addr",
          "type": "address"
        }
      ],
      "name": "getMovementCount",
      "outputs": [
        {
          "name": "",
          "type": "uint32"
        }
      ],
      "payable": false,
      "stateMutability": "view",
      "type": "function"
    },
    {
      "constant": true,
      "inputs": [
        {
          "name": "_ind",
          "type": "uint32"
        }
      ],
      "name": "getUser",
      "outputs": [
        {
          "name": "",
          "type": "address"
        }
      ],
      "payable": false,
      "stateMutability": "view",
      "type": "function"
    },
    {
      "constant": true,
      "inputs": [],
      "name": "getUserCount",
      "outputs": [
        {
          "name": "",
          "type": "uint32"
        }
      ],
      "payable": false,
      "stateMutability": "view",
      "type": "function"
    },
    {
      "constant": false,
      "inputs": [
        {
          "name": "_amount",
          "type": "uint256"
        }
      ],
      "name": "withdrawal",
      "outputs": [
        {
          "name": "",
          "type": "uint256"
        }
      ],
      "payable": false,
      "stateMutability": "nonpayable",
      "type": "function"
    },
    {
      "constant": false,
      "inputs": [],
      "name": "kill",
      "outputs": [],
      "payable": true,
      "stateMutability": "payable",
      "type": "function"
    }
  ],
  "bytecode": "0x60806040526005805460a060020a60ff0219600160a060020a0319909116331716905562000035640100000000620001c0810204565b336000908152600f6020526040902060020154620000699063ffffffff1660016401000000006200309f620003ca82021704565b336000908152600f6020526040808220600201805463ffffffff9490941663ffffffff19909416939093179283905580517f928b5d9500000000000000000000000000000000000000000000000000000000815260016044820152612710608482015260a06004820152600860a48201527f636f696e6261736500000000000000000000000000000000000000000000000060c482015260e0602482015260e48101839052610120606482015260036101248201527f554e490000000000000000000000000000000000000000000000000000000000610144820152905168010000000000000000909304600160a060020a03169263928b5d95926101648084019391929182900301818387803b1580156200018457600080fd5b505af115801562000199573d6000803e3d6000fd5b50505050620001ba336127106200044f640100000000026401000000009004565b6200058a565b336000908152600f6020526040902060010154158015620001f75750336000908152600f602052604090206002015463ffffffff16155b15620003c857336200020862000579565b600160a060020a03909116815260405190819003602001906000f08015801562000236573d6000803e3d6000fd5b50336000908152600f602052604081206002810180544260018085019190915563ffffffff19600160a060020a039690961668010000000000000000027fffffffff0000000000000000000000000000000000000000ffffffffffffffff9092169190911794909416905555600554620002df91750100000000000000000000000000000000000000000090910463ffffffff16906401000000006200309f620003ca82021704565b6005805463ffffffff928316750100000000000000000000000000000000000000000090810260a860020a63ffffffff021990921691909117808355336000818152600f602081815260408084206002018054640100000000978990048b16880267ffffffff000000001990911617815597549690960488168352600e81528583208054600160a060020a03191685179055918390528152935483519281049095168252915168010000000000000000909404600160a060020a03169391927f2400353ee3cbddbecd51b36528703d6a9a1f15a73ef12fa52c45ebfbf5eb0e1092918290030190a35b565b600082820163ffffffff80851690821610156200044857604080517f08c379a000000000000000000000000000000000000000000000000000000000815260206004820152601b60248201527f536166654d6174683a206164646974696f6e206f766572666c6f770000000000604482015290519081900360640190fd5b9392505050565b600160a060020a0382166000908152600f602052604090205462000482908264010000000062003a196200050482021704565b600160a060020a0383166000908152600f6020526040902055600654620004b8908264010000000062003a196200050482021704565b600655336000818152600f602090815260409182902054825190815291517f4abaca7060438a179d5f20d945b01077a6df8b016150a897abd09d3fdebcf1099281900390910190a25050565b6000828201838110156200044857604080517f08c379a000000000000000000000000000000000000000000000000000000000815260206004820152601b60248201527f536166654d6174683a206164646974696f6e206f766572666c6f770000000000604482015290519081900360640190fd5b604051610e20806200513183390190565b614b97806200059a6000396000f3fe60806040526004361061010e5763ffffffff60e060020a60003504166323d468e2811461015e57806327dc297e1461018557806338bbfa50146102415780633f4ba83a1461038257806341b3bdfd1461039757806341c0e1b5146103c15780635c60f226146103c95780635c975abb146103fc5780636f9fb98a14610425578063835fc6ca1461043a5780638456cb59146104645780638a4068dd146104795780638da5cb5b1461048157806391178cf5146104b25780639782dd2a146104fe578063ab8e3a0e146105a4578063b5cb15f714610773578063cf222b5914610788578063db6f1e74146108a3578063f2a4f43c146108d3578063f2fde38b14610a71578063f8b2cb4f14610aa4575b6040805160e560020a62461bcd02815260206004820152601160248201527f46616c6c6261636b2066756e6374696f6e000000000000000000000000000000604482015290519081900360640190fd5b34801561016a57600080fd5b50610173610ad7565b60408051918252519081900360200190f35b34801561019157600080fd5b5061023f600480360360408110156101a857600080fd5b813591908101906040810160208201356401000000008111156101ca57600080fd5b8201836020820111156101dc57600080fd5b803590602001918460018302840111640100000000831117156101fe57600080fd5b91908080601f016020809104026020016040519081016040528093929190818152602001838380828437600092019190915250929550610ade945050505050565b005b34801561024d57600080fd5b5061023f6004803603606081101561026457600080fd5b8135919081019060408101602082013564010000000081111561028657600080fd5b82018360208201111561029857600080fd5b803590602001918460018302840111640100000000831117156102ba57600080fd5b91908080601f016020809104026020016040519081016040528093929190818152602001838380828437600092019190915250929594936020810193503591505064010000000081111561030d57600080fd5b82018360208201111561031f57600080fd5b8035906020019184600183028401116401000000008311171561034157600080fd5b91908080601f016020809104026020016040519081016040528093929190818152602001838380828437600092019190915250929550610f8e945050505050565b34801561038e57600080fd5b5061023f610fbf565b3480156103a357600080fd5b50610173600480360360208110156103ba57600080fd5b5035611082565b61023f6110a5565b3480156103d557600080fd5b5061023f600480360360208110156103ec57600080fd5b5035600160a060020a031661117a565b34801561040857600080fd5b506104116112a2565b604080519115158252519081900360200190f35b34801561043157600080fd5b506101736112b2565b34801561044657600080fd5b506101736004803603602081101561045d57600080fd5b50356112b7565b34801561047057600080fd5b5061023f61141a565b61023f6114d0565b34801561048d57600080fd5b506104966115d0565b60408051600160a060020a039092168252519081900360200190f35b3480156104be57600080fd5b506104e5600480360360208110156104d557600080fd5b5035600160a060020a03166115df565b6040805163ffffffff9092168252519081900360200190f35b61023f6004803603602081101561051457600080fd5b81019060208101813564010000000081111561052f57600080fd5b82018360208201111561054157600080fd5b8035906020019184600183028401116401000000008311171561056357600080fd5b91908080601f016020809104026020016040519081016040528093929190818152602001838380828437600092019190915250929550611666945050505050565b3480156105b057600080fd5b5061023f600480360360808110156105c757600080fd5b8101906020810181356401000000008111156105e257600080fd5b8201836020820111156105f457600080fd5b8035906020019184600183028401116401000000008311171561061657600080fd5b91908080601f016020809104026020016040519081016040528093929190818152602001838380828437600092019190915250929594936020810193503591505064010000000081111561066957600080fd5b82018360208201111561067b57600080fd5b8035906020019184600183028401116401000000008311171561069d57600080fd5b91908080601f016020809104026020016040519081016040528093929190818152602001838380828437600092019190915250929563ffffffff8535169590949093506040810192506020013590506401000000008111156106fe57600080fd5b82018360208201111561071057600080fd5b8035906020019184600183028401116401000000008311171561073257600080fd5b91908080601f016020809104026020016040519081016040528093929190818152602001838380828437600092019190915250929550611b13945050505050565b34801561077f57600080fd5b506104e5611de0565b61082e6004803603602081101561079e57600080fd5b8101906020810181356401000000008111156107b957600080fd5b8201836020820111156107cb57600080fd5b803590602001918460018302840111640100000000831117156107ed57600080fd5b91908080601f016020809104026020016040519081016040528093929190818152602001838380828437600092019190915250929550611e05945050505050565b6040805160208082528351818301528351919283929083019185019080838360005b83811015610868578181015183820152602001610850565b50505050905090810190601f1680156108955780820380516001836020036101000a031916815260200191505b509250505060405180910390f35b3480156108af57600080fd5b50610496600480360360208110156108c657600080fd5b503563ffffffff16611e63565b3480156108df57600080fd5b5061090c600480360360408110156108f657600080fd5b50600160a060020a038135169060200135611f87565b6040518080602001806020018763ffffffff1663ffffffff1681526020018060200186815260200185815260200184810384528a818151815260200191508051906020019080838360005b8381101561096f578181015183820152602001610957565b50505050905090810190601f16801561099c5780820380516001836020036101000a031916815260200191505b5084810383528951815289516020918201918b019080838360005b838110156109cf5781810151838201526020016109b7565b50505050905090810190601f1680156109fc5780820380516001836020036101000a031916815260200191505b50848103825287518152875160209182019189019080838360005b83811015610a2f578181015183820152602001610a17565b50505050905090810190601f168015610a5c5780820380516001836020036101000a031916815260200191505b50995050505050505050505060405180910390f35b348015610a7d57600080fd5b5061023f60048036036020811015610a9457600080fd5b5035600160a060020a03166122de565b348015610ab057600080fd5b5061017360048036036020811015610ac757600080fd5b5035600160a060020a0316612366565b6006545b90565b60008281526010602052604090205460ff161515610b6c576040805160e560020a62461bcd02815260206004820152602b60248201527f7468657265206973206e6f7420616e792071756572792070656e64696e67207760448201527f6974682074686174204944000000000000000000000000000000000000000000606482015290519081900360840190fd5b610b74612381565b600160a060020a03163314610bf9576040805160e560020a62461bcd02815260206004820152602260248201527f61646472657373206e6f742076616c696420666f72207468652063616c6c626160448201527f636b000000000000000000000000000000000000000000000000000000000000606482015290519081900360840190fd5b6000610c0482612573565b90507f71f1a5645e51a2da828ffcf79cc17da88eb25e1bca8b9dced23210847a4769c1826040518080602001828103825283818151815260200191508051906020019080838360005b83811015610c65578181015183820152602001610c4d565b50505050905090810190601f168015610c925780820380516001836020036101000a031916815260200191505b509250505060405180910390a1600083815260106020908152604091829020600781015483516001928301805460026101009582161595909502600019011693909304601f8101859004909402810160e090810190955260c08101848152610ec4958795600160a060020a03909416949293849291849190840182828015610d5b5780601f10610d3057610100808354040283529160200191610d5b565b820191906000526020600020905b815481529060010190602001808311610d3e57829003601f168201915b50505050508152602001600182018054600181600116156101000203166002900480601f016020809104026020016040519081016040528092919081815260200182805460018160011615610100020316600290048015610dfd5780601f10610dd257610100808354040283529160200191610dfd565b820191906000526020600020905b815481529060010190602001808311610de057829003601f168201915b505050918352505060028281015463ffffffff1660208084019190915260038401805460408051601f60001960018516156101000201909316959095049182018490048402850184018152818552909401939091830182828015610ea25780601f10610e7757610100808354040283529160200191610ea2565b820191906000526020600020905b815481529060010190602001808311610e8557829003601f168201915b5050505050815260200160048201548152602001600582015481525050612586565b6000838152601060205260408120805460ff19168155906001820181610eea8282613a8d565b610ef8600183016000613a8d565b60028201805463ffffffff19169055610f15600383016000613a8d565b506000600482018190556005918201556007929092018054600160a060020a03191690555054610f6990790100000000000000000000000000000000000000000000000000900463ffffffff1660016129a9565b600560196101000a81548163ffffffff021916908363ffffffff160217905550505050565b5050600080805260036020527f3617319a054d772f909f7c479a2cebe5066e836a939412e32403c99029b92eff5550565b600554600160a060020a03163314610fd657600080fd5b60055460a060020a900460ff161515611039576040805160e560020a62461bcd02815260206004820152601460248201527f5061757361626c653a206e6f7420706175736564000000000000000000000000604482015290519081900360640190fd5b6005805474ff0000000000000000000000000000000000000000191690556040517fa45f47fdea8a1efdd9029a5691c7f759c32b7c698632b563573e155625d1693390600090a1565b6000600d8281548110151561109357fe5b90600052602060002001549050919050565b600554600160a060020a031633146110bc57600080fd5b60055460a060020a900460ff16151561111f576040805160e560020a62461bcd02815260206004820152601460248201527f5061757361626c653a206e6f7420706175736564000000000000000000000000604482015290519081900360640190fd5b60065415611177576040805160e560020a62461bcd02815260206004820152601a60248201527f676c6f62616c2062616c616e6365206973206e6f74207a65726f000000000000604482015290519081900360640190fd5b33ff5b600554600160a060020a0316331461119157600080fd5b600160a060020a03811615156111f1576040805160e560020a62461bcd02815260206004820152601b60248201527f612076616c696420616464726573732069732072657175697265640000000000604482015290519081900360640190fd5b336000908152600f60205260409020600101541561129f57336000818152600f602081815260408084206002810154640100000000900463ffffffff168552600e83529084208054600160a060020a031916905560065494909352525461125891906129f2565b600655336000908152600f60205260408120818155600181019190915560020180547fffffffff000000000000000000000000000000000000000000000000000000001690555b50565b60055460a060020a900460ff1690565b303190565b60055460009060a060020a900460ff161561130a576040805160e560020a62461bcd0281526020600482015260106024820152600080516020614b4c833981519152604482015290519081900360640190fd5b336000908152600f6020526040902054821115611371576040805160e560020a62461bcd02815260206004820152601260248201527f6e6f7420656e6f7567682062616c616e63650000000000000000000000000000604482015290519081900360640190fd5b6006548211156113cb576040805160e560020a62461bcd02815260206004820152601960248201527f6e6f7420656e6f75676820676c6f62616c2062616c616e636500000000000000604482015290519081900360640190fd5b336000908152600f60205260409020546113e590836129f2565b336000908152600f602052604090205560065461140290836129f2565b6006555050336000908152600f602052604090205490565b600554600160a060020a0316331461143157600080fd5b60055460a060020a900460ff1615611481576040805160e560020a62461bcd0281526020600482015260106024820152600080516020614b4c833981519152604482015290519081900360640190fd5b6005805474ff0000000000000000000000000000000000000000191660a060020a1790556040517f9e87fac88ff661f02d44f95383c817fece4bce600a3dab7a54406878b965e75290600090a1565b600554600160a060020a031633146114e757600080fd5b3430311015611540576040805160e560020a62461bcd02815260206004820152601260248201527f6e6f7420656e6f7567682062616c616e63650000000000000000000000000000604482015290519081900360640190fd5b341515611597576040805160e560020a62461bcd02815260206004820152600d60248201527f76616c7565206973207a65726f00000000000000000000000000000000000000604482015290519081900360640190fd5b600554604051600160a060020a03909116903480156108fc02916000818181858888f1935050505015801561129f573d6000803e3d6000fd5b600554600160a060020a031681565b6000600160a060020a0382161515611641576040805160e560020a62461bcd02815260206004820152601b60248201527f612076616c696420616464726573732069732072657175697265640000000000604482015290519081900360640190fd5b50600160a060020a03166000908152600f602052604090206002015463ffffffff1690565b60055460a060020a900460ff16156116b6576040805160e560020a62461bcd0281526020600482015260106024820152600080516020614b4c833981519152604482015290519081900360640190fd5b805160001061170f576040805160e560020a62461bcd02815260206004820152601160248201527f66656520636f646520697320656d707479000000000000000000000000000000604482015290519081900360640190fd5b60408051808201909152600381527f55524c0000000000000000000000000000000000000000000000000000000000602082015230319061174f90612a34565b111561180657604080516020808252604e908201527f50726f7661626c65206c6574717565727920776173204e4f542073656e742c20818301527f706c656173652061646420736f6d652045544820746f20636f76657220666f7260608201527f2074686520717565727920666565000000000000000000000000000000000000608082015290517fc4dc360d0a9c0677a3379ae0a3d81e887f761e65fdf3d7e00859d1bcd3c473899181900360a00190a161129f565b6060816040516020018080614a4861010491396101040182805190602001908083835b602083106118485780518252601f199092019160209182019101611829565b51815160209384036101000a60001901801990921691161790527f2e7072696365275d00000000000000000000000000000000000000000000000091909301908152604080518083036017190181526008830180835294909452603560288301527f50726f7661626c65207175657279207761732073656e742c207374616e64696e60488301527f6720627920666f722074686520616e737765722e2e00000000000000000000006068830152519295507fc4dc360d0a9c0677a3379ae0a3d81e887f761e65fdf3d7e00859d1bcd3c47389945060889083900301925050a1600061196c6040805190810160405280600681526020017f6e657374656400000000000000000000000000000000000000000000000000008152508362055730612c9f565b6000818152601060205260409020805460ff1916600190811782556007805493945092918101916119b59183918591600260001991831615610100029190910190911604613ad1565b50600182018160010190805460018160011615610100020316600290046119dd929190613ad1565b50600282810154828201805463ffffffff191663ffffffff90921691909117905560038084018054611a2393928501926000196001831615610100020190911604613ad1565b50600482810154908201556005918201549082015560008281526010602052604090206007018054600160a060020a0319163317905554611a899063ffffffff79010000000000000000000000000000000000000000000000000090910416600161309f565b6005805463ffffffff92909216790100000000000000000000000000000000000000000000000000027fffffff00000000ffffffffffffffffffffffffffffffffffffffffffffffffff909216919091179055600d80546001810182556000919091527fd7b6990105719101dabeb77144f2a3385c8033acd3af97e9423a695e81ad1eb501555050565b60055460a060020a900460ff1615611b63576040805160e560020a62461bcd0281526020600482015260106024820152600080516020614b4c833981519152604482015290519081900360640190fd5b600063ffffffff831611611be7576040805160e560020a62461bcd02815260206004820152602160248201527f7175616e74697479206973206e6f742067726561746572207468616e207a657260448201527f6f00000000000000000000000000000000000000000000000000000000000000606482015290519081900360840190fd5b6103e863ffffffff831610611c46576040805160e560020a62461bcd02815260206004820152601460248201527f7175616e7469747920697320746f6f2068696768000000000000000000000000604482015290519081900360640190fd5b8351600010611c9f576040805160e560020a62461bcd02815260206004820152601560248201527f7061636b61676520636f646520697320656d7074790000000000000000000000604482015290519081900360640190fd5b8051600010611cf8576040805160e560020a62461bcd02815260206004820152601260248201527f756e697420636f646520697320656d7074790000000000000000000000000000604482015290519081900360640190fd5b611d00613105565b8351611d13906007906020870190613b52565b508251611d27906008906020860190613b52565b506009805463ffffffff191663ffffffff84161790558051611d5090600a906020840190613b52565b50600083511115611d6957611d6483611666565b611dda565b604080516007805460206002600180841615610100026000190190931604601f8101829004909102840160e090810190955260c08401818152611dda959294339490939092849291849190840182828015610d5b5780601f10610d3057610100808354040283529160200191610d5b565b50505050565b6005547501000000000000000000000000000000000000000000900463ffffffff1690565b606060003411611e5f576040805160e560020a62461bcd02815260206004820152601e60248201527f76616c7565206973206e6f742067726561746572207468616e207a65726f0000604482015290519081900360640190fd5b5090565b600063ffffffff82168110611ec2576040805160e560020a62461bcd02815260206004820152601f60248201527f76616c7565206d7573742062652067726561746572207468616e207a65726f00604482015290519081900360640190fd5b60055463ffffffff750100000000000000000000000000000000000000000090910481169083161115611f65576040805160e560020a62461bcd02815260206004820152602860248201527f76616c756520697320686967686572207468616e20746865206e756d6265722060448201527f6f66207573657273000000000000000000000000000000000000000000000000606482015290519081900360840190fd5b5063ffffffff166000908152600e6020526040902054600160a060020a031690565b6060806000818180600160a060020a0388161515611fef576040805160e560020a62461bcd02815260206004820152601660248201527f616e206164647265737320697320726571756972656400000000000000000000604482015290519081900360640190fd5b60008711612047576040805160e560020a62461bcd02815260206004820152601f60248201527f76616c7565206d7573742062652067726561746572207468616e207a65726f00604482015290519081900360640190fd5b600160a060020a0388166000908152600f602052604090206002015463ffffffff168711156120e6576040805160e560020a62461bcd02815260206004820152602860248201527f76616c756520697320686967686572207468616e206c617374206d6f76656d6560448201527f6e7420696e646578000000000000000000000000000000000000000000000000606482015290519081900360840190fd5b6120ee613bc0565b600160a060020a03808a166000908152600f60205260408082206002015481517f8cd981a8000000000000000000000000000000000000000000000000000000008152600481018d905291516801000000000000000090910490931692638cd981a892602480840193919291829003018186803b15801561216e57600080fd5b505afa158015612182573d6000803e3d6000fd5b505050506040513d6000823e601f3d908101601f1916820160405260c08110156121ab57600080fd5b8101908080516401000000008111156121c357600080fd5b820160208101848111156121d657600080fd5b81516401000000008111828201871017156121f057600080fd5b5050929190602001805164010000000081111561220c57600080fd5b8201602081018481111561221f57600080fd5b815164010000000081118282018710171561223957600080fd5b5050602082015160409092018051919492939164010000000081111561225e57600080fd5b8201602081018481111561227157600080fd5b815164010000000081118282018710171561228b57600080fd5b505060208281015160409384015160a08b0181905260808b0182905260608b0184905263ffffffff97909716938a0184905290890187905297879052959f949e509c50939a509398509650945050505050565b600554600160a060020a031633146122f557600080fd5b600160a060020a038116151561230a57600080fd5b600554604051600160a060020a038084169216907f8be0079c531659141344cd1fd0a4f28419497f9722a3daafe3b4186f6b6457e090600090a360058054600160a060020a031916600160a060020a0392909216919091179055565b600160a060020a03166000908152600f602052604090205490565b600154600090600160a060020a031615806123ae57506001546123ac90600160a060020a0316613309565b155b156123bf576123bd600061330d565b505b600160009054906101000a9004600160a060020a0316600160a060020a03166338cc48316040518163ffffffff1660e060020a028152600401602060405180830381600087803b15801561241257600080fd5b505af1158015612426573d6000803e3d6000fd5b505050506040513d602081101561243c57600080fd5b5051600054600160a060020a039081169116146124f257600160009054906101000a9004600160a060020a0316600160a060020a03166338cc48316040518163ffffffff1660e060020a028152600401602060405180830381600087803b1580156124a657600080fd5b505af11580156124ba573d6000803e3d6000fd5b505050506040513d60208110156124d057600080fd5b505160008054600160a060020a031916600160a060020a039092169190911790555b6000809054906101000a9004600160a060020a0316600160a060020a031663c281d19e6040518163ffffffff1660e060020a02815260040160206040518083038186803b15801561254257600080fd5b505afa158015612556573d6000803e3d6000fd5b505050506040513d602081101561256c57600080fd5b5051905090565b6000612580826000613317565b92915050565b600083156125a9576125a2826040015163ffffffff1685613445565b90506125b6565b50604081015163ffffffff165b600160a060020a0383166000908152600f60205260409020426001808301919091556002909101546125f09163ffffffff9091169061309f565b600160a060020a038481166000908152600f60209081526040808320600201805463ffffffff191663ffffffff96871617908190558751888401518984015160608b015194517f928b5d9500000000000000000000000000000000000000000000000000000000815298811660448a0152608489018a905260a060048a01908152835160a48b01528351680100000000000000009095049098169863928b5d9598939792969195948b949384936024840193606481019360c490910192918c01918190849084905b838110156126d05781810151838201526020016126b8565b50505050905090810190601f1680156126fd5780820380516001836020036101000a031916815260200191505b5084810383528851815288516020918201918a019080838360005b83811015612730578181015183820152602001612718565b50505050905090810190601f16801561275d5780820380516001836020036101000a031916815260200191505b50848103825286518152865160209182019188019080838360005b83811015612790578181015183820152602001612778565b50505050905090810190601f1680156127bd5780820380516001836020036101000a031916815260200191505b5098505050505050505050600060405180830381600087803b1580156127e257600080fd5b505af11580156127f6573d6000803e3d6000fd5b5050505061280483826134e1565b82600160a060020a03167f031d2bda13e0d20dac6c1b41b06bd71bdb137d3171c2f2854f2c5256e281aae78360000151846020015185604001518660600151868a6040518080602001806020018763ffffffff1681526020018060200186815260200185815260200184810384528a818151815260200191508051906020019080838360005b838110156128a257818101518382015260200161288a565b50505050905090810190601f1680156128cf5780820380516001836020036101000a031916815260200191505b5084810383528951815289516020918201918b019080838360005b838110156129025781810151838201526020016128ea565b50505050905090810190601f16801561292f5780820380516001836020036101000a031916815260200191505b50848103825287518152875160209182019189019080838360005b8381101561296257818101518382015260200161294a565b50505050905090810190601f16801561298f5780820380516001836020036101000a031916815260200191505b50995050505050505050505060405180910390a250505050565b60006129eb83836040805190810160405280601e81526020017f536166654d6174683a207375627472616374696f6e206f766572666c6f770000815250613576565b9392505050565b60006129eb83836040805190810160405280601e81526020017f536166654d6174683a207375627472616374696f6e206f766572666c6f770000815250613619565b600154600090600160a060020a03161580612a615750600154612a5f90600160a060020a0316613309565b155b15612a7257612a70600061330d565b505b600160009054906101000a9004600160a060020a0316600160a060020a03166338cc48316040518163ffffffff1660e060020a028152600401602060405180830381600087803b158015612ac557600080fd5b505af1158015612ad9573d6000803e3d6000fd5b505050506040513d6020811015612aef57600080fd5b5051600054600160a060020a03908116911614612ba557600160009054906101000a9004600160a060020a0316600160a060020a03166338cc48316040518163ffffffff1660e060020a028152600401602060405180830381600087803b158015612b5957600080fd5b505af1158015612b6d573d6000803e3d6000fd5b505050506040513d6020811015612b8357600080fd5b505160008054600160a060020a031916600160a060020a039092169190911790555b600080546040517f524f3889000000000000000000000000000000000000000000000000000000008152602060048201818152865160248401528651600160a060020a039094169463524f3889948894929384936044019290860191908190849084905b83811015612c21578181015183820152602001612c09565b50505050905090810190601f168015612c4e5780820380516001836020036101000a031916815260200191505b5092505050602060405180830381600087803b158015612c6d57600080fd5b505af1158015612c81573d6000803e3d6000fd5b505050506040513d6020811015612c9757600080fd5b505192915050565b600154600090600160a060020a03161580612ccc5750600154612cca90600160a060020a0316613309565b155b15612cdd57612cdb600061330d565b505b600160009054906101000a9004600160a060020a0316600160a060020a03166338cc48316040518163ffffffff1660e060020a028152600401602060405180830381600087803b158015612d3057600080fd5b505af1158015612d44573d6000803e3d6000fd5b505050506040513d6020811015612d5a57600080fd5b5051600054600160a060020a03908116911614612e1057600160009054906101000a9004600160a060020a0316600160a060020a03166338cc48316040518163ffffffff1660e060020a028152600401602060405180830381600087803b158015612dc457600080fd5b505af1158015612dd8573d6000803e3d6000fd5b505050506040513d6020811015612dee57600080fd5b505160008054600160a060020a031916600160a060020a039092169190911790555b60008054604080517f2ef3accc0000000000000000000000000000000000000000000000000000000081526024810186905260048101918252875160448201528751600160a060020a0390931692632ef3accc928992889282916064019060208601908083838c5b83811015612e90578181015183820152602001612e78565b50505050905090810190601f168015612ebd5780820380516001836020036101000a031916815260200191505b509350505050602060405180830381600087803b158015612edd57600080fd5b505af1158015612ef1573d6000803e3d6000fd5b505050506040513d6020811015612f0757600080fd5b50519050670de0b6b3a76400003a840201811115612f295750600090506129eb565b600080546040517fc51be90f0000000000000000000000000000000000000000000000000000000081526004810183815260648201879052608060248301908152895160848401528951600160a060020a039094169463c51be90f94879491938c938c938c93604482019160a4019060208801908083838c5b83811015612fba578181015183820152602001612fa2565b50505050905090810190601f168015612fe75780820380516001836020036101000a031916815260200191505b50838103825285518152855160209182019187019080838360005b8381101561301a578181015183820152602001613002565b50505050905090810190601f1680156130475780820380516001836020036101000a031916815260200191505b5096505050505050506020604051808303818588803b15801561306957600080fd5b505af115801561307d573d6000803e3d6000fd5b50505050506040513d602081101561309457600080fd5b505195945050505050565b600082820163ffffffff80851690821610156129eb576040805160e560020a62461bcd02815260206004820152601b60248201527f536166654d6174683a206164646974696f6e206f766572666c6f770000000000604482015290519081900360640190fd5b336000908152600f602052604090206001015415801561313b5750336000908152600f602052604090206002015463ffffffff16155b156133075733613149613bfd565b600160a060020a03909116815260405190819003602001906000f080158015613176573d6000803e3d6000fd5b50336000908152600f602052604081206002810180544260018085019190915563ffffffff19600160a060020a039690961668010000000000000000027fffffffff0000000000000000000000000000000000000000ffffffffffffffff909216919091179490941690555560055461320f91750100000000000000000000000000000000000000000090910463ffffffff169061309f565b6005805463ffffffff928316750100000000000000000000000000000000000000000090810278ffffffff0000000000000000000000000000000000000000001990921691909117808355336000818152600f602081815260408084206002018054640100000000978990048b16880267ffffffff000000001990911617815597549690960488168352600e81528583208054600160a060020a03191685179055918390528152935483519281049095168252915168010000000000000000909404600160a060020a03169391927f2400353ee3cbddbecd51b36528703d6a9a1f15a73ef12fa52c45ebfbf5eb0e1092918290030190a35b565b3b90565b600061258061366f565b6000828180805b8351811015613429576030848281518110151561333757fe5b90602001015160f860020a900460f860020a0260f860020a900460ff161015801561338d57506039848281518110151561336d57fe5b90602001015160f860020a900460f860020a0260f860020a900460ff1611155b156133e95781156133ac578515156133a457613429565b600019909501945b600a83029250603084828151811015156133c257fe5b90602001015160f860020a900460f860020a0260f860020a900460ff160383019250613421565b83818151811015156133f757fe5b90602001015160f860020a900460f860020a0260f860020a900460ff16602e141561342157600191505b60010161331e565b50600085111561343c5784600a0a820291505b50949350505050565b600082151561345657506000612580565b82820282848281151561346557fe5b04146129eb576040805160e560020a62461bcd02815260206004820152602160248201527f536166654d6174683a206d756c7469706c69636174696f6e206f766572666c6f60448201527f7700000000000000000000000000000000000000000000000000000000000000606482015290519081900360840190fd5b600160a060020a0382166000908152600f60205260409020546135049082613a19565b600160a060020a0383166000908152600f602052604090205560065461352a9082613a19565b600655336000818152600f602090815260409182902054825190815291517f4abaca7060438a179d5f20d945b01077a6df8b016150a897abd09d3fdebcf1099281900390910190a25050565b60008163ffffffff80861690851611156136115760405160e560020a62461bcd0281526004018080602001828103825283818151815260200191508051906020019080838360005b838110156135d65781810151838201526020016135be565b50505050905090810190601f1680156136035780820380516001836020036101000a031916815260200191505b509250505060405180910390fd5b505050900390565b600081848411156136115760405160e560020a62461bcd028152600401808060200182810382528381815181526020019150805190602001908083836000838110156135d65781810151838201526020016135be565b60008061368f731d3b2638a7cc9f2cb3d298a3da7a90b67e5506ed613309565b11156137005760018054600160a060020a031916731d3b2638a7cc9f2cb3d298a3da7a90b67e5506ed17905560408051808201909152600b81527f6574685f6d61696e6e657400000000000000000000000000000000000000000060208201526136f890613a76565b506001610adb565b600061371f73c03a2615d5efaf5f49f60b7bb6583eaec212fdf1613309565b11156137885760018054600160a060020a03191673c03a2615d5efaf5f49f60b7bb6583eaec212fdf117905560408051808201909152600c81527f6574685f726f707374656e33000000000000000000000000000000000000000060208201526136f890613a76565b60006137a773b7a07bcf2ba2f2703b24c0691b5278999c59ac7e613309565b11156138105760018054600160a060020a03191673b7a07bcf2ba2f2703b24c0691b5278999c59ac7e17905560408051808201909152600981527f6574685f6b6f76616e000000000000000000000000000000000000000000000060208201526136f890613a76565b600061382f73146500cfd35b22e4a392fe0adc06de1a1368ed48613309565b11156138985760018054600160a060020a03191673146500cfd35b22e4a392fe0adc06de1a1368ed4817905560408051808201909152600b81527f6574685f72696e6b65627900000000000000000000000000000000000000000060208201526136f890613a76565b60006138b773a2998efd205fb9d4b4963afb70778d6354ad3a41613309565b11156139205760018054600160a060020a03191673a2998efd205fb9d4b4963afb70778d6354ad3a4117905560408051808201909152600a81527f6574685f676f65726c690000000000000000000000000000000000000000000060208201526136f890613a76565b600061393f736f485c8bf6fc43ea212e93bbf8ce046c7f1cb475613309565b1115613971575060018054600160a060020a031916736f485c8bf6fc43ea212e93bbf8ce046c7f1cb475178155610adb565b60006139907320e12a1f859b3feae5fb2a0a32c18f5a65555bbf613309565b11156139c2575060018054600160a060020a0319167320e12a1f859b3feae5fb2a0a32c18f5a65555bbf178155610adb565b60006139e17351efaf4c8b3c9afbd5ab9f4bbc82784ab6ef8faa613309565b1115613a13575060018054600160a060020a0319167351efaf4c8b3c9afbd5ab9f4bbc82784ab6ef8faa178155610adb565b50600090565b6000828201838110156129eb576040805160e560020a62461bcd02815260206004820152601b60248201527f536166654d6174683a206164646974696f6e206f766572666c6f770000000000604482015290519081900360640190fd5b8051613a89906002906020840190613b52565b5050565b50805460018160011615610100020316600290046000825580601f10613ab3575061129f565b601f01602090049060005260206000209081019061129f9190613c0d565b828054600181600116156101000203166002900490600052602060002090601f016020900481019282601f10613b0a5780548555613b46565b82800160010185558215613b4657600052602060002091601f016020900482015b82811115613b46578254825591600101919060010190613b2b565b50611e5f929150613c0d565b828054600181600116156101000203166002900490600052602060002090601f016020900481019282601f10613b9357805160ff1916838001178555613b46565b82800160010185558215613b46579182015b82811115613b46578251825591602001919060010190613ba5565b60c0604051908101604052806060815260200160608152602001600063ffffffff1681526020016060815260200160008152602001600081525090565b604051610e2080613c2883390190565b610adb91905b80821115611e5f5760008155600101613c1356fe608060405234801561001057600080fd5b50604051602080610e208339810180604052602081101561003057600080fd5b505160008054600160a060020a03909216600160a060020a03199283161790556001805490911633179055610db68061006a6000396000f3fe60806040526004361061004b5763ffffffff7c01000000000000000000000000000000000000000000000000000000006000350416638cd981a88114610050578063928b5d95146101df575b600080fd5b34801561005c57600080fd5b5061007a6004803603602081101561007357600080fd5b50356103b2565b6040518080602001806020018763ffffffff1663ffffffff1681526020018060200186815260200185815260200184810384528a818151815260200191508051906020019080838360005b838110156100dd5781810151838201526020016100c5565b50505050905090810190601f16801561010a5780820380516001836020036101000a031916815260200191505b5084810383528951815289516020918201918b019080838360005b8381101561013d578181015183820152602001610125565b50505050905090810190601f16801561016a5780820380516001836020036101000a031916815260200191505b50848103825287518152875160209182019189019080838360005b8381101561019d578181015183820152602001610185565b50505050905090810190601f1680156101ca5780820380516001836020036101000a031916815260200191505b50995050505050505050505060405180910390f35b3480156101eb57600080fd5b506103b0600480360360a081101561020257600080fd5b81019060208101813564010000000081111561021d57600080fd5b82018360208201111561022f57600080fd5b8035906020019184600183028401116401000000008311171561025157600080fd5b91908080601f01602080910402602001604051908101604052809392919081815260200183838082843760009201919091525092959493602081019350359150506401000000008111156102a457600080fd5b8201836020820111156102b657600080fd5b803590602001918460018302840111640100000000831117156102d857600080fd5b91908080601f016020809104026020016040519081016040528093929190818152602001838380828437600092019190915250929563ffffffff85351695909490935060408101925060200135905064010000000081111561033957600080fd5b82018360208201111561034b57600080fd5b8035906020019184600183028401116401000000008311171561036d57600080fd5b91908080601f0160208091040260200160405190810160405280939291908181526020018383808284376000920191909152509295505091359250610735915050565b005b6060806000818180808711610411576040805160e560020a62461bcd02815260206004820152601f60248201527f76616c7565206d7573742062652067726561746572207468616e207a65726f00604482015290519081900360640190fd5b60035463ffffffff16871115610497576040805160e560020a62461bcd02815260206004820152602860248201527f76616c756520697320686967686572207468616e206c617374206d6f76656d6560448201527f6e7420696e646578000000000000000000000000000000000000000000000000606482015290519081900360840190fd5b60006104a4886001610b0c565b90506004818154811015156104b557fe5b90600052602060002090600602016000016004828154811015156104d557fe5b90600052602060002090600602016001016004838154811015156104f557fe5b60009182526020909120600260069092020101546004805463ffffffff909216918590811061052057fe5b906000526020600020906006020160030160048581548110151561054057fe5b90600052602060002090600602016004015460048681548110151561056157fe5b600091825260209182902060056006909202010154865460408051601f6002600019610100600187161502019094169390930492830185900485028101850190915281815291928891908301828280156105fc5780601f106105d1576101008083540402835291602001916105fc565b820191906000526020600020905b8154815290600101906020018083116105df57829003601f168201915b5050885460408051602060026001851615610100026000190190941693909304601f8101849004840282018401909252818152959b508a94509250840190508282801561068a5780601f1061065f5761010080835404028352916020019161068a565b820191906000526020600020905b81548152906001019060200180831161066d57829003601f168201915b5050865460408051602060026001851615610100026000190190941693909304601f8101849004840282018401909252818152959a50889450925084019050828280156107185780601f106106ed57610100808354040283529160200191610718565b820191906000526020600020905b8154815290600101906020018083116106fb57829003601f168201915b505050505092509650965096509650965096505091939550919395565b60015473ffffffffffffffffffffffffffffffffffffffff1633146107ca576040805160e560020a62461bcd02815260206004820152602260248201527f73656e646572206973206e6f742074686520666163746f727920636f6e74726160448201527f6374000000000000000000000000000000000000000000000000000000000000606482015290519081900360840190fd5b600063ffffffff84161161084e576040805160e560020a62461bcd02815260206004820152602160248201527f7175616e74697479206973206e6f742067726561746572207468616e207a657260448201527f6f00000000000000000000000000000000000000000000000000000000000000606482015290519081900360840190fd5b6103e863ffffffff841611156108ae576040805160e560020a62461bcd02815260206004820152601460248201527f7175616e7469747920697320746f6f2068696768000000000000000000000000604482015290519081900360640190fd5b8451600010610907576040805160e560020a62461bcd02815260206004820152601560248201527f7061636b61676520636f646520697320656d7074790000000000000000000000604482015290519081900360640190fd5b8151600010610960576040805160e560020a62461bcd02815260206004820152601260248201527f756e697420636f646520697320656d7074790000000000000000000000000000604482015290519081900360640190fd5b610968610cb2565b858152602080820186905263ffffffff8516604083015260608201849052608082018390524260a08301526004805460018101808355600092909252835180519293859360069093027f8a35acfbc15ff81a39ae7d344fd709f28e8600b4aa8c65c6b64bfe7fe36bd19b01926109e19284920190610cef565b5060208281015180516109fa9260018501920190610cef565b50604082015160028201805463ffffffff191663ffffffff90921691909117905560608201518051610a36916003840191602090910190610cef565b506080820151600482015560a09091015160059091015550600354610a629063ffffffff166001610b55565b600360006101000a81548163ffffffff021916908363ffffffff160217905550610a926002548260800151610bbb565b6002819055600054608083015160035460408051928352602083019490945263ffffffff16818401529151309273ffffffffffffffffffffffffffffffffffffffff92909216917f634803569c8df39be5458edd5454c5a425666a63cd029c0eef3680f7c23b3354919081900360600190a3505050505050565b6000610b4e83836040805190810160405280601e81526020017f536166654d6174683a207375627472616374696f6e206f766572666c6f770000815250610c18565b9392505050565b600082820163ffffffff8085169082161015610b4e576040805160e560020a62461bcd02815260206004820152601b60248201527f536166654d6174683a206164646974696f6e206f766572666c6f770000000000604482015290519081900360640190fd5b600082820183811015610b4e576040805160e560020a62461bcd02815260206004820152601b60248201527f536166654d6174683a206164646974696f6e206f766572666c6f770000000000604482015290519081900360640190fd5b60008184841115610caa5760405160e560020a62461bcd0281526004018080602001828103825283818151815260200191508051906020019080838360005b83811015610c6f578181015183820152602001610c57565b50505050905090810190601f168015610c9c5780820380516001836020036101000a031916815260200191505b509250505060405180910390fd5b505050900390565b60c0604051908101604052806060815260200160608152602001600063ffffffff1681526020016060815260200160008152602001600081525090565b828054600181600116156101000203166002900490600052602060002090601f016020900481019282601f10610d3057805160ff1916838001178555610d5d565b82800160010185558215610d5d579182015b82811115610d5d578251825591602001919060010190610d42565b50610d69929150610d6d565b5090565b610d8791905b80821115610d695760008155600101610d73565b9056fea165627a7a72305820a096ff44bdf9974dcb06d7c7a5aba1268980141bf55c8a664112b2542308171e00295b55524c5d205b276a736f6e2868747470733a2f2f6170692e6d6c61622e636f6d2f6170692f312f6461746162617365732f70726f647563746f732f636f6c6c656374696f6e732f666565733f6170694b65793d247b5b646563727970745d204250737344414664334245786257346c30656531524e563435707664684f6974613162775674547a567537615276486f465a68754e4375755a6e4338777a6d364755513379547a31382b4232766e6f4144624848705263394e634d622f595a4f77586f30734a734d35706149476c6c366f594571706a574d515133654549537a476b45302f4a4d494869447947315370695949336259673d7d292e302e726573756c742e5061757361626c653a2070617573656400000000000000000000000000000000a165627a7a723058203413a654ffe2118c68b8bafce96426c5161135b4241013d0a920645af33ef94f0029608060405234801561001057600080fd5b50604051602080610e208339810180604052602081101561003057600080fd5b505160008054600160a060020a03909216600160a060020a03199283161790556001805490911633179055610db68061006a6000396000f3fe60806040526004361061004b5763ffffffff7c01000000000000000000000000000000000000000000000000000000006000350416638cd981a88114610050578063928b5d95146101df575b600080fd5b34801561005c57600080fd5b5061007a6004803603602081101561007357600080fd5b50356103b2565b6040518080602001806020018763ffffffff1663ffffffff1681526020018060200186815260200185815260200184810384528a818151815260200191508051906020019080838360005b838110156100dd5781810151838201526020016100c5565b50505050905090810190601f16801561010a5780820380516001836020036101000a031916815260200191505b5084810383528951815289516020918201918b019080838360005b8381101561013d578181015183820152602001610125565b50505050905090810190601f16801561016a5780820380516001836020036101000a031916815260200191505b50848103825287518152875160209182019189019080838360005b8381101561019d578181015183820152602001610185565b50505050905090810190601f1680156101ca5780820380516001836020036101000a031916815260200191505b50995050505050505050505060405180910390f35b3480156101eb57600080fd5b506103b0600480360360a081101561020257600080fd5b81019060208101813564010000000081111561021d57600080fd5b82018360208201111561022f57600080fd5b8035906020019184600183028401116401000000008311171561025157600080fd5b91908080601f01602080910402602001604051908101604052809392919081815260200183838082843760009201919091525092959493602081019350359150506401000000008111156102a457600080fd5b8201836020820111156102b657600080fd5b803590602001918460018302840111640100000000831117156102d857600080fd5b91908080601f016020809104026020016040519081016040528093929190818152602001838380828437600092019190915250929563ffffffff85351695909490935060408101925060200135905064010000000081111561033957600080fd5b82018360208201111561034b57600080fd5b8035906020019184600183028401116401000000008311171561036d57600080fd5b91908080601f0160208091040260200160405190810160405280939291908181526020018383808284376000920191909152509295505091359250610735915050565b005b6060806000818180808711610411576040805160e560020a62461bcd02815260206004820152601f60248201527f76616c7565206d7573742062652067726561746572207468616e207a65726f00604482015290519081900360640190fd5b60035463ffffffff16871115610497576040805160e560020a62461bcd02815260206004820152602860248201527f76616c756520697320686967686572207468616e206c617374206d6f76656d6560448201527f6e7420696e646578000000000000000000000000000000000000000000000000606482015290519081900360840190fd5b60006104a4886001610b0c565b90506004818154811015156104b557fe5b90600052602060002090600602016000016004828154811015156104d557fe5b90600052602060002090600602016001016004838154811015156104f557fe5b60009182526020909120600260069092020101546004805463ffffffff909216918590811061052057fe5b906000526020600020906006020160030160048581548110151561054057fe5b90600052602060002090600602016004015460048681548110151561056157fe5b600091825260209182902060056006909202010154865460408051601f6002600019610100600187161502019094169390930492830185900485028101850190915281815291928891908301828280156105fc5780601f106105d1576101008083540402835291602001916105fc565b820191906000526020600020905b8154815290600101906020018083116105df57829003601f168201915b5050885460408051602060026001851615610100026000190190941693909304601f8101849004840282018401909252818152959b508a94509250840190508282801561068a5780601f1061065f5761010080835404028352916020019161068a565b820191906000526020600020905b81548152906001019060200180831161066d57829003601f168201915b5050865460408051602060026001851615610100026000190190941693909304601f8101849004840282018401909252818152959a50889450925084019050828280156107185780601f106106ed57610100808354040283529160200191610718565b820191906000526020600020905b8154815290600101906020018083116106fb57829003601f168201915b505050505092509650965096509650965096505091939550919395565b60015473ffffffffffffffffffffffffffffffffffffffff1633146107ca576040805160e560020a62461bcd02815260206004820152602260248201527f73656e646572206973206e6f742074686520666163746f727920636f6e74726160448201527f6374000000000000000000000000000000000000000000000000000000000000606482015290519081900360840190fd5b600063ffffffff84161161084e576040805160e560020a62461bcd02815260206004820152602160248201527f7175616e74697479206973206e6f742067726561746572207468616e207a657260448201527f6f00000000000000000000000000000000000000000000000000000000000000606482015290519081900360840190fd5b6103e863ffffffff841611156108ae576040805160e560020a62461bcd02815260206004820152601460248201527f7175616e7469747920697320746f6f2068696768000000000000000000000000604482015290519081900360640190fd5b8451600010610907576040805160e560020a62461bcd02815260206004820152601560248201527f7061636b61676520636f646520697320656d7074790000000000000000000000604482015290519081900360640190fd5b8151600010610960576040805160e560020a62461bcd02815260206004820152601260248201527f756e697420636f646520697320656d7074790000000000000000000000000000604482015290519081900360640190fd5b610968610cb2565b858152602080820186905263ffffffff8516604083015260608201849052608082018390524260a08301526004805460018101808355600092909252835180519293859360069093027f8a35acfbc15ff81a39ae7d344fd709f28e8600b4aa8c65c6b64bfe7fe36bd19b01926109e19284920190610cef565b5060208281015180516109fa9260018501920190610cef565b50604082015160028201805463ffffffff191663ffffffff90921691909117905560608201518051610a36916003840191602090910190610cef565b506080820151600482015560a09091015160059091015550600354610a629063ffffffff166001610b55565b600360006101000a81548163ffffffff021916908363ffffffff160217905550610a926002548260800151610bbb565b6002819055600054608083015160035460408051928352602083019490945263ffffffff16818401529151309273ffffffffffffffffffffffffffffffffffffffff92909216917f634803569c8df39be5458edd5454c5a425666a63cd029c0eef3680f7c23b3354919081900360600190a3505050505050565b6000610b4e83836040805190810160405280601e81526020017f536166654d6174683a207375627472616374696f6e206f766572666c6f770000815250610c18565b9392505050565b600082820163ffffffff8085169082161015610b4e576040805160e560020a62461bcd02815260206004820152601b60248201527f536166654d6174683a206164646974696f6e206f766572666c6f770000000000604482015290519081900360640190fd5b600082820183811015610b4e576040805160e560020a62461bcd02815260206004820152601b60248201527f536166654d6174683a206164646974696f6e206f766572666c6f770000000000604482015290519081900360640190fd5b60008184841115610caa5760405160e560020a62461bcd0281526004018080602001828103825283818151815260200191508051906020019080838360005b83811015610c6f578181015183820152602001610c57565b50505050905090810190601f168015610c9c5780820380516001836020036101000a031916815260200191505b509250505060405180910390fd5b505050900390565b60c0604051908101604052806060815260200160608152602001600063ffffffff1681526020016060815260200160008152602001600081525090565b828054600181600116156101000203166002900490600052602060002090601f016020900481019282601f10610d3057805160ff1916838001178555610d5d565b82800160010185558215610d5d579182015b82811115610d5d578251825591602001919060010190610d42565b50610d69929150610d6d565b5090565b610d8791905b80821115610d695760008155600101610d73565b9056fea165627a7a72305820a096ff44bdf9974dcb06d7c7a5aba1268980141bf55c8a664112b2542308171e0029",
  "source": "pragma solidity ^0.5.0;\n\nimport \"./provableAPI_0.5.sol\";\nimport \"./SafeMath.sol\";\nimport \"./Pausable.sol\";\n\n/** @title  UserFactory (Factory - Contrato hijo).\n  * @notice Utilizado para gestionar de forma individual los movimientos de un usuario\n  *         del sistema\n  */\ncontract UserFactory {\n\n    // Variables de trabajo\n    address owner;\n    address factory;\n    uint    balance;\n    uint32  count;\n\n    // Struct para los movimientos (transacciones)\n    struct Mvt {\n        string code;\n        string fee;\n        uint32 qty;\n        string uni;\n        uint   amount;\n        uint   date;\n    }\n\n    // Array para guardar los movimientos del usuario\n    Mvt[] mvts;\n\n    /**\n      * @dev Evento que se emitir con la creacin de cada movimiento\n      */\n    event newMovement(\n        address indexed owner, address indexed factory, uint amount, uint balance, uint count\n    );\n\n    /**\n      * @dev Validar que el sender sea el contrato padre\n      */\n    modifier onlyFactory() {\n        require(msg.sender == factory,\"sender is not the factory contract\");\n        _;\n    }\n\n    /**\n      * @dev Constructor.\n      * @dev El owner ser el indicado por el contrato que llama (msg.sender)\n      * @param _owner El owner deber ser indicado pues el sender es el contrato padre\n      */\n    constructor(address _owner) public {\n        owner = _owner;\n        factory = msg.sender;\n    }\n\n    /**\n      * @dev Funcin para la creacin de movimientos (con cada transaccin realizada)\n      *      Solo se permitir ejecutarlo al contrato padre (factory)\n      *      Se Validar:\n      *      - La cantidad (qty) sea un nmero entre 1 y 1000\n      *      - cdigo del envase (code) y la unidad de medida (uni) vengan informados\n      * @param _code cdigo del envase\n      * @param _fee  tarifa\n      * @param _qty  cantidad\n      * @param _uni  unidad de medida (UNI o KGM)\n      * @param _amount tokens asignados\n      */\n    function addMovement(string memory _code, string memory _fee, uint32 _qty, string memory _uni, uint _amount) public onlyFactory {\n        require(_qty > 0,\"quantity is not greater than zero\");\n        require(_qty <= 1000,\"quantity is too high\");\n        require(bytes(_code).length > 0,\"package code is empty\");\n        require(bytes(_uni).length > 0,\"unit code is empty\");\n\n        Mvt memory _tx;\n/* \n        // Si el cdigo de comisin est vaco, los campos amount y qty deben ser iguales (price=1)\n        if (bytes(_fee).length == 0 && _amount != _qty) {\n            revert(\"Price does not correspond with a empty fee\");\n        }\n */\n        // Construimos la transaccin\n        _tx.code = _code;\n        _tx.fee = _fee;\n        _tx.qty = _qty;\n        _tx.uni = _uni;\n        _tx.amount = _amount;\n        _tx.date = now;\n\n        // Incluimos la transaccin en el array de movimientos\n        mvts.push(_tx);\n\n        // Actualizamos el contador de movimientos y el saldo\n        count = SafeMath.add32(count,1);\n        balance = SafeMath.add(balance, _tx.amount);\n\n        //emit evento creacin nuevo movimiento\n        emit newMovement(owner, address(this), _tx.amount, balance, count);\n    }\n\n    /**\n      * @dev getMovement: Funcin para la consulta de movimientos\n      *      Se deber indicar la posicin del movimiento a consultar\n      *      (eg. para el primer movimiento se deber enviar 1)\n      *      Devolver todos los campos que forman el movimiento\n      * @param _ind Indice movimiento\n      * @return code\n      * @return fee\n      * @return qty\n      * @return uni\n      * @return amount\n      * @return date\n      */\n    function getMovement(uint _ind) external view returns(string memory, string memory, uint32, string memory, uint, uint) {\n        require (_ind > 0,\"value must be greater than zero\");\n        require (_ind <= count, \"value is higher than last movement index\");\n\n        // Resta 1 a la posicin para obtener la posicin real\n        uint pos = SafeMath.sub(_ind, 1);\n\n        return (mvts[pos].code, mvts[pos].fee, mvts[pos].qty, mvts[pos].uni, mvts[pos].amount, mvts[pos].date);\n    }\n\n}\n\n//**************************************************************************************************\n/** @title  Recycler (Contrato padre).\n  * @notice Contrato para la asignacin de tokens a una direccin de Ethereum como recompensa\n  *         por la entrega de un envase para su reciclado. Dicho envase se identificar por el\n  *         cdigo de barra en la etiqueta y, si tuviese asignado una tarifa (fee), el nmero\n  *         de tokens que corresponda a dicha tarifa se multiplicar por el nmero de unidades\n  *         entregadas. Si no fuese el caso, se asignar un token por cada unidad.\n  *\n  *         Para la obtencin de los tokens correspondientes a una tarifa se utilizar un\n  *         orculo de Provable.\n  */\n//**************************************************************************************************\ncontract Recycler is usingProvable, Pausable {\n\n    //* Estructura para datos de usuarios\n    struct User {\n        uint    balance;\n        uint    dtUltMvt;\n        uint32  countMvts;\n        uint32  seq;\n        UserFactory userContr;\n    }\n\n    //* Estructura para movimientos (Transacciones)\n    struct Mvt {\n        string code;\n        string fee;\n        uint32 qty;\n        string uni;\n        uint   amount;\n        uint   date;\n    }\n\n    //* Estructura para Transacciones pendientes enviadas al Orculo\n    struct PendingQuery {\n        bool    isPending;\n        Mvt     transPending;\n        address senderContract;\n    }\n\n    //* Variables generales\n    uint32  countUsers;\n    uint32  countQueries;\n    uint    globalBalance;\n    Mvt     trans;\n    bytes32[] pendTx1;\n\n    //* -- Mapping --\n    //* Lista de usuarios\n    mapping (uint => address) private listaUsers;\n    //* Datos de usuarios\n    mapping (address => User) private users;\n    //* Transacciones pendientes enviadas al Orculo\n    mapping (bytes32 => PendingQuery) private pendingQueries;\n\n    /**\n      * @dev newUser: Evento alta nuevo usuario\n      */\n    event newUser(\n        address indexed _sender, UserFactory indexed _factory, uint32 _seq\n    );\n\n    /**\n      * @dev newBalance: Evento actualizacin saldo de tokens\n      */\n    event newBalance(\n        address indexed _sender, uint _balance\n    );\n\n    /**\n      * @dev coinSent: Evento finalizacin envo de tokens\n      */\n    event coinSent(\n        address indexed _sender, string _code, string _fee, uint  _qty, string  _uni, uint _amount, uint _price\n    );\n\n    /**\n      * @dev LogPriceUpdated: Evento log respuesta query\n      */\n    event LogPriceUpdated(string _result);\n\n    /**\n      * @dev LogNewProvableQuery: Evento log nueva query\n      */\n    event LogNewProvableQuery(string description);\n\n    /**\n      * @dev Constructor\n      */\n    constructor() public payable {\n        //owner = msg.sender;\n        createUser();\n\n        //Se crea un movimiento justificante del abono de 10000 tokens\n        users[msg.sender].countMvts = SafeMath.add32(users[msg.sender].countMvts, 1);\n        users[msg.sender].userContr.addMovement(\"coinbase\", \"\", 1, \"UNI\", 10000);\n        addBalance(msg.sender, 10000);\n    }\n\n    /**\n      * @dev Funcin para el traspaso de tokens a la cuenta del usuario\n      *      Si se indica una tarifa (prodFee) se debe llamar al orculo para consultar el\n      *      precio (nmero de token que se debe entregar por cada unidad)\n      * @param prodCode cdigo envase\n      * @param prodFee  cdigo tarifa\n      * @param prodQty  cantidad envases entregados\n      * @param prodUni  unidad de medida\n      */\n    function sendCoin(string memory prodCode, string memory prodFee, uint32 prodQty, string memory prodUni) public whenNotPaused {\n        require(prodQty > 0,\"quantity is not greater than zero\");\n        require(prodQty < 1000,\"quantity is too high\");\n        require(bytes(prodCode).length > 0,\"package code is empty\");\n        require(bytes(prodUni).length > 0,\"unit code is empty\");\n\n        // Registra el usuario en caso de que no existiese\n        createUser();\n\n        // Recogemos los datos en un struct de movimientos\n        trans.code = prodCode;\n        trans.fee = prodFee;\n        trans.qty = prodQty;\n        trans.uni = prodUni;\n\n        // Solo se llamar al orculo cuando se haya recibido un cdigo de tarifa\n        if (bytes(prodFee).length > 0) {\n            fetchPrice(prodFee);\n        } else {\n            //uint price = 1;\n            sendCoin_cont(1, msg.sender, trans);\n        }\n    }\n\n    /**\n      * @dev Segunda parte de la funcin sendCoin que se ejecutar tras tener la tarifa (price)\n      *      de tokens a entregar\n      * @param _price  precio tarifa\n      * @param _sender address del movimiento\n      * @param _trans  movimiento (struct Mvt)\n      */\n    function sendCoin_cont(uint _price, address _sender, Mvt memory _trans) internal {\n\n        uint _amount;\n\n        // Si no se fija un precio o falla la llamada al orculo se asume precio = 1\n        if (_price != 0) {\n            _amount = SafeMath.mul(_trans.qty, _price);\n        } else {\n            _amount = _trans.qty;\n        }\n\n        users[_sender].dtUltMvt = block.timestamp;\n        users[_sender].countMvts = SafeMath.add32(users[_sender].countMvts, 1);\n\n        // Llamada al contrato factory para que registre el movimiento de saldo\n        users[_sender].userContr.addMovement(_trans.code, _trans.fee, _trans.qty, _trans.uni, _amount);\n        addBalance(_sender, _amount);\n\n        emit coinSent(_sender, _trans.code, _trans.fee, _trans.qty, _trans.uni, _amount, _price);\n    }\n\n    /**\n      * @dev Funcin para obtener el nmero de tokens que se pagar por cada unidad recogida (segn la tarifa\n      * indicada) -1ra parte-\n      *\n      * Para ello se utiliza un orculo creado con Provable (antiguo Oraclize) al que se le indicar la\n      * URL de una API web que devolver el nmero de tokens para la tarifa (_fee) enviada.\n      *\n      * La obtencin del nmero de tokens se deber hacer en dos pasos:\n      * 1 - En esta funcin se enviar la query al orculo\n      * 2 - En la funcin __callback se recoger el valor devuelto por el orculo para calcular el nmero\n      *      de tokens a entregar al usuario.\n      * \n      * @param _fee tarifa para la que se deber calcula el precio\n      */\n    function fetchPrice(string memory _fee) public payable whenNotPaused {\n       require(bytes(_fee).length > 0,\"fee code is empty\");\n\n       // Comprobamos si el contrato tiene saldo suficiente para el pago de la llamada al orculo\n       if (provable_getPrice(\"URL\") > address(this).balance) {\n           emit LogNewProvableQuery(\"Provable letquery was NOT sent, please add some ETH to cover for the query fee\");\n       } else {\n\n           // Se construye la query con la tarifa (_fee) enviada como parmetro\n           // La apiKey ha sido cifrada con la clave pblica de Provable\n           string memory _url = string(abi.encodePacked(\"[URL] ['json(https://api.mlab.com/api/1/databases/productos/collections/fees?apiKey=${[decrypt] BPssDAFd3BExbW4l0ee1RNV45pvdhOita1bwVtTzVu7aRvHoFZhuNCuuZnC8wzm6GUQ3yTz18+B2vnoADbHHpRc9NcMb/YZOwXo0sJsM5paIGll6oYEqpjWMQQ3eEISzGkE0/JMIHiDyG1SpiYI3bYg=}).0.result.\", _fee, \".price']\"));\n\n           emit LogNewProvableQuery(\"Provable query was sent, standing by for the answer..\");\n\n           // Enviamos la query a Provable y guardamos el Id para tratarlo en el callback\n           bytes32 queryId = provable_query(\"nested\", _url, 350000);\n\n           // Con el Id de la query guardamos los datos para tratarlos en el callback\n           pendingQueries[queryId].isPending = true;\n           pendingQueries[queryId].transPending = trans;\n           pendingQueries[queryId].senderContract = msg.sender;\n\n           // El contador countQueries nos permitir sabr cuntas queries hay pendientes de procesar\n           countQueries = SafeMath.add32(countQueries, 1);\n\n           // DEBUG: Guardamos el ID de la peticiones para, en caso de ser necesario, poder recuperarlos y revisar qu pasa\n           pendTx1.push(queryId);\n       }\n    }\n\n    /**\n      * @dev Funcin para obtener el nmero de tokens que se pagar por cada unidad recogida (segn la tarifa indicada)\n      * -2da parte-\n      *\n      * Revisamos que el ID enviado (_myid) correponda con algunas de las queries para las que esperamos respuesta y que\n      * quien haya invocado esta funcin sea provable_cbAddress.\n      * Recogemos el valor enviado en _result y continuamos con el proceso para el clculo de tokens que se entregarn al usuario\n      *\n      * @param _myid   id de la query para la que se enva respuesta\n      * @param _result resultado de la query\n      */\n    function __callback(bytes32 _myid, string memory _result) public {\n       require(pendingQueries[_myid].isPending, \"there is not any query pending with that ID\");\n       require(msg.sender == provable_cbAddress(), \"address not valid for the callback\");\n\n       uint _price = parseInt(_result);\n       emit LogPriceUpdated(_result);\n\n       sendCoin_cont(_price, pendingQueries[_myid].senderContract, pendingQueries[_myid].transPending);\n\n       delete pendingQueries[_myid];\n       countQueries = SafeMath.sub32(countQueries, 1);\n    }\n\n    /**\n      * @dev DEBUG: Funcin para consultar la referencia de las queries enviadas al orculo\n      * @param _ind Posicin dentro del array\n      * @return  pendTx1[_ind] Id de peticin query al orculo\n      */\n    function getPendTx1(uint _ind) external view returns(bytes32) {\n        return pendTx1[_ind];\n    }\n\n    /**\n      * @dev Funcin para crear un usuario en el sistema y poder gestionar sus datos asociados\n      */\n    function createUser() internal {\n\n        if (users[msg.sender].dtUltMvt == 0 && users[msg.sender].countMvts == 0) {\n\n            users[msg.sender].userContr = new UserFactory(msg.sender);\n            users[msg.sender].dtUltMvt = block.timestamp;\n            users[msg.sender].countMvts = 0;\n            users[msg.sender].balance = 0;\n\n            countUsers = SafeMath.add32(countUsers, 1);\n            users[msg.sender].seq = countUsers;\n            listaUsers[countUsers] = msg.sender;\n\n            emit newUser(msg.sender, users[msg.sender].userContr, users[msg.sender].seq);\n        }\n    }\n\n    /**\n      * @dev Funcin para borrar los datos de una cuenta en caso de que fuese necesario\n      * (solo por el owner)\n      * @param _addr Direccion cuenta a borrar\n      */\n    function deleteUser(address _addr) public onlyOwner {\n        require (_addr != address(0), \"a valid address is required\");\n\n        // Solo se elimina si hubiese tenido alguna operacin (dtUltMvt: fecha ult. mvto.)\n        if (users[msg.sender].dtUltMvt != 0) {\n\n            listaUsers[users[msg.sender].seq] = address(0);\n            globalBalance = SafeMath.sub(globalBalance, users[msg.sender].balance);\n\n            delete users[msg.sender];\n        }\n    }\n\n    /**\n      * @dev Funcin para incrementar el saldo de tokens del usuario\n      * @param _sender Direccin destino de los tokens\n      * @param _amount Importe tokens\n      */\n    function addBalance(address _sender, uint _amount) internal {\n\n        users[_sender].balance = SafeMath.add(users[_sender].balance, _amount);\n        globalBalance = SafeMath.add(globalBalance, _amount);\n\n        emit newBalance(msg.sender, users[msg.sender].balance);\n    }\n\n    /**\n      * @dev Funcin para consultar el saldo de tokens del usuario\n      * @param _addr Cuenta para la que se solicita\n      * @return saldo en tokens\n      */\n    function getBalance(address _addr) public view returns(uint) {\n        return users[_addr].balance;\n    }\n\n    /**\n      * @dev Funcin para consultar el saldo global del sistema de tokens que se han asignado\n      * @return globalBalance Saldo total tokens del sistema\n      */\n    function getGlobalBalance() public view returns(uint) {\n        return globalBalance;\n    }\n\n    /**\n      * @dev Funcin para consultar el saldo en Ethers del contrato (necesario para el pago de gas para el Orculo)\n      * @return Saldo tokens de la cuenta con que se est trabajando\n      */\n    function getContractBalance() public view returns(uint) {\n        return address(this).balance;\n    }\n\n    /**\n      * @dev Funcin utilizada para transferir fondos (Ethers) al contrato\n      * @param _message  Mensaje que se desea enviar\n      * @return _message Devuelve el mismo mensaje de entrada\n      */\n    function setFunds(string memory _message) public payable returns(string memory) {\n        require (msg.value > 0, \"value is not greater than zero\");\n\n        return _message;\n    }\n\n    /**\n      * @dev Funcin para transferir el saldo en Ethers del contrato al owner (solo por el owner)\n      *\n    function transfer(uint _amount) public onlyOwner {\n        require (address(this).balance >= _amount, \"not enough balance\");\n\n        owner.transfer(_amount);\n    }\n      */\n    function transfer() public payable onlyOwner {\n        require (address(this).balance >= msg.value, \"not enough balance\");\n        require (msg.value != 0, \"value is zero\");\n\n        owner.transfer(msg.value);\n    }\n\n    /**\n      * @dev Funcin para consultar los movimientos de una cuenta (uno por llamada)\n      *      Se requiere la direccin de la cuenta y el indce del movimiento\n      *      Devolver el conjunto de campos que componen un movimiento\n      *\n      * @param _addr Cuenta\n      * @param _ind  Indce (absoluto) del movimiento\n      * @return _tx.code\n      * @return _tx.fee\n      * @return _tx.qty\n      * @return _tx.uni\n      * @return _tx.amount\n      * @return _tx.date\n      */\n    function getMovement(address _addr, uint _ind) external view returns(string memory, string memory, uint32, string memory, uint, uint) {\n        require (_addr != address(0), \"an address is required\");\n        require (_ind > 0,\"value must be greater than zero\");\n        require (_ind <= users[_addr].countMvts, \"value is higher than last movement index\");\n\n        Mvt memory _tx;\n\n        (_tx.code, _tx.fee, _tx.qty, _tx.uni, _tx.amount, _tx.date) = users[_addr].userContr.getMovement(_ind);\n\n        //return (mvts[pos]);\n        return (_tx.code, _tx.fee, _tx.qty, _tx.uni, _tx.amount, _tx.date);\n    }\n\n    /**\n      * @dev Devuelve el nmero de movimientos que tiene una cuenta\n      * @param _addr cuenta\n      * @return nmero de movimientos\n      */\n    function getMovementCount(address _addr) external view returns(uint32) {\n        require (_addr != address(0), \"a valid address is required\");\n\n        return users[_addr].countMvts;\n    }\n\n    /**\n      * @dev Funcin para obtener la lista usuarios que han utilizado el sistema (se obtiene\n      *      una address por llamada)\n      * @param _ind posicin en la lista\n      * @return direccin de usuario\n      */\n    function getUser(uint32 _ind) external view returns(address) {\n        require (_ind > 0,\"value must be greater than zero\");\n        require (_ind <= countUsers, \"value is higher than the number of users\");\n\n        return listaUsers[_ind];\n    }\n\n    /**\n      * @dev Funcin para obtener el nmero de usuarios que han utilizado el sistema\n      * @return nmero de usuarios\n      */\n    function getUserCount() external view returns(uint32) {\n        return countUsers;\n    }\n\n    /**\n      * @dev Funcin para obtener el nmero de queries pendientes de procesar por el orculo\n      * @return nmero de queries en vuelo\n    function getCountQueries() external view returns(uint32) {\n        return countQueries;\n    }\n\n    /**\n      * @dev Funcin para descontar el saldo de tokens de un usuario\n      * @param _amount importe a descontar\n      * @return nuevo saldo\n      */\n    function withdrawal(uint _amount) public whenNotPaused returns(uint) {\n        require(users[msg.sender].balance >= _amount,\"not enough balance\");\n        require(globalBalance >= _amount,\"not enough global balance\");\n\n        users[msg.sender].balance = SafeMath.sub(users[msg.sender].balance,_amount);\n        globalBalance = SafeMath.sub(globalBalance,_amount);\n\n        return users[msg.sender].balance;\n    }\n\n    /**\n      * @dev Funcin para desactivar de forma permanente el contrato (solo por el owner\n      *      y el contrato est en pausa)\n      */\n    function kill() public payable onlyOwner whenPaused {\n        require (globalBalance == 0, \"global balance is not zero\");\n        selfdestruct(msg.sender);\n    }\n\n    /**\n      * @dev Fallback function - Called if other functions don't match call or\n      * sent ether without data\n      * Typically, called when invalid data is sent\n      * Added so ether sent to this contract is reverted if the contract fails\n      * otherwise, the sender's money is transferred to contract\n      */\n    function () external payable {\n        revert(\"Fallback function\");\n    }\n\n}",
  "sourcePath": "/home/lealp22/dapp_PEC1/contracts/Recycler.sol",
  "compiler": {
    "name": "solc",
    "version": "0.5.0+commit.1d4f565a.Emscripten.clang"
  },
  "schemaVersion": "3.0.11",
  "updatedAt": "2019-09-08T11:24:12.424Z",
  "devdoc": {
    "methods": {
      "__callback(bytes32,string)": {
        "details": "Funcin para obtener el nmero de tokens que se pagar por cada unidad recogida (segn la tarifa indicada) -2da parte-      * Revisamos que el ID enviado (_myid) correponda con algunas de las queries para las que esperamos respuesta y que quien haya invocado esta funcin sea provable_cbAddress. Recogemos el valor enviado en _result y continuamos con el proceso para el clculo de tokens que se entregarn al usuario",
        "params": {
          "_myid": "id de la query para la que se enva respuesta",
          "_result": "resultado de la query"
        }
      },
      "constructor": {
        "details": "Constructor"
      },
      "deleteUser(address)": {
        "details": "Funcin para borrar los datos de una cuenta en caso de que fuese necesario (solo por el owner)",
        "params": {
          "_addr": "Direccion cuenta a borrar"
        }
      },
      "fetchPrice(string)": {
        "details": "Funcin para obtener el nmero de tokens que se pagar por cada unidad recogida (segn la tarifa indicada) -1ra parte-      * Para ello se utiliza un orculo creado con Provable (antiguo Oraclize) al que se le indicar la URL de una API web que devolver el nmero de tokens para la tarifa (_fee) enviada.      * La obtencin del nmero de tokens se deber hacer en dos pasos: 1 - En esta funcin se enviar la query al orculo 2 - En la funcin __callback se recoger el valor devuelto por el orculo para calcular el nmero     de tokens a entregar al usuario. ",
        "params": {
          "_fee": "tarifa para la que se deber calcula el precio"
        }
      },
      "getBalance(address)": {
        "details": "Funcin para consultar el saldo de tokens del usuario",
        "params": {
          "_addr": "Cuenta para la que se solicita"
        },
        "return": "saldo en tokens"
      },
      "getContractBalance()": {
        "details": "Funcin para consultar el saldo en Ethers del contrato (necesario para el pago de gas para el Orculo)",
        "return": "Saldo tokens de la cuenta con que se est trabajando"
      },
      "getGlobalBalance()": {
        "details": "Funcin para consultar el saldo global del sistema de tokens que se han asignado",
        "return": "globalBalance Saldo total tokens del sistema"
      },
      "getMovement(address,uint256)": {
        "details": "Funcin para consultar los movimientos de una cuenta (uno por llamada)     Se requiere la direccin de la cuenta y el indce del movimiento     Devolver el conjunto de campos que componen un movimiento",
        "params": {
          "_addr": "Cuenta",
          "_ind": "Indce (absoluto) del movimiento"
        },
        "return": "_tx.code_tx.fee_tx.qty_tx.uni_tx.amount_tx.date"
      },
      "getMovementCount(address)": {
        "details": "Devuelve el nmero de movimientos que tiene una cuenta",
        "params": {
          "_addr": "cuenta"
        },
        "return": "nmero de movimientos"
      },
      "getPendTx1(uint256)": {
        "details": "DEBUG: Funcin para consultar la referencia de las queries enviadas al orculo",
        "params": {
          "_ind": "Posicin dentro del array"
        },
        "return": "pendTx1[_ind] Id de peticin query al orculo"
      },
      "getUser(uint32)": {
        "details": "Funcin para obtener la lista usuarios que han utilizado el sistema (se obtiene     una address por llamada)",
        "params": {
          "_ind": "posicin en la lista"
        },
        "return": "direccin de usuario"
      },
      "getUserCount()": {
        "details": "Funcin para obtener el nmero de usuarios que han utilizado el sistema",
        "return": "nmero de usuarios"
      },
      "kill()": {
        "details": "Funcin para desactivar de forma permanente el contrato (solo por el owner     y el contrato est en pausa)"
      },
      "pause()": {
        "details": "Called by the owner to pause, triggers stopped state."
      },
      "paused()": {
        "details": "Returns true if the contract is paused, and false otherwise."
      },
      "sendCoin(string,string,uint32,string)": {
        "details": "Funcin para el traspaso de tokens a la cuenta del usuario     Si se indica una tarifa (prodFee) se debe llamar al orculo para consultar el     precio (nmero de token que se debe entregar por cada unidad)",
        "params": {
          "prodCode": "cdigo envase",
          "prodFee": "cdigo tarifa",
          "prodQty": "cantidad envases entregados",
          "prodUni": "unidad de medida"
        }
      },
      "setFunds(string)": {
        "details": "Funcin utilizada para transferir fondos (Ethers) al contrato",
        "params": {
          "_message": "Mensaje que se desea enviar"
        },
        "return": "_message Devuelve el mismo mensaje de entrada"
      },
      "transfer()": {
        "details": "Funcin para transferir el saldo en Ethers del contrato al owner (solo por el owner)    function transfer(uint _amount) public onlyOwner { require (address(this).balance >= _amount, \"not enough balance\"); owner.transfer(_amount); }"
      },
      "transferOwnership(address)": {
        "details": "Allows the current owner to transfer control of the contract to a newOwner.",
        "params": {
          "newOwner": "The address to transfer ownership to."
        }
      },
      "unpause()": {
        "details": "Called by the owner to unpause, returns to normal state."
      },
      "withdrawal(uint256)": {
        "details": "Funcin para obtener el nmero de queries pendientes de procesar por el orculoFuncin para descontar el saldo de tokens de un usuario",
        "params": {
          "_amount": "importe a descontar"
        },
        "return": "nmero de queries en vuelo function getCountQueries() external view returns(uint32) { return countQueries; } /**nuevo saldo"
      }
    },
    "title": "Recycler (Contrato padre)."
  },
  "userdoc": {
    "methods": {},
    "notice": "Contrato para la asignacin de tokens a una direccin de Ethereum como recompensa        por la entrega de un envase para su reciclado. Dicho envase se identificar por el        cdigo de barra en la etiqueta y, si tuviese asignado una tarifa (fee), el nmero        de tokens que corresponda a dicha tarifa se multiplicar por el nmero de unidades        entregadas. Si no fuese el caso, se asignar un token por cada unidad.  *         Para la obtencin de los tokens correspondientes a una tarifa se utilizar un        orculo de Provable."
  }
}