{
  "contractName": "Recycler",
  "abi": [
    {
      "constant": false,
      "inputs": [],
      "name": "unpause",
      "outputs": [],
      "payable": false,
      "stateMutability": "nonpayable",
      "type": "function"
    },
    {
      "constant": true,
      "inputs": [],
      "name": "paused",
      "outputs": [
        {
          "name": "",
          "type": "bool"
        }
      ],
      "payable": false,
      "stateMutability": "view",
      "type": "function"
    },
    {
      "constant": false,
      "inputs": [],
      "name": "pause",
      "outputs": [],
      "payable": false,
      "stateMutability": "nonpayable",
      "type": "function"
    },
    {
      "constant": true,
      "inputs": [],
      "name": "owner",
      "outputs": [
        {
          "name": "",
          "type": "address"
        }
      ],
      "payable": false,
      "stateMutability": "view",
      "type": "function"
    },
    {
      "constant": false,
      "inputs": [
        {
          "name": "newOwner",
          "type": "address"
        }
      ],
      "name": "transferOwnership",
      "outputs": [],
      "payable": false,
      "stateMutability": "nonpayable",
      "type": "function"
    },
    {
      "inputs": [],
      "payable": true,
      "stateMutability": "payable",
      "type": "constructor"
    },
    {
      "payable": true,
      "stateMutability": "payable",
      "type": "fallback"
    },
    {
      "anonymous": false,
      "inputs": [
        {
          "indexed": true,
          "name": "_sender",
          "type": "address"
        },
        {
          "indexed": true,
          "name": "_factory",
          "type": "address"
        },
        {
          "indexed": false,
          "name": "_seq",
          "type": "uint32"
        }
      ],
      "name": "newUser",
      "type": "event"
    },
    {
      "anonymous": false,
      "inputs": [
        {
          "indexed": true,
          "name": "_sender",
          "type": "address"
        },
        {
          "indexed": false,
          "name": "_balance",
          "type": "uint256"
        }
      ],
      "name": "newBalance",
      "type": "event"
    },
    {
      "anonymous": false,
      "inputs": [
        {
          "indexed": true,
          "name": "_sender",
          "type": "address"
        },
        {
          "indexed": false,
          "name": "_code",
          "type": "string"
        },
        {
          "indexed": false,
          "name": "_fee",
          "type": "string"
        },
        {
          "indexed": false,
          "name": "_qty",
          "type": "uint256"
        },
        {
          "indexed": false,
          "name": "_uni",
          "type": "string"
        },
        {
          "indexed": false,
          "name": "_amount",
          "type": "uint256"
        },
        {
          "indexed": false,
          "name": "_price",
          "type": "uint256"
        }
      ],
      "name": "coinSent",
      "type": "event"
    },
    {
      "anonymous": false,
      "inputs": [
        {
          "indexed": false,
          "name": "_result",
          "type": "string"
        }
      ],
      "name": "LogPriceUpdated",
      "type": "event"
    },
    {
      "anonymous": false,
      "inputs": [
        {
          "indexed": false,
          "name": "description",
          "type": "string"
        }
      ],
      "name": "LogNewProvableQuery",
      "type": "event"
    },
    {
      "anonymous": false,
      "inputs": [],
      "name": "Paused",
      "type": "event"
    },
    {
      "anonymous": false,
      "inputs": [],
      "name": "Unpaused",
      "type": "event"
    },
    {
      "anonymous": false,
      "inputs": [
        {
          "indexed": true,
          "name": "previousOwner",
          "type": "address"
        },
        {
          "indexed": true,
          "name": "newOwner",
          "type": "address"
        }
      ],
      "name": "OwnershipTransferred",
      "type": "event"
    },
    {
      "constant": false,
      "inputs": [
        {
          "name": "prodCode",
          "type": "string"
        },
        {
          "name": "prodFee",
          "type": "string"
        },
        {
          "name": "prodQty",
          "type": "uint32"
        },
        {
          "name": "prodUni",
          "type": "string"
        }
      ],
      "name": "sendCoin",
      "outputs": [],
      "payable": false,
      "stateMutability": "nonpayable",
      "type": "function"
    },
    {
      "constant": false,
      "inputs": [
        {
          "name": "_fee",
          "type": "string"
        }
      ],
      "name": "fetchPrice",
      "outputs": [],
      "payable": true,
      "stateMutability": "payable",
      "type": "function"
    },
    {
      "constant": false,
      "inputs": [
        {
          "name": "_myid",
          "type": "bytes32"
        },
        {
          "name": "_result",
          "type": "string"
        }
      ],
      "name": "__callback",
      "outputs": [],
      "payable": false,
      "stateMutability": "nonpayable",
      "type": "function"
    },
    {
      "constant": false,
      "inputs": [
        {
          "name": "_myid",
          "type": "bytes32"
        },
        {
          "name": "_result",
          "type": "string"
        },
        {
          "name": "_proof",
          "type": "bytes"
        }
      ],
      "name": "__callback",
      "outputs": [],
      "payable": false,
      "stateMutability": "nonpayable",
      "type": "function"
    },
    {
      "constant": false,
      "inputs": [],
      "name": "kill",
      "outputs": [],
      "payable": true,
      "stateMutability": "payable",
      "type": "function"
    }
  ],
  "bytecode": "0x60806040526005805460a060020a60ff0219600160a060020a031990911633171690556200003564010000000062000152810204565b336000908152600f60205260408082206002015481517f928b5d9500000000000000000000000000000000000000000000000000000000815260016044820152612710608482015260a06004820152600860a48201527f636f696e6261736500000000000000000000000000000000000000000000000060c482015260e0602482015260e48101849052610120606482015260036101248201527f554e490000000000000000000000000000000000000000000000000000000000610144820152915168010000000000000000909104600160a060020a03169263928b5d9592610164808201939182900301818387803b1580156200013357600080fd5b505af115801562000148573d6000803e3d6000fd5b50505050620003f2565b336000908152600f6020526040902060010154158015620001895750336000908152600f602052604090206002015463ffffffff16155b156200035a57336200019a620003e1565b600160a060020a03909116815260405190819003602001906000f080158015620001c8573d6000803e3d6000fd5b50336000908152600f602052604081206002810180544260018085019190915563ffffffff19600160a060020a039690961668010000000000000000027fffffffff0000000000000000000000000000000000000000ffffffffffffffff90921691909117949094169055556005546200027191750100000000000000000000000000000000000000000090910463ffffffff16906401000000006200225d6200035c82021704565b6005805463ffffffff928316750100000000000000000000000000000000000000000090810260a860020a63ffffffff021990921691909117808355336000818152600f602081815260408084206002018054640100000000978990048b16880267ffffffff000000001990911617815597549690960488168352600e81528583208054600160a060020a03191685179055918390528152935483519281049095168252915168010000000000000000909404600160a060020a03169391927f2400353ee3cbddbecd51b36528703d6a9a1f15a73ef12fa52c45ebfbf5eb0e1092918290030190a35b565b600082820163ffffffff8085169082161015620003da57604080517f08c379a000000000000000000000000000000000000000000000000000000000815260206004820152601b60248201527f536166654d6174683a206164646974696f6e206f766572666c6f770000000000604482015290519081900360640190fd5b9392505050565b604051610bf18062002f8283390190565b612b8080620004026000396000f3fe60806040526004361061008a5763ffffffff60e060020a60003504166327dc297e81146100da57806338bbfa50146101965780633f4ba83a146102d757806341c0e1b5146102ec5780635c975abb146102f45780638456cb591461031d5780638da5cb5b146103325780639782dd2a14610363578063ab8e3a0e14610409578063f2fde38b146105d8575b6040805160e560020a62461bcd02815260206004820152601160248201527f46616c6c6261636b2066756e6374696f6e000000000000000000000000000000604482015290519081900360640190fd5b3480156100e657600080fd5b50610194600480360360408110156100fd57600080fd5b8135919081019060408101602082013564010000000081111561011f57600080fd5b82018360208201111561013157600080fd5b8035906020019184600183028401116401000000008311171561015357600080fd5b91908080601f01602080910402602001604051908101604052809392919081815260200183838082843760009201919091525092955061060b945050505050565b005b3480156101a257600080fd5b50610194600480360360608110156101b957600080fd5b813591908101906040810160208201356401000000008111156101db57600080fd5b8201836020820111156101ed57600080fd5b8035906020019184600183028401116401000000008311171561020f57600080fd5b91908080601f016020809104026020016040519081016040528093929190818152602001838380828437600092019190915250929594936020810193503591505064010000000081111561026257600080fd5b82018360208201111561027457600080fd5b8035906020019184600183028401116401000000008311171561029657600080fd5b91908080601f016020809104026020016040519081016040528093929190818152602001838380828437600092019190915250929550610abb945050505050565b3480156102e357600080fd5b50610194610aec565b610194610baf565b34801561030057600080fd5b50610309610c84565b604080519115158252519081900360200190f35b34801561032957600080fd5b50610194610c95565b34801561033e57600080fd5b50610347610d5d565b60408051600160a060020a039092168252519081900360200190f35b6101946004803603602081101561037957600080fd5b81019060208101813564010000000081111561039457600080fd5b8201836020820111156103a657600080fd5b803590602001918460018302840111640100000000831117156103c857600080fd5b91908080601f016020809104026020016040519081016040528093929190818152602001838380828437600092019190915250929550610d6c945050505050565b34801561041557600080fd5b506101946004803603608081101561042c57600080fd5b81019060208101813564010000000081111561044757600080fd5b82018360208201111561045957600080fd5b8035906020019184600183028401116401000000008311171561047b57600080fd5b91908080601f01602080910402602001604051908101604052809392919081815260200183838082843760009201919091525092959493602081019350359150506401000000008111156104ce57600080fd5b8201836020820111156104e057600080fd5b8035906020019184600183028401116401000000008311171561050257600080fd5b91908080601f016020809104026020016040519081016040528093929190818152602001838380828437600092019190915250929563ffffffff85351695909490935060408101925060200135905064010000000081111561056357600080fd5b82018360208201111561057557600080fd5b8035906020019184600183028401116401000000008311171561059757600080fd5b91908080601f01602080910402602001604051908101604052809392919081815260200183838082843760009201919091525092955061122c945050505050565b3480156105e457600080fd5b50610194600480360360208110156105fb57600080fd5b5035600160a060020a0316611503565b60008281526010602052604090205460ff161515610699576040805160e560020a62461bcd02815260206004820152602b60248201527f7468657265206973206e6f7420616e792071756572792070656e64696e67207760448201527f6974682074686174204944000000000000000000000000000000000000000000606482015290519081900360840190fd5b6106a161158b565b600160a060020a03163314610726576040805160e560020a62461bcd02815260206004820152602260248201527f61646472657373206e6f742076616c696420666f72207468652063616c6c626160448201527f636b000000000000000000000000000000000000000000000000000000000000606482015290519081900360840190fd5b60006107318261177d565b90507f71f1a5645e51a2da828ffcf79cc17da88eb25e1bca8b9dced23210847a4769c1826040518080602001828103825283818151815260200191508051906020019080838360005b8381101561079257818101518382015260200161077a565b50505050905090810190601f1680156107bf5780820380516001836020036101000a031916815260200191505b509250505060405180910390a1600083815260106020908152604091829020600781015483516001928301805460026101009582161595909502600019011693909304601f8101859004909402810160e090810190955260c081018481526109f1958795600160a060020a039094169492938492918491908401828280156108885780601f1061085d57610100808354040283529160200191610888565b820191906000526020600020905b81548152906001019060200180831161086b57829003601f168201915b50505050508152602001600182018054600181600116156101000203166002900480601f01602080910402602001604051908101604052809291908181526020018280546001816001161561010002031660029004801561092a5780601f106108ff5761010080835404028352916020019161092a565b820191906000526020600020905b81548152906001019060200180831161090d57829003601f168201915b505050918352505060028281015463ffffffff1660208084019190915260038401805460408051601f600019600185161561010002019093169590950491820184900484028501840181528185529094019390918301828280156109cf5780601f106109a4576101008083540402835291602001916109cf565b820191906000526020600020905b8154815290600101906020018083116109b257829003601f168201915b5050505050815260200160048201548152602001600582015481525050611790565b6000838152601060205260408120805460ff19168155906001820181610a1782826128ff565b610a256001830160006128ff565b60028201805463ffffffff19169055610a426003830160006128ff565b506000600482018190556005918201556007929092018054600160a060020a03191690555054610a9690790100000000000000000000000000000000000000000000000000900463ffffffff166001611ba9565b600560196101000a81548163ffffffff021916908363ffffffff160217905550505050565b5050600080805260036020527f3617319a054d772f909f7c479a2cebe5066e836a939412e32403c99029b92eff5550565b600554600160a060020a03163314610b0357600080fd5b60055460a060020a900460ff161515610b66576040805160e560020a62461bcd02815260206004820152601460248201527f5061757361626c653a206e6f7420706175736564000000000000000000000000604482015290519081900360640190fd5b6005805474ff0000000000000000000000000000000000000000191690556040517fa45f47fdea8a1efdd9029a5691c7f759c32b7c698632b563573e155625d1693390600090a1565b600554600160a060020a03163314610bc657600080fd5b60055460a060020a900460ff161515610c29576040805160e560020a62461bcd02815260206004820152601460248201527f5061757361626c653a206e6f7420706175736564000000000000000000000000604482015290519081900360640190fd5b60065415610c81576040805160e560020a62461bcd02815260206004820152601a60248201527f676c6f62616c2062616c616e6365206973206e6f74207a65726f000000000000604482015290519081900360640190fd5b33ff5b60055460a060020a900460ff165b90565b600554600160a060020a03163314610cac57600080fd5b60055460a060020a900460ff1615610d0e576040805160e560020a62461bcd02815260206004820152601060248201527f5061757361626c653a2070617573656400000000000000000000000000000000604482015290519081900360640190fd5b6005805474ff0000000000000000000000000000000000000000191660a060020a1790556040517f9e87fac88ff661f02d44f95383c817fece4bce600a3dab7a54406878b965e75290600090a1565b600554600160a060020a031681565b60055460a060020a900460ff1615610dce576040805160e560020a62461bcd02815260206004820152601060248201527f5061757361626c653a2070617573656400000000000000000000000000000000604482015290519081900360640190fd5b8051600010610e27576040805160e560020a62461bcd02815260206004820152601160248201527f66656520636f646520697320656d707479000000000000000000000000000000604482015290519081900360640190fd5b60408051808201909152600381527f55524c00000000000000000000000000000000000000000000000000000000006020820152303190610e6790611bf2565b1115610f1e57604080516020808252604e908201527f50726f7661626c65206c6574717565727920776173204e4f542073656e742c20818301527f706c656173652061646420736f6d652045544820746f20636f76657220666f7260608201527f2074686520717565727920666565000000000000000000000000000000000000608082015290517fc4dc360d0a9c0677a3379ae0a3d81e887f761e65fdf3d7e00859d1bcd3c473899181900360a00190a1611229565b6060816040516020018080612a5161010491396101040182805190602001908083835b60208310610f605780518252601f199092019160209182019101610f41565b51815160209384036101000a60001901801990921691161790527f2e7072696365275d00000000000000000000000000000000000000000000000091909301908152604080518083036017190181526008830180835294909452603560288301527f50726f7661626c65207175657279207761732073656e742c207374616e64696e60488301527f6720627920666f722074686520616e737765722e2e00000000000000000000006068830152519295507fc4dc360d0a9c0677a3379ae0a3d81e887f761e65fdf3d7e00859d1bcd3c47389945060889083900301925050a160006110846040805190810160405280600681526020017f6e657374656400000000000000000000000000000000000000000000000000008152508362055730611e5d565b6000818152601060205260409020805460ff1916600190811782556007805493945092918101916110cd9183918591600260001991831615610100029190910190911604612943565b50600182018160010190805460018160011615610100020316600290046110f5929190612943565b50600282810154828201805463ffffffff191663ffffffff9092169190911790556003808401805461113b93928501926000196001831615610100020190911604612943565b50600482810154908201556005918201549082015560008281526010602052604090206007018054600160a060020a03191633179055546111a19063ffffffff79010000000000000000000000000000000000000000000000000090910416600161225d565b6005805463ffffffff92909216790100000000000000000000000000000000000000000000000000027fffffff00000000ffffffffffffffffffffffffffffffffffffffffffffffffff909216919091179055600d80546001810182556000919091527fd7b6990105719101dabeb77144f2a3385c8033acd3af97e9423a695e81ad1eb50155505b50565b60055460a060020a900460ff161561128e576040805160e560020a62461bcd02815260206004820152601060248201527f5061757361626c653a2070617573656400000000000000000000000000000000604482015290519081900360640190fd5b600063ffffffff831611611312576040805160e560020a62461bcd02815260206004820152602160248201527f7175616e74697479206973206e6f742067726561746572207468616e207a657260448201527f6f00000000000000000000000000000000000000000000000000000000000000606482015290519081900360840190fd5b6103e863ffffffff831610611371576040805160e560020a62461bcd02815260206004820152601460248201527f7175616e7469747920697320746f6f2068696768000000000000000000000000604482015290519081900360640190fd5b83516000106113ca576040805160e560020a62461bcd02815260206004820152601560248201527f7061636b61676520636f646520697320656d7074790000000000000000000000604482015290519081900360640190fd5b8051600010611423576040805160e560020a62461bcd02815260206004820152601260248201527f756e697420636f646520697320656d7074790000000000000000000000000000604482015290519081900360640190fd5b83516114369060079060208701906129c8565b50825161144a9060089060208601906129c8565b506009805463ffffffff191663ffffffff8416179055805161147390600a9060208401906129c8565b5060008351111561148c5761148783610d6c565b6114fd565b604080516007805460206002600180841615610100026000190190931604601f8101829004909102840160e090810190955260c084018181526114fd9592943394909390928492918491908401828280156108885780601f1061085d57610100808354040283529160200191610888565b50505050565b600554600160a060020a0316331461151a57600080fd5b600160a060020a038116151561152f57600080fd5b600554604051600160a060020a038084169216907f8be0079c531659141344cd1fd0a4f28419497f9722a3daafe3b4186f6b6457e090600090a360058054600160a060020a031916600160a060020a0392909216919091179055565b600154600090600160a060020a031615806115b857506001546115b690600160a060020a03166122c3565b155b156115c9576115c760006122c7565b505b600160009054906101000a9004600160a060020a0316600160a060020a03166338cc48316040518163ffffffff1660e060020a028152600401602060405180830381600087803b15801561161c57600080fd5b505af1158015611630573d6000803e3d6000fd5b505050506040513d602081101561164657600080fd5b5051600054600160a060020a039081169116146116fc57600160009054906101000a9004600160a060020a0316600160a060020a03166338cc48316040518163ffffffff1660e060020a028152600401602060405180830381600087803b1580156116b057600080fd5b505af11580156116c4573d6000803e3d6000fd5b505050506040513d60208110156116da57600080fd5b505160008054600160a060020a031916600160a060020a039092169190911790555b6000809054906101000a9004600160a060020a0316600160a060020a031663c281d19e6040518163ffffffff1660e060020a02815260040160206040518083038186803b15801561174c57600080fd5b505afa158015611760573d6000803e3d6000fd5b505050506040513d602081101561177657600080fd5b5051905090565b600061178a8260006122d1565b92915050565b600083156117b3576117ac826040015163ffffffff16856123ff565b90506117c0565b50604081015163ffffffff165b600160a060020a0383166000908152600f60205260409020426001808301919091556002909101546117fa9163ffffffff9091169061225d565b600160a060020a038481166000908152600f60209081526040808320600201805463ffffffff191663ffffffff96871617908190558751888401518984015160608b015194517f928b5d9500000000000000000000000000000000000000000000000000000000815298811660448a0152608489018a905260a060048a01908152835160a48b01528351680100000000000000009095049098169863928b5d9598939792969195948b949384936024840193606481019360c490910192918c01918190849084905b838110156118da5781810151838201526020016118c2565b50505050905090810190601f1680156119075780820380516001836020036101000a031916815260200191505b5084810383528851815288516020918201918a019080838360005b8381101561193a578181015183820152602001611922565b50505050905090810190601f1680156119675780820380516001836020036101000a031916815260200191505b50848103825286518152865160209182019188019080838360005b8381101561199a578181015183820152602001611982565b50505050905090810190601f1680156119c75780820380516001836020036101000a031916815260200191505b5098505050505050505050600060405180830381600087803b1580156119ec57600080fd5b505af1158015611a00573d6000803e3d6000fd5b5050505082600160a060020a03167f031d2bda13e0d20dac6c1b41b06bd71bdb137d3171c2f2854f2c5256e281aae78360000151846020015185604001518660600151868a6040518080602001806020018763ffffffff1681526020018060200186815260200185815260200184810384528a818151815260200191508051906020019080838360005b83811015611aa2578181015183820152602001611a8a565b50505050905090810190601f168015611acf5780820380516001836020036101000a031916815260200191505b5084810383528951815289516020918201918b019080838360005b83811015611b02578181015183820152602001611aea565b50505050905090810190601f168015611b2f5780820380516001836020036101000a031916815260200191505b50848103825287518152875160209182019189019080838360005b83811015611b62578181015183820152602001611b4a565b50505050905090810190601f168015611b8f5780820380516001836020036101000a031916815260200191505b50995050505050505050505060405180910390a250505050565b6000611beb83836040805190810160405280601e81526020017f536166654d6174683a207375627472616374696f6e206f766572666c6f77000081525061249b565b9392505050565b600154600090600160a060020a03161580611c1f5750600154611c1d90600160a060020a03166122c3565b155b15611c3057611c2e60006122c7565b505b600160009054906101000a9004600160a060020a0316600160a060020a03166338cc48316040518163ffffffff1660e060020a028152600401602060405180830381600087803b158015611c8357600080fd5b505af1158015611c97573d6000803e3d6000fd5b505050506040513d6020811015611cad57600080fd5b5051600054600160a060020a03908116911614611d6357600160009054906101000a9004600160a060020a0316600160a060020a03166338cc48316040518163ffffffff1660e060020a028152600401602060405180830381600087803b158015611d1757600080fd5b505af1158015611d2b573d6000803e3d6000fd5b505050506040513d6020811015611d4157600080fd5b505160008054600160a060020a031916600160a060020a039092169190911790555b600080546040517f524f3889000000000000000000000000000000000000000000000000000000008152602060048201818152865160248401528651600160a060020a039094169463524f3889948894929384936044019290860191908190849084905b83811015611ddf578181015183820152602001611dc7565b50505050905090810190601f168015611e0c5780820380516001836020036101000a031916815260200191505b5092505050602060405180830381600087803b158015611e2b57600080fd5b505af1158015611e3f573d6000803e3d6000fd5b505050506040513d6020811015611e5557600080fd5b505192915050565b600154600090600160a060020a03161580611e8a5750600154611e8890600160a060020a03166122c3565b155b15611e9b57611e9960006122c7565b505b600160009054906101000a9004600160a060020a0316600160a060020a03166338cc48316040518163ffffffff1660e060020a028152600401602060405180830381600087803b158015611eee57600080fd5b505af1158015611f02573d6000803e3d6000fd5b505050506040513d6020811015611f1857600080fd5b5051600054600160a060020a03908116911614611fce57600160009054906101000a9004600160a060020a0316600160a060020a03166338cc48316040518163ffffffff1660e060020a028152600401602060405180830381600087803b158015611f8257600080fd5b505af1158015611f96573d6000803e3d6000fd5b505050506040513d6020811015611fac57600080fd5b505160008054600160a060020a031916600160a060020a039092169190911790555b60008054604080517f2ef3accc0000000000000000000000000000000000000000000000000000000081526024810186905260048101918252875160448201528751600160a060020a0390931692632ef3accc928992889282916064019060208601908083838c5b8381101561204e578181015183820152602001612036565b50505050905090810190601f16801561207b5780820380516001836020036101000a031916815260200191505b509350505050602060405180830381600087803b15801561209b57600080fd5b505af11580156120af573d6000803e3d6000fd5b505050506040513d60208110156120c557600080fd5b50519050670de0b6b3a76400003a8402018111156120e7575060009050611beb565b600080546040517fc51be90f0000000000000000000000000000000000000000000000000000000081526004810183815260648201879052608060248301908152895160848401528951600160a060020a039094169463c51be90f94879491938c938c938c93604482019160a4019060208801908083838c5b83811015612178578181015183820152602001612160565b50505050905090810190601f1680156121a55780820380516001836020036101000a031916815260200191505b50838103825285518152855160209182019187019080838360005b838110156121d85781810151838201526020016121c0565b50505050905090810190601f1680156122055780820380516001836020036101000a031916815260200191505b5096505050505050506020604051808303818588803b15801561222757600080fd5b505af115801561223b573d6000803e3d6000fd5b50505050506040513d602081101561225257600080fd5b505195945050505050565b600082820163ffffffff8085169082161015611beb576040805160e560020a62461bcd02815260206004820152601b60248201527f536166654d6174683a206164646974696f6e206f766572666c6f770000000000604482015290519081900360640190fd5b3b90565b600061178a61253e565b6000828180805b83518110156123e357603084828151811015156122f157fe5b90602001015160f860020a900460f860020a0260f860020a900460ff161015801561234757506039848281518110151561232757fe5b90602001015160f860020a900460f860020a0260f860020a900460ff1611155b156123a35781156123665785151561235e576123e3565b600019909501945b600a830292506030848281518110151561237c57fe5b90602001015160f860020a900460f860020a0260f860020a900460ff1603830192506123db565b83818151811015156123b157fe5b90602001015160f860020a900460f860020a0260f860020a900460ff16602e14156123db57600191505b6001016122d8565b5060008511156123f65784600a0a820291505b50949350505050565b60008215156124105750600061178a565b82820282848281151561241f57fe5b0414611beb576040805160e560020a62461bcd02815260206004820152602160248201527f536166654d6174683a206d756c7469706c69636174696f6e206f766572666c6f60448201527f7700000000000000000000000000000000000000000000000000000000000000606482015290519081900360840190fd5b60008163ffffffff80861690851611156125365760405160e560020a62461bcd0281526004018080602001828103825283818151815260200191508051906020019080838360005b838110156124fb5781810151838201526020016124e3565b50505050905090810190601f1680156125285780820380516001836020036101000a031916815260200191505b509250505060405180910390fd5b505050900390565b60008061255e731d3b2638a7cc9f2cb3d298a3da7a90b67e5506ed6122c3565b11156125cf5760018054600160a060020a031916731d3b2638a7cc9f2cb3d298a3da7a90b67e5506ed17905560408051808201909152600b81527f6574685f6d61696e6e657400000000000000000000000000000000000000000060208201526125c7906128e8565b506001610c92565b60006125ee73c03a2615d5efaf5f49f60b7bb6583eaec212fdf16122c3565b11156126575760018054600160a060020a03191673c03a2615d5efaf5f49f60b7bb6583eaec212fdf117905560408051808201909152600c81527f6574685f726f707374656e33000000000000000000000000000000000000000060208201526125c7906128e8565b600061267673b7a07bcf2ba2f2703b24c0691b5278999c59ac7e6122c3565b11156126df5760018054600160a060020a03191673b7a07bcf2ba2f2703b24c0691b5278999c59ac7e17905560408051808201909152600981527f6574685f6b6f76616e000000000000000000000000000000000000000000000060208201526125c7906128e8565b60006126fe73146500cfd35b22e4a392fe0adc06de1a1368ed486122c3565b11156127675760018054600160a060020a03191673146500cfd35b22e4a392fe0adc06de1a1368ed4817905560408051808201909152600b81527f6574685f72696e6b65627900000000000000000000000000000000000000000060208201526125c7906128e8565b600061278673a2998efd205fb9d4b4963afb70778d6354ad3a416122c3565b11156127ef5760018054600160a060020a03191673a2998efd205fb9d4b4963afb70778d6354ad3a4117905560408051808201909152600a81527f6574685f676f65726c690000000000000000000000000000000000000000000060208201526125c7906128e8565b600061280e736f485c8bf6fc43ea212e93bbf8ce046c7f1cb4756122c3565b1115612840575060018054600160a060020a031916736f485c8bf6fc43ea212e93bbf8ce046c7f1cb475178155610c92565b600061285f7320e12a1f859b3feae5fb2a0a32c18f5a65555bbf6122c3565b1115612891575060018054600160a060020a0319167320e12a1f859b3feae5fb2a0a32c18f5a65555bbf178155610c92565b60006128b07351efaf4c8b3c9afbd5ab9f4bbc82784ab6ef8faa6122c3565b11156128e2575060018054600160a060020a0319167351efaf4c8b3c9afbd5ab9f4bbc82784ab6ef8faa178155610c92565b50600090565b80516128fb9060029060208401906129c8565b5050565b50805460018160011615610100020316600290046000825580601f106129255750611229565b601f0160209004906000526020600020908101906112299190612a36565b828054600181600116156101000203166002900490600052602060002090601f016020900481019282601f1061297c57805485556129b8565b828001600101855582156129b857600052602060002091601f016020900482015b828111156129b857825482559160010191906001019061299d565b506129c4929150612a36565b5090565b828054600181600116156101000203166002900490600052602060002090601f016020900481019282601f10612a0957805160ff19168380011785556129b8565b828001600101855582156129b8579182015b828111156129b8578251825591602001919060010190612a1b565b610c9291905b808211156129c45760008155600101612a3c56fe5b55524c5d205b276a736f6e2868747470733a2f2f6170692e6d6c61622e636f6d2f6170692f312f6461746162617365732f70726f647563746f732f636f6c6c656374696f6e732f666565733f6170694b65793d247b5b646563727970745d204250737344414664334245786257346c30656531524e563435707664684f6974613162775674547a567537615276486f465a68754e4375755a6e4338777a6d364755513379547a31382b4232766e6f4144624848705263394e634d622f595a4f77586f30734a734d35706149476c6c366f594571706a574d515133654549537a476b45302f4a4d494869447947315370695949336259673d7d292e302e726573756c742ea165627a7a723058203656bc5a8ae3255cea0d1c0d75b65a905044cfd364b07f5839a27ee019e0804e0029608060405234801561001057600080fd5b50604051602080610bf18339810180604052602081101561003057600080fd5b505160008054600160a060020a03909216600160a060020a03199283161790556001805490911633179055610b878061006a6000396000f3fe60806040526004361061004b5763ffffffff7c01000000000000000000000000000000000000000000000000000000006000350416638cd981a88114610050578063928b5d95146101df575b600080fd5b34801561005c57600080fd5b5061007a6004803603602081101561007357600080fd5b503561030c565b6040518080602001806020018763ffffffff1663ffffffff1681526020018060200186815260200185815260200184810384528a818151815260200191508051906020019080838360005b838110156100dd5781810151838201526020016100c5565b50505050905090810190601f16801561010a5780820380516001836020036101000a031916815260200191505b5084810383528951815289516020918201918b019080838360005b8381101561013d578181015183820152602001610125565b50505050905090810190601f16801561016a5780820380516001836020036101000a031916815260200191505b50848103825287518152875160209182019189019080838360005b8381101561019d578181015183820152602001610185565b50505050905090810190601f1680156101ca5780820380516001836020036101000a031916815260200191505b50995050505050505050505060405180910390f35b3480156101eb57600080fd5b5061030a600480360360a081101561020257600080fd5b81019060208101813564010000000081111561021d57600080fd5b82018360208201111561022f57600080fd5b8035906020019184600183028401116401000000008311171561025157600080fd5b91939092909160208101903564010000000081111561026f57600080fd5b82018360208201111561028157600080fd5b803590602001918460018302840111640100000000831117156102a357600080fd5b9193909263ffffffff833516926040810190602001356401000000008111156102cb57600080fd5b8201836020820111156102dd57600080fd5b803590602001918460018302840111640100000000831117156102ff57600080fd5b91935091503561068f565b005b606080600081818080871161036b576040805160e560020a62461bcd02815260206004820152601f60248201527f76616c7565206d7573742062652067726561746572207468616e207a65726f00604482015290519081900360640190fd5b60035463ffffffff168711156103f1576040805160e560020a62461bcd02815260206004820152602860248201527f76616c756520697320686967686572207468616e206c617374206d6f76656d6560448201527f6e7420696e646578000000000000000000000000000000000000000000000000606482015290519081900360840190fd5b60006103fe8860016108dd565b905060048181548110151561040f57fe5b906000526020600020906006020160000160048281548110151561042f57fe5b906000526020600020906006020160010160048381548110151561044f57fe5b60009182526020909120600260069092020101546004805463ffffffff909216918590811061047a57fe5b906000526020600020906006020160030160048581548110151561049a57fe5b9060005260206000209060060201600401546004868154811015156104bb57fe5b600091825260209182902060056006909202010154865460408051601f6002600019610100600187161502019094169390930492830185900485028101850190915281815291928891908301828280156105565780601f1061052b57610100808354040283529160200191610556565b820191906000526020600020905b81548152906001019060200180831161053957829003601f168201915b5050885460408051602060026001851615610100026000190190941693909304601f8101849004840282018401909252818152959b508a9450925084019050828280156105e45780601f106105b9576101008083540402835291602001916105e4565b820191906000526020600020905b8154815290600101906020018083116105c757829003601f168201915b5050865460408051602060026001851615610100026000190190941693909304601f8101849004840282018401909252818152959a50889450925084019050828280156106725780601f1061064757610100808354040283529160200191610672565b820191906000526020600020905b81548152906001019060200180831161065557829003601f168201915b505050505092509650965096509650965096505091939550919395565b610697610a83565b88888080601f016020809104026020016040519081016040528093929190818152602001838380828437600092019190915250505090825250604080516020601f890181900481028201810190925287815290889088908190840183828082843760009201919091525050505060208083019190915263ffffffff86166040808401919091528051601f860183900483028101830190915284815290859085908190840183828082843760009201829052506060860194909452505050608082018390524260a0830152600480546001810180835591909252825180519192849260069091027f8a35acfbc15ff81a39ae7d344fd709f28e8600b4aa8c65c6b64bfe7fe36bd19b01916107af91839160200190610ac0565b5060208281015180516107c89260018501920190610ac0565b50604082015160028201805463ffffffff191663ffffffff90921691909117905560608201518051610804916003840191602090910190610ac0565b506080820151600482015560a090910151600590910155506003546108309063ffffffff166001610926565b600360006101000a81548163ffffffff021916908363ffffffff160217905550610860600254826080015161098c565b6002819055600054608083015160035460408051928352602083019490945263ffffffff16818401529151309273ffffffffffffffffffffffffffffffffffffffff92909216917f634803569c8df39be5458edd5454c5a425666a63cd029c0eef3680f7c23b3354919081900360600190a3505050505050505050565b600061091f83836040805190810160405280601e81526020017f536166654d6174683a207375627472616374696f6e206f766572666c6f7700008152506109e9565b9392505050565b600082820163ffffffff808516908216101561091f576040805160e560020a62461bcd02815260206004820152601b60248201527f536166654d6174683a206164646974696f6e206f766572666c6f770000000000604482015290519081900360640190fd5b60008282018381101561091f576040805160e560020a62461bcd02815260206004820152601b60248201527f536166654d6174683a206164646974696f6e206f766572666c6f770000000000604482015290519081900360640190fd5b60008184841115610a7b5760405160e560020a62461bcd0281526004018080602001828103825283818151815260200191508051906020019080838360005b83811015610a40578181015183820152602001610a28565b50505050905090810190601f168015610a6d5780820380516001836020036101000a031916815260200191505b509250505060405180910390fd5b505050900390565b60c0604051908101604052806060815260200160608152602001600063ffffffff1681526020016060815260200160008152602001600081525090565b828054600181600116156101000203166002900490600052602060002090601f016020900481019282601f10610b0157805160ff1916838001178555610b2e565b82800160010185558215610b2e579182015b82811115610b2e578251825591602001919060010190610b13565b50610b3a929150610b3e565b5090565b610b5891905b80821115610b3a5760008155600101610b44565b9056fea165627a7a72305820394a85b92cb07fd7101ba60a46a1aa7607f0a4cd2be734c53a8b9cea62afc9660029",
  "source": "pragma solidity ^0.5.0;\n\nimport \"./provableAPI_0.5.sol\";\nimport \"./SafeMath.sol\";\nimport \"./Pausable.sol\";\n\n/** @title  UserFactory (Factory - Contrato hijo).\n  * @notice Utilizado para gestionar de forma individual los movimientos de un usuario\n  *         del sistema\n  */\ncontract UserFactory {\n\n    // Variables de trabajo\n    address owner;\n    address factory;\n    uint    balance;\n    uint32  count;\n\n    // Struct para los movimientos (transacciones)\n    struct Mvt {\n        string code;\n        string fee;\n        uint32 qty;\n        string uni;\n        uint   amount;\n        uint   date;\n    }\n\n    // Array para guardar los movimientos del usuario\n    Mvt[] mvts;\n\n    /**\n      * @dev Evento que se emitir con la creacin de cada movimiento\n      */\n    event newMovement(\n        address indexed owner, address indexed factory, uint amount, uint balance, uint count\n    );\n\n    /**\n      * @dev Validar que el sender sea el contrato padre\n      */\n    modifier onlyFactory() {\n//?        require(msg.sender == factory,\"sender is not the factory contract\");\n        _;\n    }\n\n    /**\n      * @dev Constructor.\n      * @dev El owner ser el indicado por el contrato que llama (msg.sender)\n      * @param _owner El owner deber ser indicado pues el sender es el contrato padre\n      */\n    constructor(address _owner) public {\n        owner = _owner;\n        factory = msg.sender;\n    }\n\n    /**\n      * @dev Funcin para la creacin de movimientos (con cada transaccin realizada)\n      *      Solo se permitir ejecutarlo al contrato padre (factory)\n      *      Se Validar:\n      *      - La cantidad (qty) sea un nmero entre 1 y 1000\n      *      - cdigo del envase (code) y la unidad de medida (uni) vengan informados\n      * @param _code cdigo del envase\n      * @param _fee  tarifa\n      * @param _qty  cantidad\n      * @param _uni  unidad de medida (UNI o KGM)\n      * @param _amount tokens asignados\n      */\n    function addMovement(string calldata _code, string calldata _fee, uint32 _qty, string calldata _uni, uint _amount) external onlyFactory {\n//?        require(_qty > 0,\"quantity is not greater than zero\");\n//?        require(_qty <= 1000,\"quantity is too high\");\n//?        require(bytes(_code).length > 0,\"package code is empty\");\n//?        require(bytes(_uni).length > 0,\"unit code is empty\");\n\n        Mvt memory _tx;\n\n        // Construimos la transaccin\n        _tx.code = _code;\n        _tx.fee = _fee;\n        _tx.qty = _qty;\n        _tx.uni = _uni;\n        _tx.amount = _amount;\n        _tx.date = now;\n\n        // Incluimos la transaccin en el array de movimientos\n        mvts.push(_tx);\n\n        // Actualizamos el contador de movimientos y el saldo\n        count = SafeMath.add32(count,1);\n        balance = SafeMath.add(balance, _tx.amount);\n\n        //emit evento creacin nuevo movimiento\n        emit newMovement(owner, address(this), _tx.amount, balance, count);\n    }\n\n    /**\n      * @dev getMovement: Funcin para la consulta de movimientos\n      *      Se deber indicar la posicin del movimiento a consultar\n      *      (eg. para el primer movimiento se deber enviar 1)\n      *      Devolver todos los campos que forman el movimiento\n      * @param _ind Indice movimiento\n      * @return code\n      * @return fee\n      * @return qty\n      * @return uni\n      * @return amount\n      * @return date\n      */\n    function getMovement(uint _ind) external view returns(string memory, string memory, uint32, string memory, uint, uint) {\n        require (_ind > 0,\"value must be greater than zero\");\n        require (_ind <= count, \"value is higher than last movement index\");\n\n        // Resta 1 a la posicin para obtener la posicin real\n        uint pos = SafeMath.sub(_ind, 1);\n\n        return (mvts[pos].code, mvts[pos].fee, mvts[pos].qty, mvts[pos].uni, mvts[pos].amount, mvts[pos].date);\n    }\n\n}\n\n//**************************************************************************************************\n/** @title  Recycler (Contrato padre).\n  * @notice Contrato para la asignacin de tokens a una direccin de Ethereum como recompensa\n  *         por la entrega de un envase para su reciclado. Dicho envase se identificar por el\n  *         cdigo de barra en la etiqueta y, si tuviese asignado una tarifa (fee), el nmero\n  *         de tokens que corresponda a dicha tarifa se multiplicar por el nmero de unidades\n  *         entregadas. Si no fuese el caso, se asignar un token por cada unidad.\n  *\n  *         Para la obtencin de los tokens correspondientes a una tarifa se utilizar un\n  *         orculo de Provable.\n  */\n//**************************************************************************************************\ncontract Recycler is usingProvable, Pausable {\n\n    //* Estructura para datos de usuarios\n    struct User {\n        uint    balance;\n        uint    dtUltMvt;\n        uint32  countMvts;\n        uint32  seq;\n        UserFactory userContr;\n    }\n\n    //* Estructura para movimientos (Transacciones)\n    struct Mvt {\n        string code;\n        string fee;\n        uint32 qty;\n        string uni;\n        uint   amount;\n        uint   date;\n    }\n\n    //* Estructura para Transacciones pendientes enviadas al Orculo\n    struct PendingQuery {\n        bool    isPending;\n        Mvt     transPending;\n        address senderContract;\n    }\n\n    //* Variables generales\n    uint32  countUsers;\n    uint32  countQueries;\n    uint    globalBalance;\n    Mvt     trans;\n    bytes32[] pendTx1;\n\n    //* -- Mapping --\n    //* Lista de usuarios\n    mapping (uint => address) private listaUsers;\n    //* Datos de usuarios\n    mapping (address => User) private users;\n    //* Transacciones pendientes enviadas al Orculo\n    mapping (bytes32 => PendingQuery) private pendingQueries;\n\n    /**\n      * @dev newUser: Evento alta nuevo usuario\n      */\n    event newUser(\n        address indexed _sender, UserFactory indexed _factory, uint32 _seq\n    );\n\n    /**\n      * @dev newBalance: Evento actualizacin saldo de tokens\n      */\n    event newBalance(\n        address indexed _sender, uint _balance\n    );\n\n    /**\n      * @dev coinSent: Evento finalizacin envo de tokens\n      */\n    event coinSent(\n        address indexed _sender, string _code, string _fee, uint  _qty, string  _uni, uint _amount, uint _price\n    );\n\n    /**\n      * @dev LogPriceUpdated: Evento log respuesta query\n      */\n    event LogPriceUpdated(string _result);\n\n    /**\n      * @dev LogNewProvableQuery: Evento log nueva query\n      */\n    event LogNewProvableQuery(string description);\n\n    /**\n      * @dev Constructor\n      */\n    constructor() public payable {\n        //owner = msg.sender;\n         createUser();\n\n        //Se crea un movimiento justificante del abono de 10000 tokens\n//?        users[msg.sender].countMvts = SafeMath.add32(users[msg.sender].countMvts, 1);\n        users[msg.sender].userContr.addMovement(\"coinbase\", \"\", 1, \"UNI\", 10000);\n//?        addBalance(msg.sender, 10000);\n    }\n\n\n    /**\n      * @dev Funcin para el traspaso de tokens a la cuenta del usuario\n      *      Si se indica una tarifa (prodFee) se debe llamar al orculo para consultar el\n      *      precio (nmero de token que se debe entregar por cada unidad)\n      * @param prodCode cdigo envase\n      * @param prodFee  cdigo tarifa\n      * @param prodQty  cantidad envases entregados\n      * @param prodUni  unidad de medida\n      */\n    function sendCoin(string memory prodCode, string memory prodFee, uint32 prodQty, string memory prodUni) public whenNotPaused {\n        require(prodQty > 0,\"quantity is not greater than zero\");\n        require(prodQty < 1000,\"quantity is too high\");\n        require(bytes(prodCode).length > 0,\"package code is empty\");\n        require(bytes(prodUni).length > 0,\"unit code is empty\");\n\n        // Registra el usuario en caso de que no existiese\n//?        createUser();\n\n        // Recogemos los datos en un struct de movimientos\n        trans.code = prodCode;\n        trans.fee = prodFee;\n        trans.qty = prodQty;\n        trans.uni = prodUni;\n\n        // Solo se llamar al orculo cuando se haya recibido un cdigo de tarifa\n        if (bytes(prodFee).length > 0) {\n            fetchPrice(prodFee);\n        } else {\n            //uint price = 1;\n            sendCoin_cont(1, msg.sender, trans);\n        }\n    }\n\n    /**\n      * @dev Segunda parte de la funcin sendCoin que se ejecutar tras tener la tarifa (price)\n      *      de tokens a entregar\n      * @param _price  precio tarifa\n      * @param _sender address del movimiento\n      * @param _trans  movimiento (struct Mvt)\n      */\n    function sendCoin_cont(uint _price, address _sender, Mvt memory _trans) internal {\n\n        uint _amount;\n\n        // Si no se fija un precio o falla la llamada al orculo se asume precio = 1\n        if (_price != 0) {\n            _amount = SafeMath.mul(_trans.qty, _price);\n        } else {\n            _amount = _trans.qty;\n        }\n\n        users[_sender].dtUltMvt = block.timestamp;\n        users[_sender].countMvts = SafeMath.add32(users[_sender].countMvts, 1);\n\n        // Llamada al contrato factory para que registre el movimiento de saldo\n        users[_sender].userContr.addMovement(_trans.code, _trans.fee, _trans.qty, _trans.uni, _amount);\n//?        addBalance(_sender, _amount);\n\n        emit coinSent(_sender, _trans.code, _trans.fee, _trans.qty, _trans.uni, _amount, _price);\n    }\n\n    /**\n      * @dev Funcin para obtener el nmero de tokens que se pagar por cada unidad recogida (segn la tarifa\n      * indicada) -1ra parte-\n      *\n      * Para ello se utiliza un orculo creado con Provable (antiguo Oraclize) al que se le indicar la\n      * URL de una API web que devolver el nmero de tokens para la tarifa (_fee) enviada.\n      *\n      * La obtencin del nmero de tokens se deber hacer en dos pasos:\n      * 1 - En esta funcin se enviar la query al orculo\n      * 2 - En la funcin __callback se recoger el valor devuelto por el orculo para calcular el nmero\n      *      de tokens a entregar al usuario.\n      *\n      * @param _fee tarifa para la que se deber calcula el precio\n      */\n    function fetchPrice(string memory _fee) public payable whenNotPaused {\n       require(bytes(_fee).length > 0,\"fee code is empty\");\n\n       // Comprobamos si el contrato tiene saldo suficiente para el pago de la llamada al orculo\n       if (provable_getPrice(\"URL\") > address(this).balance) {\n           emit LogNewProvableQuery(\"Provable letquery was NOT sent, please add some ETH to cover for the query fee\");\n       } else {\n\n           // Se construye la query con la tarifa (_fee) enviada como parmetro\n           // La apiKey ha sido cifrada con la clave pblica de Provable\n           string memory _url = string(abi.encodePacked(\"[URL] ['json(https://api.mlab.com/api/1/databases/productos/collections/fees?apiKey=${[decrypt] BPssDAFd3BExbW4l0ee1RNV45pvdhOita1bwVtTzVu7aRvHoFZhuNCuuZnC8wzm6GUQ3yTz18+B2vnoADbHHpRc9NcMb/YZOwXo0sJsM5paIGll6oYEqpjWMQQ3eEISzGkE0/JMIHiDyG1SpiYI3bYg=}).0.result.\", _fee, \".price']\"));\n\n           emit LogNewProvableQuery(\"Provable query was sent, standing by for the answer..\");\n\n           // Enviamos la query a Provable y guardamos el Id para tratarlo en el callback\n           bytes32 queryId = provable_query(\"nested\", _url, 350000);\n\n           // Con el Id de la query guardamos los datos para tratarlos en el callback\n           pendingQueries[queryId].isPending = true;\n           pendingQueries[queryId].transPending = trans;\n           pendingQueries[queryId].senderContract = msg.sender;\n\n           // El contador countQueries nos permitir sabr cuntas queries hay pendientes de procesar\n           countQueries = SafeMath.add32(countQueries, 1);\n\n           // DEBUG: Guardamos el ID de la peticiones para, en caso de ser necesario, poder recuperarlos y revisar qu pasa\n           pendTx1.push(queryId);\n       }\n    }\n\n    /**\n      * @dev Funcin para obtener el nmero de tokens que se pagar por cada unidad recogida (segn la tarifa indicada)\n      * -2da parte-\n      *\n      * Revisamos que el ID enviado (_myid) correponda con algunas de las queries para las que esperamos respuesta y que\n      * quien haya invocado esta funcin sea provable_cbAddress.\n      * Recogemos el valor enviado en _result y continuamos con el proceso para el clculo de tokens que se entregarn al usuario\n      *\n      * @param _myid   id de la query para la que se enva respuesta\n      * @param _result resultado de la query\n      */\n    function __callback(bytes32 _myid, string memory _result) public {\n       require(pendingQueries[_myid].isPending, \"there is not any query pending with that ID\");\n       require(msg.sender == provable_cbAddress(), \"address not valid for the callback\");\n\n       uint _price = parseInt(_result);\n       emit LogPriceUpdated(_result);\n\n       sendCoin_cont(_price, pendingQueries[_myid].senderContract, pendingQueries[_myid].transPending);\n\n       delete pendingQueries[_myid];\n       countQueries = SafeMath.sub32(countQueries, 1);\n    }\n\n    /**\n      * @dev Funcin para crear un usuario en el sistema y poder gestionar sus datos asociados\n      */\n    function createUser() internal {\n\n        if (users[msg.sender].dtUltMvt == 0 && users[msg.sender].countMvts == 0) {\n\n            users[msg.sender].userContr = new UserFactory(msg.sender);\n            users[msg.sender].dtUltMvt = block.timestamp;\n            users[msg.sender].countMvts = 0;\n            users[msg.sender].balance = 0;\n\n            countUsers = SafeMath.add32(countUsers, 1);\n            users[msg.sender].seq = countUsers;\n            listaUsers[countUsers] = msg.sender;\n\n            emit newUser(msg.sender, users[msg.sender].userContr, users[msg.sender].seq);\n        }\n    }\n\n\n\n\n    /**\n      * @dev Funcin para desactivar de forma permanente el contrato (solo por el owner\n      *      y el contrato est en pausa)\n      */\n    function kill() public payable onlyOwner whenPaused {\n        require (globalBalance == 0, \"global balance is not zero\");\n        selfdestruct(msg.sender);\n    }\n\n    /**\n      * @dev Fallback function - Called if other functions don't match call or\n      * sent ether without data\n      * Typically, called when invalid data is sent\n      * Added so ether sent to this contract is reverted if the contract fails\n      * otherwise, the sender's money is transferred to contract\n      */\n    function () external payable {\n        revert(\"Fallback function\");\n    }\n\n}",
  "sourcePath": "/home/lealp22/DYDII_PEC1/contracts/Recycler.sol",
  "compiler": {
    "name": "solc",
    "version": "0.5.0+commit.1d4f565a.Emscripten.clang"
  },
  "schemaVersion": "3.0.11",
  "updatedAt": "2019-09-13T18:12:49.396Z",
  "devdoc": {
    "methods": {
      "__callback(bytes32,string)": {
        "details": "Funcin para obtener el nmero de tokens que se pagar por cada unidad recogida (segn la tarifa indicada) -2da parte-      * Revisamos que el ID enviado (_myid) correponda con algunas de las queries para las que esperamos respuesta y que quien haya invocado esta funcin sea provable_cbAddress. Recogemos el valor enviado en _result y continuamos con el proceso para el clculo de tokens que se entregarn al usuario",
        "params": {
          "_myid": "id de la query para la que se enva respuesta",
          "_result": "resultado de la query"
        }
      },
      "constructor": {
        "details": "Constructor"
      },
      "fetchPrice(string)": {
        "details": "Funcin para obtener el nmero de tokens que se pagar por cada unidad recogida (segn la tarifa indicada) -1ra parte-      * Para ello se utiliza un orculo creado con Provable (antiguo Oraclize) al que se le indicar la URL de una API web que devolver el nmero de tokens para la tarifa (_fee) enviada.      * La obtencin del nmero de tokens se deber hacer en dos pasos: 1 - En esta funcin se enviar la query al orculo 2 - En la funcin __callback se recoger el valor devuelto por el orculo para calcular el nmero     de tokens a entregar al usuario.",
        "params": {
          "_fee": "tarifa para la que se deber calcula el precio"
        }
      },
      "kill()": {
        "details": "Funcin para desactivar de forma permanente el contrato (solo por el owner     y el contrato est en pausa)"
      },
      "pause()": {
        "details": "Called by the owner to pause, triggers stopped state."
      },
      "paused()": {
        "details": "Returns true if the contract is paused, and false otherwise."
      },
      "sendCoin(string,string,uint32,string)": {
        "details": "Funcin para el traspaso de tokens a la cuenta del usuario     Si se indica una tarifa (prodFee) se debe llamar al orculo para consultar el     precio (nmero de token que se debe entregar por cada unidad)",
        "params": {
          "prodCode": "cdigo envase",
          "prodFee": "cdigo tarifa",
          "prodQty": "cantidad envases entregados",
          "prodUni": "unidad de medida"
        }
      },
      "transferOwnership(address)": {
        "details": "Allows the current owner to transfer control of the contract to a newOwner.",
        "params": {
          "newOwner": "The address to transfer ownership to."
        }
      },
      "unpause()": {
        "details": "Called by the owner to unpause, returns to normal state."
      }
    },
    "title": "Recycler (Contrato padre)."
  },
  "userdoc": {
    "methods": {},
    "notice": "Contrato para la asignacin de tokens a una direccin de Ethereum como recompensa        por la entrega de un envase para su reciclado. Dicho envase se identificar por el        cdigo de barra en la etiqueta y, si tuviese asignado una tarifa (fee), el nmero        de tokens que corresponda a dicha tarifa se multiplicar por el nmero de unidades        entregadas. Si no fuese el caso, se asignar un token por cada unidad.  *         Para la obtencin de los tokens correspondientes a una tarifa se utilizar un        orculo de Provable."
  }
}