{
  "contractName": "Recycler",
  "abi": [
    {
      "constant": false,
      "inputs": [],
      "name": "unpause",
      "outputs": [],
      "payable": false,
      "stateMutability": "nonpayable",
      "type": "function"
    },
    {
      "constant": true,
      "inputs": [],
      "name": "paused",
      "outputs": [
        {
          "name": "",
          "type": "bool"
        }
      ],
      "payable": false,
      "stateMutability": "view",
      "type": "function"
    },
    {
      "constant": false,
      "inputs": [],
      "name": "pause",
      "outputs": [],
      "payable": false,
      "stateMutability": "nonpayable",
      "type": "function"
    },
    {
      "constant": true,
      "inputs": [],
      "name": "owner",
      "outputs": [
        {
          "name": "",
          "type": "address"
        }
      ],
      "payable": false,
      "stateMutability": "view",
      "type": "function"
    },
    {
      "constant": false,
      "inputs": [
        {
          "name": "newOwner",
          "type": "address"
        }
      ],
      "name": "transferOwnership",
      "outputs": [],
      "payable": false,
      "stateMutability": "nonpayable",
      "type": "function"
    },
    {
      "inputs": [],
      "payable": false,
      "stateMutability": "nonpayable",
      "type": "constructor"
    },
    {
      "payable": true,
      "stateMutability": "payable",
      "type": "fallback"
    },
    {
      "anonymous": false,
      "inputs": [
        {
          "indexed": true,
          "name": "_sender",
          "type": "address"
        },
        {
          "indexed": true,
          "name": "_contract",
          "type": "address"
        },
        {
          "indexed": false,
          "name": "_seq",
          "type": "uint32"
        }
      ],
      "name": "newUser",
      "type": "event"
    },
    {
      "anonymous": false,
      "inputs": [
        {
          "indexed": true,
          "name": "_sender",
          "type": "address"
        },
        {
          "indexed": false,
          "name": "_balance",
          "type": "uint256"
        }
      ],
      "name": "newBalance",
      "type": "event"
    },
    {
      "anonymous": false,
      "inputs": [
        {
          "indexed": false,
          "name": "price",
          "type": "string"
        }
      ],
      "name": "LogPriceUpdated",
      "type": "event"
    },
    {
      "anonymous": false,
      "inputs": [
        {
          "indexed": false,
          "name": "description",
          "type": "string"
        }
      ],
      "name": "LogNewProvableQuery",
      "type": "event"
    },
    {
      "anonymous": false,
      "inputs": [],
      "name": "Pause",
      "type": "event"
    },
    {
      "anonymous": false,
      "inputs": [],
      "name": "Unpause",
      "type": "event"
    },
    {
      "anonymous": false,
      "inputs": [
        {
          "indexed": true,
          "name": "previousOwner",
          "type": "address"
        },
        {
          "indexed": true,
          "name": "newOwner",
          "type": "address"
        }
      ],
      "name": "OwnershipTransferred",
      "type": "event"
    },
    {
      "constant": false,
      "inputs": [
        {
          "name": "_amount",
          "type": "uint256"
        }
      ],
      "name": "sendCoin",
      "outputs": [],
      "payable": false,
      "stateMutability": "nonpayable",
      "type": "function"
    },
    {
      "constant": false,
      "inputs": [],
      "name": "createUser",
      "outputs": [],
      "payable": false,
      "stateMutability": "nonpayable",
      "type": "function"
    },
    {
      "constant": false,
      "inputs": [],
      "name": "deleteUser",
      "outputs": [],
      "payable": false,
      "stateMutability": "nonpayable",
      "type": "function"
    },
    {
      "constant": true,
      "inputs": [
        {
          "name": "_addr",
          "type": "address"
        }
      ],
      "name": "getBalance",
      "outputs": [
        {
          "name": "",
          "type": "uint256"
        }
      ],
      "payable": false,
      "stateMutability": "view",
      "type": "function"
    },
    {
      "constant": true,
      "inputs": [],
      "name": "getGlobalBalance",
      "outputs": [
        {
          "name": "",
          "type": "uint256"
        }
      ],
      "payable": false,
      "stateMutability": "view",
      "type": "function"
    },
    {
      "constant": true,
      "inputs": [
        {
          "name": "_ind",
          "type": "uint256"
        }
      ],
      "name": "getMovement",
      "outputs": [
        {
          "name": "",
          "type": "uint256"
        },
        {
          "name": "",
          "type": "uint256"
        }
      ],
      "payable": false,
      "stateMutability": "view",
      "type": "function"
    },
    {
      "constant": false,
      "inputs": [
        {
          "name": "_amount",
          "type": "uint256"
        }
      ],
      "name": "withdrawal",
      "outputs": [
        {
          "name": "",
          "type": "uint256"
        }
      ],
      "payable": false,
      "stateMutability": "nonpayable",
      "type": "function"
    },
    {
      "constant": false,
      "inputs": [
        {
          "name": "myid",
          "type": "bytes32"
        },
        {
          "name": "_result",
          "type": "string"
        }
      ],
      "name": "__callback",
      "outputs": [],
      "payable": false,
      "stateMutability": "nonpayable",
      "type": "function"
    },
    {
      "constant": false,
      "inputs": [
        {
          "name": "_myid",
          "type": "bytes32"
        },
        {
          "name": "_result",
          "type": "string"
        },
        {
          "name": "_proof",
          "type": "bytes"
        }
      ],
      "name": "__callback",
      "outputs": [],
      "payable": false,
      "stateMutability": "nonpayable",
      "type": "function"
    },
    {
      "constant": false,
      "inputs": [
        {
          "name": "_fee",
          "type": "string"
        }
      ],
      "name": "updatePrice",
      "outputs": [],
      "payable": true,
      "stateMutability": "payable",
      "type": "function"
    },
    {
      "constant": false,
      "inputs": [],
      "name": "kill",
      "outputs": [],
      "payable": true,
      "stateMutability": "payable",
      "type": "function"
    }
  ],
  "bytecode": "0x608060405260008060146101000a81548160ff0219169083151502179055503480156200002b57600080fd5b50336000806101000a81548173ffffffffffffffffffffffffffffffffffffffff021916908373ffffffffffffffffffffffffffffffffffffffff16021790555033600660006101000a81548173ffffffffffffffffffffffffffffffffffffffff021916908373ffffffffffffffffffffffffffffffffffffffff160217905550620000c6620000e8640100000000026401000000009004565b620000e2612710620005c1640100000000026401000000009004565b6200077f565b6000600a60003373ffffffffffffffffffffffffffffffffffffffff1673ffffffffffffffffffffffffffffffffffffffff168152602001908152602001600020600101541480156200019357506000600a60003373ffffffffffffffffffffffffffffffffffffffff1673ffffffffffffffffffffffffffffffffffffffff16815260200190815260200160002060020160009054906101000a900463ffffffff1663ffffffff16145b15620005bf5733620001a46200076e565b808273ffffffffffffffffffffffffffffffffffffffff1673ffffffffffffffffffffffffffffffffffffffff168152602001915050604051809103906000f080158015620001f7573d6000803e3d6000fd5b50600a60003373ffffffffffffffffffffffffffffffffffffffff1673ffffffffffffffffffffffffffffffffffffffff16815260200190815260200160002060020160086101000a81548173ffffffffffffffffffffffffffffffffffffffff021916908373ffffffffffffffffffffffffffffffffffffffff16021790555042600a60003373ffffffffffffffffffffffffffffffffffffffff1673ffffffffffffffffffffffffffffffffffffffff168152602001908152602001600020600101819055506000600a60003373ffffffffffffffffffffffffffffffffffffffff1673ffffffffffffffffffffffffffffffffffffffff16815260200190815260200160002060020160006101000a81548163ffffffff021916908363ffffffff1602179055506000600a60003373ffffffffffffffffffffffffffffffffffffffff1673ffffffffffffffffffffffffffffffffffffffff168152602001908152602001600020600001819055506200039c600660149054906101000a900463ffffffff1660016200072464010000000002620026d9176401000000009004565b600660146101000a81548163ffffffff021916908363ffffffff160217905550600660149054906101000a900463ffffffff16600a60003373ffffffffffffffffffffffffffffffffffffffff1673ffffffffffffffffffffffffffffffffffffffff16815260200190815260200160002060020160046101000a81548163ffffffff021916908363ffffffff1602179055503360096000600660149054906101000a900463ffffffff1663ffffffff16815260200190815260200160002060006101000a81548173ffffffffffffffffffffffffffffffffffffffff021916908373ffffffffffffffffffffffffffffffffffffffff160217905550600a60003373ffffffffffffffffffffffffffffffffffffffff1673ffffffffffffffffffffffffffffffffffffffff16815260200190815260200160002060020160089054906101000a900473ffffffffffffffffffffffffffffffffffffffff1673ffffffffffffffffffffffffffffffffffffffff163373ffffffffffffffffffffffffffffffffffffffff167f2400353ee3cbddbecd51b36528703d6a9a1f15a73ef12fa52c45ebfbf5eb0e10600a60003373ffffffffffffffffffffffffffffffffffffffff1673ffffffffffffffffffffffffffffffffffffffff16815260200190815260200160002060020160049054906101000a900463ffffffff16604051808263ffffffff1663ffffffff16815260200191505060405180910390a35b565b62000623600a60003373ffffffffffffffffffffffffffffffffffffffff1673ffffffffffffffffffffffffffffffffffffffff16815260200190815260200160002060000154826200074f6401000000000262002e7b176401000000009004565b600a60003373ffffffffffffffffffffffffffffffffffffffff1673ffffffffffffffffffffffffffffffffffffffff168152602001908152602001600020600001819055506200068b600754826200074f6401000000000262002e7b176401000000009004565b6007819055503373ffffffffffffffffffffffffffffffffffffffff167f4abaca7060438a179d5f20d945b01077a6df8b016150a897abd09d3fdebcf109600a60003373ffffffffffffffffffffffffffffffffffffffff1673ffffffffffffffffffffffffffffffffffffffff168152602001908152602001600020600001546040518082815260200191505060405180910390a250565b60008082840190508363ffffffff168163ffffffff16101515156200074557fe5b8091505092915050565b60008082840190508381101515156200076457fe5b8091505092915050565b604051610523806200419d83390190565b613a0e806200078f6000396000f3fe6080604052600436106100e6576000357c0100000000000000000000000000000000000000000000000000000000900463ffffffff168063026ff05e146100eb5780630dc329261461010257806323d468e2146101bd57806325ad91ce146101e857806327dc297e146101ff57806338bbfa50146102d15780633f4ba83a1461043a57806341c0e1b51461045157806344f755501461045b5780635c975abb14610496578063835fc6ca146104c55780638456cb59146105145780638cd981a81461052b5780638da5cb5b14610581578063f2fde38b146105d8578063f8b2cb4f14610629575b600080fd5b3480156100f757600080fd5b5061010061068e565b005b6101bb6004803603602081101561011857600080fd5b810190808035906020019064010000000081111561013557600080fd5b82018360208201111561014757600080fd5b8035906020019184600183028401116401000000008311171561016957600080fd5b91908080601f016020809104026020016040519081016040528093929190818152602001838380828437600081840152601f19601f820116905080830192505050505050509192919290505050610930565b005b3480156101c957600080fd5b506101d2610cc4565b6040518082815260200191505060405180910390f35b3480156101f457600080fd5b506101fd610cce565b005b34801561020b57600080fd5b506102cf6004803603604081101561022257600080fd5b81019080803590602001909291908035906020019064010000000081111561024957600080fd5b82018360208201111561025b57600080fd5b8035906020019184600183028401116401000000008311171561027d57600080fd5b91908080601f016020809104026020016040519081016040528093929190818152602001838380828437600081840152601f19601f82011690508083019250505050505050919291929050505061118c565b005b3480156102dd57600080fd5b50610438600480360360608110156102f457600080fd5b81019080803590602001909291908035906020019064010000000081111561031b57600080fd5b82018360208201111561032d57600080fd5b8035906020019184600183028401116401000000008311171561034f57600080fd5b91908080601f016020809104026020016040519081016040528093929190818152602001838380828437600081840152601f19601f820116905080830192505050505050509192919290803590602001906401000000008111156103b257600080fd5b8201836020820111156103c457600080fd5b803590602001918460018302840111640100000000831117156103e657600080fd5b91908080601f016020809104026020016040519081016040528093929190818152602001838380828437600081840152601f19601f82011690508083019250505050505050919291929050505061127c565b005b34801561044657600080fd5b5061044f6112a0565b005b61045961135e565b005b34801561046757600080fd5b506104946004803603602081101561047e57600080fd5b810190808035906020019092919050505061144c565b005b3480156104a257600080fd5b506104ab61173e565b604051808215151515815260200191505060405180910390f35b3480156104d157600080fd5b506104fe600480360360208110156104e857600080fd5b8101908080359060200190929190505050611751565b6040518082815260200191505060405180910390f35b34801561052057600080fd5b50610529611975565b005b34801561053757600080fd5b506105646004803603602081101561054e57600080fd5b8101908080359060200190929190505050611a35565b604051808381526020018281526020019250505060405180910390f35b34801561058d57600080fd5b50610596611b52565b604051808273ffffffffffffffffffffffffffffffffffffffff1673ffffffffffffffffffffffffffffffffffffffff16815260200191505060405180910390f35b3480156105e457600080fd5b50610627600480360360208110156105fb57600080fd5b81019080803573ffffffffffffffffffffffffffffffffffffffff169060200190929190505050611b78565b005b34801561063557600080fd5b506106786004803603602081101561064c57600080fd5b81019080803573ffffffffffffffffffffffffffffffffffffffff169060200190929190505050611ccd565b6040518082815260200191505060405180910390f35b6000600a60003373ffffffffffffffffffffffffffffffffffffffff1673ffffffffffffffffffffffffffffffffffffffff1681526020019081526020016000206001015414151561092e57600060096000600a60003373ffffffffffffffffffffffffffffffffffffffff1673ffffffffffffffffffffffffffffffffffffffff16815260200190815260200160002060020160049054906101000a900463ffffffff1663ffffffff16815260200190815260200160002060006101000a81548173ffffffffffffffffffffffffffffffffffffffff021916908373ffffffffffffffffffffffffffffffffffffffff1602179055506107d3600754600a60003373ffffffffffffffffffffffffffffffffffffffff1673ffffffffffffffffffffffffffffffffffffffff16815260200190815260200160002060000154611d19565b6007819055506000600a60003373ffffffffffffffffffffffffffffffffffffffff1673ffffffffffffffffffffffffffffffffffffffff168152602001908152602001600020600001819055506000600a60003373ffffffffffffffffffffffffffffffffffffffff1673ffffffffffffffffffffffffffffffffffffffff168152602001908152602001600020600101819055506000600a60003373ffffffffffffffffffffffffffffffffffffffff1673ffffffffffffffffffffffffffffffffffffffff16815260200190815260200160002060020160006101000a81548163ffffffff021916908363ffffffff1602179055506000600a60003373ffffffffffffffffffffffffffffffffffffffff1673ffffffffffffffffffffffffffffffffffffffff16815260200190815260200160002060020160046101000a81548163ffffffff021916908363ffffffff1602179055505b565b600081511115156109a9576040517f08c379a00000000000000000000000000000000000000000000000000000000081526004018080602001828103825260118152602001807f66656520636f646520697320656d70747900000000000000000000000000000081525060200191505060405180910390fd5b3073ffffffffffffffffffffffffffffffffffffffff16316109ff6040805190810160405280600381526020017f55524c0000000000000000000000000000000000000000000000000000000000815250611d32565b1115610abe577fc4dc360d0a9c0677a3379ae0a3d81e887f761e65fdf3d7e00859d1bcd3c4738960405180806020018281038252604b8152602001807f50726f7661626c6520717565727920776173204e4f542073656e742c20706c6581526020017f6173652061646420736f6d652045544820746f20636f76657220666f7220746881526020017f652071756572792066656500000000000000000000000000000000000000000081525060600191505060405180910390a1610cc1565b60608160405160200180807f6a736f6e2868747470733a2f2f6170692e6d6c61622e636f6d2f6170692f312f81526020017f6461746162617365732f70726f647563746f732f636f6c6c656374696f6e732f81526020017f666565733f6170694b65793d314b7558436e555371664f4744416f4b535a484581526020017f4e54534642426c753464366e292e302e726573756c742e00000000000000000081525060770182805190602001908083835b602083101515610b935780518252602082019150602081019050602083039250610b6e565b6001836020036101000a038019825116818451168082178552505050505050905001807f2e7072696365000000000000000000000000000000000000000000000000000081525060060191505060405160208183030381529060405290507fc4dc360d0a9c0677a3379ae0a3d81e887f761e65fdf3d7e00859d1bcd3c473896040518080602001828103825260358152602001807f50726f7661626c65207175657279207761732073656e742c207374616e64696e81526020017f6720627920666f722074686520616e737765722e2e000000000000000000000081525060400191505060405180910390a1610cbe6040805190810160405280600381526020017f55524c00000000000000000000000000000000000000000000000000000000008152508261211c565b50505b50565b6000600754905090565b6000600a60003373ffffffffffffffffffffffffffffffffffffffff1673ffffffffffffffffffffffffffffffffffffffff16815260200190815260200160002060010154148015610d7857506000600a60003373ffffffffffffffffffffffffffffffffffffffff1673ffffffffffffffffffffffffffffffffffffffff16815260200190815260200160002060020160009054906101000a900463ffffffff1663ffffffff16145b1561118a5733610d8661340a565b808273ffffffffffffffffffffffffffffffffffffffff1673ffffffffffffffffffffffffffffffffffffffff168152602001915050604051809103906000f080158015610dd8573d6000803e3d6000fd5b50600a60003373ffffffffffffffffffffffffffffffffffffffff1673ffffffffffffffffffffffffffffffffffffffff16815260200190815260200160002060020160086101000a81548173ffffffffffffffffffffffffffffffffffffffff021916908373ffffffffffffffffffffffffffffffffffffffff16021790555042600a60003373ffffffffffffffffffffffffffffffffffffffff1673ffffffffffffffffffffffffffffffffffffffff168152602001908152602001600020600101819055506000600a60003373ffffffffffffffffffffffffffffffffffffffff1673ffffffffffffffffffffffffffffffffffffffff16815260200190815260200160002060020160006101000a81548163ffffffff021916908363ffffffff1602179055506000600a60003373ffffffffffffffffffffffffffffffffffffffff1673ffffffffffffffffffffffffffffffffffffffff16815260200190815260200160002060000181905550610f67600660149054906101000a900463ffffffff1660016126d9565b600660146101000a81548163ffffffff021916908363ffffffff160217905550600660149054906101000a900463ffffffff16600a60003373ffffffffffffffffffffffffffffffffffffffff1673ffffffffffffffffffffffffffffffffffffffff16815260200190815260200160002060020160046101000a81548163ffffffff021916908363ffffffff1602179055503360096000600660149054906101000a900463ffffffff1663ffffffff16815260200190815260200160002060006101000a81548173ffffffffffffffffffffffffffffffffffffffff021916908373ffffffffffffffffffffffffffffffffffffffff160217905550600a60003373ffffffffffffffffffffffffffffffffffffffff1673ffffffffffffffffffffffffffffffffffffffff16815260200190815260200160002060020160089054906101000a900473ffffffffffffffffffffffffffffffffffffffff1673ffffffffffffffffffffffffffffffffffffffff163373ffffffffffffffffffffffffffffffffffffffff167f2400353ee3cbddbecd51b36528703d6a9a1f15a73ef12fa52c45ebfbf5eb0e10600a60003373ffffffffffffffffffffffffffffffffffffffff1673ffffffffffffffffffffffffffffffffffffffff16815260200190815260200160002060020160049054906101000a900463ffffffff16604051808263ffffffff1663ffffffff16815260200191505060405180910390a35b565b611194612703565b73ffffffffffffffffffffffffffffffffffffffff163373ffffffffffffffffffffffffffffffffffffffff161415156111cd57600080fd5b6111d681612a79565b6008819055507f71f1a5645e51a2da828ffcf79cc17da88eb25e1bca8b9dced23210847a4769c1816040518080602001828103825283818151815260200191508051906020019080838360005b8381101561123e578082015181840152602081019050611223565b50505050905090810190601f16801561126b5780820380516001836020036101000a031916815260200191505b509250505060405180910390a15050565b60006001026004600080600102815260200190815260200160002081905550505050565b6000809054906101000a900473ffffffffffffffffffffffffffffffffffffffff1673ffffffffffffffffffffffffffffffffffffffff163373ffffffffffffffffffffffffffffffffffffffff161415156112fb57600080fd5b600060149054906101000a900460ff16151561131657600080fd5b60008060146101000a81548160ff0219169083151502179055507f7805862f689e2f13df9f062ff482ad3ad112aca9e0847911ed832e158c525b3360405160405180910390a1565b6000809054906101000a900473ffffffffffffffffffffffffffffffffffffffff1673ffffffffffffffffffffffffffffffffffffffff163373ffffffffffffffffffffffffffffffffffffffff161415156113b957600080fd5b6000600754141515611433576040517f08c379a000000000000000000000000000000000000000000000000000000000815260040180806020018281038252601a8152602001807f676c6f62616c2062616c616e6365206973206e6f74207a65726f00000000000081525060200191505060405180910390fd5b3373ffffffffffffffffffffffffffffffffffffffff16ff5b6000811115156114c4576040517f08c379a000000000000000000000000000000000000000000000000000000000815260040180806020018281038252601f8152602001807f616d6f756e74206973206e6f742067726561746572207468616e207a65726f0081525060200191505060405180910390fd5b6127108110151561153d576040517f08c379a00000000000000000000000000000000000000000000000000000000081526004018080602001828103825260128152602001807f616d6f756e7420697320746f6f2068696768000000000000000000000000000081525060200191505060405180910390fd5b611545610cce565b42600a60003373ffffffffffffffffffffffffffffffffffffffff1673ffffffffffffffffffffffffffffffffffffffff168152602001908152602001600020600101819055506115e9600a60003373ffffffffffffffffffffffffffffffffffffffff1673ffffffffffffffffffffffffffffffffffffffff16815260200190815260200160002060020160009054906101000a900463ffffffff1660016126d9565b600a60003373ffffffffffffffffffffffffffffffffffffffff1673ffffffffffffffffffffffffffffffffffffffff16815260200190815260200160002060020160006101000a81548163ffffffff021916908363ffffffff160217905550600a60003373ffffffffffffffffffffffffffffffffffffffff1673ffffffffffffffffffffffffffffffffffffffff16815260200190815260200160002060020160089054906101000a900473ffffffffffffffffffffffffffffffffffffffff1673ffffffffffffffffffffffffffffffffffffffff1663f9d00206826040518263ffffffff167c010000000000000000000000000000000000000000000000000000000002815260040180828152602001915050600060405180830381600087803b15801561171a57600080fd5b505af115801561172e573d6000803e3d6000fd5b5050505061173b81612a8d565b50565b600060149054906101000a900460ff1681565b600081600a60003373ffffffffffffffffffffffffffffffffffffffff1673ffffffffffffffffffffffffffffffffffffffff168152602001908152602001600020600001541015151561180d576040517f08c379a00000000000000000000000000000000000000000000000000000000081526004018080602001828103825260128152602001807f6e6f7420656e6f7567682062616c616e6365000000000000000000000000000081525060200191505060405180910390fd5b8160075410151515611887576040517f08c379a00000000000000000000000000000000000000000000000000000000081526004018080602001828103825260198152602001807f6e6f7420656e6f75676820676c6f62616c2062616c616e63650000000000000081525060200191505060405180910390fd5b6118d3600a60003373ffffffffffffffffffffffffffffffffffffffff1673ffffffffffffffffffffffffffffffffffffffff1681526020019081526020016000206000015483611d19565b600a60003373ffffffffffffffffffffffffffffffffffffffff1673ffffffffffffffffffffffffffffffffffffffff1681526020019081526020016000206000018190555061192560075483611d19565b600781905550600a60003373ffffffffffffffffffffffffffffffffffffffff1673ffffffffffffffffffffffffffffffffffffffff168152602001908152602001600020600001549050919050565b6000809054906101000a900473ffffffffffffffffffffffffffffffffffffffff1673ffffffffffffffffffffffffffffffffffffffff163373ffffffffffffffffffffffffffffffffffffffff161415156119d057600080fd5b600060149054906101000a900460ff161515156119ec57600080fd5b6001600060146101000a81548160ff0219169083151502179055507f6985a02210a168e66602d3235cb6db0e70f92b3ba4d376a33c0f3d9434bff62560405160405180910390a1565b600080600a60003373ffffffffffffffffffffffffffffffffffffffff1673ffffffffffffffffffffffffffffffffffffffff16815260200190815260200160002060020160089054906101000a900473ffffffffffffffffffffffffffffffffffffffff1673ffffffffffffffffffffffffffffffffffffffff16638cd981a8846040518263ffffffff167c010000000000000000000000000000000000000000000000000000000002815260040180828152602001915050604080518083038186803b158015611b0657600080fd5b505afa158015611b1a573d6000803e3d6000fd5b505050506040513d6040811015611b3057600080fd5b8101908080519060200190929190805190602001909291905050505050915091565b600660009054906101000a900473ffffffffffffffffffffffffffffffffffffffff1681565b6000809054906101000a900473ffffffffffffffffffffffffffffffffffffffff1673ffffffffffffffffffffffffffffffffffffffff163373ffffffffffffffffffffffffffffffffffffffff16141515611bd357600080fd5b600073ffffffffffffffffffffffffffffffffffffffff168173ffffffffffffffffffffffffffffffffffffffff1614151515611c0f57600080fd5b8073ffffffffffffffffffffffffffffffffffffffff166000809054906101000a900473ffffffffffffffffffffffffffffffffffffffff1673ffffffffffffffffffffffffffffffffffffffff167f8be0079c531659141344cd1fd0a4f28419497f9722a3daafe3b4186f6b6457e060405160405180910390a3806000806101000a81548173ffffffffffffffffffffffffffffffffffffffff021916908373ffffffffffffffffffffffffffffffffffffffff16021790555050565b6000600a60008373ffffffffffffffffffffffffffffffffffffffff1673ffffffffffffffffffffffffffffffffffffffff168152602001908152602001600020600001549050919050565b6000828211151515611d2757fe5b818303905092915050565b60008073ffffffffffffffffffffffffffffffffffffffff16600260009054906101000a900473ffffffffffffffffffffffffffffffffffffffff1673ffffffffffffffffffffffffffffffffffffffff161480611dba57506000611db8600260009054906101000a900473ffffffffffffffffffffffffffffffffffffffff16612bc4565b145b15611dcb57611dc96000612bcf565b505b600260009054906101000a900473ffffffffffffffffffffffffffffffffffffffff1673ffffffffffffffffffffffffffffffffffffffff166338cc48316040518163ffffffff167c0100000000000000000000000000000000000000000000000000000000028152600401602060405180830381600087803b158015611e5157600080fd5b505af1158015611e65573d6000803e3d6000fd5b505050506040513d6020811015611e7b57600080fd5b810190808051906020019092919050505073ffffffffffffffffffffffffffffffffffffffff16600160009054906101000a900473ffffffffffffffffffffffffffffffffffffffff1673ffffffffffffffffffffffffffffffffffffffff16141515611fe457600260009054906101000a900473ffffffffffffffffffffffffffffffffffffffff1673ffffffffffffffffffffffffffffffffffffffff166338cc48316040518163ffffffff167c0100000000000000000000000000000000000000000000000000000000028152600401602060405180830381600087803b158015611f6857600080fd5b505af1158015611f7c573d6000803e3d6000fd5b505050506040513d6020811015611f9257600080fd5b8101908080519060200190929190505050600160006101000a81548173ffffffffffffffffffffffffffffffffffffffff021916908373ffffffffffffffffffffffffffffffffffffffff1602179055505b600160009054906101000a900473ffffffffffffffffffffffffffffffffffffffff1673ffffffffffffffffffffffffffffffffffffffff1663524f3889836040518263ffffffff167c01000000000000000000000000000000000000000000000000000000000281526004018080602001828103825283818151815260200191508051906020019080838360005b8381101561208e578082015181840152602081019050612073565b50505050905090810190601f1680156120bb5780820380516001836020036101000a031916815260200191505b5092505050602060405180830381600087803b1580156120da57600080fd5b505af11580156120ee573d6000803e3d6000fd5b505050506040513d602081101561210457600080fd5b81019080805190602001909291905050509050919050565b60008073ffffffffffffffffffffffffffffffffffffffff16600260009054906101000a900473ffffffffffffffffffffffffffffffffffffffff1673ffffffffffffffffffffffffffffffffffffffff1614806121a4575060006121a2600260009054906101000a900473ffffffffffffffffffffffffffffffffffffffff16612bc4565b145b156121b5576121b36000612bcf565b505b600260009054906101000a900473ffffffffffffffffffffffffffffffffffffffff1673ffffffffffffffffffffffffffffffffffffffff166338cc48316040518163ffffffff167c0100000000000000000000000000000000000000000000000000000000028152600401602060405180830381600087803b15801561223b57600080fd5b505af115801561224f573d6000803e3d6000fd5b505050506040513d602081101561226557600080fd5b810190808051906020019092919050505073ffffffffffffffffffffffffffffffffffffffff16600160009054906101000a900473ffffffffffffffffffffffffffffffffffffffff1673ffffffffffffffffffffffffffffffffffffffff161415156123ce57600260009054906101000a900473ffffffffffffffffffffffffffffffffffffffff1673ffffffffffffffffffffffffffffffffffffffff166338cc48316040518163ffffffff167c0100000000000000000000000000000000000000000000000000000000028152600401602060405180830381600087803b15801561235257600080fd5b505af1158015612366573d6000803e3d6000fd5b505050506040513d602081101561237c57600080fd5b8101908080519060200190929190505050600160006101000a81548173ffffffffffffffffffffffffffffffffffffffff021916908373ffffffffffffffffffffffffffffffffffffffff1602179055505b6000600160009054906101000a900473ffffffffffffffffffffffffffffffffffffffff1673ffffffffffffffffffffffffffffffffffffffff1663524f3889856040518263ffffffff167c01000000000000000000000000000000000000000000000000000000000281526004018080602001828103825283818151815260200191508051906020019080838360005b8381101561247a57808201518184015260208101905061245f565b50505050905090810190601f1680156124a75780820380516001836020036101000a031916815260200191505b5092505050602060405180830381600087803b1580156124c657600080fd5b505af11580156124da573d6000803e3d6000fd5b505050506040513d60208110156124f057600080fd5b8101908080519060200190929190505050905062030d403a02670de0b6b3a7640000018111156125275760006001029150506126d3565b600160009054906101000a900473ffffffffffffffffffffffffffffffffffffffff1673ffffffffffffffffffffffffffffffffffffffff1663adf59f9982600087876040518563ffffffff167c0100000000000000000000000000000000000000000000000000000000028152600401808481526020018060200180602001838103835285818151815260200191508051906020019080838360005b838110156125df5780820151818401526020810190506125c4565b50505050905090810190601f16801561260c5780820380516001836020036101000a031916815260200191505b50838103825284818151815260200191508051906020019080838360005b8381101561264557808201518184015260208101905061262a565b50505050905090810190601f1680156126725780820380516001836020036101000a031916815260200191505b50955050505050506020604051808303818588803b15801561269357600080fd5b505af11580156126a7573d6000803e3d6000fd5b50505050506040513d60208110156126be57600080fd5b81019080805190602001909291905050509150505b92915050565b60008082840190508363ffffffff168163ffffffff16101515156126f957fe5b8091505092915050565b60008073ffffffffffffffffffffffffffffffffffffffff16600260009054906101000a900473ffffffffffffffffffffffffffffffffffffffff1673ffffffffffffffffffffffffffffffffffffffff16148061278b57506000612789600260009054906101000a900473ffffffffffffffffffffffffffffffffffffffff16612bc4565b145b1561279c5761279a6000612bcf565b505b600260009054906101000a900473ffffffffffffffffffffffffffffffffffffffff1673ffffffffffffffffffffffffffffffffffffffff166338cc48316040518163ffffffff167c0100000000000000000000000000000000000000000000000000000000028152600401602060405180830381600087803b15801561282257600080fd5b505af1158015612836573d6000803e3d6000fd5b505050506040513d602081101561284c57600080fd5b810190808051906020019092919050505073ffffffffffffffffffffffffffffffffffffffff16600160009054906101000a900473ffffffffffffffffffffffffffffffffffffffff1673ffffffffffffffffffffffffffffffffffffffff161415156129b557600260009054906101000a900473ffffffffffffffffffffffffffffffffffffffff1673ffffffffffffffffffffffffffffffffffffffff166338cc48316040518163ffffffff167c0100000000000000000000000000000000000000000000000000000000028152600401602060405180830381600087803b15801561293957600080fd5b505af115801561294d573d6000803e3d6000fd5b505050506040513d602081101561296357600080fd5b8101908080519060200190929190505050600160006101000a81548173ffffffffffffffffffffffffffffffffffffffff021916908373ffffffffffffffffffffffffffffffffffffffff1602179055505b600160009054906101000a900473ffffffffffffffffffffffffffffffffffffffff1673ffffffffffffffffffffffffffffffffffffffff1663c281d19e6040518163ffffffff167c010000000000000000000000000000000000000000000000000000000002815260040160206040518083038186803b158015612a3957600080fd5b505afa158015612a4d573d6000803e3d6000fd5b505050506040513d6020811015612a6357600080fd5b8101908080519060200190929190505050905090565b6000612a86826000612be0565b9050919050565b612ad9600a60003373ffffffffffffffffffffffffffffffffffffffff1673ffffffffffffffffffffffffffffffffffffffff1681526020019081526020016000206000015482612e7b565b600a60003373ffffffffffffffffffffffffffffffffffffffff1673ffffffffffffffffffffffffffffffffffffffff16815260200190815260200160002060000181905550612b2b60075482612e7b565b6007819055503373ffffffffffffffffffffffffffffffffffffffff167f4abaca7060438a179d5f20d945b01077a6df8b016150a897abd09d3fdebcf109600a60003373ffffffffffffffffffffffffffffffffffffffff1673ffffffffffffffffffffffffffffffffffffffff168152602001908152602001600020600001546040518082815260200191505060405180910390a250565b6000813b9050919050565b6000612bd9612e99565b9050919050565b600060608390506000809050600080905060008090505b8351811015612e5c5760308482815181101515612c1057fe5b9060200101517f010000000000000000000000000000000000000000000000000000000000000090047f0100000000000000000000000000000000000000000000000000000000000000027f0100000000000000000000000000000000000000000000000000000000000000900460ff1610158015612d0e575060398482815181101515612c9a57fe5b9060200101517f010000000000000000000000000000000000000000000000000000000000000090047f0100000000000000000000000000000000000000000000000000000000000000027f0100000000000000000000000000000000000000000000000000000000000000900460ff1611155b15612dc2578115612d31576000861415612d2757612e5c565b8580600190039650505b600a8302925060308482815181101515612d4757fe5b9060200101517f010000000000000000000000000000000000000000000000000000000000000090047f0100000000000000000000000000000000000000000000000000000000000000027f0100000000000000000000000000000000000000000000000000000000000000900460ff160383019250612e4f565b602e8482815181101515612dd257fe5b9060200101517f010000000000000000000000000000000000000000000000000000000000000090047f0100000000000000000000000000000000000000000000000000000000000000027f0100000000000000000000000000000000000000000000000000000000000000900460ff161415612e4e57600191505b5b8080600101915050612bf7565b506000851115612e6f5784600a0a820291505b81935050505092915050565b6000808284019050838110151515612e8f57fe5b8091505092915050565b600080612eb9731d3b2638a7cc9f2cb3d298a3da7a90b67e5506ed612bc4565b1115612f5b57731d3b2638a7cc9f2cb3d298a3da7a90b67e5506ed600260006101000a81548173ffffffffffffffffffffffffffffffffffffffff021916908373ffffffffffffffffffffffffffffffffffffffff160217905550612f526040805190810160405280600b81526020017f6574685f6d61696e6e65740000000000000000000000000000000000000000008152506133f0565b600190506133ed565b6000612f7a73c03a2615d5efaf5f49f60b7bb6583eaec212fdf1612bc4565b111561301c5773c03a2615d5efaf5f49f60b7bb6583eaec212fdf1600260006101000a81548173ffffffffffffffffffffffffffffffffffffffff021916908373ffffffffffffffffffffffffffffffffffffffff1602179055506130136040805190810160405280600c81526020017f6574685f726f707374656e3300000000000000000000000000000000000000008152506133f0565b600190506133ed565b600061303b73b7a07bcf2ba2f2703b24c0691b5278999c59ac7e612bc4565b11156130dd5773b7a07bcf2ba2f2703b24c0691b5278999c59ac7e600260006101000a81548173ffffffffffffffffffffffffffffffffffffffff021916908373ffffffffffffffffffffffffffffffffffffffff1602179055506130d46040805190810160405280600981526020017f6574685f6b6f76616e00000000000000000000000000000000000000000000008152506133f0565b600190506133ed565b60006130fc73146500cfd35b22e4a392fe0adc06de1a1368ed48612bc4565b111561319e5773146500cfd35b22e4a392fe0adc06de1a1368ed48600260006101000a81548173ffffffffffffffffffffffffffffffffffffffff021916908373ffffffffffffffffffffffffffffffffffffffff1602179055506131956040805190810160405280600b81526020017f6574685f72696e6b6562790000000000000000000000000000000000000000008152506133f0565b600190506133ed565b60006131bd73a2998efd205fb9d4b4963afb70778d6354ad3a41612bc4565b111561325f5773a2998efd205fb9d4b4963afb70778d6354ad3a41600260006101000a81548173ffffffffffffffffffffffffffffffffffffffff021916908373ffffffffffffffffffffffffffffffffffffffff1602179055506132566040805190810160405280600a81526020017f6574685f676f65726c69000000000000000000000000000000000000000000008152506133f0565b600190506133ed565b600061327e736f485c8bf6fc43ea212e93bbf8ce046c7f1cb475612bc4565b11156132e257736f485c8bf6fc43ea212e93bbf8ce046c7f1cb475600260006101000a81548173ffffffffffffffffffffffffffffffffffffffff021916908373ffffffffffffffffffffffffffffffffffffffff160217905550600190506133ed565b60006133017320e12a1f859b3feae5fb2a0a32c18f5a65555bbf612bc4565b1115613365577320e12a1f859b3feae5fb2a0a32c18f5a65555bbf600260006101000a81548173ffffffffffffffffffffffffffffffffffffffff021916908373ffffffffffffffffffffffffffffffffffffffff160217905550600190506133ed565b60006133847351efaf4c8b3c9afbd5ab9f4bbc82784ab6ef8faa612bc4565b11156133e8577351efaf4c8b3c9afbd5ab9f4bbc82784ab6ef8faa600260006101000a81548173ffffffffffffffffffffffffffffffffffffffff021916908373ffffffffffffffffffffffffffffffffffffffff160217905550600190506133ed565b600090505b90565b806003908051906020019061340692919061341a565b5050565b604051610523806134c083390190565b828054600181600116156101000203166002900490600052602060002090601f016020900481019282601f1061345b57805160ff1916838001178555613489565b82800160010185558215613489579182015b8281111561348857825182559160200191906001019061346d565b5b509050613496919061349a565b5090565b6134bc91905b808211156134b85760008160009055506001016134a0565b5090565b9056fe608060405234801561001057600080fd5b506040516020806105238339810180604052602081101561003057600080fd5b8101908080519060200190929190505050806000806101000a81548173ffffffffffffffffffffffffffffffffffffffff021916908373ffffffffffffffffffffffffffffffffffffffff16021790555033600160006101000a81548173ffffffffffffffffffffffffffffffffffffffff021916908373ffffffffffffffffffffffffffffffffffffffff16021790555050610451806100d26000396000f3fe60806040526004361061004c576000357c0100000000000000000000000000000000000000000000000000000000900463ffffffff1680638cd981a814610051578063f9d00206146100a7575b600080fd5b34801561005d57600080fd5b5061008a6004803603602081101561007457600080fd5b81019080803590602001909291905050506100e2565b604051808381526020018281526020019250505060405180910390f35b3480156100b357600080fd5b506100e0600480360360208110156100ca57600080fd5b8101908080359060200190929190505050610261565b005b60008060008311151561015d576040517f08c379a000000000000000000000000000000000000000000000000000000000815260040180806020018281038252601f8152602001807f76616c7565206d7573742062652067726561746572207468616e207a65726f0081525060200191505060405180910390fd5b6001600360009054906101000a900463ffffffff160163ffffffff168311151515610216576040517f08c379a00000000000000000000000000000000000000000000000000000000081526004018080602001828103825260288152602001807f76616c756520697320686967686572207468616e206c617374206d6f76656d6581526020017f6e7420696e64657800000000000000000000000000000000000000000000000081525060400191505060405180910390fd5b60048381548110151561022557fe5b90600052602060002090600202016000015460048481548110151561024657fe5b90600052602060002090600202016001015491509150915091565b806004600360009054906101000a900463ffffffff1663ffffffff1681548110151561028957fe5b906000526020600020906002020160000181905550426004600360009054906101000a900463ffffffff1663ffffffff168154811015156102c657fe5b9060005260206000209060020201600101819055506102f8600360009054906101000a900463ffffffff1660016103dd565b600360006101000a81548163ffffffff021916908363ffffffff16021790555061032460025482610407565b6002819055503073ffffffffffffffffffffffffffffffffffffffff166000809054906101000a900473ffffffffffffffffffffffffffffffffffffffff1673ffffffffffffffffffffffffffffffffffffffff167f634803569c8df39be5458edd5454c5a425666a63cd029c0eef3680f7c23b335483600254600360009054906101000a900463ffffffff16604051808481526020018381526020018263ffffffff168152602001935050505060405180910390a350565b60008082840190508363ffffffff168163ffffffff16101515156103fd57fe5b8091505092915050565b600080828401905083811015151561041b57fe5b809150509291505056fea165627a7a72305820e18b39787b9ed7103183793e009c7df1982091e4be301eb2d2be2aabebc343050029a165627a7a72305820f8a5c80a51f33f249f00be4a642e41d88a87e44d27f376783cea3dabaecefe630029608060405234801561001057600080fd5b506040516020806105238339810180604052602081101561003057600080fd5b8101908080519060200190929190505050806000806101000a81548173ffffffffffffffffffffffffffffffffffffffff021916908373ffffffffffffffffffffffffffffffffffffffff16021790555033600160006101000a81548173ffffffffffffffffffffffffffffffffffffffff021916908373ffffffffffffffffffffffffffffffffffffffff16021790555050610451806100d26000396000f3fe60806040526004361061004c576000357c0100000000000000000000000000000000000000000000000000000000900463ffffffff1680638cd981a814610051578063f9d00206146100a7575b600080fd5b34801561005d57600080fd5b5061008a6004803603602081101561007457600080fd5b81019080803590602001909291905050506100e2565b604051808381526020018281526020019250505060405180910390f35b3480156100b357600080fd5b506100e0600480360360208110156100ca57600080fd5b8101908080359060200190929190505050610261565b005b60008060008311151561015d576040517f08c379a000000000000000000000000000000000000000000000000000000000815260040180806020018281038252601f8152602001807f76616c7565206d7573742062652067726561746572207468616e207a65726f0081525060200191505060405180910390fd5b6001600360009054906101000a900463ffffffff160163ffffffff168311151515610216576040517f08c379a00000000000000000000000000000000000000000000000000000000081526004018080602001828103825260288152602001807f76616c756520697320686967686572207468616e206c617374206d6f76656d6581526020017f6e7420696e64657800000000000000000000000000000000000000000000000081525060400191505060405180910390fd5b60048381548110151561022557fe5b90600052602060002090600202016000015460048481548110151561024657fe5b90600052602060002090600202016001015491509150915091565b806004600360009054906101000a900463ffffffff1663ffffffff1681548110151561028957fe5b906000526020600020906002020160000181905550426004600360009054906101000a900463ffffffff1663ffffffff168154811015156102c657fe5b9060005260206000209060020201600101819055506102f8600360009054906101000a900463ffffffff1660016103dd565b600360006101000a81548163ffffffff021916908363ffffffff16021790555061032460025482610407565b6002819055503073ffffffffffffffffffffffffffffffffffffffff166000809054906101000a900473ffffffffffffffffffffffffffffffffffffffff1673ffffffffffffffffffffffffffffffffffffffff167f634803569c8df39be5458edd5454c5a425666a63cd029c0eef3680f7c23b335483600254600360009054906101000a900463ffffffff16604051808481526020018381526020018263ffffffff168152602001935050505060405180910390a350565b60008082840190508363ffffffff168163ffffffff16101515156103fd57fe5b8091505092915050565b600080828401905083811015151561041b57fe5b809150509291505056fea165627a7a72305820e18b39787b9ed7103183793e009c7df1982091e4be301eb2d2be2aabebc343050029",
  "source": "pragma solidity ^0.5.0;\n\n//import \"github.com/provable-things/ethereum-api/provableAPI_0.5.sol\";\nimport \"./provableAPI_0.5.sol\";\n\nimport \"./SafeMath.sol\";\nimport \"./Pausable.sol\";\n\ncontract UserFactory {\n\n    address owner;\n    address factory;\n    uint    balance;\n    uint32  cont;\n\n    struct Mvt {\n        uint   mvtoAmount;\n        uint   mvtoDate;\n    }\n\n    Mvt[] mvts;\n\n    event newMovement(\n        address indexed _owner, address indexed _contract, uint _amount, uint _balance, uint _cont\n    );\n\n    constructor(address _owner) public {\n        owner = _owner;\n        factory = msg.sender;\n    }\n\n    function addMovement(uint _amount) public {\n        mvts[cont].mvtoAmount = _amount;\n        mvts[cont].mvtoDate = now;\n\n        cont = SafeMath.add32(cont,1);\n        balance = SafeMath.add(balance,_amount);\n\n        emit newMovement(owner, address(this), _amount, balance, cont);\n    }\n\n    function getMovement(uint _ind) external view returns(uint, uint) {\n        require (_ind > 0,\"value must be greater than zero\");\n        require (_ind <= cont+1, \"value is higher than last movement index\");\n\n        return (mvts[_ind].mvtoAmount, mvts[_ind].mvtoDate);\n    }\n\n}\n\ncontract Recycler is Pausable, usingProvable {\n\n    address public owner;\n\n    struct User {\n        uint    balance;\n        uint    dtUltMvt;\n        uint32  contMvts;\n        uint32  seq;\n        UserFactory userContr;\n    }\n\n    uint32 contUsers;\n    uint   globalBalance;\n    uint   price;\n\n    mapping (uint => address) private listaUsers;\n    mapping (address => User) private users;\n\n    event newUser(\n        address indexed _sender, UserFactory indexed _contract, uint32 _seq\n    );\n\n    event newBalance(\n        address indexed _sender, uint _balance\n    );\n\n    //event LogConstructorInitiated(string nextStep);\n    event LogPriceUpdated(string price);\n    event LogNewProvableQuery(string description);\n\n    constructor() public {\n        owner = msg.sender;\n        createUser();\n        addBalance(10000);\n    }\n\n    function sendCoin(uint _amount) public {\n        require(_amount > 0,\"amount is not greater than zero\");\n        require(_amount < 10000,\"amount is too high\");\n\n        createUser();\n        users[msg.sender].dtUltMvt = block.timestamp;\n        users[msg.sender].contMvts = SafeMath.add32(users[msg.sender].contMvts, 1);\n\n        users[msg.sender].userContr.addMovement(_amount);\n        addBalance(_amount);\n    }\n\n    function createUser() public {\n\n        if (users[msg.sender].dtUltMvt == 0 && users[msg.sender].contMvts == 0) {\n\n            users[msg.sender].userContr = new UserFactory(msg.sender);\n            users[msg.sender].dtUltMvt = block.timestamp;\n            users[msg.sender].contMvts = 0;\n            users[msg.sender].balance = 0;\n\n            contUsers = SafeMath.add32(contUsers, 1);\n            users[msg.sender].seq = contUsers;\n            listaUsers[contUsers] = msg.sender;\n\n            emit newUser(msg.sender, users[msg.sender].userContr, users[msg.sender].seq);\n        }\n    }\n\n    function deleteUser() public {\n\n        if (users[msg.sender].dtUltMvt != 0) {\n\n            listaUsers[users[msg.sender].seq] = address(0);\n            globalBalance = SafeMath.sub(globalBalance, users[msg.sender].balance);\n\n            users[msg.sender].balance = 0;\n            users[msg.sender].dtUltMvt = 0;\n            users[msg.sender].contMvts = 0;\n            users[msg.sender].seq = 0;\n        }\n    }\n\n    function addBalance(uint _amount) internal {\n\n        users[msg.sender].balance = SafeMath.add(users[msg.sender].balance,_amount);\n        globalBalance = SafeMath.add(globalBalance, _amount);\n\n        emit newBalance(msg.sender, users[msg.sender].balance);\n    }\n\n    function getBalance(address _addr) public view returns(uint) {\n        return users[_addr].balance;\n    }\n\n    function getGlobalBalance() public view returns(uint) {\n        return globalBalance;\n    }\n\n    function getMovement(uint _ind) external view returns(uint, uint) {\n        users[msg.sender].userContr.getMovement(_ind);\n    }\n\n    function withdrawal(uint _amount) public returns(uint) {\n        require(users[msg.sender].balance >= _amount,\"not enough balance\");\n        require(globalBalance >= _amount,\"not enough global balance\");\n\n        users[msg.sender].balance = SafeMath.sub(users[msg.sender].balance,_amount);\n        globalBalance = SafeMath.sub(globalBalance,_amount);\n\n        return users[msg.sender].balance;\n    }\n\n\n   function __callback(bytes32 myid, string memory _result) public {\n       if (msg.sender != provable_cbAddress()) revert();\n       price = parseInt(_result);\n       emit LogPriceUpdated(_result);\n   }\n\n   function updatePrice(string memory _fee) public payable {\n       require(bytes(_fee).length > 0,\"fee code is empty\");\n\n       if (provable_getPrice(\"URL\") > address(this).balance) {\n           emit LogNewProvableQuery(\"Provable query was NOT sent, please add some ETH to cover for the query fee\");\n       } else {\n           string memory _url = string(abi.encodePacked(\"json(https://api.mlab.com/api/1/databases/productos/collections/fees?apiKey=1KuXCnUSqfOGDAoKSZHENTSFBBlu4d6n).0.result.\", _fee, \".price\"));\n\n           emit LogNewProvableQuery(\"Provable query was sent, standing by for the answer..\");\n           provable_query(\"URL\", _url);\n\n           //provable_query(\"nested\", \"[URL] ['json(json(https://api.mlab.com/api/1/databases/productos/collections/fees?apiKey=${[decrypt]BPssDAFd3BExbW4l0ee1RNV45pvdhOita1bwVtTzVu7aRvHoFZhuNCuuZnC8wzm6GUQ3yTz18+B2vnoADbHHpRc9NcMb/YZOwXo0sJsM5paIGll6oYEqpjWMQQ3eEISzGkE0/JMIHiDyG1SpiYI3bYg=}).0.result.F0101.price\");\n//provable_query(\"nested\", \"[URL] ['json(https://api.mlab.com/api/1/databases/productos/collections/fees?apiKey=${[decrypt] BPssDAFd3BExbW4l0ee1RNV45pvdhOita1bwVtTzVu7aRvHoFZhuNCuuZnC8wzm6GUQ3yTz18+B2vnoADbHHpRc9NcMb/YZOwXo0sJsM5paIGll6oYEqpjWMQQ3eEISzGkE0/JMIHiDyG1SpiYI3bYg=}).0.result.F0101.price']\");\n           //Funciona\n           //[URL] ['json(https://api.mlab.com/api/1/databases/productos/collections/fees?apiKey=1KuXCnUSqfOGDAoKSZHENTSFBBlu4d6n).0.result.F0101.price']\n           //Pendiente de probar - Se queda colgado y no devuelve resultados\n           //[URL] ['json(https://api.mlab.com/api/1/databases/productos/collections/fees?apiKey=${[decrypt] BPssDAFd3BExbW4l0ee1RNV45pvdhOita1bwVtTzVu7aRvHoFZhuNCuuZnC8wzm6GUQ3yTz18+B2vnoADbHHpRc9NcMb/YZOwXo0sJsM5paIGll6oYEqpjWMQQ3eEISzGkE0/JMIHiDyG1SpiYI3bYg=}).0.result.F0101.price']\n       }\n   }\n\n    function kill() public payable onlyOwner {\n        require (globalBalance == 0, \"global balance is not zero\");\n        selfdestruct(msg.sender);\n    }\n\n    // Fallback function - Called if other functions don't match call or\n    // sent ether without data\n    // Typically, called when invalid data is sent\n    // Added so ether sent to this contract is reverted if the contract fails\n    // otherwise, the sender's money is transferred to contract\n    function () external payable {\n        revert();\n    }\n\n}\n",
  "sourcePath": "/home/lealp22/dapp_PEC1/contracts/Recycler.sol",
  "compiler": {
    "name": "solc",
    "version": "0.5.0+commit.1d4f565a.Emscripten.clang"
  },
  "schemaVersion": "3.0.11",
  "updatedAt": "2019-08-19T23:36:06.974Z",
  "devdoc": {
    "methods": {
      "pause()": {
        "details": "called by the owner to pause, triggers stopped state"
      },
      "transferOwnership(address)": {
        "details": "Allows the current owner to transfer control of the contract to a newOwner.",
        "params": {
          "newOwner": "The address to transfer ownership to."
        }
      },
      "unpause()": {
        "details": "called by the owner to unpause, returns to normal state"
      }
    }
  },
  "userdoc": {
    "methods": {}
  }
}