{
  "contractName": "Recycler",
  "abi": [
    {
      "constant": false,
      "inputs": [],
      "name": "unpause",
      "outputs": [],
      "payable": false,
      "stateMutability": "nonpayable",
      "type": "function"
    },
    {
      "constant": true,
      "inputs": [],
      "name": "paused",
      "outputs": [
        {
          "name": "",
          "type": "bool"
        }
      ],
      "payable": false,
      "stateMutability": "view",
      "type": "function"
    },
    {
      "constant": false,
      "inputs": [],
      "name": "pause",
      "outputs": [],
      "payable": false,
      "stateMutability": "nonpayable",
      "type": "function"
    },
    {
      "constant": true,
      "inputs": [],
      "name": "owner",
      "outputs": [
        {
          "name": "",
          "type": "address"
        }
      ],
      "payable": false,
      "stateMutability": "view",
      "type": "function"
    },
    {
      "constant": false,
      "inputs": [
        {
          "name": "newOwner",
          "type": "address"
        }
      ],
      "name": "transferOwnership",
      "outputs": [],
      "payable": false,
      "stateMutability": "nonpayable",
      "type": "function"
    },
    {
      "inputs": [],
      "payable": true,
      "stateMutability": "payable",
      "type": "constructor"
    },
    {
      "payable": true,
      "stateMutability": "payable",
      "type": "fallback"
    },
    {
      "anonymous": false,
      "inputs": [
        {
          "indexed": true,
          "name": "_sender",
          "type": "address"
        },
        {
          "indexed": true,
          "name": "_factory",
          "type": "address"
        },
        {
          "indexed": false,
          "name": "_seq",
          "type": "uint32"
        }
      ],
      "name": "newUser",
      "type": "event"
    },
    {
      "anonymous": false,
      "inputs": [
        {
          "indexed": true,
          "name": "_sender",
          "type": "address"
        },
        {
          "indexed": false,
          "name": "_balance",
          "type": "uint256"
        }
      ],
      "name": "newBalance",
      "type": "event"
    },
    {
      "anonymous": false,
      "inputs": [
        {
          "indexed": true,
          "name": "_sender",
          "type": "address"
        },
        {
          "indexed": false,
          "name": "_code",
          "type": "string"
        },
        {
          "indexed": false,
          "name": "_fee",
          "type": "string"
        },
        {
          "indexed": false,
          "name": "_qty",
          "type": "uint256"
        },
        {
          "indexed": false,
          "name": "_uni",
          "type": "string"
        },
        {
          "indexed": false,
          "name": "_amount",
          "type": "uint256"
        },
        {
          "indexed": false,
          "name": "_price",
          "type": "uint256"
        }
      ],
      "name": "coinSent",
      "type": "event"
    },
    {
      "anonymous": false,
      "inputs": [
        {
          "indexed": false,
          "name": "_result",
          "type": "string"
        }
      ],
      "name": "LogPriceUpdated",
      "type": "event"
    },
    {
      "anonymous": false,
      "inputs": [
        {
          "indexed": false,
          "name": "description",
          "type": "string"
        }
      ],
      "name": "LogNewProvableQuery",
      "type": "event"
    },
    {
      "anonymous": false,
      "inputs": [],
      "name": "Pause",
      "type": "event"
    },
    {
      "anonymous": false,
      "inputs": [],
      "name": "Unpause",
      "type": "event"
    },
    {
      "anonymous": false,
      "inputs": [
        {
          "indexed": true,
          "name": "previousOwner",
          "type": "address"
        },
        {
          "indexed": true,
          "name": "newOwner",
          "type": "address"
        }
      ],
      "name": "OwnershipTransferred",
      "type": "event"
    },
    {
      "constant": false,
      "inputs": [
        {
          "name": "prodCode",
          "type": "string"
        },
        {
          "name": "prodFee",
          "type": "string"
        },
        {
          "name": "prodQty",
          "type": "uint32"
        },
        {
          "name": "prodUni",
          "type": "string"
        }
      ],
      "name": "sendCoin",
      "outputs": [],
      "payable": false,
      "stateMutability": "nonpayable",
      "type": "function"
    },
    {
      "constant": false,
      "inputs": [
        {
          "name": "_fee",
          "type": "string"
        }
      ],
      "name": "fetchPrice",
      "outputs": [],
      "payable": true,
      "stateMutability": "payable",
      "type": "function"
    },
    {
      "constant": false,
      "inputs": [
        {
          "name": "_myid",
          "type": "bytes32"
        },
        {
          "name": "_result",
          "type": "string"
        },
        {
          "name": "_proof",
          "type": "bytes"
        }
      ],
      "name": "__callback",
      "outputs": [],
      "payable": false,
      "stateMutability": "nonpayable",
      "type": "function"
    },
    {
      "constant": false,
      "inputs": [
        {
          "name": "_myid",
          "type": "bytes32"
        },
        {
          "name": "_result",
          "type": "string"
        }
      ],
      "name": "__callback",
      "outputs": [],
      "payable": false,
      "stateMutability": "nonpayable",
      "type": "function"
    },
    {
      "constant": true,
      "inputs": [
        {
          "name": "_ind",
          "type": "uint256"
        }
      ],
      "name": "getPendTx1",
      "outputs": [
        {
          "name": "",
          "type": "bytes32"
        }
      ],
      "payable": false,
      "stateMutability": "view",
      "type": "function"
    },
    {
      "constant": false,
      "inputs": [
        {
          "name": "_addr",
          "type": "address"
        }
      ],
      "name": "deleteUser",
      "outputs": [],
      "payable": false,
      "stateMutability": "nonpayable",
      "type": "function"
    },
    {
      "constant": true,
      "inputs": [
        {
          "name": "_addr",
          "type": "address"
        }
      ],
      "name": "getBalance",
      "outputs": [
        {
          "name": "",
          "type": "uint256"
        }
      ],
      "payable": false,
      "stateMutability": "view",
      "type": "function"
    },
    {
      "constant": true,
      "inputs": [],
      "name": "getGlobalBalance",
      "outputs": [
        {
          "name": "",
          "type": "uint256"
        }
      ],
      "payable": false,
      "stateMutability": "view",
      "type": "function"
    },
    {
      "constant": true,
      "inputs": [],
      "name": "getContractBalance",
      "outputs": [
        {
          "name": "",
          "type": "uint256"
        }
      ],
      "payable": false,
      "stateMutability": "view",
      "type": "function"
    },
    {
      "constant": false,
      "inputs": [
        {
          "name": "_message",
          "type": "string"
        }
      ],
      "name": "setFunds",
      "outputs": [
        {
          "name": "",
          "type": "string"
        }
      ],
      "payable": true,
      "stateMutability": "payable",
      "type": "function"
    },
    {
      "constant": false,
      "inputs": [
        {
          "name": "_amount",
          "type": "uint256"
        }
      ],
      "name": "transfer",
      "outputs": [],
      "payable": false,
      "stateMutability": "nonpayable",
      "type": "function"
    },
    {
      "constant": true,
      "inputs": [
        {
          "name": "_addr",
          "type": "address"
        },
        {
          "name": "_ind",
          "type": "uint256"
        }
      ],
      "name": "getMovement",
      "outputs": [
        {
          "name": "",
          "type": "string"
        },
        {
          "name": "",
          "type": "string"
        },
        {
          "name": "",
          "type": "uint32"
        },
        {
          "name": "",
          "type": "string"
        },
        {
          "name": "",
          "type": "uint256"
        },
        {
          "name": "",
          "type": "uint256"
        }
      ],
      "payable": false,
      "stateMutability": "view",
      "type": "function"
    },
    {
      "constant": true,
      "inputs": [
        {
          "name": "_addr",
          "type": "address"
        }
      ],
      "name": "getMovementCount",
      "outputs": [
        {
          "name": "",
          "type": "uint32"
        }
      ],
      "payable": false,
      "stateMutability": "view",
      "type": "function"
    },
    {
      "constant": true,
      "inputs": [
        {
          "name": "_ind",
          "type": "uint32"
        }
      ],
      "name": "getUser",
      "outputs": [
        {
          "name": "",
          "type": "address"
        }
      ],
      "payable": false,
      "stateMutability": "view",
      "type": "function"
    },
    {
      "constant": true,
      "inputs": [],
      "name": "getUserCount",
      "outputs": [
        {
          "name": "",
          "type": "uint32"
        }
      ],
      "payable": false,
      "stateMutability": "view",
      "type": "function"
    },
    {
      "constant": true,
      "inputs": [],
      "name": "getCountQueries",
      "outputs": [
        {
          "name": "",
          "type": "uint32"
        }
      ],
      "payable": false,
      "stateMutability": "view",
      "type": "function"
    },
    {
      "constant": false,
      "inputs": [
        {
          "name": "_amount",
          "type": "uint256"
        }
      ],
      "name": "withdrawal",
      "outputs": [
        {
          "name": "",
          "type": "uint256"
        }
      ],
      "payable": false,
      "stateMutability": "nonpayable",
      "type": "function"
    },
    {
      "constant": false,
      "inputs": [],
      "name": "kill",
      "outputs": [],
      "payable": true,
      "stateMutability": "payable",
      "type": "function"
    }
  ],
  "bytecode": "0x608060405260058054600160a860020a031916331790556200002964010000000062000046810204565b620000403361271064010000000062000250810204565b62000346565b336000908152600f60205260409020600101541580156200007d5750336000908152600f602052604090206002015463ffffffff16155b156200024e57336200008e62000335565b600160a060020a03909116815260405190819003602001906000f080158015620000bc573d6000803e3d6000fd5b50336000908152600f602052604081206002810180544260018085019190915563ffffffff19600160a060020a039690961668010000000000000000027fffffffff0000000000000000000000000000000000000000ffffffffffffffff90921691909117949094169055556005546200016591750100000000000000000000000000000000000000000090910463ffffffff169064010000000062002d946200030582021704565b6005805463ffffffff928316750100000000000000000000000000000000000000000090810260a860020a63ffffffff021990921691909117808355336000818152600f602081815260408084206002018054640100000000978990048b16880267ffffffff000000001990911617815597549690960488168352600e81528583208054600160a060020a03191685179055918390528152935483519281049095168252915168010000000000000000909404600160a060020a03169391927f2400353ee3cbddbecd51b36528703d6a9a1f15a73ef12fa52c45ebfbf5eb0e1092918290030190a35b565b600160a060020a0382166000908152600f60205260409020546200028390826401000000006200354f6200032582021704565b600160a060020a0383166000908152600f6020526040902055600654620002b990826401000000006200354f6200032582021704565b600655336000818152600f602090815260409182902054825190815291517f4abaca7060438a179d5f20d945b01077a6df8b016150a897abd09d3fdebcf1099281900390910190a25050565b600082820163ffffffff80851690821610156200031e57fe5b9392505050565b6000828201838110156200031e57fe5b604051610d4a80620048db83390190565b61458580620003566000396000f3fe6080604052600436106101195763ffffffff60e060020a60003504166312514bba811461011b57806323d468e21461014557806327dc297e1461016c57806338bbfa50146102265780633f4ba83a1461036757806341b3bdfd1461037c57806341c0e1b5146103a65780635c60f226146103ae5780635c975abb146103e15780636f9fb98a1461040a578063835fc6ca1461041f5780638456cb59146104495780638da5cb5b1461045e57806391178cf51461048f5780639782dd2a146104db578063ab8e3a0e14610581578063b5cb15f714610750578063cf222b5914610765578063db6f1e7414610880578063f2a4f43c146108b0578063f2fde38b14610a4e578063f8b2cb4f14610a81578063f945face14610ab4575b005b34801561012757600080fd5b506101196004803603602081101561013e57600080fd5b5035610ac9565b34801561015157600080fd5b5061015a610b77565b60408051918252519081900360200190f35b34801561017857600080fd5b506101196004803603604081101561018f57600080fd5b813591908101906040810160208201356401000000008111156101b157600080fd5b8201836020820111156101c357600080fd5b803590602001918460018302840111640100000000831117156101e557600080fd5b91908080601f016020809104026020016040519081016040528093929190818152602001838380828437600092019190915250929550610b7e945050505050565b34801561023257600080fd5b506101196004803603606081101561024957600080fd5b8135919081019060408101602082013564010000000081111561026b57600080fd5b82018360208201111561027d57600080fd5b8035906020019184600183028401116401000000008311171561029f57600080fd5b91908080601f01602080910402602001604051908101604052809392919081815260200183838082843760009201919091525092959493602081019350359150506401000000008111156102f257600080fd5b82018360208201111561030457600080fd5b8035906020019184600183028401116401000000008311171561032657600080fd5b91908080601f016020809104026020016040519081016040528093929190818152602001838380828437600092019190915250929550610fa7945050505050565b34801561037357600080fd5b50610119610fd8565b34801561038857600080fd5b5061015a6004803603602081101561039f57600080fd5b5035611050565b610119611073565b3480156103ba57600080fd5b50610119600480360360208110156103d157600080fd5b5035600160a060020a03166110e5565b3480156103ed57600080fd5b506103f661120d565b604080519115158252519081900360200190f35b34801561041657600080fd5b5061015a61121d565b34801561042b57600080fd5b5061015a6004803603602081101561044257600080fd5b5035611222565b34801561045557600080fd5b5061011961134c565b34801561046a57600080fd5b506104736113c9565b60408051600160a060020a039092168252519081900360200190f35b34801561049b57600080fd5b506104c2600480360360208110156104b257600080fd5b5035600160a060020a03166113d8565b6040805163ffffffff9092168252519081900360200190f35b610119600480360360208110156104f157600080fd5b81019060208101813564010000000081111561050c57600080fd5b82018360208201111561051e57600080fd5b8035906020019184600183028401116401000000008311171561054057600080fd5b91908080601f01602080910402602001604051908101604052809392919081815260200183838082843760009201919091525092955061145f945050505050565b34801561058d57600080fd5b50610119600480360360808110156105a457600080fd5b8101906020810181356401000000008111156105bf57600080fd5b8201836020820111156105d157600080fd5b803590602001918460018302840111640100000000831117156105f357600080fd5b91908080601f016020809104026020016040519081016040528093929190818152602001838380828437600092019190915250929594936020810193503591505064010000000081111561064657600080fd5b82018360208201111561065857600080fd5b8035906020019184600183028401116401000000008311171561067a57600080fd5b91908080601f016020809104026020016040519081016040528093929190818152602001838380828437600092019190915250929563ffffffff8535169590949093506040810192506020013590506401000000008111156106db57600080fd5b8201836020820111156106ed57600080fd5b8035906020019184600183028401116401000000008311171561070f57600080fd5b91908080601f016020809104026020016040519081016040528093929190818152602001838380828437600092019190915250929550611890945050505050565b34801561075c57600080fd5b506104c2611b24565b61080b6004803603602081101561077b57600080fd5b81019060208101813564010000000081111561079657600080fd5b8201836020820111156107a857600080fd5b803590602001918460018302840111640100000000831117156107ca57600080fd5b91908080601f016020809104026020016040519081016040528093929190818152602001838380828437600092019190915250929550611b49945050505050565b6040805160208082528351818301528351919283929083019185019080838360005b8381101561084557818101518382015260200161082d565b50505050905090810190601f1680156108725780820380516001836020036101000a031916815260200191505b509250505060405180910390f35b34801561088c57600080fd5b50610473600480360360208110156108a357600080fd5b503563ffffffff16611ba7565b3480156108bc57600080fd5b506108e9600480360360408110156108d357600080fd5b50600160a060020a038135169060200135611ccb565b6040518080602001806020018763ffffffff1663ffffffff1681526020018060200186815260200185815260200184810384528a818151815260200191508051906020019080838360005b8381101561094c578181015183820152602001610934565b50505050905090810190601f1680156109795780820380516001836020036101000a031916815260200191505b5084810383528951815289516020918201918b019080838360005b838110156109ac578181015183820152602001610994565b50505050905090810190601f1680156109d95780820380516001836020036101000a031916815260200191505b50848103825287518152875160209182019189019080838360005b83811015610a0c5781810151838201526020016109f4565b50505050905090810190601f168015610a395780820380516001836020036101000a031916815260200191505b50995050505050505050505060405180910390f35b348015610a5a57600080fd5b5061011960048036036020811015610a7157600080fd5b5035600160a060020a0316612022565b348015610a8d57600080fd5b5061015a60048036036020811015610aa457600080fd5b5035600160a060020a03166120aa565b348015610ac057600080fd5b506104c26120c5565b600554600160a060020a03163314610ae057600080fd5b3031811115610b39576040805160e560020a62461bcd02815260206004820152601260248201527f6e6f7420656e6f7567682062616c616e63650000000000000000000000000000604482015290519081900360640190fd5b600554604051600160a060020a039091169082156108fc029083906000818181858888f19350505050158015610b73573d6000803e3d6000fd5b5050565b6006545b90565b60008281526010602052604090205460ff161515610c0c576040805160e560020a62461bcd02815260206004820152602b60248201527f7468657265206973206e6f7420616e792071756572792070656e64696e67207760448201527f6974682074686174204944000000000000000000000000000000000000000000606482015290519081900360840190fd5b610c146120d8565b600160a060020a03163314610c2857600080fd5b6000610c33826122ca565b90507f71f1a5645e51a2da828ffcf79cc17da88eb25e1bca8b9dced23210847a4769c1826040518080602001828103825283818151815260200191508051906020019080838360005b83811015610c94578181015183820152602001610c7c565b50505050905090810190601f168015610cc15780820380516001836020036101000a031916815260200191505b509250505060405180910390a1600083815260106020908152604091829020600781015483516001928301805460026101009582161595909502600019011693909304601f8101859004909402810160e090810190955260c08101848152610ef3958795600160a060020a03909416949293849291849190840182828015610d8a5780601f10610d5f57610100808354040283529160200191610d8a565b820191906000526020600020905b815481529060010190602001808311610d6d57829003601f168201915b50505050508152602001600182018054600181600116156101000203166002900480601f016020809104026020016040519081016040528092919081815260200182805460018160011615610100020316600290048015610e2c5780601f10610e0157610100808354040283529160200191610e2c565b820191906000526020600020905b815481529060010190602001808311610e0f57829003601f168201915b505050918352505060028281015463ffffffff1660208084019190915260038401805460408051601f60001960018516156101000201909316959095049182018490048402850184018152818552909401939091830182828015610ed15780601f10610ea657610100808354040283529160200191610ed1565b820191906000526020600020905b815481529060010190602001808311610eb457829003601f168201915b50505050508152602001600482015481526020016005820154815250506122dd565b6000838152601060205260408120805460ff19168155906001820181610f198282613571565b610f27600183016000613571565b60028201805463ffffffff19169055610f44600383016000613571565b506000600482018190556005918201556007929092018054600160a060020a03191690555054610f829060c860020a900463ffffffff166001612700565b600560196101000a81548163ffffffff021916908363ffffffff160217905550505050565b5050600080805260036020527f3617319a054d772f909f7c479a2cebe5066e836a939412e32403c99029b92eff5550565b600554600160a060020a03163314610fef57600080fd5b60055460a060020a900460ff16151561100757600080fd5b6005805474ff0000000000000000000000000000000000000000191690556040517f7805862f689e2f13df9f062ff482ad3ad112aca9e0847911ed832e158c525b3390600090a1565b6000600d8281548110151561106157fe5b90600052602060002001549050919050565b600554600160a060020a0316331461108a57600080fd5b600654156110e2576040805160e560020a62461bcd02815260206004820152601a60248201527f676c6f62616c2062616c616e6365206973206e6f74207a65726f000000000000604482015290519081900360640190fd5b33ff5b600554600160a060020a031633146110fc57600080fd5b600160a060020a038116151561115c576040805160e560020a62461bcd02815260206004820152601b60248201527f612076616c696420616464726573732069732072657175697265640000000000604482015290519081900360640190fd5b336000908152600f60205260409020600101541561120a57336000818152600f602081815260408084206002810154640100000000900463ffffffff168552600e83529084208054600160a060020a03191690556006549490935252546111c3919061271b565b600655336000908152600f60205260408120818155600181019190915560020180547fffffffff000000000000000000000000000000000000000000000000000000001690555b50565b60055460a060020a900460ff1681565b303190565b60055460009060a060020a900460ff161561123c57600080fd5b336000908152600f60205260409020548211156112a3576040805160e560020a62461bcd02815260206004820152601260248201527f6e6f7420656e6f7567682062616c616e63650000000000000000000000000000604482015290519081900360640190fd5b6006548211156112fd576040805160e560020a62461bcd02815260206004820152601960248201527f6e6f7420656e6f75676820676c6f62616c2062616c616e636500000000000000604482015290519081900360640190fd5b336000908152600f6020526040902054611317908361271b565b336000908152600f6020526040902055600654611334908361271b565b6006555050336000908152600f602052604090205490565b600554600160a060020a0316331461136357600080fd5b60055460a060020a900460ff161561137a57600080fd5b6005805474ff0000000000000000000000000000000000000000191660a060020a1790556040517f6985a02210a168e66602d3235cb6db0e70f92b3ba4d376a33c0f3d9434bff62590600090a1565b600554600160a060020a031681565b6000600160a060020a038216151561143a576040805160e560020a62461bcd02815260206004820152601b60248201527f612076616c696420616464726573732069732072657175697265640000000000604482015290519081900360640190fd5b50600160a060020a03166000908152600f602052604090206002015463ffffffff1690565b80516000106114b8576040805160e560020a62461bcd02815260206004820152601160248201527f66656520636f646520697320656d707479000000000000000000000000000000604482015290519081900360640190fd5b60408051808201909152600381527f55524c000000000000000000000000000000000000000000000000000000000060208201523031906114f890612727565b11156115af57604080516020808252604e908201527f50726f7661626c65206c6574717565727920776173204e4f542073656e742c20818301527f706c656173652061646420736f6d652045544820746f20636f76657220666f7260608201527f2074686520717565727920666565000000000000000000000000000000000000608082015290517fc4dc360d0a9c0677a3379ae0a3d81e887f761e65fdf3d7e00859d1bcd3c473899181900360a00190a161120a565b606081604051602001808061445661010491396101040182805190602001908083835b602083106115f15780518252601f1990920191602091820191016115d2565b51815160209384036101000a60001901801990921691161790527f2e7072696365275d00000000000000000000000000000000000000000000000091909301908152604080518083036017190181526008830180835294909452603560288301527f50726f7661626c65207175657279207761732073656e742c207374616e64696e60488301527f6720627920666f722074686520616e737765722e2e00000000000000000000006068830152519295507fc4dc360d0a9c0677a3379ae0a3d81e887f761e65fdf3d7e00859d1bcd3c47389945060889083900301925050a160006117156040805190810160405280600681526020017f6e657374656400000000000000000000000000000000000000000000000000008152508362055730612992565b6000818152601060205260409020805460ff19166001908117825560078054939450929181019161175e91839185916002600019918316156101000291909101909116046135b5565b50600182018160010190805460018160011615610100020316600290046117869291906135b5565b50600282810154828201805463ffffffff191663ffffffff909216919091179055600380840180546117cc939285019260001960018316156101000201909116046135b5565b50600482810154908201556005918201549082015560008281526010602052604090206007018054600160a060020a031916331790555461181c9063ffffffff60c860020a909104166001612d94565b6005805463ffffffff9290921660c860020a027fffffff00000000ffffffffffffffffffffffffffffffffffffffffffffffffff909216919091179055600d80546001810182556000919091527fd7b6990105719101dabeb77144f2a3385c8033acd3af97e9423a695e81ad1eb501555050565b60055460a060020a900460ff16156118a757600080fd5b600063ffffffff83161161192b576040805160e560020a62461bcd02815260206004820152602160248201527f7175616e74697479206973206e6f742067726561746572207468616e207a657260448201527f6f00000000000000000000000000000000000000000000000000000000000000606482015290519081900360840190fd5b6103e863ffffffff83161061198a576040805160e560020a62461bcd02815260206004820152601460248201527f7175616e7469747920697320746f6f2068696768000000000000000000000000604482015290519081900360640190fd5b83516000106119e3576040805160e560020a62461bcd02815260206004820152601560248201527f7061636b61676520636f646520697320656d7074790000000000000000000000604482015290519081900360640190fd5b8051600010611a3c576040805160e560020a62461bcd02815260206004820152601260248201527f756e697420636f646520697320656d7074790000000000000000000000000000604482015290519081900360640190fd5b611a44612dac565b8351611a57906007906020870190613636565b508251611a6b906008906020860190613636565b506009805463ffffffff191663ffffffff84161790558051611a9490600a906020840190613636565b50600083511115611aad57611aa88361145f565b611b1e565b604080516007805460206002600180841615610100026000190190931604601f8101829004909102840160e090810190955260c08401818152611b1e959294339490939092849291849190840182828015610d8a5780601f10610d5f57610100808354040283529160200191610d8a565b50505050565b6005547501000000000000000000000000000000000000000000900463ffffffff1690565b606060003411611ba3576040805160e560020a62461bcd02815260206004820152601e60248201527f76616c7565206973206e6f742067726561746572207468616e207a65726f0000604482015290519081900360640190fd5b5090565b600063ffffffff82168110611c06576040805160e560020a62461bcd02815260206004820152601f60248201527f76616c7565206d7573742062652067726561746572207468616e207a65726f00604482015290519081900360640190fd5b60055463ffffffff750100000000000000000000000000000000000000000090910481169083161115611ca9576040805160e560020a62461bcd02815260206004820152602860248201527f76616c756520697320686967686572207468616e20746865206e756d6265722060448201527f6f66207573657273000000000000000000000000000000000000000000000000606482015290519081900360840190fd5b5063ffffffff166000908152600e6020526040902054600160a060020a031690565b6060806000818180600160a060020a0388161515611d33576040805160e560020a62461bcd02815260206004820152601660248201527f616e206164647265737320697320726571756972656400000000000000000000604482015290519081900360640190fd5b60008711611d8b576040805160e560020a62461bcd02815260206004820152601f60248201527f76616c7565206d7573742062652067726561746572207468616e207a65726f00604482015290519081900360640190fd5b600160a060020a0388166000908152600f602052604090206002015463ffffffff16871115611e2a576040805160e560020a62461bcd02815260206004820152602860248201527f76616c756520697320686967686572207468616e206c617374206d6f76656d6560448201527f6e7420696e646578000000000000000000000000000000000000000000000000606482015290519081900360840190fd5b611e326136a4565b600160a060020a03808a166000908152600f60205260408082206002015481517f8cd981a8000000000000000000000000000000000000000000000000000000008152600481018d905291516801000000000000000090910490931692638cd981a892602480840193919291829003018186803b158015611eb257600080fd5b505afa158015611ec6573d6000803e3d6000fd5b505050506040513d6000823e601f3d908101601f1916820160405260c0811015611eef57600080fd5b810190808051640100000000811115611f0757600080fd5b82016020810184811115611f1a57600080fd5b8151640100000000811182820187101715611f3457600080fd5b50509291906020018051640100000000811115611f5057600080fd5b82016020810184811115611f6357600080fd5b8151640100000000811182820187101715611f7d57600080fd5b50506020820151604090920180519194929391640100000000811115611fa257600080fd5b82016020810184811115611fb557600080fd5b8151640100000000811182820187101715611fcf57600080fd5b505060208281015160409384015160a08b0181905260808b0182905260608b0184905263ffffffff97909716938a0184905290890187905297879052959f949e509c50939a509398509650945050505050565b600554600160a060020a0316331461203957600080fd5b600160a060020a038116151561204e57600080fd5b600554604051600160a060020a038084169216907f8be0079c531659141344cd1fd0a4f28419497f9722a3daafe3b4186f6b6457e090600090a360058054600160a060020a031916600160a060020a0392909216919091179055565b600160a060020a03166000908152600f602052604090205490565b60055460c860020a900463ffffffff1690565b600154600090600160a060020a03161580612105575060015461210390600160a060020a0316612fb0565b155b15612116576121146000612fb4565b505b600160009054906101000a9004600160a060020a0316600160a060020a03166338cc48316040518163ffffffff1660e060020a028152600401602060405180830381600087803b15801561216957600080fd5b505af115801561217d573d6000803e3d6000fd5b505050506040513d602081101561219357600080fd5b5051600054600160a060020a0390811691161461224957600160009054906101000a9004600160a060020a0316600160a060020a03166338cc48316040518163ffffffff1660e060020a028152600401602060405180830381600087803b1580156121fd57600080fd5b505af1158015612211573d6000803e3d6000fd5b505050506040513d602081101561222757600080fd5b505160008054600160a060020a031916600160a060020a039092169190911790555b6000809054906101000a9004600160a060020a0316600160a060020a031663c281d19e6040518163ffffffff1660e060020a02815260040160206040518083038186803b15801561229957600080fd5b505afa1580156122ad573d6000803e3d6000fd5b505050506040513d60208110156122c357600080fd5b5051905090565b60006122d7826000612fbe565b92915050565b60008315612300576122f9826040015163ffffffff16856130ec565b905061230d565b50604081015163ffffffff165b600160a060020a0383166000908152600f60205260409020426001808301919091556002909101546123479163ffffffff90911690612d94565b600160a060020a038481166000908152600f60209081526040808320600201805463ffffffff191663ffffffff96871617908190558751888401518984015160608b015194517f928b5d9500000000000000000000000000000000000000000000000000000000815298811660448a0152608489018a905260a060048a01908152835160a48b01528351680100000000000000009095049098169863928b5d9598939792969195948b949384936024840193606481019360c490910192918c01918190849084905b8381101561242757818101518382015260200161240f565b50505050905090810190601f1680156124545780820380516001836020036101000a031916815260200191505b5084810383528851815288516020918201918a019080838360005b8381101561248757818101518382015260200161246f565b50505050905090810190601f1680156124b45780820380516001836020036101000a031916815260200191505b50848103825286518152865160209182019188019080838360005b838110156124e75781810151838201526020016124cf565b50505050905090810190601f1680156125145780820380516001836020036101000a031916815260200191505b5098505050505050505050600060405180830381600087803b15801561253957600080fd5b505af115801561254d573d6000803e3d6000fd5b5050505061255b8382613110565b82600160a060020a03167f031d2bda13e0d20dac6c1b41b06bd71bdb137d3171c2f2854f2c5256e281aae78360000151846020015185604001518660600151868a6040518080602001806020018763ffffffff1681526020018060200186815260200185815260200184810384528a818151815260200191508051906020019080838360005b838110156125f95781810151838201526020016125e1565b50505050905090810190601f1680156126265780820380516001836020036101000a031916815260200191505b5084810383528951815289516020918201918b019080838360005b83811015612659578181015183820152602001612641565b50505050905090810190601f1680156126865780820380516001836020036101000a031916815260200191505b50848103825287518152875160209182019189019080838360005b838110156126b95781810151838201526020016126a1565b50505050905090810190601f1680156126e65780820380516001836020036101000a031916815260200191505b50995050505050505050505060405180910390a250505050565b600063ffffffff808416908316111561271557fe5b50900390565b60008282111561271557fe5b600154600090600160a060020a03161580612754575060015461275290600160a060020a0316612fb0565b155b15612765576127636000612fb4565b505b600160009054906101000a9004600160a060020a0316600160a060020a03166338cc48316040518163ffffffff1660e060020a028152600401602060405180830381600087803b1580156127b857600080fd5b505af11580156127cc573d6000803e3d6000fd5b505050506040513d60208110156127e257600080fd5b5051600054600160a060020a0390811691161461289857600160009054906101000a9004600160a060020a0316600160a060020a03166338cc48316040518163ffffffff1660e060020a028152600401602060405180830381600087803b15801561284c57600080fd5b505af1158015612860573d6000803e3d6000fd5b505050506040513d602081101561287657600080fd5b505160008054600160a060020a031916600160a060020a039092169190911790555b600080546040517f524f3889000000000000000000000000000000000000000000000000000000008152602060048201818152865160248401528651600160a060020a039094169463524f3889948894929384936044019290860191908190849084905b838110156129145781810151838201526020016128fc565b50505050905090810190601f1680156129415780820380516001836020036101000a031916815260200191505b5092505050602060405180830381600087803b15801561296057600080fd5b505af1158015612974573d6000803e3d6000fd5b505050506040513d602081101561298a57600080fd5b505192915050565b600154600090600160a060020a031615806129bf57506001546129bd90600160a060020a0316612fb0565b155b156129d0576129ce6000612fb4565b505b600160009054906101000a9004600160a060020a0316600160a060020a03166338cc48316040518163ffffffff1660e060020a028152600401602060405180830381600087803b158015612a2357600080fd5b505af1158015612a37573d6000803e3d6000fd5b505050506040513d6020811015612a4d57600080fd5b5051600054600160a060020a03908116911614612b0357600160009054906101000a9004600160a060020a0316600160a060020a03166338cc48316040518163ffffffff1660e060020a028152600401602060405180830381600087803b158015612ab757600080fd5b505af1158015612acb573d6000803e3d6000fd5b505050506040513d6020811015612ae157600080fd5b505160008054600160a060020a031916600160a060020a039092169190911790555b60008054604080517f2ef3accc0000000000000000000000000000000000000000000000000000000081526024810186905260048101918252875160448201528751600160a060020a0390931692632ef3accc928992889282916064019060208601908083838c5b83811015612b83578181015183820152602001612b6b565b50505050905090810190601f168015612bb05780820380516001836020036101000a031916815260200191505b509350505050602060405180830381600087803b158015612bd057600080fd5b505af1158015612be4573d6000803e3d6000fd5b505050506040513d6020811015612bfa57600080fd5b50519050670de0b6b3a76400003a840201811115612c1c575060009050612d8d565b600080546040517fc51be90f0000000000000000000000000000000000000000000000000000000081526004810183815260648201879052608060248301908152895160848401528951600160a060020a039094169463c51be90f94879491938c938c938c93604482019160a4019060208801908083838c5b83811015612cad578181015183820152602001612c95565b50505050905090810190601f168015612cda5780820380516001836020036101000a031916815260200191505b50838103825285518152855160209182019187019080838360005b83811015612d0d578181015183820152602001612cf5565b50505050905090810190601f168015612d3a5780820380516001836020036101000a031916815260200191505b5096505050505050506020604051808303818588803b158015612d5c57600080fd5b505af1158015612d70573d6000803e3d6000fd5b50505050506040513d6020811015612d8757600080fd5b50519150505b9392505050565b600082820163ffffffff8085169082161015612d8d57fe5b336000908152600f6020526040902060010154158015612de25750336000908152600f602052604090206002015463ffffffff16155b15612fae5733612df06136e1565b600160a060020a03909116815260405190819003602001906000f080158015612e1d573d6000803e3d6000fd5b50336000908152600f602052604081206002810180544260018085019190915563ffffffff19600160a060020a039690961668010000000000000000027fffffffff0000000000000000000000000000000000000000ffffffffffffffff9092169190911794909416905555600554612eb691750100000000000000000000000000000000000000000090910463ffffffff1690612d94565b6005805463ffffffff928316750100000000000000000000000000000000000000000090810278ffffffff0000000000000000000000000000000000000000001990921691909117808355336000818152600f602081815260408084206002018054640100000000978990048b16880267ffffffff000000001990911617815597549690960488168352600e81528583208054600160a060020a03191685179055918390528152935483519281049095168252915168010000000000000000909404600160a060020a03169391927f2400353ee3cbddbecd51b36528703d6a9a1f15a73ef12fa52c45ebfbf5eb0e1092918290030190a35b565b3b90565b60006122d76131a5565b6000828180805b83518110156130d05760308482815181101515612fde57fe5b90602001015160f860020a900460f860020a0260f860020a900460ff161015801561303457506039848281518110151561301457fe5b90602001015160f860020a900460f860020a0260f860020a900460ff1611155b156130905781156130535785151561304b576130d0565b600019909501945b600a830292506030848281518110151561306957fe5b90602001015160f860020a900460f860020a0260f860020a900460ff1603830192506130c8565b838181518110151561309e57fe5b90602001015160f860020a900460f860020a0260f860020a900460ff16602e14156130c857600191505b600101612fc5565b5060008511156130e35784600a0a820291505b50949350505050565b6000828202831580613108575082848281151561310557fe5b04145b1515612d8d57fe5b600160a060020a0382166000908152600f6020526040902054613133908261354f565b600160a060020a0383166000908152600f6020526040902055600654613159908261354f565b600655336000818152600f602090815260409182902054825190815291517f4abaca7060438a179d5f20d945b01077a6df8b016150a897abd09d3fdebcf1099281900390910190a25050565b6000806131c5731d3b2638a7cc9f2cb3d298a3da7a90b67e5506ed612fb0565b11156132365760018054600160a060020a031916731d3b2638a7cc9f2cb3d298a3da7a90b67e5506ed17905560408051808201909152600b81527f6574685f6d61696e6e6574000000000000000000000000000000000000000000602082015261322e9061355e565b506001610b7b565b600061325573c03a2615d5efaf5f49f60b7bb6583eaec212fdf1612fb0565b11156132be5760018054600160a060020a03191673c03a2615d5efaf5f49f60b7bb6583eaec212fdf117905560408051808201909152600c81527f6574685f726f707374656e330000000000000000000000000000000000000000602082015261322e9061355e565b60006132dd73b7a07bcf2ba2f2703b24c0691b5278999c59ac7e612fb0565b11156133465760018054600160a060020a03191673b7a07bcf2ba2f2703b24c0691b5278999c59ac7e17905560408051808201909152600981527f6574685f6b6f76616e0000000000000000000000000000000000000000000000602082015261322e9061355e565b600061336573146500cfd35b22e4a392fe0adc06de1a1368ed48612fb0565b11156133ce5760018054600160a060020a03191673146500cfd35b22e4a392fe0adc06de1a1368ed4817905560408051808201909152600b81527f6574685f72696e6b656279000000000000000000000000000000000000000000602082015261322e9061355e565b60006133ed73a2998efd205fb9d4b4963afb70778d6354ad3a41612fb0565b11156134565760018054600160a060020a03191673a2998efd205fb9d4b4963afb70778d6354ad3a4117905560408051808201909152600a81527f6574685f676f65726c6900000000000000000000000000000000000000000000602082015261322e9061355e565b6000613475736f485c8bf6fc43ea212e93bbf8ce046c7f1cb475612fb0565b11156134a7575060018054600160a060020a031916736f485c8bf6fc43ea212e93bbf8ce046c7f1cb475178155610b7b565b60006134c67320e12a1f859b3feae5fb2a0a32c18f5a65555bbf612fb0565b11156134f8575060018054600160a060020a0319167320e12a1f859b3feae5fb2a0a32c18f5a65555bbf178155610b7b565b60006135177351efaf4c8b3c9afbd5ab9f4bbc82784ab6ef8faa612fb0565b1115613549575060018054600160a060020a0319167351efaf4c8b3c9afbd5ab9f4bbc82784ab6ef8faa178155610b7b565b50600090565b600082820183811015612d8d57fe5b8051610b73906002906020840190613636565b50805460018160011615610100020316600290046000825580601f10613597575061120a565b601f01602090049060005260206000209081019061120a91906136f1565b828054600181600116156101000203166002900490600052602060002090601f016020900481019282601f106135ee578054855561362a565b8280016001018555821561362a57600052602060002091601f016020900482015b8281111561362a57825482559160010191906001019061360f565b50611ba39291506136f1565b828054600181600116156101000203166002900490600052602060002090601f016020900481019282601f1061367757805160ff191683800117855561362a565b8280016001018555821561362a579182015b8281111561362a578251825591602001919060010190613689565b60c0604051908101604052806060815260200160608152602001600063ffffffff1681526020016060815260200160008152602001600081525090565b604051610d4a8061370c83390190565b610b7b91905b80821115611ba357600081556001016136f756fe608060405234801561001057600080fd5b50604051602080610d4a8339810180604052602081101561003057600080fd5b505160008054600160a060020a03909216600160a060020a03199283161790556001805490911633179055610ce08061006a6000396000f3fe60806040526004361061004b5763ffffffff7c01000000000000000000000000000000000000000000000000000000006000350416638cd981a88114610050578063928b5d95146101df575b600080fd5b34801561005c57600080fd5b5061007a6004803603602081101561007357600080fd5b50356103b2565b6040518080602001806020018763ffffffff1663ffffffff1681526020018060200186815260200185815260200184810384528a818151815260200191508051906020019080838360005b838110156100dd5781810151838201526020016100c5565b50505050905090810190601f16801561010a5780820380516001836020036101000a031916815260200191505b5084810383528951815289516020918201918b019080838360005b8381101561013d578181015183820152602001610125565b50505050905090810190601f16801561016a5780820380516001836020036101000a031916815260200191505b50848103825287518152875160209182019189019080838360005b8381101561019d578181015183820152602001610185565b50505050905090810190601f1680156101ca5780820380516001836020036101000a031916815260200191505b50995050505050505050505060405180910390f35b3480156101eb57600080fd5b506103b0600480360360a081101561020257600080fd5b81019060208101813564010000000081111561021d57600080fd5b82018360208201111561022f57600080fd5b8035906020019184600183028401116401000000008311171561025157600080fd5b91908080601f01602080910402602001604051908101604052809392919081815260200183838082843760009201919091525092959493602081019350359150506401000000008111156102a457600080fd5b8201836020820111156102b657600080fd5b803590602001918460018302840111640100000000831117156102d857600080fd5b91908080601f016020809104026020016040519081016040528093929190818152602001838380828437600092019190915250929563ffffffff85351695909490935060408101925060200135905064010000000081111561033957600080fd5b82018360208201111561034b57600080fd5b8035906020019184600183028401116401000000008311171561036d57600080fd5b91908080601f0160208091040260200160405190810160405280939291908181526020018383808284376000920191909152509295505091359250610735915050565b005b6060806000818180808711610411576040805160e560020a62461bcd02815260206004820152601f60248201527f76616c7565206d7573742062652067726561746572207468616e207a65726f00604482015290519081900360640190fd5b60035463ffffffff16871115610497576040805160e560020a62461bcd02815260206004820152602860248201527f76616c756520697320686967686572207468616e206c617374206d6f76656d6560448201527f6e7420696e646578000000000000000000000000000000000000000000000000606482015290519081900360840190fd5b60006104a4886001610b9c565b90506004818154811015156104b557fe5b90600052602060002090600602016000016004828154811015156104d557fe5b90600052602060002090600602016001016004838154811015156104f557fe5b60009182526020909120600260069092020101546004805463ffffffff909216918590811061052057fe5b906000526020600020906006020160030160048581548110151561054057fe5b90600052602060002090600602016004015460048681548110151561056157fe5b600091825260209182902060056006909202010154865460408051601f6002600019610100600187161502019094169390930492830185900485028101850190915281815291928891908301828280156105fc5780601f106105d1576101008083540402835291602001916105fc565b820191906000526020600020905b8154815290600101906020018083116105df57829003601f168201915b5050885460408051602060026001851615610100026000190190941693909304601f8101849004840282018401909252818152959b508a94509250840190508282801561068a5780601f1061065f5761010080835404028352916020019161068a565b820191906000526020600020905b81548152906001019060200180831161066d57829003601f168201915b5050865460408051602060026001851615610100026000190190941693909304601f8101849004840282018401909252818152959a50889450925084019050828280156107185780601f106106ed57610100808354040283529160200191610718565b820191906000526020600020905b8154815290600101906020018083116106fb57829003601f168201915b505050505092509650965096509650965096505091939550919395565b60015473ffffffffffffffffffffffffffffffffffffffff1633146107ca576040805160e560020a62461bcd02815260206004820152602260248201527f73656e646572206973206e6f742074686520666163746f727920636f6e74726160448201527f6374000000000000000000000000000000000000000000000000000000000000606482015290519081900360840190fd5b600063ffffffff84161161084e576040805160e560020a62461bcd02815260206004820152602160248201527f7175616e74697479206973206e6f742067726561746572207468616e207a657260448201527f6f00000000000000000000000000000000000000000000000000000000000000606482015290519081900360840190fd5b6103e863ffffffff841611156108ae576040805160e560020a62461bcd02815260206004820152601460248201527f7175616e7469747920697320746f6f2068696768000000000000000000000000604482015290519081900360640190fd5b8451600010610907576040805160e560020a62461bcd02815260206004820152601560248201527f7061636b61676520636f646520697320656d7074790000000000000000000000604482015290519081900360640190fd5b8151600010610960576040805160e560020a62461bcd02815260206004820152601260248201527f756e697420636f646520697320656d7074790000000000000000000000000000604482015290519081900360640190fd5b610968610bdc565b845115801561097d57508363ffffffff168214155b156109f8576040805160e560020a62461bcd02815260206004820152602a60248201527f507269636520646f6573206e6f7420636f72726573706f6e642077697468206160448201527f20656d7074792066656500000000000000000000000000000000000000000000606482015290519081900360840190fd5b858152602080820186905263ffffffff8516604083015260608201849052608082018390524260a08301526004805460018101808355600092909252835180519293859360069093027f8a35acfbc15ff81a39ae7d344fd709f28e8600b4aa8c65c6b64bfe7fe36bd19b0192610a719284920190610c19565b506020828101518051610a8a9260018501920190610c19565b50604082015160028201805463ffffffff191663ffffffff90921691909117905560608201518051610ac6916003840191602090910190610c19565b506080820151600482015560a09091015160059091015550600354610af29063ffffffff166001610bae565b600360006101000a81548163ffffffff021916908363ffffffff160217905550610b226002548260800151610bcd565b6002819055600054608083015160035460408051928352602083019490945263ffffffff16818401529151309273ffffffffffffffffffffffffffffffffffffffff92909216917f634803569c8df39be5458edd5454c5a425666a63cd029c0eef3680f7c23b3354919081900360600190a3505050505050565b600082821115610ba857fe5b50900390565b600082820163ffffffff8085169082161015610bc657fe5b9392505050565b600082820183811015610bc657fe5b60c0604051908101604052806060815260200160608152602001600063ffffffff1681526020016060815260200160008152602001600081525090565b828054600181600116156101000203166002900490600052602060002090601f016020900481019282601f10610c5a57805160ff1916838001178555610c87565b82800160010185558215610c87579182015b82811115610c87578251825591602001919060010190610c6c565b50610c93929150610c97565b5090565b610cb191905b80821115610c935760008155600101610c9d565b9056fea165627a7a723058205ef0dc33e783ecd21dd7252600256d964f78da03006397911a03598e1bd21ef700295b55524c5d205b276a736f6e2868747470733a2f2f6170692e6d6c61622e636f6d2f6170692f312f6461746162617365732f70726f647563746f732f636f6c6c656374696f6e732f666565733f6170694b65793d247b5b646563727970745d204250737344414664334245786257346c30656531524e563435707664684f6974613162775674547a567537615276486f465a68754e4375755a6e4338777a6d364755513379547a31382b4232766e6f4144624848705263394e634d622f595a4f77586f30734a734d35706149476c6c366f594571706a574d515133654549537a476b45302f4a4d494869447947315370695949336259673d7d292e302e726573756c742ea165627a7a72305820021f86c01b3b9c1e0292a30953d670902eb23640aa840d21a761e78db21d039c0029608060405234801561001057600080fd5b50604051602080610d4a8339810180604052602081101561003057600080fd5b505160008054600160a060020a03909216600160a060020a03199283161790556001805490911633179055610ce08061006a6000396000f3fe60806040526004361061004b5763ffffffff7c01000000000000000000000000000000000000000000000000000000006000350416638cd981a88114610050578063928b5d95146101df575b600080fd5b34801561005c57600080fd5b5061007a6004803603602081101561007357600080fd5b50356103b2565b6040518080602001806020018763ffffffff1663ffffffff1681526020018060200186815260200185815260200184810384528a818151815260200191508051906020019080838360005b838110156100dd5781810151838201526020016100c5565b50505050905090810190601f16801561010a5780820380516001836020036101000a031916815260200191505b5084810383528951815289516020918201918b019080838360005b8381101561013d578181015183820152602001610125565b50505050905090810190601f16801561016a5780820380516001836020036101000a031916815260200191505b50848103825287518152875160209182019189019080838360005b8381101561019d578181015183820152602001610185565b50505050905090810190601f1680156101ca5780820380516001836020036101000a031916815260200191505b50995050505050505050505060405180910390f35b3480156101eb57600080fd5b506103b0600480360360a081101561020257600080fd5b81019060208101813564010000000081111561021d57600080fd5b82018360208201111561022f57600080fd5b8035906020019184600183028401116401000000008311171561025157600080fd5b91908080601f01602080910402602001604051908101604052809392919081815260200183838082843760009201919091525092959493602081019350359150506401000000008111156102a457600080fd5b8201836020820111156102b657600080fd5b803590602001918460018302840111640100000000831117156102d857600080fd5b91908080601f016020809104026020016040519081016040528093929190818152602001838380828437600092019190915250929563ffffffff85351695909490935060408101925060200135905064010000000081111561033957600080fd5b82018360208201111561034b57600080fd5b8035906020019184600183028401116401000000008311171561036d57600080fd5b91908080601f0160208091040260200160405190810160405280939291908181526020018383808284376000920191909152509295505091359250610735915050565b005b6060806000818180808711610411576040805160e560020a62461bcd02815260206004820152601f60248201527f76616c7565206d7573742062652067726561746572207468616e207a65726f00604482015290519081900360640190fd5b60035463ffffffff16871115610497576040805160e560020a62461bcd02815260206004820152602860248201527f76616c756520697320686967686572207468616e206c617374206d6f76656d6560448201527f6e7420696e646578000000000000000000000000000000000000000000000000606482015290519081900360840190fd5b60006104a4886001610b9c565b90506004818154811015156104b557fe5b90600052602060002090600602016000016004828154811015156104d557fe5b90600052602060002090600602016001016004838154811015156104f557fe5b60009182526020909120600260069092020101546004805463ffffffff909216918590811061052057fe5b906000526020600020906006020160030160048581548110151561054057fe5b90600052602060002090600602016004015460048681548110151561056157fe5b600091825260209182902060056006909202010154865460408051601f6002600019610100600187161502019094169390930492830185900485028101850190915281815291928891908301828280156105fc5780601f106105d1576101008083540402835291602001916105fc565b820191906000526020600020905b8154815290600101906020018083116105df57829003601f168201915b5050885460408051602060026001851615610100026000190190941693909304601f8101849004840282018401909252818152959b508a94509250840190508282801561068a5780601f1061065f5761010080835404028352916020019161068a565b820191906000526020600020905b81548152906001019060200180831161066d57829003601f168201915b5050865460408051602060026001851615610100026000190190941693909304601f8101849004840282018401909252818152959a50889450925084019050828280156107185780601f106106ed57610100808354040283529160200191610718565b820191906000526020600020905b8154815290600101906020018083116106fb57829003601f168201915b505050505092509650965096509650965096505091939550919395565b60015473ffffffffffffffffffffffffffffffffffffffff1633146107ca576040805160e560020a62461bcd02815260206004820152602260248201527f73656e646572206973206e6f742074686520666163746f727920636f6e74726160448201527f6374000000000000000000000000000000000000000000000000000000000000606482015290519081900360840190fd5b600063ffffffff84161161084e576040805160e560020a62461bcd02815260206004820152602160248201527f7175616e74697479206973206e6f742067726561746572207468616e207a657260448201527f6f00000000000000000000000000000000000000000000000000000000000000606482015290519081900360840190fd5b6103e863ffffffff841611156108ae576040805160e560020a62461bcd02815260206004820152601460248201527f7175616e7469747920697320746f6f2068696768000000000000000000000000604482015290519081900360640190fd5b8451600010610907576040805160e560020a62461bcd02815260206004820152601560248201527f7061636b61676520636f646520697320656d7074790000000000000000000000604482015290519081900360640190fd5b8151600010610960576040805160e560020a62461bcd02815260206004820152601260248201527f756e697420636f646520697320656d7074790000000000000000000000000000604482015290519081900360640190fd5b610968610bdc565b845115801561097d57508363ffffffff168214155b156109f8576040805160e560020a62461bcd02815260206004820152602a60248201527f507269636520646f6573206e6f7420636f72726573706f6e642077697468206160448201527f20656d7074792066656500000000000000000000000000000000000000000000606482015290519081900360840190fd5b858152602080820186905263ffffffff8516604083015260608201849052608082018390524260a08301526004805460018101808355600092909252835180519293859360069093027f8a35acfbc15ff81a39ae7d344fd709f28e8600b4aa8c65c6b64bfe7fe36bd19b0192610a719284920190610c19565b506020828101518051610a8a9260018501920190610c19565b50604082015160028201805463ffffffff191663ffffffff90921691909117905560608201518051610ac6916003840191602090910190610c19565b506080820151600482015560a09091015160059091015550600354610af29063ffffffff166001610bae565b600360006101000a81548163ffffffff021916908363ffffffff160217905550610b226002548260800151610bcd565b6002819055600054608083015160035460408051928352602083019490945263ffffffff16818401529151309273ffffffffffffffffffffffffffffffffffffffff92909216917f634803569c8df39be5458edd5454c5a425666a63cd029c0eef3680f7c23b3354919081900360600190a3505050505050565b600082821115610ba857fe5b50900390565b600082820163ffffffff8085169082161015610bc657fe5b9392505050565b600082820183811015610bc657fe5b60c0604051908101604052806060815260200160608152602001600063ffffffff1681526020016060815260200160008152602001600081525090565b828054600181600116156101000203166002900490600052602060002090601f016020900481019282601f10610c5a57805160ff1916838001178555610c87565b82800160010185558215610c87579182015b82811115610c87578251825591602001919060010190610c6c565b50610c93929150610c97565b5090565b610cb191905b80821115610c935760008155600101610c9d565b9056fea165627a7a723058205ef0dc33e783ecd21dd7252600256d964f78da03006397911a03598e1bd21ef70029",
  "source": "pragma solidity ^0.5.0;\n\n//import \"github.com/provable-things/ethereum-api/provableAPI_0.5.sol\";\nimport \"./provableAPI_0.5.sol\";\n\nimport \"./SafeMath.sol\";\nimport \"./Pausable.sol\";\n\n//**************************************************************************************************\n// Contrato hijo (Factory)\n// Utilizado para gestionar de forma individual los movimientos de un usuario del sistema\n//**************************************************************************************************\ncontract UserFactory {\n\n    address owner;\n    address factory;\n    uint    balance;\n    uint32  count;\n\n    // Struct para los movimientos (transacciones)\n    struct Mvt {\n        string code;\n        string fee;\n        uint32 qty;\n        string uni;\n        uint   amount;\n        uint   date;\n    }\n\n    // Array para guardar los movimientos del usuario\n    Mvt[] mvts;\n\n    // Evento que se emitir con la creacin de cada movimiento\n    event newMovement(\n        address indexed _owner, address indexed _factory, uint _amount, uint _balance, uint _count\n    );\n\n    // Validar que el sender sea el contrato padre\n    modifier onlyFactory() {\n        require(msg.sender == factory,\"sender is not the factory contract\");\n        _;\n    }\n\n    // El owner ser el indicado por el contrato que llama (msg.sender)\n    constructor(address _owner) public {\n        owner = _owner;\n        factory = msg.sender;\n    }\n\n    // Funcin para la creacin de movimientos (con cada transaccin realizada)\n    // Solo se permitir ejecutarlo al contrato padre (factory)\n    // Se Validar:\n    // - La cantidad (qty) sea un nmero entre 1 y 1000\n    // - cdigo del envase (code) y la unidad de medida (uni) vengan informados \n    //\n    function addMovement(string memory _code, string memory _fee, uint32 _qty, string memory _uni, uint _amount) public onlyFactory {\n        require(_qty > 0,\"quantity is not greater than zero\");\n        require(_qty <= 1000,\"quantity is too high\");\n        require(bytes(_code).length > 0,\"package code is empty\");\n        require(bytes(_uni).length > 0,\"unit code is empty\");\n\n        Mvt memory _tx;\n\n        // Si el cdigo de comisin est vaco, los campos amount y qty deben ser iguales (price=1)\n        if (bytes(_fee).length == 0 && _amount != _qty) {\n            revert(\"Price does not correspond with a empty fee\");\n        }\n\n        // Construimos la transaccin\n        _tx.code = _code;\n        _tx.fee = _fee;\n        _tx.qty = _qty;\n        _tx.uni = _uni;\n        _tx.amount = _amount;\n        _tx.date = now;\n\n        // Incluimos la transaccin en el array de movimientos\n        mvts.push(_tx);\n\n        // Actualizamos el contador de movimientos y el saldo\n        count = SafeMath.add32(count,1);\n        balance = SafeMath.add(balance, _tx.amount);\n\n        //emit evento creacin nuevo movimiento\n        emit newMovement(owner, address(this), _tx.amount, balance, count);\n    }\n\n    // Funcin para la consulta de movimientos\n    // Se deber indicar la posicin del movimiento a consultar\n    //\n    function getMovement(uint _ind) external view returns(string memory, string memory, uint32, string memory, uint, uint) {\n        require (_ind > 0,\"value must be greater than zero\");\n        require (_ind <= count, \"value is higher than last movement index\");\n\n        // Resta 1 a la posicin para obtener la posicin real\n        uint pos = SafeMath.sub(_ind, 1);\n\n        return (mvts[pos].code, mvts[pos].fee, mvts[pos].qty, mvts[pos].uni, mvts[pos].amount, mvts[pos].date);\n    }\n\n}\n\n//**************************************************************************************************\n// Contrato padre\n//**************************************************************************************************\ncontract Recycler is usingProvable, Pausable {\n\n    //address public owner;\n\n    //* Estructura para datos de usuarios\n    struct User {\n        uint    balance;\n        uint    dtUltMvt;\n        uint32  countMvts;\n        uint32  seq;\n        UserFactory userContr;\n    }\n\n    //* Estructura para movimientos (Transacciones)\n    struct Mvt {\n        string code;\n        string fee;\n        uint32 qty;\n        string uni;\n        uint   amount;\n        uint   date;\n    }\n\n    //* Estructura para Transacciones pendientes enviadas al Orculo\n    struct PendingQuery {\n        bool    isPending;\n        Mvt     transPending;\n        address senderContract;\n    }\n\n    //* Variables generales\n    uint32  countUsers;\n    uint32  countQueries;\n    uint    globalBalance;\n    Mvt     trans;\n    bytes32[] pendTx1;\n\n    //* -- Mapping --\n    //* Lista de usuarios\n    mapping (uint => address) private listaUsers;\n    //* Datos de usuarios\n    mapping (address => User) private users;\n    //* Transacciones pendientes enviadas al Orculo\n    mapping (bytes32 => PendingQuery) private pendingQueries;\n\n    //* Evento alta nuevo usuario\n    event newUser(\n        address indexed _sender, UserFactory indexed _factory, uint32 _seq\n    );\n\n    //* Eventos para actualizacin saldo de tokens\n    event newBalance(\n        address indexed _sender, uint _balance\n    );\n\n    //* Evento finalizacin envo de tokens\n    event coinSent(\n        address indexed _sender, string _code, string _fee, uint  _qty, string  _uni, uint _amount, uint _price\n    );\n\n    //event LogConstructorInitiated(string nextStep);\n    event LogPriceUpdated(string _result);\n    event LogNewProvableQuery(string description);\n\n    constructor() public payable {\n        //owner = msg.sender;\n        createUser();\n        addBalance(msg.sender, 10000);\n    }\n\n    //*\n    //* Funcin para el traspaso de tokens a la cuenta del usuario\n    //* Si se indica una tarifa (prodFee) se debe llamar al orculo para consultar el precio (nmero de token que se debe \n    //* entregar por cada unidad)\n    //*\n    function sendCoin(string memory prodCode, string memory prodFee, uint32 prodQty, string memory prodUni) public whenNotPaused {\n        require(prodQty > 0,\"quantity is not greater than zero\");\n        require(prodQty < 1000,\"quantity is too high\");\n        require(bytes(prodCode).length > 0,\"package code is empty\");\n        require(bytes(prodUni).length > 0,\"unit code is empty\");\n\n        // Registra el usuario en caso de que no existiese\n        createUser();\n\n        // Recogemos los datos en un struct de movimientos\n        trans.code = prodCode;\n        trans.fee = prodFee;\n        trans.qty = prodQty;\n        trans.uni = prodUni;\n\n        // Solo se llamar al orculo cuando se haya recibido un cdigo de tarifa\n        if (bytes(prodFee).length > 0) {\n            fetchPrice(prodFee);\n        } else {\n            //uint price = 1;\n            sendCoin_cont(1, msg.sender, trans);\n        }\n    }\n\n    //*\n    //* Segunda parte de la funcin sendCoin que se ejecutar tras tener la tarifa (price) de tokens a entregar\n    //*\n    function sendCoin_cont(uint _price, address _sender, Mvt memory _trans) internal {\n\n        uint _amount;\n\n        // Si no se fija un precio o falla la llamada al orculo se asume precio = 1\n        if (_price != 0) {\n            _amount = SafeMath.mul(_trans.qty, _price);\n        } else {\n            _amount = _trans.qty;\n        }\n\n        users[_sender].dtUltMvt = block.timestamp;\n        users[_sender].countMvts = SafeMath.add32(users[_sender].countMvts, 1);\n\n        // Llamada al contrato factory para que registre el movimiento de saldo\n        users[_sender].userContr.addMovement(_trans.code, _trans.fee, _trans.qty, _trans.uni, _amount);\n        addBalance(_sender, _amount);\n\n        emit coinSent(_sender, _trans.code, _trans.fee, _trans.qty, _trans.uni, _amount, _price);\n    }\n\n    //*\n    //* Funcin para obtener el nmero de tokens que se pagar por cada unidad recogida (segn la tarifa indicada) -1ra parte-\n    //*\n    //* Para ello se utiliza un orculo creado con Provable (antiguo Oraclize) al que se le indicar la URL de una API web\n    //* que devolver el nmero de tokens para la tarifa (_fee) enviada.\n    //*\n    //* La obtencin del nmero de tokens se deber hacer en dos pasos:\n    //* 1 - En esta funcin se enviar la query al orculo\n    //* 2 - En la funcin __callback se recoger el valor devuelto por el orculo para calcular el nmero de tokens\n    //*  a entregar al usuario.\n    //*\n    function fetchPrice(string memory _fee) public payable {\n       require(bytes(_fee).length > 0,\"fee code is empty\");\n\n       // Comprobamos si el contrato tiene saldo suficiente para el pago de la llamada al orculo\n       if (provable_getPrice(\"URL\") > address(this).balance) {\n           emit LogNewProvableQuery(\"Provable letquery was NOT sent, please add some ETH to cover for the query fee\");\n       } else {\n\n           // Se construye la query con la tarifa (_fee) enviada como parmetro\n           // La apiKey ha sido cifrada con la clave pblica de Provable\n           string memory _url = string(abi.encodePacked(\"[URL] ['json(https://api.mlab.com/api/1/databases/productos/collections/fees?apiKey=${[decrypt] BPssDAFd3BExbW4l0ee1RNV45pvdhOita1bwVtTzVu7aRvHoFZhuNCuuZnC8wzm6GUQ3yTz18+B2vnoADbHHpRc9NcMb/YZOwXo0sJsM5paIGll6oYEqpjWMQQ3eEISzGkE0/JMIHiDyG1SpiYI3bYg=}).0.result.\", _fee, \".price']\"));\n\n           emit LogNewProvableQuery(\"Provable query was sent, standing by for the answer..\");\n\n           // Enviamos la query a Provable y guardamos el Id para tratarlo en el callback\n           bytes32 queryId = provable_query(\"nested\", _url, 350000);\n\n           // Con el Id de la query guardamos los datos para tratarlos en el callback\n           pendingQueries[queryId].isPending = true;\n           pendingQueries[queryId].transPending = trans;\n           pendingQueries[queryId].senderContract = msg.sender;\n\n           // El contador countQueries nos permitir sabr cuntas queries hay pendientes de procesar\n           countQueries = SafeMath.add32(countQueries, 1);\n\n           // DEBUG: Guardamos el ID de la peticiones para, en caso de ser necesario, poder recuperarlos y revisar qu pasa \n           pendTx1.push(queryId);\n       }\n    }\n\n    //*\n    //* Funcin para obtener el nmero de tokens que se pagar por cada unidad recogida (segn la tarifa indicada) -2da parte-\n    //*\n    //* Revisamos que el ID enviado (_myid) correponda con algunas de las queries para las que esperamos respuesta y que\n    //* quien haya invocado esta funcin sea provable_cbAddress.\n    //* Recogemos el valor enviado en _result y continuamos con el proceso para el clculo de tokens que se entregarn al usuario\n    //*\n    function __callback(bytes32 _myid, string memory _result) public {\n       require(pendingQueries[_myid].isPending, \"there is not any query pending with that ID\");\n\n       if (msg.sender != provable_cbAddress()) revert();\n\n       uint _price = parseInt(_result);\n       emit LogPriceUpdated(_result);\n\n       sendCoin_cont(_price, pendingQueries[_myid].senderContract, pendingQueries[_myid].transPending);\n\n       delete pendingQueries[_myid];\n       countQueries = SafeMath.sub32(countQueries, 1);\n    }\n\n    //*\n    //* DEBUG: Funcin para consultar la referencia de las queries enviadas al orculo\n    //*\n    function getPendTx1(uint _ind) external view returns(bytes32) {\n        return pendTx1[_ind];\n    }\n\n    //*\n    //* Funcin para crear un usuario en el sistema y poder gestionar sus datos asociados\n    //*\n    function createUser() internal {\n\n        if (users[msg.sender].dtUltMvt == 0 && users[msg.sender].countMvts == 0) {\n\n            users[msg.sender].userContr = new UserFactory(msg.sender);\n            users[msg.sender].dtUltMvt = block.timestamp;\n            users[msg.sender].countMvts = 0;\n            users[msg.sender].balance = 0;\n\n            countUsers = SafeMath.add32(countUsers, 1);\n            users[msg.sender].seq = countUsers;\n            listaUsers[countUsers] = msg.sender;\n\n            emit newUser(msg.sender, users[msg.sender].userContr, users[msg.sender].seq);\n        }\n    }\n\n    //*\n    //* Funcin para borrar los datos de una cuenta en caso de que fuese necesario (solo por el owner)\n    //*\n    function deleteUser(address _addr) public onlyOwner {\n        require (_addr != address(0), \"a valid address is required\");\n\n        if (users[msg.sender].dtUltMvt != 0) {\n\n            listaUsers[users[msg.sender].seq] = address(0);\n            globalBalance = SafeMath.sub(globalBalance, users[msg.sender].balance);\n\n            delete users[msg.sender];\n        }\n    }\n\n    //*\n    //* Funcin para incrementar el saldo de tokens del usuario\n    //*\n    function addBalance(address _sender, uint _amount) internal {\n\n        users[_sender].balance = SafeMath.add(users[_sender].balance, _amount);\n        globalBalance = SafeMath.add(globalBalance, _amount);\n\n        emit newBalance(msg.sender, users[msg.sender].balance);\n    }\n\n    //*\n    //* Funcin para consultar el saldo de tokens del usuario\n    //*\n    function getBalance(address _addr) public view returns(uint) {\n        return users[_addr].balance;\n    }\n\n    //*\n    //* Funcin para consultar el saldo global del sistema de tokens que se han asignado\n    //*\n    function getGlobalBalance() public view returns(uint) {\n        return globalBalance;\n    }\n\n    //*\n    //* Funcin para consultar el saldo en Ethers del contrato (necesario para el pago de gas para el Orculo)\n    //*\n    function getContractBalance() public view returns(uint) {\n        return address(this).balance;\n    }\n\n    //*\n    //* Funcin utilizada para transferir fondos (Ethers) al contrato \n    //*\n    function setFunds(string memory _message) public payable returns(string memory) {\n        require (msg.value > 0, \"value is not greater than zero\");\n\n        return _message;\n    }\n\n    //*\n    //* Funcin para transferir el saldo en Ethers del contrato al owner (solo por el owner)\n    //*\n    function transfer(uint _amount) public onlyOwner {\n        require (address(this).balance >= _amount, \"not enough balance\");\n\n        owner.transfer(_amount);\n    }\n\n    //*\n    //* Funcin para consultar los movimientos de una cuenta (uno por llamada)\n    //* Se requiere la direccin de la cuenta y el indce del movimiento\n    //*\n    function getMovement(address _addr, uint _ind) external view returns(string memory, string memory, uint32, string memory, uint, uint) {\n        require (_addr != address(0), \"an address is required\");\n        require (_ind > 0,\"value must be greater than zero\");\n        require (_ind <= users[_addr].countMvts, \"value is higher than last movement index\");\n\n        Mvt memory _tx;\n\n        (_tx.code, _tx.fee, _tx.qty, _tx.uni, _tx.amount, _tx.date) = users[_addr].userContr.getMovement(_ind);\n\n        //return (mvts[pos]);\n        return (_tx.code, _tx.fee, _tx.qty, _tx.uni, _tx.amount, _tx.date);\n    }\n\n    //*\n    //* Devuelve el nmero de movimientos que tiene una cuenta\n    //*\n    function getMovementCount(address _addr) external view returns(uint32) {\n        require (_addr != address(0), \"a valid address is required\");\n\n        return users[_addr].countMvts;\n    }\n\n    //*\n    //* Funcin para obtener la lista usuarios que han utilizado el sistema (se obtiene una address por llamada)\n    //*\n    function getUser(uint32 _ind) external view returns(address) {\n        require (_ind > 0,\"value must be greater than zero\");\n        require (_ind <= countUsers, \"value is higher than the number of users\");\n\n        return listaUsers[_ind];\n    }\n\n    //*\n    //* Funcin para obtener el nmero de usuarios que han utilizado el sistema\n    //*\n    function getUserCount() external view returns(uint32) {\n        return countUsers;\n    }\n\n    //*\n    //* Funcin para obtener el nmero de queries pendientes de procesar por el orculo\n    //*\n    function getCountQueries() external view returns(uint32) {\n        return countQueries;\n    }\n\n    //*\n    //* Funcin para descontar el saldo de tokens de un usuario\n    //*\n    function withdrawal(uint _amount) public whenNotPaused returns(uint) {\n        require(users[msg.sender].balance >= _amount,\"not enough balance\");\n        require(globalBalance >= _amount,\"not enough global balance\");\n\n        users[msg.sender].balance = SafeMath.sub(users[msg.sender].balance,_amount);\n        globalBalance = SafeMath.sub(globalBalance,_amount);\n\n        return users[msg.sender].balance;\n    }\n\n    //*\n    //* Funcin para desactivar de forma permanente el contrato (solo por el owner)\n    //*\n    function kill() public payable onlyOwner {\n        require (globalBalance == 0, \"global balance is not zero\");\n        selfdestruct(msg.sender);\n    }\n\n    // Fallback function - Called if other functions don't match call or\n    // sent ether without data\n    // Typically, called when invalid data is sent\n    // Added so ether sent to this contract is reverted if the contract fails\n    // otherwise, the sender's money is transferred to contract\n    function () external payable {\n        //revert();\n    }\n\n}",
  "sourcePath": "/home/lealp22/dapp_PEC1/contracts/Recycler.sol",
  "compiler": {
    "name": "solc",
    "version": "0.5.0+commit.1d4f565a.Emscripten.clang"
  },
  "schemaVersion": "3.0.11",
  "updatedAt": "2019-09-01T22:22:47.226Z",
  "devdoc": {
    "methods": {
      "pause()": {
        "details": "called by the owner to pause, triggers stopped state"
      },
      "transferOwnership(address)": {
        "details": "Allows the current owner to transfer control of the contract to a newOwner.",
        "params": {
          "newOwner": "The address to transfer ownership to."
        }
      },
      "unpause()": {
        "details": "called by the owner to unpause, returns to normal state"
      }
    }
  },
  "userdoc": {
    "methods": {}
  }
}