{
  "contractName": "Recycler",
  "abi": [
    {
      "constant": false,
      "inputs": [],
      "name": "unpause",
      "outputs": [],
      "payable": false,
      "stateMutability": "nonpayable",
      "type": "function"
    },
    {
      "constant": true,
      "inputs": [],
      "name": "paused",
      "outputs": [
        {
          "name": "",
          "type": "bool"
        }
      ],
      "payable": false,
      "stateMutability": "view",
      "type": "function"
    },
    {
      "constant": false,
      "inputs": [],
      "name": "pause",
      "outputs": [],
      "payable": false,
      "stateMutability": "nonpayable",
      "type": "function"
    },
    {
      "constant": true,
      "inputs": [],
      "name": "owner",
      "outputs": [
        {
          "name": "",
          "type": "address"
        }
      ],
      "payable": false,
      "stateMutability": "view",
      "type": "function"
    },
    {
      "constant": false,
      "inputs": [
        {
          "name": "newOwner",
          "type": "address"
        }
      ],
      "name": "transferOwnership",
      "outputs": [],
      "payable": false,
      "stateMutability": "nonpayable",
      "type": "function"
    },
    {
      "inputs": [],
      "payable": false,
      "stateMutability": "nonpayable",
      "type": "constructor"
    },
    {
      "payable": true,
      "stateMutability": "payable",
      "type": "fallback"
    },
    {
      "anonymous": false,
      "inputs": [
        {
          "indexed": true,
          "name": "_sender",
          "type": "address"
        },
        {
          "indexed": true,
          "name": "_contract",
          "type": "address"
        },
        {
          "indexed": false,
          "name": "_seq",
          "type": "uint32"
        }
      ],
      "name": "newUser",
      "type": "event"
    },
    {
      "anonymous": false,
      "inputs": [
        {
          "indexed": true,
          "name": "_sender",
          "type": "address"
        },
        {
          "indexed": false,
          "name": "_balance",
          "type": "uint256"
        }
      ],
      "name": "newBalance",
      "type": "event"
    },
    {
      "anonymous": false,
      "inputs": [
        {
          "indexed": false,
          "name": "_result",
          "type": "string"
        }
      ],
      "name": "LogPriceUpdated",
      "type": "event"
    },
    {
      "anonymous": false,
      "inputs": [
        {
          "indexed": false,
          "name": "description",
          "type": "string"
        }
      ],
      "name": "LogNewProvableQuery",
      "type": "event"
    },
    {
      "anonymous": false,
      "inputs": [],
      "name": "Pause",
      "type": "event"
    },
    {
      "anonymous": false,
      "inputs": [],
      "name": "Unpause",
      "type": "event"
    },
    {
      "anonymous": false,
      "inputs": [
        {
          "indexed": true,
          "name": "previousOwner",
          "type": "address"
        },
        {
          "indexed": true,
          "name": "newOwner",
          "type": "address"
        }
      ],
      "name": "OwnershipTransferred",
      "type": "event"
    },
    {
      "constant": false,
      "inputs": [
        {
          "name": "prodCode",
          "type": "string"
        },
        {
          "name": "prodFee",
          "type": "string"
        },
        {
          "name": "prodQty",
          "type": "uint32"
        },
        {
          "name": "prodUni",
          "type": "string"
        }
      ],
      "name": "sendCoin",
      "outputs": [],
      "payable": false,
      "stateMutability": "nonpayable",
      "type": "function"
    },
    {
      "constant": false,
      "inputs": [],
      "name": "createUser",
      "outputs": [],
      "payable": false,
      "stateMutability": "nonpayable",
      "type": "function"
    },
    {
      "constant": false,
      "inputs": [],
      "name": "deleteUser",
      "outputs": [],
      "payable": false,
      "stateMutability": "nonpayable",
      "type": "function"
    },
    {
      "constant": true,
      "inputs": [
        {
          "name": "_addr",
          "type": "address"
        }
      ],
      "name": "getBalance",
      "outputs": [
        {
          "name": "",
          "type": "uint256"
        }
      ],
      "payable": false,
      "stateMutability": "view",
      "type": "function"
    },
    {
      "constant": true,
      "inputs": [],
      "name": "getGlobalBalance",
      "outputs": [
        {
          "name": "",
          "type": "uint256"
        }
      ],
      "payable": false,
      "stateMutability": "view",
      "type": "function"
    },
    {
      "constant": true,
      "inputs": [
        {
          "name": "_ind",
          "type": "uint256"
        }
      ],
      "name": "getMovement",
      "outputs": [
        {
          "name": "",
          "type": "uint256"
        },
        {
          "name": "",
          "type": "uint256"
        }
      ],
      "payable": false,
      "stateMutability": "view",
      "type": "function"
    },
    {
      "constant": false,
      "inputs": [
        {
          "name": "_amount",
          "type": "uint256"
        }
      ],
      "name": "withdrawal",
      "outputs": [
        {
          "name": "",
          "type": "uint256"
        }
      ],
      "payable": false,
      "stateMutability": "nonpayable",
      "type": "function"
    },
    {
      "constant": false,
      "inputs": [
        {
          "name": "_myid",
          "type": "bytes32"
        },
        {
          "name": "_result",
          "type": "string"
        },
        {
          "name": "_proof",
          "type": "bytes"
        }
      ],
      "name": "__callback",
      "outputs": [],
      "payable": false,
      "stateMutability": "nonpayable",
      "type": "function"
    },
    {
      "constant": false,
      "inputs": [
        {
          "name": "myid",
          "type": "bytes32"
        },
        {
          "name": "_result",
          "type": "string"
        }
      ],
      "name": "__callback",
      "outputs": [],
      "payable": false,
      "stateMutability": "nonpayable",
      "type": "function"
    },
    {
      "constant": false,
      "inputs": [
        {
          "name": "_fee",
          "type": "string"
        }
      ],
      "name": "fetchPrice",
      "outputs": [],
      "payable": true,
      "stateMutability": "payable",
      "type": "function"
    },
    {
      "constant": false,
      "inputs": [],
      "name": "kill",
      "outputs": [],
      "payable": true,
      "stateMutability": "payable",
      "type": "function"
    }
  ],
  "bytecode": "0x608060405260008060146101000a81548160ff0219169083151502179055503480156200002b57600080fd5b50336000806101000a81548173ffffffffffffffffffffffffffffffffffffffff021916908373ffffffffffffffffffffffffffffffffffffffff16021790555033600660006101000a81548173ffffffffffffffffffffffffffffffffffffffff021916908373ffffffffffffffffffffffffffffffffffffffff160217905550620000c6620000e8640100000000026401000000009004565b620000e2612710620005c1640100000000026401000000009004565b6200077f565b6000600e60003373ffffffffffffffffffffffffffffffffffffffff1673ffffffffffffffffffffffffffffffffffffffff168152602001908152602001600020600101541480156200019357506000600e60003373ffffffffffffffffffffffffffffffffffffffff1673ffffffffffffffffffffffffffffffffffffffff16815260200190815260200160002060020160009054906101000a900463ffffffff1663ffffffff16145b15620005bf5733620001a46200076e565b808273ffffffffffffffffffffffffffffffffffffffff1673ffffffffffffffffffffffffffffffffffffffff168152602001915050604051809103906000f080158015620001f7573d6000803e3d6000fd5b50600e60003373ffffffffffffffffffffffffffffffffffffffff1673ffffffffffffffffffffffffffffffffffffffff16815260200190815260200160002060020160086101000a81548173ffffffffffffffffffffffffffffffffffffffff021916908373ffffffffffffffffffffffffffffffffffffffff16021790555042600e60003373ffffffffffffffffffffffffffffffffffffffff1673ffffffffffffffffffffffffffffffffffffffff168152602001908152602001600020600101819055506000600e60003373ffffffffffffffffffffffffffffffffffffffff1673ffffffffffffffffffffffffffffffffffffffff16815260200190815260200160002060020160006101000a81548163ffffffff021916908363ffffffff1602179055506000600e60003373ffffffffffffffffffffffffffffffffffffffff1673ffffffffffffffffffffffffffffffffffffffff168152602001908152602001600020600001819055506200039c600660149054906101000a900463ffffffff166001620007246401000000000262001fd9176401000000009004565b600660146101000a81548163ffffffff021916908363ffffffff160217905550600660149054906101000a900463ffffffff16600e60003373ffffffffffffffffffffffffffffffffffffffff1673ffffffffffffffffffffffffffffffffffffffff16815260200190815260200160002060020160046101000a81548163ffffffff021916908363ffffffff16021790555033600d6000600660149054906101000a900463ffffffff1663ffffffff16815260200190815260200160002060006101000a81548173ffffffffffffffffffffffffffffffffffffffff021916908373ffffffffffffffffffffffffffffffffffffffff160217905550600e60003373ffffffffffffffffffffffffffffffffffffffff1673ffffffffffffffffffffffffffffffffffffffff16815260200190815260200160002060020160089054906101000a900473ffffffffffffffffffffffffffffffffffffffff1673ffffffffffffffffffffffffffffffffffffffff163373ffffffffffffffffffffffffffffffffffffffff167f2400353ee3cbddbecd51b36528703d6a9a1f15a73ef12fa52c45ebfbf5eb0e10600e60003373ffffffffffffffffffffffffffffffffffffffff1673ffffffffffffffffffffffffffffffffffffffff16815260200190815260200160002060020160049054906101000a900463ffffffff16604051808263ffffffff1663ffffffff16815260200191505060405180910390a35b565b62000623600e60003373ffffffffffffffffffffffffffffffffffffffff1673ffffffffffffffffffffffffffffffffffffffff16815260200190815260200160002060000154826200074f6401000000000262003aab176401000000009004565b600e60003373ffffffffffffffffffffffffffffffffffffffff1673ffffffffffffffffffffffffffffffffffffffff168152602001908152602001600020600001819055506200068b600754826200074f6401000000000262003aab176401000000009004565b6007819055503373ffffffffffffffffffffffffffffffffffffffff167f4abaca7060438a179d5f20d945b01077a6df8b016150a897abd09d3fdebcf109600e60003373ffffffffffffffffffffffffffffffffffffffff1673ffffffffffffffffffffffffffffffffffffffff168152602001908152602001600020600001546040518082815260200191505060405180910390a250565b60008082840190508363ffffffff168163ffffffff16101515156200074557fe5b8091505092915050565b60008082840190508381101515156200076457fe5b8091505092915050565b604051610f39806200528c83390190565b614afd806200078f6000396000f3fe6080604052600436106100e6576000357c0100000000000000000000000000000000000000000000000000000000900463ffffffff168063026ff05e146100eb57806323d468e21461010257806325ad91ce1461012d57806327dc297e1461014457806338bbfa50146102165780633f4ba83a1461037f57806341c0e1b5146103965780635c975abb146103a0578063835fc6ca146103cf5780638456cb591461041e5780638cd981a8146104355780638da5cb5b1461048b5780639782dd2a146104e2578063ab8e3a0e1461059d578063f2fde38b146107a3578063f8b2cb4f146107f4575b600080fd5b3480156100f757600080fd5b50610100610859565b005b34801561010e57600080fd5b50610117610afb565b6040518082815260200191505060405180910390f35b34801561013957600080fd5b50610142610b05565b005b34801561015057600080fd5b506102146004803603604081101561016757600080fd5b81019080803590602001909291908035906020019064010000000081111561018e57600080fd5b8201836020820111156101a057600080fd5b803590602001918460018302840111640100000000831117156101c257600080fd5b91908080601f016020809104026020016040519081016040528093929190818152602001838380828437600081840152601f19601f820116905080830192505050505050509192919290505050610fc3565b005b34801561022257600080fd5b5061037d6004803603606081101561023957600080fd5b81019080803590602001909291908035906020019064010000000081111561026057600080fd5b82018360208201111561027257600080fd5b8035906020019184600183028401116401000000008311171561029457600080fd5b91908080601f016020809104026020016040519081016040528093929190818152602001838380828437600081840152601f19601f820116905080830192505050505050509192919290803590602001906401000000008111156102f757600080fd5b82018360208201111561030957600080fd5b8035906020019184600183028401116401000000008311171561032b57600080fd5b91908080601f016020809104026020016040519081016040528093929190818152602001838380828437600081840152601f19601f8201169050808301925050505050505091929192905050506110bb565b005b34801561038b57600080fd5b506103946110df565b005b61039e61119d565b005b3480156103ac57600080fd5b506103b561128b565b604051808215151515815260200191505060405180910390f35b3480156103db57600080fd5b50610408600480360360208110156103f257600080fd5b810190808035906020019092919050505061129e565b6040518082815260200191505060405180910390f35b34801561042a57600080fd5b506104336114c2565b005b34801561044157600080fd5b5061046e6004803603602081101561045857600080fd5b8101908080359060200190929190505050611582565b604051808381526020018281526020019250505060405180910390f35b34801561049757600080fd5b506104a06117af565b604051808273ffffffffffffffffffffffffffffffffffffffff1673ffffffffffffffffffffffffffffffffffffffff16815260200191505060405180910390f35b61059b600480360360208110156104f857600080fd5b810190808035906020019064010000000081111561051557600080fd5b82018360208201111561052757600080fd5b8035906020019184600183028401116401000000008311171561054957600080fd5b91908080601f016020809104026020016040519081016040528093929190818152602001838380828437600081840152601f19601f8201169050808301925050505050505091929192905050506117d5565b005b3480156105a957600080fd5b506107a1600480360360808110156105c057600080fd5b81019080803590602001906401000000008111156105dd57600080fd5b8201836020820111156105ef57600080fd5b8035906020019184600183028401116401000000008311171561061157600080fd5b91908080601f016020809104026020016040519081016040528093929190818152602001838380828437600081840152601f19601f8201169050808301925050505050505091929192908035906020019064010000000081111561067457600080fd5b82018360208201111561068657600080fd5b803590602001918460018302840111640100000000831117156106a857600080fd5b91908080601f016020809104026020016040519081016040528093929190818152602001838380828437600081840152601f19601f820116905080830192505050505050509192919290803563ffffffff1690602001909291908035906020019064010000000081111561071b57600080fd5b82018360208201111561072d57600080fd5b8035906020019184600183028401116401000000008311171561074f57600080fd5b91908080601f016020809104026020016040519081016040528093929190818152602001838380828437600081840152601f19601f820116905080830192505050505050509192919290505050611b69565b005b3480156107af57600080fd5b506107f2600480360360208110156107c657600080fd5b81019080803573ffffffffffffffffffffffffffffffffffffffff169060200190929190505050611e1f565b005b34801561080057600080fd5b506108436004803603602081101561081757600080fd5b81019080803573ffffffffffffffffffffffffffffffffffffffff169060200190929190505050611f74565b6040518082815260200191505060405180910390f35b6000600e60003373ffffffffffffffffffffffffffffffffffffffff1673ffffffffffffffffffffffffffffffffffffffff16815260200190815260200160002060010154141515610af9576000600d6000600e60003373ffffffffffffffffffffffffffffffffffffffff1673ffffffffffffffffffffffffffffffffffffffff16815260200190815260200160002060020160049054906101000a900463ffffffff1663ffffffff16815260200190815260200160002060006101000a81548173ffffffffffffffffffffffffffffffffffffffff021916908373ffffffffffffffffffffffffffffffffffffffff16021790555061099e600754600e60003373ffffffffffffffffffffffffffffffffffffffff1673ffffffffffffffffffffffffffffffffffffffff16815260200190815260200160002060000154611fc0565b6007819055506000600e60003373ffffffffffffffffffffffffffffffffffffffff1673ffffffffffffffffffffffffffffffffffffffff168152602001908152602001600020600001819055506000600e60003373ffffffffffffffffffffffffffffffffffffffff1673ffffffffffffffffffffffffffffffffffffffff168152602001908152602001600020600101819055506000600e60003373ffffffffffffffffffffffffffffffffffffffff1673ffffffffffffffffffffffffffffffffffffffff16815260200190815260200160002060020160006101000a81548163ffffffff021916908363ffffffff1602179055506000600e60003373ffffffffffffffffffffffffffffffffffffffff1673ffffffffffffffffffffffffffffffffffffffff16815260200190815260200160002060020160046101000a81548163ffffffff021916908363ffffffff1602179055505b565b6000600754905090565b6000600e60003373ffffffffffffffffffffffffffffffffffffffff1673ffffffffffffffffffffffffffffffffffffffff16815260200190815260200160002060010154148015610baf57506000600e60003373ffffffffffffffffffffffffffffffffffffffff1673ffffffffffffffffffffffffffffffffffffffff16815260200190815260200160002060020160009054906101000a900463ffffffff1663ffffffff16145b15610fc15733610bbd613ae3565b808273ffffffffffffffffffffffffffffffffffffffff1673ffffffffffffffffffffffffffffffffffffffff168152602001915050604051809103906000f080158015610c0f573d6000803e3d6000fd5b50600e60003373ffffffffffffffffffffffffffffffffffffffff1673ffffffffffffffffffffffffffffffffffffffff16815260200190815260200160002060020160086101000a81548173ffffffffffffffffffffffffffffffffffffffff021916908373ffffffffffffffffffffffffffffffffffffffff16021790555042600e60003373ffffffffffffffffffffffffffffffffffffffff1673ffffffffffffffffffffffffffffffffffffffff168152602001908152602001600020600101819055506000600e60003373ffffffffffffffffffffffffffffffffffffffff1673ffffffffffffffffffffffffffffffffffffffff16815260200190815260200160002060020160006101000a81548163ffffffff021916908363ffffffff1602179055506000600e60003373ffffffffffffffffffffffffffffffffffffffff1673ffffffffffffffffffffffffffffffffffffffff16815260200190815260200160002060000181905550610d9e600660149054906101000a900463ffffffff166001611fd9565b600660146101000a81548163ffffffff021916908363ffffffff160217905550600660149054906101000a900463ffffffff16600e60003373ffffffffffffffffffffffffffffffffffffffff1673ffffffffffffffffffffffffffffffffffffffff16815260200190815260200160002060020160046101000a81548163ffffffff021916908363ffffffff16021790555033600d6000600660149054906101000a900463ffffffff1663ffffffff16815260200190815260200160002060006101000a81548173ffffffffffffffffffffffffffffffffffffffff021916908373ffffffffffffffffffffffffffffffffffffffff160217905550600e60003373ffffffffffffffffffffffffffffffffffffffff1673ffffffffffffffffffffffffffffffffffffffff16815260200190815260200160002060020160089054906101000a900473ffffffffffffffffffffffffffffffffffffffff1673ffffffffffffffffffffffffffffffffffffffff163373ffffffffffffffffffffffffffffffffffffffff167f2400353ee3cbddbecd51b36528703d6a9a1f15a73ef12fa52c45ebfbf5eb0e10600e60003373ffffffffffffffffffffffffffffffffffffffff1673ffffffffffffffffffffffffffffffffffffffff16815260200190815260200160002060020160049054906101000a900463ffffffff16604051808263ffffffff1663ffffffff16815260200191505060405180910390a35b565b610fcb612003565b73ffffffffffffffffffffffffffffffffffffffff163373ffffffffffffffffffffffffffffffffffffffff1614151561100457600080fd5b61100d81612379565b6008819055507f71f1a5645e51a2da828ffcf79cc17da88eb25e1bca8b9dced23210847a4769c1816040518080602001828103825283818151815260200191508051906020019080838360005b8381101561107557808201518184015260208101905061105a565b50505050905090810190601f1680156110a25780820380516001836020036101000a031916815260200191505b509250505060405180910390a16110b761238d565b5050565b60006001026004600080600102815260200190815260200160002081905550505050565b6000809054906101000a900473ffffffffffffffffffffffffffffffffffffffff1673ffffffffffffffffffffffffffffffffffffffff163373ffffffffffffffffffffffffffffffffffffffff1614151561113a57600080fd5b600060149054906101000a900460ff16151561115557600080fd5b60008060146101000a81548160ff0219169083151502179055507f7805862f689e2f13df9f062ff482ad3ad112aca9e0847911ed832e158c525b3360405160405180910390a1565b6000809054906101000a900473ffffffffffffffffffffffffffffffffffffffff1673ffffffffffffffffffffffffffffffffffffffff163373ffffffffffffffffffffffffffffffffffffffff161415156111f857600080fd5b6000600754141515611272576040517f08c379a000000000000000000000000000000000000000000000000000000000815260040180806020018281038252601a8152602001807f676c6f62616c2062616c616e6365206973206e6f74207a65726f00000000000081525060200191505060405180910390fd5b3373ffffffffffffffffffffffffffffffffffffffff16ff5b600060149054906101000a900460ff1681565b600081600e60003373ffffffffffffffffffffffffffffffffffffffff1673ffffffffffffffffffffffffffffffffffffffff168152602001908152602001600020600001541015151561135a576040517f08c379a00000000000000000000000000000000000000000000000000000000081526004018080602001828103825260128152602001807f6e6f7420656e6f7567682062616c616e6365000000000000000000000000000081525060200191505060405180910390fd5b81600754101515156113d4576040517f08c379a00000000000000000000000000000000000000000000000000000000081526004018080602001828103825260198152602001807f6e6f7420656e6f75676820676c6f62616c2062616c616e63650000000000000081525060200191505060405180910390fd5b611420600e60003373ffffffffffffffffffffffffffffffffffffffff1673ffffffffffffffffffffffffffffffffffffffff1681526020019081526020016000206000015483611fc0565b600e60003373ffffffffffffffffffffffffffffffffffffffff1673ffffffffffffffffffffffffffffffffffffffff1681526020019081526020016000206000018190555061147260075483611fc0565b600781905550600e60003373ffffffffffffffffffffffffffffffffffffffff1673ffffffffffffffffffffffffffffffffffffffff168152602001908152602001600020600001549050919050565b6000809054906101000a900473ffffffffffffffffffffffffffffffffffffffff1673ffffffffffffffffffffffffffffffffffffffff163373ffffffffffffffffffffffffffffffffffffffff1614151561151d57600080fd5b600060149054906101000a900460ff1615151561153957600080fd5b6001600060146101000a81548160ff0219169083151502179055507f6985a02210a168e66602d3235cb6db0e70f92b3ba4d376a33c0f3d9434bff62560405160405180910390a1565b600080600e60003373ffffffffffffffffffffffffffffffffffffffff1673ffffffffffffffffffffffffffffffffffffffff16815260200190815260200160002060020160089054906101000a900473ffffffffffffffffffffffffffffffffffffffff1673ffffffffffffffffffffffffffffffffffffffff16638cd981a8846040518263ffffffff167c01000000000000000000000000000000000000000000000000000000000281526004018082815260200191505060006040518083038186803b15801561165457600080fd5b505afa158015611668573d6000803e3d6000fd5b505050506040513d6000823e3d601f19601f8201168201806040525060c081101561169257600080fd5b8101908080516401000000008111156116aa57600080fd5b828101905060208101848111156116c057600080fd5b81518560018202830111640100000000821117156116dd57600080fd5b505092919060200180516401000000008111156116f957600080fd5b8281019050602081018481111561170f57600080fd5b815185600182028301116401000000008211171561172c57600080fd5b505092919060200180519060200190929190805164010000000081111561175257600080fd5b8281019050602081018481111561176857600080fd5b815185600182028301116401000000008211171561178557600080fd5b50509291906020018051906020019092919080519060200190929190505050505050505050915091565b600660009054906101000a900473ffffffffffffffffffffffffffffffffffffffff1681565b6000815111151561184e576040517f08c379a00000000000000000000000000000000000000000000000000000000081526004018080602001828103825260118152602001807f66656520636f646520697320656d70747900000000000000000000000000000081525060200191505060405180910390fd5b3073ffffffffffffffffffffffffffffffffffffffff16316118a46040805190810160405280600381526020017f55524c000000000000000000000000000000000000000000000000000000000081525061278c565b1115611963577fc4dc360d0a9c0677a3379ae0a3d81e887f761e65fdf3d7e00859d1bcd3c4738960405180806020018281038252604e8152602001807f50726f7661626c65206c6574717565727920776173204e4f542073656e742c2081526020017f706c656173652061646420736f6d652045544820746f20636f76657220666f7281526020017f207468652071756572792066656500000000000000000000000000000000000081525060600191505060405180910390a1611b66565b60608160405160200180807f6a736f6e2868747470733a2f2f6170692e6d6c61622e636f6d2f6170692f312f81526020017f6461746162617365732f70726f647563746f732f636f6c6c656374696f6e732f81526020017f666565733f6170694b65793d314b7558436e555371664f4744416f4b535a484581526020017f4e54534642426c753464366e292e302e726573756c742e00000000000000000081525060770182805190602001908083835b602083101515611a385780518252602082019150602081019050602083039250611a13565b6001836020036101000a038019825116818451168082178552505050505050905001807f2e7072696365000000000000000000000000000000000000000000000000000081525060060191505060405160208183030381529060405290507fc4dc360d0a9c0677a3379ae0a3d81e887f761e65fdf3d7e00859d1bcd3c473896040518080602001828103825260358152602001807f50726f7661626c65207175657279207761732073656e742c207374616e64696e81526020017f6720627920666f722074686520616e737765722e2e000000000000000000000081525060400191505060405180910390a1611b636040805190810160405280600381526020017f55524c000000000000000000000000000000000000000000000000000000000081525082612b76565b50505b50565b60008263ffffffff16111515611c0d576040517f08c379a00000000000000000000000000000000000000000000000000000000081526004018080602001828103825260218152602001807f7175616e74697479206973206e6f742067726561746572207468616e207a657281526020017f6f0000000000000000000000000000000000000000000000000000000000000081525060400191505060405180910390fd5b6103e88263ffffffff16101515611c8c576040517f08c379a00000000000000000000000000000000000000000000000000000000081526004018080602001828103825260148152602001807f7175616e7469747920697320746f6f206869676800000000000000000000000081525060200191505060405180910390fd5b60008451111515611d05576040517f08c379a00000000000000000000000000000000000000000000000000000000081526004018080602001828103825260158152602001807f7061636b61676520636f646520697320656d707479000000000000000000000081525060200191505060405180910390fd5b60008151111515611d7e576040517f08c379a00000000000000000000000000000000000000000000000000000000081526004018080602001828103825260128152602001807f756e697420636f646520697320656d707479000000000000000000000000000081525060200191505060405180910390fd5b8360096000019080519060200190611d97929190613af3565b508260096001019080519060200190611db1929190613af3565b5081600960020160006101000a81548163ffffffff021916908363ffffffff1602179055508060096003019080519060200190611def929190613af3565b50600083511115611e0857611e03836117d5565b611e19565b6001600881905550611e1861238d565b5b50505050565b6000809054906101000a900473ffffffffffffffffffffffffffffffffffffffff1673ffffffffffffffffffffffffffffffffffffffff163373ffffffffffffffffffffffffffffffffffffffff16141515611e7a57600080fd5b600073ffffffffffffffffffffffffffffffffffffffff168173ffffffffffffffffffffffffffffffffffffffff1614151515611eb657600080fd5b8073ffffffffffffffffffffffffffffffffffffffff166000809054906101000a900473ffffffffffffffffffffffffffffffffffffffff1673ffffffffffffffffffffffffffffffffffffffff167f8be0079c531659141344cd1fd0a4f28419497f9722a3daafe3b4186f6b6457e060405160405180910390a3806000806101000a81548173ffffffffffffffffffffffffffffffffffffffff021916908373ffffffffffffffffffffffffffffffffffffffff16021790555050565b6000600e60008373ffffffffffffffffffffffffffffffffffffffff1673ffffffffffffffffffffffffffffffffffffffff168152602001908152602001600020600001549050919050565b6000828211151515611fce57fe5b818303905092915050565b60008082840190508363ffffffff168163ffffffff1610151515611ff957fe5b8091505092915050565b60008073ffffffffffffffffffffffffffffffffffffffff16600260009054906101000a900473ffffffffffffffffffffffffffffffffffffffff1673ffffffffffffffffffffffffffffffffffffffff16148061208b57506000612089600260009054906101000a900473ffffffffffffffffffffffffffffffffffffffff16613133565b145b1561209c5761209a600061313e565b505b600260009054906101000a900473ffffffffffffffffffffffffffffffffffffffff1673ffffffffffffffffffffffffffffffffffffffff166338cc48316040518163ffffffff167c0100000000000000000000000000000000000000000000000000000000028152600401602060405180830381600087803b15801561212257600080fd5b505af1158015612136573d6000803e3d6000fd5b505050506040513d602081101561214c57600080fd5b810190808051906020019092919050505073ffffffffffffffffffffffffffffffffffffffff16600160009054906101000a900473ffffffffffffffffffffffffffffffffffffffff1673ffffffffffffffffffffffffffffffffffffffff161415156122b557600260009054906101000a900473ffffffffffffffffffffffffffffffffffffffff1673ffffffffffffffffffffffffffffffffffffffff166338cc48316040518163ffffffff167c0100000000000000000000000000000000000000000000000000000000028152600401602060405180830381600087803b15801561223957600080fd5b505af115801561224d573d6000803e3d6000fd5b505050506040513d602081101561226357600080fd5b8101908080519060200190929190505050600160006101000a81548173ffffffffffffffffffffffffffffffffffffffff021916908373ffffffffffffffffffffffffffffffffffffffff1602179055505b600160009054906101000a900473ffffffffffffffffffffffffffffffffffffffff1673ffffffffffffffffffffffffffffffffffffffff1663c281d19e6040518163ffffffff167c010000000000000000000000000000000000000000000000000000000002815260040160206040518083038186803b15801561233957600080fd5b505afa15801561234d573d6000803e3d6000fd5b505050506040513d602081101561236357600080fd5b8101908080519060200190929190505050905090565b600061238682600061314f565b9050919050565b60006123b6600960020160009054906101000a900463ffffffff1663ffffffff166008546133ea565b90506123c0610b05565b42600e60003373ffffffffffffffffffffffffffffffffffffffff1673ffffffffffffffffffffffffffffffffffffffff16815260200190815260200160002060010181905550612464600e60003373ffffffffffffffffffffffffffffffffffffffff1673ffffffffffffffffffffffffffffffffffffffff16815260200190815260200160002060020160009054906101000a900463ffffffff166001611fd9565b600e60003373ffffffffffffffffffffffffffffffffffffffff1673ffffffffffffffffffffffffffffffffffffffff16815260200190815260200160002060020160006101000a81548163ffffffff021916908363ffffffff160217905550600e60003373ffffffffffffffffffffffffffffffffffffffff1673ffffffffffffffffffffffffffffffffffffffff16815260200190815260200160002060020160089054906101000a900473ffffffffffffffffffffffffffffffffffffffff1673ffffffffffffffffffffffffffffffffffffffff1663928b5d9560096000016009600101600960020160009054906101000a900463ffffffff166009600301866040518663ffffffff167c01000000000000000000000000000000000000000000000000000000000281526004018080602001806020018663ffffffff1663ffffffff1681526020018060200185815260200184810384528981815460018160011615610100020316600290048152602001915080546001816001161561010002031660029004801561263c5780601f106126115761010080835404028352916020019161263c565b820191906000526020600020905b81548152906001019060200180831161261f57829003601f168201915b50508481038352888181546001816001161561010002031660029004815260200191508054600181600116156101000203166002900480156126bf5780601f10612694576101008083540402835291602001916126bf565b820191906000526020600020905b8154815290600101906020018083116126a257829003601f168201915b50508481038252868181546001816001161561010002031660029004815260200191508054600181600116156101000203166002900480156127425780601f1061271757610100808354040283529160200191612742565b820191906000526020600020905b81548152906001019060200180831161272557829003601f168201915b505098505050505050505050600060405180830381600087803b15801561276857600080fd5b505af115801561277c573d6000803e3d6000fd5b505050506127898161341d565b50565b60008073ffffffffffffffffffffffffffffffffffffffff16600260009054906101000a900473ffffffffffffffffffffffffffffffffffffffff1673ffffffffffffffffffffffffffffffffffffffff16148061281457506000612812600260009054906101000a900473ffffffffffffffffffffffffffffffffffffffff16613133565b145b1561282557612823600061313e565b505b600260009054906101000a900473ffffffffffffffffffffffffffffffffffffffff1673ffffffffffffffffffffffffffffffffffffffff166338cc48316040518163ffffffff167c0100000000000000000000000000000000000000000000000000000000028152600401602060405180830381600087803b1580156128ab57600080fd5b505af11580156128bf573d6000803e3d6000fd5b505050506040513d60208110156128d557600080fd5b810190808051906020019092919050505073ffffffffffffffffffffffffffffffffffffffff16600160009054906101000a900473ffffffffffffffffffffffffffffffffffffffff1673ffffffffffffffffffffffffffffffffffffffff16141515612a3e57600260009054906101000a900473ffffffffffffffffffffffffffffffffffffffff1673ffffffffffffffffffffffffffffffffffffffff166338cc48316040518163ffffffff167c0100000000000000000000000000000000000000000000000000000000028152600401602060405180830381600087803b1580156129c257600080fd5b505af11580156129d6573d6000803e3d6000fd5b505050506040513d60208110156129ec57600080fd5b8101908080519060200190929190505050600160006101000a81548173ffffffffffffffffffffffffffffffffffffffff021916908373ffffffffffffffffffffffffffffffffffffffff1602179055505b600160009054906101000a900473ffffffffffffffffffffffffffffffffffffffff1673ffffffffffffffffffffffffffffffffffffffff1663524f3889836040518263ffffffff167c01000000000000000000000000000000000000000000000000000000000281526004018080602001828103825283818151815260200191508051906020019080838360005b83811015612ae8578082015181840152602081019050612acd565b50505050905090810190601f168015612b155780820380516001836020036101000a031916815260200191505b5092505050602060405180830381600087803b158015612b3457600080fd5b505af1158015612b48573d6000803e3d6000fd5b505050506040513d6020811015612b5e57600080fd5b81019080805190602001909291905050509050919050565b60008073ffffffffffffffffffffffffffffffffffffffff16600260009054906101000a900473ffffffffffffffffffffffffffffffffffffffff1673ffffffffffffffffffffffffffffffffffffffff161480612bfe57506000612bfc600260009054906101000a900473ffffffffffffffffffffffffffffffffffffffff16613133565b145b15612c0f57612c0d600061313e565b505b600260009054906101000a900473ffffffffffffffffffffffffffffffffffffffff1673ffffffffffffffffffffffffffffffffffffffff166338cc48316040518163ffffffff167c0100000000000000000000000000000000000000000000000000000000028152600401602060405180830381600087803b158015612c9557600080fd5b505af1158015612ca9573d6000803e3d6000fd5b505050506040513d6020811015612cbf57600080fd5b810190808051906020019092919050505073ffffffffffffffffffffffffffffffffffffffff16600160009054906101000a900473ffffffffffffffffffffffffffffffffffffffff1673ffffffffffffffffffffffffffffffffffffffff16141515612e2857600260009054906101000a900473ffffffffffffffffffffffffffffffffffffffff1673ffffffffffffffffffffffffffffffffffffffff166338cc48316040518163ffffffff167c0100000000000000000000000000000000000000000000000000000000028152600401602060405180830381600087803b158015612dac57600080fd5b505af1158015612dc0573d6000803e3d6000fd5b505050506040513d6020811015612dd657600080fd5b8101908080519060200190929190505050600160006101000a81548173ffffffffffffffffffffffffffffffffffffffff021916908373ffffffffffffffffffffffffffffffffffffffff1602179055505b6000600160009054906101000a900473ffffffffffffffffffffffffffffffffffffffff1673ffffffffffffffffffffffffffffffffffffffff1663524f3889856040518263ffffffff167c01000000000000000000000000000000000000000000000000000000000281526004018080602001828103825283818151815260200191508051906020019080838360005b83811015612ed4578082015181840152602081019050612eb9565b50505050905090810190601f168015612f015780820380516001836020036101000a031916815260200191505b5092505050602060405180830381600087803b158015612f2057600080fd5b505af1158015612f34573d6000803e3d6000fd5b505050506040513d6020811015612f4a57600080fd5b8101908080519060200190929190505050905062030d403a02670de0b6b3a764000001811115612f8157600060010291505061312d565b600160009054906101000a900473ffffffffffffffffffffffffffffffffffffffff1673ffffffffffffffffffffffffffffffffffffffff1663adf59f9982600087876040518563ffffffff167c0100000000000000000000000000000000000000000000000000000000028152600401808481526020018060200180602001838103835285818151815260200191508051906020019080838360005b8381101561303957808201518184015260208101905061301e565b50505050905090810190601f1680156130665780820380516001836020036101000a031916815260200191505b50838103825284818151815260200191508051906020019080838360005b8381101561309f578082015181840152602081019050613084565b50505050905090810190601f1680156130cc5780820380516001836020036101000a031916815260200191505b50955050505050506020604051808303818588803b1580156130ed57600080fd5b505af1158015613101573d6000803e3d6000fd5b50505050506040513d602081101561311857600080fd5b81019080805190602001909291905050509150505b92915050565b6000813b9050919050565b6000613148613554565b9050919050565b600060608390506000809050600080905060008090505b83518110156133cb576030848281518110151561317f57fe5b9060200101517f010000000000000000000000000000000000000000000000000000000000000090047f0100000000000000000000000000000000000000000000000000000000000000027f0100000000000000000000000000000000000000000000000000000000000000900460ff161015801561327d57506039848281518110151561320957fe5b9060200101517f010000000000000000000000000000000000000000000000000000000000000090047f0100000000000000000000000000000000000000000000000000000000000000027f0100000000000000000000000000000000000000000000000000000000000000900460ff1611155b156133315781156132a0576000861415613296576133cb565b8580600190039650505b600a83029250603084828151811015156132b657fe5b9060200101517f010000000000000000000000000000000000000000000000000000000000000090047f0100000000000000000000000000000000000000000000000000000000000000027f0100000000000000000000000000000000000000000000000000000000000000900460ff1603830192506133be565b602e848281518110151561334157fe5b9060200101517f010000000000000000000000000000000000000000000000000000000000000090047f0100000000000000000000000000000000000000000000000000000000000000027f0100000000000000000000000000000000000000000000000000000000000000900460ff1614156133bd57600191505b5b8080600101915050613166565b5060008511156133de5784600a0a820291505b81935050505092915050565b6000808284029050600084148061340b575082848281151561340857fe5b04145b151561341357fe5b8091505092915050565b613469600e60003373ffffffffffffffffffffffffffffffffffffffff1673ffffffffffffffffffffffffffffffffffffffff1681526020019081526020016000206000015482613aab565b600e60003373ffffffffffffffffffffffffffffffffffffffff1673ffffffffffffffffffffffffffffffffffffffff168152602001908152602001600020600001819055506134bb60075482613aab565b6007819055503373ffffffffffffffffffffffffffffffffffffffff167f4abaca7060438a179d5f20d945b01077a6df8b016150a897abd09d3fdebcf109600e60003373ffffffffffffffffffffffffffffffffffffffff1673ffffffffffffffffffffffffffffffffffffffff168152602001908152602001600020600001546040518082815260200191505060405180910390a250565b600080613574731d3b2638a7cc9f2cb3d298a3da7a90b67e5506ed613133565b111561361657731d3b2638a7cc9f2cb3d298a3da7a90b67e5506ed600260006101000a81548173ffffffffffffffffffffffffffffffffffffffff021916908373ffffffffffffffffffffffffffffffffffffffff16021790555061360d6040805190810160405280600b81526020017f6574685f6d61696e6e6574000000000000000000000000000000000000000000815250613ac9565b60019050613aa8565b600061363573c03a2615d5efaf5f49f60b7bb6583eaec212fdf1613133565b11156136d75773c03a2615d5efaf5f49f60b7bb6583eaec212fdf1600260006101000a81548173ffffffffffffffffffffffffffffffffffffffff021916908373ffffffffffffffffffffffffffffffffffffffff1602179055506136ce6040805190810160405280600c81526020017f6574685f726f707374656e330000000000000000000000000000000000000000815250613ac9565b60019050613aa8565b60006136f673b7a07bcf2ba2f2703b24c0691b5278999c59ac7e613133565b11156137985773b7a07bcf2ba2f2703b24c0691b5278999c59ac7e600260006101000a81548173ffffffffffffffffffffffffffffffffffffffff021916908373ffffffffffffffffffffffffffffffffffffffff16021790555061378f6040805190810160405280600981526020017f6574685f6b6f76616e0000000000000000000000000000000000000000000000815250613ac9565b60019050613aa8565b60006137b773146500cfd35b22e4a392fe0adc06de1a1368ed48613133565b11156138595773146500cfd35b22e4a392fe0adc06de1a1368ed48600260006101000a81548173ffffffffffffffffffffffffffffffffffffffff021916908373ffffffffffffffffffffffffffffffffffffffff1602179055506138506040805190810160405280600b81526020017f6574685f72696e6b656279000000000000000000000000000000000000000000815250613ac9565b60019050613aa8565b600061387873a2998efd205fb9d4b4963afb70778d6354ad3a41613133565b111561391a5773a2998efd205fb9d4b4963afb70778d6354ad3a41600260006101000a81548173ffffffffffffffffffffffffffffffffffffffff021916908373ffffffffffffffffffffffffffffffffffffffff1602179055506139116040805190810160405280600a81526020017f6574685f676f65726c6900000000000000000000000000000000000000000000815250613ac9565b60019050613aa8565b6000613939736f485c8bf6fc43ea212e93bbf8ce046c7f1cb475613133565b111561399d57736f485c8bf6fc43ea212e93bbf8ce046c7f1cb475600260006101000a81548173ffffffffffffffffffffffffffffffffffffffff021916908373ffffffffffffffffffffffffffffffffffffffff16021790555060019050613aa8565b60006139bc7320e12a1f859b3feae5fb2a0a32c18f5a65555bbf613133565b1115613a20577320e12a1f859b3feae5fb2a0a32c18f5a65555bbf600260006101000a81548173ffffffffffffffffffffffffffffffffffffffff021916908373ffffffffffffffffffffffffffffffffffffffff16021790555060019050613aa8565b6000613a3f7351efaf4c8b3c9afbd5ab9f4bbc82784ab6ef8faa613133565b1115613aa3577351efaf4c8b3c9afbd5ab9f4bbc82784ab6ef8faa600260006101000a81548173ffffffffffffffffffffffffffffffffffffffff021916908373ffffffffffffffffffffffffffffffffffffffff16021790555060019050613aa8565b600090505b90565b6000808284019050838110151515613abf57fe5b8091505092915050565b8060039080519060200190613adf929190613af3565b5050565b604051610f3980613b9983390190565b828054600181600116156101000203166002900490600052602060002090601f016020900481019282601f10613b3457805160ff1916838001178555613b62565b82800160010185558215613b62579182015b82811115613b61578251825591602001919060010190613b46565b5b509050613b6f9190613b73565b5090565b613b9591905b80821115613b91576000816000905550600101613b79565b5090565b9056fe608060405234801561001057600080fd5b50604051602080610f398339810180604052602081101561003057600080fd5b8101908080519060200190929190505050806000806101000a81548173ffffffffffffffffffffffffffffffffffffffff021916908373ffffffffffffffffffffffffffffffffffffffff16021790555033600160006101000a81548173ffffffffffffffffffffffffffffffffffffffff021916908373ffffffffffffffffffffffffffffffffffffffff16021790555050610e67806100d26000396000f3fe60806040526004361061004c576000357c0100000000000000000000000000000000000000000000000000000000900463ffffffff1680638cd981a814610051578063928b5d95146101fe575b600080fd5b34801561005d57600080fd5b5061008a6004803603602081101561007457600080fd5b810190808035906020019092919050505061040e565b6040518080602001806020018763ffffffff1663ffffffff1681526020018060200186815260200185815260200184810384528a818151815260200191508051906020019080838360005b838110156100f05780820151818401526020810190506100d5565b50505050905090810190601f16801561011d5780820380516001836020036101000a031916815260200191505b50848103835289818151815260200191508051906020019080838360005b8381101561015657808201518184015260208101905061013b565b50505050905090810190601f1680156101835780820380516001836020036101000a031916815260200191505b50848103825287818151815260200191508051906020019080838360005b838110156101bc5780820151818401526020810190506101a1565b50505050905090810190601f1680156101e95780820380516001836020036101000a031916815260200191505b50995050505050505050505060405180910390f35b34801561020a57600080fd5b5061040c600480360360a081101561022157600080fd5b810190808035906020019064010000000081111561023e57600080fd5b82018360208201111561025057600080fd5b8035906020019184600183028401116401000000008311171561027257600080fd5b91908080601f016020809104026020016040519081016040528093929190818152602001838380828437600081840152601f19601f820116905080830192505050505050509192919290803590602001906401000000008111156102d557600080fd5b8201836020820111156102e757600080fd5b8035906020019184600183028401116401000000008311171561030957600080fd5b91908080601f016020809104026020016040519081016040528093929190818152602001838380828437600081840152601f19601f820116905080830192505050505050509192919290803563ffffffff1690602001909291908035906020019064010000000081111561037c57600080fd5b82018360208201111561038e57600080fd5b803590602001918460018302840111640100000000831117156103b057600080fd5b91908080601f016020809104026020016040519081016040528093929190818152602001838380828437600081840152601f19601f82011690508083019250505050505050919291929080359060200190929190505050610812565b005b60608060006060600080600087111515610490576040517f08c379a000000000000000000000000000000000000000000000000000000000815260040180806020018281038252601f8152602001807f76616c7565206d7573742062652067726561746572207468616e207a65726f0081525060200191505060405180910390fd5b600360009054906101000a900463ffffffff1663ffffffff168711151515610546576040517f08c379a00000000000000000000000000000000000000000000000000000000081526004018080602001828103825260288152602001807f76616c756520697320686967686572207468616e206c617374206d6f76656d6581526020017f6e7420696e64657800000000000000000000000000000000000000000000000081525060400191505060405180910390fd5b6000610553886001610cf8565b905060048181548110151561056457fe5b906000526020600020906006020160000160048281548110151561058457fe5b90600052602060002090600602016001016004838154811015156105a457fe5b906000526020600020906006020160020160009054906101000a900463ffffffff166004848154811015156105d557fe5b90600052602060002090600602016003016004858154811015156105f557fe5b90600052602060002090600602016004015460048681548110151561061657fe5b906000526020600020906006020160050154858054600181600116156101000203166002900480601f0160208091040260200160405190810160405280929190818152602001828054600181600116156101000203166002900480156106bd5780601f10610692576101008083540402835291602001916106bd565b820191906000526020600020905b8154815290600101906020018083116106a057829003601f168201915b50505050509550848054600181600116156101000203166002900480601f0160208091040260200160405190810160405280929190818152602001828054600181600116156101000203166002900480156107595780601f1061072e57610100808354040283529160200191610759565b820191906000526020600020905b81548152906001019060200180831161073c57829003601f168201915b50505050509450828054600181600116156101000203166002900480601f0160208091040260200160405190810160405280929190818152602001828054600181600116156101000203166002900480156107f55780601f106107ca576101008083540402835291602001916107f5565b820191906000526020600020905b8154815290600101906020018083116107d857829003601f168201915b505050505092509650965096509650965096505091939550919395565b60008363ffffffff161115156108b6576040517f08c379a00000000000000000000000000000000000000000000000000000000081526004018080602001828103825260218152602001807f7175616e74697479206973206e6f742067726561746572207468616e207a657281526020017f6f0000000000000000000000000000000000000000000000000000000000000081525060400191505060405180910390fd5b6103e88363ffffffff16101515610935576040517f08c379a00000000000000000000000000000000000000000000000000000000081526004018080602001828103825260148152602001807f7175616e7469747920697320746f6f206869676800000000000000000000000081525060200191505060405180910390fd5b600085511115156109ae576040517f08c379a00000000000000000000000000000000000000000000000000000000081526004018080602001828103825260158152602001807f7061636b61676520636f646520697320656d707479000000000000000000000081525060200191505060405180910390fd5b60008251111515610a27576040517f08c379a00000000000000000000000000000000000000000000000000000000081526004018080602001828103825260128152602001807f756e697420636f646520697320656d707479000000000000000000000000000081525060200191505060405180910390fd5b610a2f610d59565b60008551148015610a4657508363ffffffff168214155b15610adf576040517f08c379a000000000000000000000000000000000000000000000000000000000815260040180806020018281038252602a8152602001807f507269636520646f6573206e6f7420636f72726573706f6e642077697468206181526020017f20656d707479206665650000000000000000000000000000000000000000000081525060400191505060405180910390fd5b85816000018190525084816020018190525083816040019063ffffffff16908163ffffffff168152505082816060018190525081816080018181525050428160a0018181525050600481908060018154018082558091505090600182039060005260206000209060060201600090919290919091506000820151816000019080519060200190610b70929190610d96565b506020820151816001019080519060200190610b8d929190610d96565b5060408201518160020160006101000a81548163ffffffff021916908363ffffffff1602179055506060820151816003019080519060200190610bd1929190610d96565b506080820151816004015560a08201518160050155505050610c06600360009054906101000a900463ffffffff166001610d11565b600360006101000a81548163ffffffff021916908363ffffffff160217905550610c366002548260800151610d3b565b6002819055503073ffffffffffffffffffffffffffffffffffffffff166000809054906101000a900473ffffffffffffffffffffffffffffffffffffffff1673ffffffffffffffffffffffffffffffffffffffff167f634803569c8df39be5458edd5454c5a425666a63cd029c0eef3680f7c23b33548360800151600254600360009054906101000a900463ffffffff16604051808481526020018381526020018263ffffffff168152602001935050505060405180910390a3505050505050565b6000828211151515610d0657fe5b818303905092915050565b60008082840190508363ffffffff168163ffffffff1610151515610d3157fe5b8091505092915050565b6000808284019050838110151515610d4f57fe5b8091505092915050565b60c0604051908101604052806060815260200160608152602001600063ffffffff1681526020016060815260200160008152602001600081525090565b828054600181600116156101000203166002900490600052602060002090601f016020900481019282601f10610dd757805160ff1916838001178555610e05565b82800160010185558215610e05579182015b82811115610e04578251825591602001919060010190610de9565b5b509050610e129190610e16565b5090565b610e3891905b80821115610e34576000816000905550600101610e1c565b5090565b9056fea165627a7a72305820730d6b5ba8ee7f02903a5f14f73f40091f693393b522fee398773634b02788800029a165627a7a723058201d0acaeb5a180626c9ada0aa87a681ac2ba52c21fc738fd3962a9bd77aee58680029608060405234801561001057600080fd5b50604051602080610f398339810180604052602081101561003057600080fd5b8101908080519060200190929190505050806000806101000a81548173ffffffffffffffffffffffffffffffffffffffff021916908373ffffffffffffffffffffffffffffffffffffffff16021790555033600160006101000a81548173ffffffffffffffffffffffffffffffffffffffff021916908373ffffffffffffffffffffffffffffffffffffffff16021790555050610e67806100d26000396000f3fe60806040526004361061004c576000357c0100000000000000000000000000000000000000000000000000000000900463ffffffff1680638cd981a814610051578063928b5d95146101fe575b600080fd5b34801561005d57600080fd5b5061008a6004803603602081101561007457600080fd5b810190808035906020019092919050505061040e565b6040518080602001806020018763ffffffff1663ffffffff1681526020018060200186815260200185815260200184810384528a818151815260200191508051906020019080838360005b838110156100f05780820151818401526020810190506100d5565b50505050905090810190601f16801561011d5780820380516001836020036101000a031916815260200191505b50848103835289818151815260200191508051906020019080838360005b8381101561015657808201518184015260208101905061013b565b50505050905090810190601f1680156101835780820380516001836020036101000a031916815260200191505b50848103825287818151815260200191508051906020019080838360005b838110156101bc5780820151818401526020810190506101a1565b50505050905090810190601f1680156101e95780820380516001836020036101000a031916815260200191505b50995050505050505050505060405180910390f35b34801561020a57600080fd5b5061040c600480360360a081101561022157600080fd5b810190808035906020019064010000000081111561023e57600080fd5b82018360208201111561025057600080fd5b8035906020019184600183028401116401000000008311171561027257600080fd5b91908080601f016020809104026020016040519081016040528093929190818152602001838380828437600081840152601f19601f820116905080830192505050505050509192919290803590602001906401000000008111156102d557600080fd5b8201836020820111156102e757600080fd5b8035906020019184600183028401116401000000008311171561030957600080fd5b91908080601f016020809104026020016040519081016040528093929190818152602001838380828437600081840152601f19601f820116905080830192505050505050509192919290803563ffffffff1690602001909291908035906020019064010000000081111561037c57600080fd5b82018360208201111561038e57600080fd5b803590602001918460018302840111640100000000831117156103b057600080fd5b91908080601f016020809104026020016040519081016040528093929190818152602001838380828437600081840152601f19601f82011690508083019250505050505050919291929080359060200190929190505050610812565b005b60608060006060600080600087111515610490576040517f08c379a000000000000000000000000000000000000000000000000000000000815260040180806020018281038252601f8152602001807f76616c7565206d7573742062652067726561746572207468616e207a65726f0081525060200191505060405180910390fd5b600360009054906101000a900463ffffffff1663ffffffff168711151515610546576040517f08c379a00000000000000000000000000000000000000000000000000000000081526004018080602001828103825260288152602001807f76616c756520697320686967686572207468616e206c617374206d6f76656d6581526020017f6e7420696e64657800000000000000000000000000000000000000000000000081525060400191505060405180910390fd5b6000610553886001610cf8565b905060048181548110151561056457fe5b906000526020600020906006020160000160048281548110151561058457fe5b90600052602060002090600602016001016004838154811015156105a457fe5b906000526020600020906006020160020160009054906101000a900463ffffffff166004848154811015156105d557fe5b90600052602060002090600602016003016004858154811015156105f557fe5b90600052602060002090600602016004015460048681548110151561061657fe5b906000526020600020906006020160050154858054600181600116156101000203166002900480601f0160208091040260200160405190810160405280929190818152602001828054600181600116156101000203166002900480156106bd5780601f10610692576101008083540402835291602001916106bd565b820191906000526020600020905b8154815290600101906020018083116106a057829003601f168201915b50505050509550848054600181600116156101000203166002900480601f0160208091040260200160405190810160405280929190818152602001828054600181600116156101000203166002900480156107595780601f1061072e57610100808354040283529160200191610759565b820191906000526020600020905b81548152906001019060200180831161073c57829003601f168201915b50505050509450828054600181600116156101000203166002900480601f0160208091040260200160405190810160405280929190818152602001828054600181600116156101000203166002900480156107f55780601f106107ca576101008083540402835291602001916107f5565b820191906000526020600020905b8154815290600101906020018083116107d857829003601f168201915b505050505092509650965096509650965096505091939550919395565b60008363ffffffff161115156108b6576040517f08c379a00000000000000000000000000000000000000000000000000000000081526004018080602001828103825260218152602001807f7175616e74697479206973206e6f742067726561746572207468616e207a657281526020017f6f0000000000000000000000000000000000000000000000000000000000000081525060400191505060405180910390fd5b6103e88363ffffffff16101515610935576040517f08c379a00000000000000000000000000000000000000000000000000000000081526004018080602001828103825260148152602001807f7175616e7469747920697320746f6f206869676800000000000000000000000081525060200191505060405180910390fd5b600085511115156109ae576040517f08c379a00000000000000000000000000000000000000000000000000000000081526004018080602001828103825260158152602001807f7061636b61676520636f646520697320656d707479000000000000000000000081525060200191505060405180910390fd5b60008251111515610a27576040517f08c379a00000000000000000000000000000000000000000000000000000000081526004018080602001828103825260128152602001807f756e697420636f646520697320656d707479000000000000000000000000000081525060200191505060405180910390fd5b610a2f610d59565b60008551148015610a4657508363ffffffff168214155b15610adf576040517f08c379a000000000000000000000000000000000000000000000000000000000815260040180806020018281038252602a8152602001807f507269636520646f6573206e6f7420636f72726573706f6e642077697468206181526020017f20656d707479206665650000000000000000000000000000000000000000000081525060400191505060405180910390fd5b85816000018190525084816020018190525083816040019063ffffffff16908163ffffffff168152505082816060018190525081816080018181525050428160a0018181525050600481908060018154018082558091505090600182039060005260206000209060060201600090919290919091506000820151816000019080519060200190610b70929190610d96565b506020820151816001019080519060200190610b8d929190610d96565b5060408201518160020160006101000a81548163ffffffff021916908363ffffffff1602179055506060820151816003019080519060200190610bd1929190610d96565b506080820151816004015560a08201518160050155505050610c06600360009054906101000a900463ffffffff166001610d11565b600360006101000a81548163ffffffff021916908363ffffffff160217905550610c366002548260800151610d3b565b6002819055503073ffffffffffffffffffffffffffffffffffffffff166000809054906101000a900473ffffffffffffffffffffffffffffffffffffffff1673ffffffffffffffffffffffffffffffffffffffff167f634803569c8df39be5458edd5454c5a425666a63cd029c0eef3680f7c23b33548360800151600254600360009054906101000a900463ffffffff16604051808481526020018381526020018263ffffffff168152602001935050505060405180910390a3505050505050565b6000828211151515610d0657fe5b818303905092915050565b60008082840190508363ffffffff168163ffffffff1610151515610d3157fe5b8091505092915050565b6000808284019050838110151515610d4f57fe5b8091505092915050565b60c0604051908101604052806060815260200160608152602001600063ffffffff1681526020016060815260200160008152602001600081525090565b828054600181600116156101000203166002900490600052602060002090601f016020900481019282601f10610dd757805160ff1916838001178555610e05565b82800160010185558215610e05579182015b82811115610e04578251825591602001919060010190610de9565b5b509050610e129190610e16565b5090565b610e3891905b80821115610e34576000816000905550600101610e1c565b5090565b9056fea165627a7a72305820730d6b5ba8ee7f02903a5f14f73f40091f693393b522fee398773634b02788800029",
  "source": "pragma solidity ^0.5.0;\n\n//import \"github.com/provable-things/ethereum-api/provableAPI_0.5.sol\";\nimport \"./provableAPI_0.5.sol\";\n\nimport \"./SafeMath.sol\";\nimport \"./Pausable.sol\";\n\ncontract UserFactory {\n\n    address owner;\n    address factory;\n    uint    balance;\n    uint32  cont;\n\n    struct Mvt {\n        string code;\n        string fee;\n        uint32 qty;\n        string uni;\n        uint   amount;\n        uint   date;\n    }\n\n    Mvt[] mvts;\n\n    event newMovement(\n        address indexed _owner, address indexed _contract, uint _amount, uint _balance, uint _cont\n    );\n\n    constructor(address _owner) public {\n        owner = _owner;\n        factory = msg.sender;\n    }\n\n    function addMovement(string memory _code, string memory _fee, uint32 _qty, string memory _uni, uint _amount) public {\n        require(_qty > 0,\"quantity is not greater than zero\");\n        require(_qty < 1000,\"quantity is too high\");\n        require(bytes(_code).length > 0,\"package code is empty\");\n        require(bytes(_uni).length > 0,\"unit code is empty\");\n\n        Mvt memory _tx;\n\n        // Si el cdigo de comisin est vaco, los campos amount y qty deben ser iguales (price=1)\n        if (bytes(_fee).length == 0 && _amount != _qty) {\n            revert(\"Price does not correspond with a empty fee\");\n        }\n\n        _tx.code   = _code;\n        _tx.fee    = _fee;\n        _tx.qty    = _qty;\n        _tx.uni    = _uni;\n        _tx.amount = _amount;\n        _tx.date   = now;\n\n        // Incluimos la transaccin en el array de movimientos\n        mvts.push(_tx);\n\n        // Actualizamos el contador de movimientos y el saldo\n        cont = SafeMath.add32(cont,1);\n        balance = SafeMath.add(balance, _tx.amount);\n\n        //emit evento creacin nuevo movimiento\n        emit newMovement(owner, address(this), _tx.amount, balance, cont);\n    }\n\n    function getMovement(uint _ind) external view returns(string memory, string memory, uint32, string memory, uint, uint) {\n        require (_ind > 0,\"value must be greater than zero\");\n        require (_ind <= cont, \"value is higher than last movement index\");\n\n        uint pos = SafeMath.sub(_ind, 1);\n\n        //return (mvts[pos]);\n        return (mvts[pos].code, mvts[pos].fee, mvts[pos].qty, mvts[pos].uni, mvts[pos].amount, mvts[pos].date);\n    }\n\n}\n\ncontract Recycler is Pausable, usingProvable {\n\n    address public owner;\n\n    struct User {\n        uint    balance;\n        uint    dtUltMvt;\n        uint32  contMvts;\n        uint32  seq;\n        UserFactory userContr;\n    }\n\n    struct Mvt {\n        string code;\n        string fee;\n        uint32 qty;\n        string uni;\n    }\n\n    uint32 contUsers;\n    uint   globalBalance;\n    uint   price;\n    Mvt    trans;\n\n    mapping (uint => address) private listaUsers;\n    mapping (address => User) private users;\n\n    event newUser(\n        address indexed _sender, UserFactory indexed _contract, uint32 _seq\n    );\n\n    event newBalance(\n        address indexed _sender, uint _balance\n    );\n\n    //event LogConstructorInitiated(string nextStep);\n    event LogPriceUpdated(string _result);\n    event LogNewProvableQuery(string description);\n\n    constructor() public {\n        owner = msg.sender;\n        createUser();\n        addBalance(10000);\n    }\n\n    function sendCoin(string memory prodCode, string memory prodFee, uint32 prodQty, string memory prodUni) public {\n        require(prodQty > 0,\"quantity is not greater than zero\");\n        require(prodQty < 1000,\"quantity is too high\");\n        //require(bytes(prodFee).length > 0,\"fee code is empty\");\n        require(bytes(prodCode).length > 0,\"package code is empty\");\n        require(bytes(prodUni).length > 0,\"unit code is empty\");\n\n        trans.code = prodCode;\n        trans.fee = prodFee;\n        trans.qty = prodQty;\n        trans.uni = prodUni;\n        //trans.date = 0;\n        //trans.amount = 0;\n\n        if (bytes(prodFee).length > 0) {\n            fetchPrice(prodFee);\n        } else {\n            price = 1;\n            sendCoin_cont();\n        }\n    }\n\n    function sendCoin_cont() internal {\n\n        uint _amount = SafeMath.mul(trans.qty, price);\n\n        createUser();\n        users[msg.sender].dtUltMvt = block.timestamp;\n        users[msg.sender].contMvts = SafeMath.add32(users[msg.sender].contMvts, 1);\n\n        //users[msg.sender].userContr.addMovement(trans);\n        users[msg.sender].userContr.addMovement(trans.code, trans.fee, trans.qty, trans.uni, _amount);\n        addBalance(_amount);\n    }\n\n    function createUser() public {\n\n        if (users[msg.sender].dtUltMvt == 0 && users[msg.sender].contMvts == 0) {\n\n            users[msg.sender].userContr = new UserFactory(msg.sender);\n            users[msg.sender].dtUltMvt = block.timestamp;\n            users[msg.sender].contMvts = 0;\n            users[msg.sender].balance = 0;\n\n            contUsers = SafeMath.add32(contUsers, 1);\n            users[msg.sender].seq = contUsers;\n            listaUsers[contUsers] = msg.sender;\n\n            emit newUser(msg.sender, users[msg.sender].userContr, users[msg.sender].seq);\n        }\n    }\n\n    function deleteUser() public {\n\n        if (users[msg.sender].dtUltMvt != 0) {\n\n            listaUsers[users[msg.sender].seq] = address(0);\n            globalBalance = SafeMath.sub(globalBalance, users[msg.sender].balance);\n\n            users[msg.sender].balance = 0;\n            users[msg.sender].dtUltMvt = 0;\n            users[msg.sender].contMvts = 0;\n            users[msg.sender].seq = 0;\n        }\n    }\n\n    function addBalance(uint _amount) internal {\n\n        users[msg.sender].balance = SafeMath.add(users[msg.sender].balance,_amount);\n        globalBalance = SafeMath.add(globalBalance, _amount);\n\n        emit newBalance(msg.sender, users[msg.sender].balance);\n    }\n\n    function getBalance(address _addr) public view returns(uint) {\n        return users[_addr].balance;\n    }\n\n    function getGlobalBalance() public view returns(uint) {\n        return globalBalance;\n    }\n\n    function getMovement(uint _ind) external view returns(uint, uint) {\n        users[msg.sender].userContr.getMovement(_ind);\n    }\n\n    function withdrawal(uint _amount) public returns(uint) {\n        require(users[msg.sender].balance >= _amount,\"not enough balance\");\n        require(globalBalance >= _amount,\"not enough global balance\");\n\n        users[msg.sender].balance = SafeMath.sub(users[msg.sender].balance,_amount);\n        globalBalance = SafeMath.sub(globalBalance,_amount);\n\n        return users[msg.sender].balance;\n    }\n\n\n   function __callback(bytes32 myid, string memory _result) public {\n       if (msg.sender != provable_cbAddress()) revert();\n       price = parseInt(_result);\n       emit LogPriceUpdated(_result);\n\n       sendCoin_cont();\n   }\n\n   function fetchPrice(string memory _fee) public payable {\n       require(bytes(_fee).length > 0,\"fee code is empty\");\n\n       if (provable_getPrice(\"URL\") > address(this).balance) {\n           emit LogNewProvableQuery(\"Provable letquery was NOT sent, please add some ETH to cover for the query fee\");\n       } else {\n           string memory _url = string(abi.encodePacked(\"json(https://api.mlab.com/api/1/databases/productos/collections/fees?apiKey=1KuXCnUSqfOGDAoKSZHENTSFBBlu4d6n).0.result.\", _fee, \".price\"));\n\n           emit LogNewProvableQuery(\"Provable query was sent, standing by for the answer..\");\n           provable_query(\"URL\", _url);\n\n           //provable_query(\"nested\", \"[URL] ['json(json(https://api.mlab.com/api/1/databases/productos/collections/fees?apiKey=${[decrypt]BPssDAFd3BExbW4l0ee1RNV45pvdhOita1bwVtTzVu7aRvHoFZhuNCuuZnC8wzm6GUQ3yTz18+B2vnoADbHHpRc9NcMb/YZOwXo0sJsM5paIGll6oYEqpjWMQQ3eEISzGkE0/JMIHiDyG1SpiYI3bYg=}).0.result.F0101.price\");\n//provable_query(\"nested\", \"[URL] ['json(https://api.mlab.com/api/1/databases/productos/collections/fees?apiKey=${[decrypt] BPssDAFd3BExbW4l0ee1RNV45pvdhOita1bwVtTzVu7aRvHoFZhuNCuuZnC8wzm6GUQ3yTz18+B2vnoADbHHpRc9NcMb/YZOwXo0sJsM5paIGll6oYEqpjWMQQ3eEISzGkE0/JMIHiDyG1SpiYI3bYg=}).0.result.F0101.price']\");\n           //Funciona\n           //[URL] ['json(https://api.mlab.com/api/1/databases/productos/collections/fees?apiKey=1KuXCnUSqfOGDAoKSZHENTSFBBlu4d6n).0.result.F0101.price']\n           //Pendiente de probar - Se queda colgado y no devuelve resultados\n           //[URL] ['json(https://api.mlab.com/api/1/databases/productos/collections/fees?apiKey=${[decrypt] BPssDAFd3BExbW4l0ee1RNV45pvdhOita1bwVtTzVu7aRvHoFZhuNCuuZnC8wzm6GUQ3yTz18+B2vnoADbHHpRc9NcMb/YZOwXo0sJsM5paIGll6oYEqpjWMQQ3eEISzGkE0/JMIHiDyG1SpiYI3bYg=}).0.result.F0101.price']\n       }\n   }\n\n    function kill() public payable onlyOwner {\n        require (globalBalance == 0, \"global balance is not zero\");\n        selfdestruct(msg.sender);\n    }\n\n    // Fallback function - Called if other functions don't match call or\n    // sent ether without data\n    // Typically, called when invalid data is sent\n    // Added so ether sent to this contract is reverted if the contract fails\n    // otherwise, the sender's money is transferred to contract\n    function () external payable {\n        revert();\n    }\n\n}\n",
  "sourcePath": "/home/lealp22/dapp_PEC1/contracts/Recycler.sol",
  "compiler": {
    "name": "solc",
    "version": "0.5.0+commit.1d4f565a.Emscripten.clang"
  },
  "schemaVersion": "3.0.11",
  "updatedAt": "2019-08-23T01:53:52.612Z",
  "devdoc": {
    "methods": {
      "pause()": {
        "details": "called by the owner to pause, triggers stopped state"
      },
      "transferOwnership(address)": {
        "details": "Allows the current owner to transfer control of the contract to a newOwner.",
        "params": {
          "newOwner": "The address to transfer ownership to."
        }
      },
      "unpause()": {
        "details": "called by the owner to unpause, returns to normal state"
      }
    }
  },
  "userdoc": {
    "methods": {}
  }
}