{
  "contractName": "UserFactory",
  "abi": [
    {
      "inputs": [
        {
          "name": "_owner",
          "type": "address"
        }
      ],
      "payable": false,
      "stateMutability": "nonpayable",
      "type": "constructor"
    },
    {
      "anonymous": false,
      "inputs": [
        {
          "indexed": true,
          "name": "_owner",
          "type": "address"
        },
        {
          "indexed": true,
          "name": "_contract",
          "type": "address"
        },
        {
          "indexed": false,
          "name": "_amount",
          "type": "uint256"
        },
        {
          "indexed": false,
          "name": "_balance",
          "type": "uint256"
        },
        {
          "indexed": false,
          "name": "_cont",
          "type": "uint256"
        }
      ],
      "name": "newMovement",
      "type": "event"
    },
    {
      "constant": false,
      "inputs": [
        {
          "name": "_amount",
          "type": "uint256"
        }
      ],
      "name": "addMovement",
      "outputs": [],
      "payable": false,
      "stateMutability": "nonpayable",
      "type": "function"
    },
    {
      "constant": true,
      "inputs": [
        {
          "name": "_ind",
          "type": "uint256"
        }
      ],
      "name": "getMovement",
      "outputs": [
        {
          "name": "",
          "type": "uint256"
        },
        {
          "name": "",
          "type": "uint256"
        }
      ],
      "payable": false,
      "stateMutability": "view",
      "type": "function"
    }
  ],
  "bytecode": "0x608060405234801561001057600080fd5b506040516020806105238339810180604052602081101561003057600080fd5b8101908080519060200190929190505050806000806101000a81548173ffffffffffffffffffffffffffffffffffffffff021916908373ffffffffffffffffffffffffffffffffffffffff16021790555033600160006101000a81548173ffffffffffffffffffffffffffffffffffffffff021916908373ffffffffffffffffffffffffffffffffffffffff16021790555050610451806100d26000396000f3fe60806040526004361061004c576000357c0100000000000000000000000000000000000000000000000000000000900463ffffffff1680638cd981a814610051578063f9d00206146100a7575b600080fd5b34801561005d57600080fd5b5061008a6004803603602081101561007457600080fd5b81019080803590602001909291905050506100e2565b604051808381526020018281526020019250505060405180910390f35b3480156100b357600080fd5b506100e0600480360360208110156100ca57600080fd5b8101908080359060200190929190505050610261565b005b60008060008311151561015d576040517f08c379a000000000000000000000000000000000000000000000000000000000815260040180806020018281038252601f8152602001807f76616c7565206d7573742062652067726561746572207468616e207a65726f0081525060200191505060405180910390fd5b6001600360009054906101000a900463ffffffff160163ffffffff168311151515610216576040517f08c379a00000000000000000000000000000000000000000000000000000000081526004018080602001828103825260288152602001807f76616c756520697320686967686572207468616e206c617374206d6f76656d6581526020017f6e7420696e64657800000000000000000000000000000000000000000000000081525060400191505060405180910390fd5b60048381548110151561022557fe5b90600052602060002090600202016000015460048481548110151561024657fe5b90600052602060002090600202016001015491509150915091565b806004600360009054906101000a900463ffffffff1663ffffffff1681548110151561028957fe5b906000526020600020906002020160000181905550426004600360009054906101000a900463ffffffff1663ffffffff168154811015156102c657fe5b9060005260206000209060020201600101819055506102f8600360009054906101000a900463ffffffff1660016103dd565b600360006101000a81548163ffffffff021916908363ffffffff16021790555061032460025482610407565b6002819055503073ffffffffffffffffffffffffffffffffffffffff166000809054906101000a900473ffffffffffffffffffffffffffffffffffffffff1673ffffffffffffffffffffffffffffffffffffffff167f634803569c8df39be5458edd5454c5a425666a63cd029c0eef3680f7c23b335483600254600360009054906101000a900463ffffffff16604051808481526020018381526020018263ffffffff168152602001935050505060405180910390a350565b60008082840190508363ffffffff168163ffffffff16101515156103fd57fe5b8091505092915050565b600080828401905083811015151561041b57fe5b809150509291505056fea165627a7a72305820e18b39787b9ed7103183793e009c7df1982091e4be301eb2d2be2aabebc343050029",
  "source": "pragma solidity ^0.5.0;\n\n//import \"github.com/provable-things/ethereum-api/provableAPI_0.5.sol\";\nimport \"./provableAPI_0.5.sol\";\n\nimport \"./SafeMath.sol\";\nimport \"./Pausable.sol\";\n\ncontract UserFactory {\n\n    address owner;\n    address factory;\n    uint    balance;\n    uint32  cont;\n\n    struct Mvt {\n        uint   mvtoAmount;\n        uint   mvtoDate;\n    }\n\n    Mvt[] mvts;\n\n    event newMovement(\n        address indexed _owner, address indexed _contract, uint _amount, uint _balance, uint _cont\n    );\n\n    constructor(address _owner) public {\n        owner = _owner;\n        factory = msg.sender;\n    }\n\n    function addMovement(uint _amount) public {\n        mvts[cont].mvtoAmount = _amount;\n        mvts[cont].mvtoDate = now;\n\n        cont = SafeMath.add32(cont,1);\n        balance = SafeMath.add(balance,_amount);\n\n        emit newMovement(owner, address(this), _amount, balance, cont);\n    }\n\n    function getMovement(uint _ind) external view returns(uint, uint) {\n        require (_ind > 0,\"value must be greater than zero\");\n        require (_ind <= cont+1, \"value is higher than last movement index\");\n\n        return (mvts[_ind].mvtoAmount, mvts[_ind].mvtoDate);\n    }\n\n}\n\ncontract Recycler is Pausable, usingProvable {\n\n    address public owner;\n\n    struct User {\n        uint    balance;\n        uint    dtUltMvt;\n        uint32  contMvts;\n        uint32  seq;\n        UserFactory userContr;\n    }\n\n    uint32 contUsers;\n    uint   globalBalance;\n    uint   price;\n\n    mapping (uint => address) private listaUsers;\n    mapping (address => User) private users;\n\n    event newUser(\n        address indexed _sender, UserFactory indexed _contract, uint32 _seq\n    );\n\n    event newBalance(\n        address indexed _sender, uint _balance\n    );\n\n    //event LogConstructorInitiated(string nextStep);\n    event LogPriceUpdated(string price);\n    event LogNewProvableQuery(string description);\n\n    constructor() public {\n        owner = msg.sender;\n        createUser();\n        addBalance(10000);\n    }\n\n    function sendCoin(uint _amount) public {\n        require(_amount > 0,\"amount is not greater than zero\");\n        require(_amount < 10000,\"amount is too high\");\n\n        createUser();\n        users[msg.sender].dtUltMvt = block.timestamp;\n        users[msg.sender].contMvts = SafeMath.add32(users[msg.sender].contMvts, 1);\n\n        users[msg.sender].userContr.addMovement(_amount);\n        addBalance(_amount);\n    }\n\n    function createUser() public {\n\n        if (users[msg.sender].dtUltMvt == 0 && users[msg.sender].contMvts == 0) {\n\n            users[msg.sender].userContr = new UserFactory(msg.sender);\n            users[msg.sender].dtUltMvt = block.timestamp;\n            users[msg.sender].contMvts = 0;\n            users[msg.sender].balance = 0;\n\n            contUsers = SafeMath.add32(contUsers, 1);\n            users[msg.sender].seq = contUsers;\n            listaUsers[contUsers] = msg.sender;\n\n            emit newUser(msg.sender, users[msg.sender].userContr, users[msg.sender].seq);\n        }\n    }\n\n    function deleteUser() public {\n\n        if (users[msg.sender].dtUltMvt != 0) {\n\n            listaUsers[users[msg.sender].seq] = address(0);\n            globalBalance = SafeMath.sub(globalBalance, users[msg.sender].balance);\n\n            users[msg.sender].balance = 0;\n            users[msg.sender].dtUltMvt = 0;\n            users[msg.sender].contMvts = 0;\n            users[msg.sender].seq = 0;\n        }\n    }\n\n    function addBalance(uint _amount) internal {\n\n        users[msg.sender].balance = SafeMath.add(users[msg.sender].balance,_amount);\n        globalBalance = SafeMath.add(globalBalance, _amount);\n\n        emit newBalance(msg.sender, users[msg.sender].balance);\n    }\n\n    function getBalance(address _addr) public view returns(uint) {\n        return users[_addr].balance;\n    }\n\n    function getGlobalBalance() public view returns(uint) {\n        return globalBalance;\n    }\n\n    function getMovement(uint _ind) external view returns(uint, uint) {\n        users[msg.sender].userContr.getMovement(_ind);\n    }\n\n    function withdrawal(uint _amount) public returns(uint) {\n        require(users[msg.sender].balance >= _amount,\"not enough balance\");\n        require(globalBalance >= _amount,\"not enough global balance\");\n\n        users[msg.sender].balance = SafeMath.sub(users[msg.sender].balance,_amount);\n        globalBalance = SafeMath.sub(globalBalance,_amount);\n\n        return users[msg.sender].balance;\n    }\n\n\n   function __callback(bytes32 myid, string memory _result) public {\n       if (msg.sender != provable_cbAddress()) revert();\n       price = parseInt(_result);\n       emit LogPriceUpdated(_result);\n   }\n\n   function updatePrice(string memory _fee) public payable {\n       require(bytes(_fee).length > 0,\"fee code is empty\");\n\n       if (provable_getPrice(\"URL\") > address(this).balance) {\n           emit LogNewProvableQuery(\"Provable query was NOT sent, please add some ETH to cover for the query fee\");\n       } else {\n           string memory _url = string(abi.encodePacked(\"json(https://api.mlab.com/api/1/databases/productos/collections/fees?apiKey=1KuXCnUSqfOGDAoKSZHENTSFBBlu4d6n).0.result.\", _fee, \".price\"));\n\n           emit LogNewProvableQuery(\"Provable query was sent, standing by for the answer..\");\n           provable_query(\"URL\", _url);\n\n           //provable_query(\"nested\", \"[URL] ['json(json(https://api.mlab.com/api/1/databases/productos/collections/fees?apiKey=${[decrypt]BPssDAFd3BExbW4l0ee1RNV45pvdhOita1bwVtTzVu7aRvHoFZhuNCuuZnC8wzm6GUQ3yTz18+B2vnoADbHHpRc9NcMb/YZOwXo0sJsM5paIGll6oYEqpjWMQQ3eEISzGkE0/JMIHiDyG1SpiYI3bYg=}).0.result.F0101.price\");\n//provable_query(\"nested\", \"[URL] ['json(https://api.mlab.com/api/1/databases/productos/collections/fees?apiKey=${[decrypt] BPssDAFd3BExbW4l0ee1RNV45pvdhOita1bwVtTzVu7aRvHoFZhuNCuuZnC8wzm6GUQ3yTz18+B2vnoADbHHpRc9NcMb/YZOwXo0sJsM5paIGll6oYEqpjWMQQ3eEISzGkE0/JMIHiDyG1SpiYI3bYg=}).0.result.F0101.price']\");\n           //Funciona\n           //[URL] ['json(https://api.mlab.com/api/1/databases/productos/collections/fees?apiKey=1KuXCnUSqfOGDAoKSZHENTSFBBlu4d6n).0.result.F0101.price']\n           //Pendiente de probar - Se queda colgado y no devuelve resultados\n           //[URL] ['json(https://api.mlab.com/api/1/databases/productos/collections/fees?apiKey=${[decrypt] BPssDAFd3BExbW4l0ee1RNV45pvdhOita1bwVtTzVu7aRvHoFZhuNCuuZnC8wzm6GUQ3yTz18+B2vnoADbHHpRc9NcMb/YZOwXo0sJsM5paIGll6oYEqpjWMQQ3eEISzGkE0/JMIHiDyG1SpiYI3bYg=}).0.result.F0101.price']\n       }\n   }\n\n    function kill() public payable onlyOwner {\n        require (globalBalance == 0, \"global balance is not zero\");\n        selfdestruct(msg.sender);\n    }\n\n    // Fallback function - Called if other functions don't match call or\n    // sent ether without data\n    // Typically, called when invalid data is sent\n    // Added so ether sent to this contract is reverted if the contract fails\n    // otherwise, the sender's money is transferred to contract\n    function () external payable {\n        revert();\n    }\n\n}\n",
  "sourcePath": "/home/lealp22/dapp_PEC1/contracts/Recycler.sol",
  "compiler": {
    "name": "solc",
    "version": "0.5.0+commit.1d4f565a.Emscripten.clang"
  },
  "schemaVersion": "3.0.11",
  "updatedAt": "2019-08-19T23:35:57.300Z",
  "devdoc": {
    "methods": {}
  },
  "userdoc": {
    "methods": {}
  }
}